:100000000C94E0000C9408010C9408010C94080175
:100010000C9408010C9408010C9408010C9408013C
:100020000C9408010C9408010C9408010C9408012C
:100030000C9408010C94241B0C9408010C940801E6
:100040000C94BB190C9408010C9489190C94631935
:100050000C9408010C9408010C9408010C940801FC
:100060000C94051A0C94080108000000BE92244963
:10007000123EABAAAA2ABECDCCCC4C3E00000080DA
:10008000BEABAAAAAA3E00000000BF000000803F4D
:100090000000000000084178D3BB4387D1133D190D
:1000A0000E3CC3BD4282AD2B3E68EC8276BED98F3A
:1000B000E1A93E4C80EFFFBE01C4FF7F3F0000007E
:1000C00000004361726420496E697469616C697AE9
:1000D0006174696F6E204661696C65642E005254CC
:1000E00043206E6F742072756E6E696E672E2E2EB1
:1000F0000053656E736F727320537461727465641C
:100100002E0073746172740053656E736F72732086
:1001100053746F707065642E0073746F70002400E8
:100120003A003A0020002F002F0046696C652049F4
:100130004F204572726F722E007C3C3E5E2B3D3F1D
:100140002F5B5D3B2C2A225C00000000002400276E
:10015000002A0000000000250028002B00040404F1
:100160000404040404020202020202030303030360
:10017000030102040810204080010204081020013D
:10018000020408102000000008000201000003041F
:100190000700000000000000002E6C6F6700496E31
:1001A000697469616C697A6174696F6E2046696E01
:1001B00069736865642E00546865726D00004B1B9E
:1001C00011241FBECFEFD8E0DEBFCDBF25E0A4E8ED
:1001D000B1E001C01D92AB39B207E1F711E0A0E038
:1001E000B1E0EEEBF6E402C005900D92A438B10741
:1001F000D9F710E0C0EED0E004C02197FE010E94C4
:100200003021CF3DD107C9F70E94CA1B0C945D2352
:100210000C940000982F2091550481E0213208F0C1
:1002200043C0809131048111FCCF8091540432E0AD
:1002300030933104909330049FEF90932F041092E9
:100240002E0420932D04A4E3B4E0EDE0F4E090E06C
:10025000291331C010920C0490910C04880F892B43
:1002600080930C0480910B04813049F510920B04AB
:1002700080910C048093BB008091BC0083FDF8CF7B
:1002800085EC8093BC00809131048230E1F3809151
:100290002F048F3FB1F080912F048032A1F0809124
:1002A0002F04803391F084E01092330410925504AF
:1002B0001092320408953D9131939F5FC9CF85EE2E
:1002C000E0CF80E0F1CF82E0EFCF83E0EDCFE6E555
:1002D000F4E0A089B18982E08C93A485B5851C9255
:1002E000A685B78580E18C93108EA489B58986E0B8
:1002F0008C93A289B3898C9180618C93A289B389F4
:100300008C9188608C93A289B3898C9180688C933E
:100310000288F389E02D80818F7D80830895089580
:10032000EF92FF920F931F93CF93DF938C017B018A
:10033000D0E0C0E0F701EC0FFD1F6491662361F08F
:10034000D801ED91FC910190F081E02DC801099553
:10035000892B11F02196EECFCE01DF91CF911F9125
:100360000F91FF90EF900895AF92BF92CF92DF92DE
:10037000EF92FF920F931F93CF93DF936C017B015A
:100380008B01040F151FEB015E01AE18BF08C017EB
:10039000D10759F06991D601ED91FC910190F0815E
:1003A000E02DC6010995892B79F7C501DF91CF9121
:1003B0001F910F91FF90EF90DF90CF90BF90AF9083
:1003C00008950895FC01538D448D252F30E0842F2E
:1003D00090E0821B930B541710F0CF96089501976D
:1003E0000895FC01918D828D981761F0A28DAE0F5A
:1003F000BF2FB11D5D968C91928D9F5F9F73928FE1
:1004000090E008958FEF9FEF0895FC01918D828D0C
:10041000981731F0828DE80FF11D858D90E00895D9
:100420008FEF9FEF0895FC01918D228D892F90E031
:10043000805C9F4F821B91098F739927089586E5F1
:1004400094E00E94130221E0892B09F420E0822F1E
:100450000895FC01A48DA80FB92FB11DA35ABF4F59
:100460002C91848D90E001968F739927848FA689B3
:10047000B7892C93A089B1898C91837080648C9307
:10048000938D848D981306C00288F389E02D8081B6
:100490008F7D80830895EF92FF920F931F93CF93E8
:1004A000DF93EC0181E0888F9B8D8C8D98131AC0AF
:1004B000E889F989808185FF15C09FB7F894EE8996
:1004C000FF896083E889F9898081837080648083F3
:1004D0009FBF81E090E0DF91CF911F910F91FF903E
:1004E000EF900895F62E0B8D10E00F5F1F4F0F73E6
:1004F0001127E02E8C8D8E110CC00FB607FCFACFA1
:10050000E889F989808185FFF5CFCE010E94290213
:10051000F1CFEB8DEC0FFD2FF11DE35AFF4FF08271
:100520009FB7F8940B8FEA89FB8980818062CFCFD7
:10053000CF93DF93EC01888D8823B9F0AA89BB891A
:10054000E889F9898C9185FD03C0808186FD0DC005
:100550000FB607FCF7CF8C9185FFF2CF808185FF26
:10056000EDCFCE010E942902E9CFDF91CF9108950E
:1005700090E0FC01EB57FE4F2491FC01EF58FE4F39
:100580003491FC01E35AFE4FE491EE23C9F022239B
:1005900039F0233001F1A8F4213019F1223029F18A
:1005A000F0E0EE0FFF1FED5AFE4FA591B4918FB70B
:1005B000F894EC91611126C030953E233C938FBF97
:1005C00008952730A9F02830C9F0243049F78091E8
:1005D00080008F7D03C0809180008F7780938000A2
:1005E000DFCF84B58F7784BDDBCF84B58F7DFBCF24
:1005F0008091B0008F778093B000D2CF8091B0000F
:100600008F7DF9CF3E2BDACFCF93DF9390E0FC01C3
:10061000EF58FE4F2491835A9E4FFC01849188230A
:10062000D1F090E0880F991FFC01E75BFE4FA59188
:10063000B491FC01ED5AFE4FC591D49161110EC0E9
:100640009FB7F8948C91E22FE0958E238C932881AC
:10065000E223E8839FBFDF91CF9108958FB7F8948D
:10066000EC91E22BEC938FBFF6CF3FB7F8948091DB
:10067000DC039091DD03A091DE03B091DF0326B58A
:10068000A89B05C02F3F19F00196A11DB11D3FBFCA
:10069000BA2FA92F982F8827BC01CD01620F711D99
:1006A000811D911D42E0660F771F881F991F4A9593
:1006B000D1F708952FB7F8946091D8037091D903BA
:1006C0008091DA039091DB032FBF08950F931F935E
:1006D0000E945A0360935E0470935F0480936004E9
:1006E0009093610486E594E00E94F10197FF1DC09C
:1006F0000E945A0300915E0410915F0420916004EF
:1007000030916104601B710B820B930B00915A04B2
:1007100010915B0420915C0430915D0460177107B7
:1007200082079307F8F28FEF9FEF1F910F910895C3
:1007300085ED8093BC008091BC0084FDFCCF1092BD
:10074000310408952091B203260F3327331F21323D
:100750003105ECF420913104FC0190E080E024307C
:1007600069F082E00895A091B2032191AC01405755
:100770005C4FA40FB52FB11D2C930196861798F3EB
:100780008091B203680F6093B20380E0089581E026
:10079000089508950895E091EA038091E903E81728
:1007A00030F4F0E0E551FC4F808190E008958FEF48
:1007B0009FEF08959091EA038091E9032FEF3FEFB7
:1007C000981748F4E92FF0E0E551FC4F208130E024
:1007D0009F5F9093EA03C90108958091E903909186
:1007E000EA03891B990B0895CF92DF92EF92FF9253
:1007F0000F931F93CF93DF937C01CB018A0120914C
:100800003204222389F0EB016B01C40ED51ECC15F6
:10081000DD0569F06991D701ED91FC910190F081BE
:10082000E02DC7010995F3CF642F0E94A203C801F0
:10083000DF91CF911F910F91FF90EF90DF90CF90BC
:100840000895CF93DF931F92CDB7DEB769832091D0
:1008500032042223F9F020915504203258F021E08F
:1008600030E0FC013383228390E080E00F90DF9141
:10087000CF91089580913304E82FF0E0EC5CFB4FBA
:10088000998190838F5F809333048093550481E036
:1008900090E0ECCF61E0CE0101960E94A203F7CF79
:1008A00090E080E008958FB7F894809186018FBF23
:1008B000089561E0FC0184810E94B8028091850165
:1008C00081111092850108958EBD00000DB407FEC0
:1008D000FDCF8EB508958FEF0C9464040F931F9392
:1008E000CF93DF93EC010E945A038B010E946B04AB
:1008F0008F3F69F00E945A03601B710B6C177D07D4
:10090000A8F380E0DF91CF911F910F91089581E0CE
:10091000F9CF8CBD9DBD0895CF93DF93EC018091FD
:100920008501811109C081E0809385018091FF04D8
:10093000909100050E94890460E08C81DF91CF9145
:100940000C94B8028F929F92AF92BF92FF920F9336
:100950001F93CF93DF93EC01F62E49015A018E814C
:10096000882389F08F8198859C012F5F3F4F3887BE
:100970002F838230924018F40E946B04F3CFCE0193
:100980000E9459041E82CE010E948C048CE291E0E8
:100990000E946E048F2D80640E94640408E110E0C0
:1009A000D501C401002E04C0B695A79597958795EB
:1009B0000A94D2F70E94640408501109083F8FEF8F
:1009C000180771F785E9FF2021F028E087E8F21287
:1009D0008FEF0E94640410E00E946B048A8787FFF7
:1009E00004C01F3F11F01F5FF7CFDF91CF911F9120
:1009F0000F91FF90BF90AF909F908F900895AF920E
:100A0000BF92CF92DF92EF92FF920F931F93CF93FB
:100A1000DF93EC016901C801820F931F813092407E
:100A200050F58E81882379F088819981AA81BB81D4
:100A300084179507A607B70731F48F819885C816E4
:100A4000D90608F042C0488359836A837B838B852B
:100A5000833039F089E0440F551F661F771F8A9550
:100A6000D1F79A01AB0161E1CE010E94A204882373
:100A700089F083E08D83CE010E94590480E0DF91EC
:100A8000CF911F910F91FF90EF90DF90CF90BF908B
:100A9000AF9008950E945A035B010E946B048A87FD
:100AA0008F3F69F40E945A036A197B096D327140C5
:100AB000A0F38FE08D83CE010E945904DCCF8E3FDE
:100AC00089F418861F8281E08E838F8198858C152A
:100AD0009D0550F40E946B048F819885019698873C
:100AE0008F83F3CF8DE0E6CF6701E00EF11E0E9409
:100AF0006B04F60181936F01EE15FF05C1F78F813D
:100B00009885080F191F18870F838985882319F086
:100B100001151240A0F08E81882389F08F8198857D
:100B20009C012F5F3F4F38872F838230924018F40B
:100B30000E946B04F3CFCE010E9459041E8281E013
:100B40009ECFCF92DF92EF92FF920F93CF93DF93DE
:100B5000EC01690182E1411551056105710599F0CA
:100B60008B85833039F089E0440F551F661F771F4E
:100B70008A95D1F79A01AB0168E1CE010E94A204E7
:100B8000882319F084E08D832DC08EEF0E946404C9
:100B900076018EEFD81AF70181917F010E946404DB
:100BA000EC14FD04C1F78FEF0E9464048FEF0E94E4
:100BB00064040E946B048A878F71853071F401117F
:100BC00016C0CE010E94590481E0DF91CF910F91B0
:100BD000FF90EF90DF90CF90089581E18D83CE015B
:100BE0000E945904CE010E94590480E0EECF88E5AE
:100BF00092E00E946E04811102C085E1C4CF20E022
:100C000030E0A9016DE0CE010E94A204882311F01A
:100C100084E1B9CF0E946B048111FACFD2CF0F9338
:100C2000409188015091890160918A0170918B01F6
:100C3000411551056105710599F0082F2CE831E047
:100C400080918C0390918D030E94A105882349F027
:100C5000109288011092890110928A0110928B01E2
:100C600081E00F9108950F93CF93C82F8091870152
:100C7000811105C0C1E08C2FCF910F910895409153
:100C800000015091010160910201709103010C2F4C
:100C90002CE831E080918C0390918D030E94A10596
:100CA000811102C0C0E0E7CFCC2321F381E00E9494
:100CB0000F068823B9F310928701DDCF8F929F92A0
:100CC000AF92BF92EF92FF920F931F93CF934B017E
:100CD0005C01C42F8091000190910101A09102015B
:100CE000B091030188159905AA05BB0551F181E072
:100CF0000E94330681110BC080E0CF911F910F91AC
:100D0000FF90EF90BF90AF909F908F9008958CE8E8
:100D1000E82E81E0F82E00E012E030E020E0B5019E
:100D2000A40180918C0390918D030E94FF0488237D
:100D300019F38092000190920101A0920201B092F9
:100D40000301409187014C2B4093870181E0D5CF6F
:100D50008F929F92AF92BF92CF92DF92EF92FF92CB
:100D60000F931F93CF93DF93EC0170938D036093E8
:100D70008C03442309F46AC040E060E070E0CB01DA
:100D80000E945E0681110EC080E0DF91CF911F911D
:100D90000F91FF90EF90DF90CF90BF90AF909F901A
:100DA0008F90089580914A038F7771F78091560351
:100DB00090915703A0915803B0915903843691053F
:100DC000A105B10508F3C0905203D0905303E09001
:100DD0005403F0905503C114D104E104F104A1F2CD
:100DE00040E0C701B6010E945E06882369F2809147
:100DF0009701909198018115924031F690919C0154
:100E0000992311F220919A0130919B01232B09F42F
:100E1000BBCF80919901882309F4B6CF9A8B8C833C
:100E20001D8690E041E050E02D85E22FBA01022EB0
:100E300002C0660F771F0A94E2F78617970751F0F2
:100E400031E0320F3D87283078F39ECFC12CD12C72
:100E50007601C6CF2091A2013091A30150E040E07D
:100E60002115310541F42091B0013091B10140913B
:100E7000B2015091B3012D833E834F8358878091F7
:100E80009A0190919B0146015701880E991EA11C61
:100E9000B11C8B8A9C8AAD8ABE8A00919D011091FB
:100EA0009E01198F088FA0919C01B0E00E94421F03
:100EB000DC01CB01880D991DAA1DBB1D8A8F9B8F5C
:100EC000AC8FBD8F25E0000F111F2A95E1F701506F
:100ED0001E4F012F11270695800F911FA11DB11DD7
:100EE0008E879F87A88BB98B00919F011091A001DD
:100EF00030E020E00115110541F40091AC011091A2
:100F0000AD012091AE013091AF01C81AD90AEA0AA9
:100F1000FB0AC00ED11EE21EF31E04C0F694E79435
:100F2000D794C794EA95D2F7C986DA86EB86FC8611
:100F300085EFC8168FE0D806E104F10420F48CE0B8
:100F40008F8B81E022CF80E125EFC2162FEFD206F2
:100F5000E104F104A8F38091B8019091B901A09146
:100F6000BA01B091BB018A8F9B8FAC8FBD8F80E29D
:100F7000E7CF4F925F926F927F928F929F92AF9244
:100F8000BF92CF92DF92EF92FF920F931F93CF9376
:100F9000DF93EC01423051056105710590F480E06A
:100FA000DF91CF911F910F91FF90EF90DF90CF9045
:100FB000BF90AF909F908F907F906F905F904F9079
:100FC000089589859A85AB85BC850196A11DB11DC3
:100FD00084179507A607B70710F3CB88DC88ED8840
:100FE000FE888F89803109F042C0BB27A72F962F3A
:100FF000852F480159012A013B01C80ED91EEA1E5E
:10100000FB1E8091000190910101A0910201B0911D
:101010000301C816D906EA06FB0699F58F898031C7
:10102000C1F5B301A201552766277727440F551F45
:1010300044575E4FFA0191828082809187018160DE
:10104000809387018A89823080F08D819E81AF8173
:10105000B8858C0D9D1DAE1DBF1D8093880190939A
:101060008901A0938A01B0938B0181E099CFDB01C4
:10107000CA01E7E0B695A79597958795EA95D1F7C8
:10108000B8CF40E0C701B6010E945E068111C6CF0D
:1010900086CFB301A2014F77552766277727440FE4
:1010A000551F440F551F44575E4FFA0180829182AD
:1010B000A282B382C2CF8F929F92AF92BF92CF9201
:1010C000DF92EF92FF920F931F93CF93DF93FC0178
:1010D00081859285A385B4850196A11DB11D8417D4
:1010E0009507A607B70770F480E0DF91CF911F91B5
:1010F0000F91FF90EF90DF90CF90BF90AF909F90B7
:101100008F90089583889488A588B68887898031D0
:1011100089F5BB27A72F962F852FE9016A017B014F
:101120008F01BC01CD01680D791D8A1D9B1D80902A
:10113000000190900101A0900201B0900301861679
:101140009706A806B90601F5F8018789803111F5DF
:10115000DD24EE24FF24F601EE0FFF1FE457FE4FBF
:1011600080819181B0E0A0E088839983AA83BB83CA
:1011700081E0BBCFDB01CA01C7E0B695A795979583
:101180008795CA95D1F7C9CF40E00E945E068111CC
:10119000DBCFAACFE894C7F8DD24EE24FF24F601C4
:1011A000EE0FFF1FEE0FFF1FE457FE4F808191816E
:1011B000A281B381BF70D8CF4F925F926F927F921E
:1011C000AF92BF92CF92DF92EF92FF920F931F9355
:1011D000CF93DF9300D000D0CDB7DEB78C01498329
:1011E0005A836B837C835901C12CD12C7601412C0D
:1011F00082E0582E612C712C49815A816B817C814F
:101200009E012F5F3F4FC8010E945B08882339F180
:10121000F8018585A301920104C0220F331F441FEA
:10122000551F8A95D2F7DA01C901C80ED91EEA1EE8
:10123000FB1E49815A816B817C818789803111F144
:1012400088EF9FEFAFEFBFE0481759076A077B07AA
:1012500098F2F501C082D182E282F38281E00F90A0
:101260000F900F900F90DF91CF911F910F91FF90F2
:10127000EF90DF90CF90BF90AF907F906F905F9096
:101280004F90089588EF9FEFA0E0B0E0DDCF0F937F
:101290001F93CF93DF93FC012581222331F080E05F
:1012A000DF91CF911F910F9108958B01EC01FB010C
:1012B0008789803139F582E08D831F8A188E198ED7
:1012C0001A8E808D918DB0E0A0E025E0880F991FE7
:1012D000AA1FBB1F2A95D1F78B8B9C8BAD8BBE8B26
:1012E0001C8F0B8F81E08C831E821F8218861986CB
:1012F0001A861B861C861D861E861F86188A198ADA
:101300001A8ACECF803259F683E08D83428D538D79
:10131000648D758D4F8B588F698F7A8F9E012D5EEE
:101320003F4FC8010E94DC088111DACFB8CF8F92FD
:101330009F92AF92BF92CF92DF92EF92FF920F9364
:101340001F93CF93DF93EC018D8181110EC080E05C
:10135000DF91CF911F910F91FF90EF90DF90CF9091
:10136000BF90AF909F908F9008950B891C892D8915
:101370003E89041715072607370748F34A015B0122
:10138000823031F48A869B86AC86BD8681E0E0CFD0
:1013900081149104A104B10449F41E821F821886AD
:1013A00019861A861B861C861D86F0CF0A851B852A
:1013B0002C853D85EB8DFC8D858590E00996B901E6
:1013C000A8014150510961097109082E04C07695A0
:1013D0006795579547950A94D2F775016401E1E046
:1013E000CE1AD108E108F10804C0F694E794D79426
:1013F000C7948A95D2F7C416D506E606F70620F0FC
:10140000012B022B032B11F58F89988DA98DBA8D95
:101410008E839F83A887B9878E010A5F1F4FC114EF
:10142000D104E104F10409F4ADCF4E815F816885F8
:10143000798598018B8D9C8D0E945B0891E0C91A7B
:10144000D108E108F1088111EACF81CFC41AD50A89
:10145000E60AF70AE1CF3F924F925F926F927F9236
:101460008F929F92AF92BF92CF92DF92EF92FF92B4
:101470000F931F93CF93DF93CDB7DEB72C970FB6A3
:10148000F894DEBF0FBECDBF5C01DC015B968D9092
:101490009C905C9716964D905D906D907C901997FE
:1014A000411451046104710409F468C0BFEF4B1A80
:1014B0005B0A6B0A7B0A312CF40181859285A38536
:1014C000B4859C01AD012F5F3F4F4F4F5F4F298780
:1014D0003A874B875C87730162011D821E821F82DF
:1014E0001886F40181859285A385B4852D813E817E
:1014F0004F815885281739074A075B0708F056C0FF
:1015000089859A85AB85BC858C159D05AE05BF0583
:1015100050F482E0C82ED12CE12CF12C92E0492E1F
:10152000512C612C712C9E012F5F3F4FB701A601FA
:10153000C4010E945B088823C9F189819A81AB812B
:10154000BC81892B8A2B8B2B09F1260137019FEF58
:10155000491A590A690A790A2D813E814F815885B5
:101560002F5F3F4F4F4F5F4F2D833E834F835887F1
:101570003FEFC31AD30AE30AF30AB3CFF401408062
:101580005180628073803324339496CFC414D50481
:10159000E604F70409F70FEF1FEF2FEF3FE0B70165
:1015A000A601C4010E94B907811119C080E02C96E0
:1015B0000FB6F894DEBF0FBECDBFDF91CF911F9164
:1015C0000F91FF90EF90DF90CF90BF90AF909F90E2
:1015D0008F907F906F905F904F903F900895D501CE
:1015E00016964D915D916D917C911997411551051C
:1015F0006105710539F097018601C4010E94B907A0
:101600008823A1F2D5011696CD92DD92ED92FC923F
:101610001997332051F0D701C6010196A11DB11DC4
:10162000F40180839183A283B383F5018789908D30
:10163000A18DB28D892B8A2B8B2B39F48481C78A9B
:10164000D08EE18EF28E80688483F5018481806281
:10165000848381E0ACCF1F93CF93DF93FC0125817E
:101660002223D1F1162FEC01848187FF2AC06685E1
:1016700077858089918941E00E945E06882361F127
:10168000EA8980E2E89FF0011124E457FE4F309789
:1016900019F18D81823040F48B899C89AD89BE8996
:1016A000848F958FA68FB78F8F89988D938F828F18
:1016B0008F89988DA98DBA8DB58BA48B8C818F77EE
:1016C0008C83111103C08C818F7E8C83812FDF91DD
:1016D000CF911F910C94330680E0DF91CF911F9141
:1016E0000895FF920F931F93CF93DF93EC018D81A9
:1016F000813041F090E080E0DF91CF911F910F9118
:10170000FF9008958C8181FFF5CF82FD1BC0009171
:101710008C0310918D03C8010E948C040E946B04FD
:10172000F82EC8010E9459048FEFF812E3CF8C8184
:1017300085FF1BC060E0CE010E942B0B8C818F7D4A
:101740008C83D8CF4B895C896D897E898A859B85FE
:10175000AC85BD8584179507A607B707C1F2CE01F2
:101760000E9497098111D3CFC5CF40918801509134
:10177000890160918A0170918B01452B462B472B83
:1017800021F080E00E940F06B5CF80618C832A850E
:101790003B85317080E092E0821B930BADCFCF93FD
:1017A000DF93EC0161E00E942B0B882311F01D8276
:1017B00081E0DF91CF9108952F923F924F925F92F7
:1017C0006F927F928F929F92AF92BF92CF92DF9251
:1017D000EF92FF920F931F93CF93DF9300D000D02F
:1017E0001F92CDB7DEB77C015B01342E5D83DC0137
:1017F00015968C911597813009F0CEC014962C90D7
:1018000021FECAC022FCB4C0C32CDD8022947FE03C
:1018100027222094B22DB1702B2ED7011A964D910C
:101820005D916D917C911D97C114D10409F428C17B
:101830005B968D919C915C97FC0174807A948A01EF
:101840009B0169E036952795179507956A95D1F71D
:1018500070228A011170711020C001151105E9F480
:1018600016964D915D916D917C9119974115510599
:101870006105710509F099C057968D919D910D9064
:10188000BC91A02D0097A105B10509F0B0C0C7011A
:101890000E942B0A882309F47FC080E092E0801B1D
:1018A000910B46018C159D0508F44C01D7015B9600
:1018B0004D915C915C9716968D919D910D90BC9188
:1018C000A02D0297A109B109FA01258504C0880F4E
:1018D000991FAA1FBB1F2A95D2F746855785608995
:1018E0007189840F951FA61FB71F9C01AD01270D9D
:1018F000311D411D511D29013A01811432E0930629
:1019000009F07BC08091000190910101A09102013A
:10191000B091030184159505A605B70559F48FEF1D
:101920009FEFDC018093000190930101A0930201DD
:10193000B0930301022D9501B301A20180918C03A4
:1019400090918D030E94A105882331F19EEFB91A71
:10195000C818D908F70182859385A485B585880DB7
:10196000991DA11DB11D82879387A487B58755CF87
:10197000F701438954896589768982859385A48591
:10198000B585481759076A077B0709F43DCFC7019A
:101990000E949709811138CF81E090E0D70113961A
:1019A0009C938E93129780E007C09E012F5F3F4F5C
:1019B0000E945B08811102C090E079C089819A8100
:1019C000AB81BC81F701238D348DF901278948EF64
:1019D0005FEF60E070E0203121F048EF5FEF6FEFE4
:1019E0007FE084179507A607B70708F050CFF701E7
:1019F00086839783A087B18750CF0115110599F58C
:101A0000D7011A964D915D916D917C911D975396DA
:101A10008D919D910D90BC91A02D481759076A0793
:101A20007B0708F181E00E943306882309F4B4CFD4
:101A300040920001509201016092020170920301F4
:101A400080918701816080938701C80184579E4FF0
:101A5000D5019C01280D391DFC012E173F0759F0B7
:101A60004D914193FACF41E0C301B2010E945E065D
:101A70008111EBCF91CF281B390BA20EB31E68CF7B
:101A8000F70183899489A589B68984179507A607E4
:101A9000B70738F48481438B548B658B768B8068D1
:101AA0008483F701848183FD1AC0832D9D810F906B
:101AB0000F900F900F900F90DF91CF911F910F918A
:101AC000FF90EF90DF90CF90BF90AF909F908F905E
:101AD0007F906F905F904F903F902F90089561E0BE
:101AE000C7010E942B0B882309F456CFDECFCF937A
:101AF000DF931F92CDB7DEB7698341E050E0BE01AE
:101B00006F5F7F4F0E94DC0B0F90DF91CF910895A4
:101B1000FC01DB0112968D919C9113979383828334
:101B200084E591E09183808314968C91149784834B
:101B300015968C911597858316964D915D916D91B3
:101B40007C91199746835783608771871A964D91C8
:101B50005D916D917C911D9742875387648775874E
:101B60001E964D915D916D917C9151974687578757
:101B7000608B718B52968C915297828B53964D91BC
:101B80005D916D917C915697438B548B658B768BD1
:101B900057964D915D916D917C915A97478B508FDF
:101BA000618F728F5B968D919C91948F838F089536
:101BB000FC01818D928D009719F061E00C942B0B44
:101BC0000895DC015996ED91FC913097B9F0838925
:101BD0009489A589B6894285538564857585841B5A
:101BE000950BA60BB70B811520E89207A105B1054F
:101BF00038F08FEF9FE7A0E0B0E0089590E080E03C
:101C00000895DC0159968D919C91009739F0DC0183
:101C1000ED91FC910480F581E02D099490E080E045
:101C20000895CF93DF93EC01E98DFA8D309749F455
:101C300081E090E09B838A8390E080E0DF91CF9108
:101C4000089513821282898D9A8D0E94DC0BE98D92
:101C5000FA8D22813381232B59F7F0CFCF93DF9375
:101C60001F92CDB7DEB76983DC01ED91FC91028054
:101C7000F381E02D41E050E0BE016F5F7F4F099599
:101C80000F90DF91CF9108952F923F924F925F92E4
:101C90006F927F928F929F92AF92BF92CF92DF927C
:101CA000EF92FF920F931F93CF93DF9300D01F9279
:101CB000CDB7DEB7FC018581811118C08FEF9FEF92
:101CC0000F900F900F90DF91CF911F910F91FF9088
:101CD000EF90DF90CF90BF90AF909F908F907F90CC
:101CE0006F905F904F903F902F900895848180FF78
:101CF000E5CF438954896589768982859385A48552
:101D0000B585312C212C481759076A077B0719F034
:101D100022242394312C6F012101CE0101963C0134
:101D2000DF011696BB83AA834114510409F4C5C090
:101D3000F60142855385648575854A01F1E09F224D
:101D4000D6015B968D919C915C978A019B01E9E09D
:101D50003695279517950795EA95D1F71596EC9145
:101D6000E230E9F5FC01628D738D848D958D600FF5
:101D7000711F821F931FA12C22E0B22EA818B90850
:101D80004A145B0408F45201F601248126FD04C0C4
:101D9000A114F2E0BF0671F400910001109101015D
:101DA0002091020130910301061717072807390710
:101DB00009F05EC040E00E945E06882309F47ECFF1
:101DC000C40184579E4FD3019C012A0D3B1DFC0189
:101DD0002E173F0709F46CC041914D93F9CFDC01F8
:101DE0001496BC90BA94B0228114910479F4B11085
:101DF0000DC0452B462B472B69F5F6018789908D41
:101E0000A18DB28D86839783A087B187D6015B961B
:101E1000ED91FC915C9716966D917D918D919C91C1
:101E200019976250710981099109258504C0660FCF
:101E3000771F881F991F2A95D2F706851785208955
:101E40003189600F711F821F931F6B0D711D811DE2
:101E5000911D91CFD60116964D915D916D917C911A
:101E600019972A813B810E945B088111CFCF26CF31
:101E7000730185019401AB01BC0180918C039091A9
:101E80008D030E94FF04882309F418CF6A0C7B1C81
:101E9000F60182859385A485B5858A0D9B1DA11DBC
:101EA000B11D82879387A487B5874A185B083CCF0A
:101EB000281B390B620E731EEBCF2A94232809F0DE
:101EC000FDCE898190E0FCCEFC01818D928D009742
:101ED00011F00C94440E8FEF9FEF08950F931F9312
:101EE000CF93DF93EC01898D9A8D10E000E000978D
:101EF00099F00E94440E8C010F3F100769F0898D04
:101F00009A8DFC0142855385648575854150510940
:101F1000610971090E949709C801DF91CF911F9152
:101F20000F910895CF93DF93EC01EE85FF8509951E
:101F30006A877B878C879D87DF91CF91089581E0A9
:101F40008093E803089560E08EE00C940403909180
:101F500031049111FCCF282F91E09093310490939C
:101F600030043FEF30932F0410922E04380F30933B
:101F70002D0490930C0490910C04906D90930C049C
:101F800090910B04913019F510920B0490910C0470
:101F90009093BB009091BC0093FDF8CF95EC90938B
:101FA000BC00909131049130E1F390912E04981788
:101FB00010F420912E04ADE0B4E0EBEEF3E080E00D
:101FC000821307C01092EA038093E903089595EE07
:101FD000E6CF9D9191938F5FF3CFCF92DF92FF92E7
:101FE0000F931F93CF93DF936C0181E080933204B2
:101FF00088E680935404109233041092550460E0F4
:1020000083EF94E00E94210481E00E940A0187E0AE
:1020100090E00E94A70F83EF94E00E94DA038F778D
:10202000282F30E094E0359527959A95E1F7922F87
:10203000990F990FC22FC91BCC0FC80F83EF94E0E3
:102040000E94DA039C0144E0359527954A95E1F713
:102050002F703327922F990F990FD22FD91BDD0F95
:10206000D80F83EF94E00E94DA039C0154E0359589
:1020700027955A95E1F72F703327922F990F990FD3
:10208000122F191B110F180F83EF94E00E94DA032F
:1020900083EF94E00E94DA039C0164E03595279574
:1020A0006A95E1F72F703327922F990F990F022F1E
:1020B000091B000F080F83EF94E00E94DA039C01D4
:1020C00074E0359527957A95E1F72F703327922F95
:1020D000990F990FF22EF91AFF0CF80E83EF94E086
:1020E0000E94DA039C01E4E035952795EA95E1F733
:1020F0002F703327922F990F990F291B220F820FD0
:10210000F6018083F18202831383D483C583C601E1
:10211000DF91CF911F910F91FF90DF90CF900895A5
:10212000CF92DF92EF92FF921F93CF93DF93EC0158
:1021300080E2689FF0011124E457FE4F938591716E
:1021400061F0842F827449F080E0DF91CF911F917C
:10215000FF90EF90DF90CF900895142F6A8B8091BD
:10216000000190910101A0910201B09103018E87BD
:102170009F87A88BB98BC488D588F12CE12C760178
:10218000DD24CC24CF8AD88EE98EFA8E828D938D71
:10219000B0E0A0E0AC01BD014C295D296E297F298A
:1021A0004F8B588F698F7A8F83858871B1F4848DB6
:1021B000958DA68DB78D8B8B9C8BAD8BBE8B81E067
:1021C0008D831F701C831E821F82188619861A86B3
:1021D0001B861C861D8681E0B8CF803109F0B4CF04
:1021E0009E012D5E3F4F8B8D9C8D0E94DC088823C5
:1021F00009F4AACF84E0E4CFFB0101900020E9F7C5
:102200003197AF01461B570BDC01ED91FC91028029
:10221000F381E02D0994CF93DF93BC0186E594E030
:102220000E949001EC0162E671E086E594E00E9474
:10223000FC108C0F9D1FDF91CF9108958F929F927C
:10224000AF92BF92DF92EF92FF920F931F93CF93C3
:10225000DF9300D000D000D0CDB7DEB77C01109264
:10226000EA031092E903109233041092550410927D
:10227000310411E01093300410920B0461E082E10C
:102280000E94B80261E083E10E94B8028091B90027
:102290008E7F8093B9008091B9008D7F8093B900C3
:1022A00088E48093B80085E48093BC0089EC93E0D7
:1022B0009093B1038093B0038AEC93E09093B503BD
:1022C0008093B4031093320488E6809354041092F0
:1022D00033041092550460E083EF94E00E942104DF
:1022E00081E00E940A0181E090E00E94A70F83EF45
:1022F00094E00E94DA0387FF04C08EED90E00E9414
:102300000B11CE0101960E94ED0FF701048115819A
:10231000F80187A5882321F0C8018A960E94CF0B77
:10232000F80113861186168215828AE084830E9442
:102330005A037B0161E0F80184810E94040361E09B
:10234000F80184810E94B802DFB6F894809184017C
:10235000811127C0E7E6F1E08491EBE7F1E0949189
:10236000E82FF0E0EE0FFF1FE75BFE4FA591B49161
:10237000EC91E92321F461E08AE00E94B80261E077
:102380008AE00E9404038CB580618CBD8CB58064AA
:102390008CBD61E08DE00E94040361E08BE00E944F
:1023A0000403809184018F5F80938401DFBE82E506
:1023B0008093FF04109200058091FF049091000526
:1023C0000E9489042AE0D22E8FEF0E946404DA94DE
:1023D000D110FACFC8010E948C0420E030E0A9019E
:1023E00060E0C8010E94A204D82EF8018287F1E0C3
:1023F0008F1751F00E945A036E197F09613D774093
:1024000060F381E0F8013EC02AEA31E040E050E0AC
:1024100068E0C8010E94A20482FF28C0F801D386A8
:10242000F8018385812C912C5401823029F4812C70
:10243000912CA12C80E4B82E20E030E0A90167E3C4
:10244000C8010E94A204A501940169E2C8010E948A
:10245000A204F8018287882309F10E945A036E19A9
:102460007F09613D774040F388E0CCCF94E0D92EDE
:102470000E946B04F8018287DA94D110F9CF8A3A6E
:1024800051F082E08583C8010E94590482EC90E0FB
:102490000E940B11FFCF82E08387C2CF83858230F9
:1024A000C9F420E030E0A9016AE3C8010E94A20457
:1024B000882311F086E0A6CF0E946B04807C803CCC
:1024C00019F483E0F80183870E946B040E946B0477
:1024D0000E946B04C8010E94590480E58093FF04A8
:1024E000109200057801FCE0EF0EF11C41E0B8010C
:1024F000C7010E94A8068823C9F0B701C8018A96BF
:102500000E944709882311F226960FB6F894DEBF81
:102510000FBECDBFDF91CF911F910F91FF90EF9034
:10252000DF90BF90AF909F908F90089540E0B801EA
:10253000C7010E94A806882309F4A8CFDECF8F9296
:102540009F92AF92BF92EF92FF920F931F93CF9300
:10255000DF93CDB7DEB7A1970FB6F894DEBF0FBEFD
:10256000CDBF7C01FA01CB0119A2223008F42AE088
:102570008E010F5D1F4F822E912CB12CA12CBF011B
:10258000A50194010E94201FF901CA016A300CF5CF
:10259000605DD8016E938D01232B242B252B79F7B9
:1025A00090E080E0109721F0BD01C7010E94FC106F
:1025B000A1960FB6F894DEBF0FBECDBFDF91CF91CD
:1025C0001F910F91FF90EF90BF90AF909F908F90D1
:1025D0000895695CDECF462F50E070E060E02AE0AD
:1025E0000C949F122F923F924F925F926F927F9224
:1025F0008F929F92AF92BF92CF92DF92EF92FF9213
:102600001F93CF93DF93EC016A017B01722EAB0124
:102610009601CB01B6010E94F62065E671E08111BA
:1026200026C046015701E894B7F82FEF3FEF4FE778
:102630005FE7C501B4010E94F62081110CC02FEFA5
:102640003FEF4FE75FE7C501B4010E94FC1D69E65B
:1026500071E0181664F02FEF3FEF4FE75FE4C7011A
:10266000B6010E94A1201816B4F46DE671E0CE0107
:10267000DF91CF911F91FF90EF90DF90CF90BF90AF
:10268000AF909F908F907F906F905F904F903F9012
:102690002F900C94FC102FEF3FEF4FE75FECC7013A
:1026A000B6010E94FC1D87FDE0CF20E030E0A901CB
:1026B000C701B6010E94FC1D312C212C87FF0DC0E3
:1026C000E881F9810190F081E02D6DE2CE0109955C
:1026D0001C01F7FAF094F7F8F09410E060E070E075
:1026E00080E09FE3711641F020E030E040E251E4E9
:1026F0000E9400201F5FF6CFA70196010E94941F41
:102700002B013C010E9472204B015C012AE0BC01BC
:10271000A401CE010E949F127C01E20CF31C112344
:10272000E1F1C501B4010E94011E9B01AC01C3018E
:10273000B2010E94931F4B015C01E881F981019075
:10274000F081E02D6EE2CE010995E80EF91E1150E0
:1027500020F120E030E040E251E4C501B4010E94E4
:10276000621E2B013C010E9472204B01B12CA12C56
:102770002AE0B501A401CE010E949F12E80EF91EC5
:10278000C501B4010E94011E9B01AC01C301B2014D
:102790000E94931F4B015C01DACFC701DF91CF91FB
:1027A0001F91FF90EF90DF90CF90BF90AF909F90E0
:1027B0008F907F906F905F904F903F902F900895F3
:1027C000CF93DF93EC01A881B981EB01E881F98116
:1027D0001097F1F03097B1F4EC018C819D81892B39
:1027E000C9F08C9190E00BC0DB0114968D919C9107
:1027F000892B81F0808190E0919581959109DF91FD
:10280000CF910895BF01CD01DF91CF910C943E236C
:10281000309751F790E080E0F2CF0F931F93CF9362
:10282000DF93EC0188819981009759F02A813B81DF
:102830002617370730F081E0DF91CF911F910F917C
:1028400008958B016F5F7F4F0E945B22009759F0C4
:10285000998388831B830A832C813D81232B59F71D
:10286000FC011082E8CF80E0E7CFCF93DF93EC014B
:1028700088819981009711F00E94D22119821882D3
:102880001D821C821B821A82DF91CF910895EF92E4
:10289000FF920F931F93CF93DF93EC018B01CB013A
:1028A0000E94F31D7C01BC01CE010E940D14811118
:1028B0000BC0CE010E943514CE01DF91CF911F9144
:1028C0000F91FF90EF900895FD82EC82B80188810E
:1028D00099810E94EC1DF0CFEF92FF920F931F930E
:1028E000CF93DF93EC017B018A01BA010E940D14A2
:1028F00081110BC0CE010E943514CE01DF91CF9122
:102900001F910F91FF90EF9008951D830C83B701E5
:10291000888199810E944723F0CF50E040E064E62F
:1029200071E00C946C14CF93DF93EC01FB018617DC
:10293000970749F0608171816115710541F044810B
:1029400055810E946C14CE01DF91CF9108950E94B1
:102950003514F9CFFC0180819181009711F00C941E
:10296000D22108950F931F93CF93DF93CDB7DEB796
:102970002C970FB6F894DEBF0FBECDBF18861F820E
:102980001A8619861C861B86CE0107960E948D1416
:102990000E94660397FD1BC089831A820B851C85E4
:1029A0000F5F1F4FB801CE0107960E940D148823B8
:1029B00079F32F8138858B859C85BE016F5F7F4FB2
:1029C000820F931F0E9447231C870B87E1CF1A8237
:1029D00019821C821B821E821D8269E171E0CE0178
:1029E00001960E9447142B853C858D819E81281776
:1029F000390751F4BE016F5F7F4FCE0107960E94E9
:102A0000E01311E0892B09F010E0CE0101960E943D
:102A1000AA141123C1F080E1809381001092E80391
:102A200088E091E00E940B11CE0107960E94AA1443
:102A30002C960FB6F894DEBF0FBECDBFDF91CF91BD
:102A40001F910F9108951A8219821C821B821E8287
:102A50001D8262E071E0CE0101960E9447142B8531
:102A60003C858D819E812817390759F4BE016F5F1F
:102A70007F4FCE0107960E94E01311E0892B09F0E9
:102A800010E0CE0101960E94AA14112369F28FE989
:102A90009FE090938F0380938E0381E080936F007B
:102AA0008091E30380618093810081EF90E0BACF51
:102AB0000E941F0281110C94B21408950E941823E1
:102AC0003F924F925F926F927F928F929F92AF92BE
:102AD000BF92CF92DF92EF92FF920F931F93CF930B
:102AE000DF93CDB7DEB72B970FB6F894DEBF0FBEDE
:102AF000CDBF7C01FE013196CE010C966F0130E214
:102B00003193E817F907E1F7DA0130E087E09D91AA
:102B1000B92E992309F43CC09E32F1F48A30C9F4ED
:102B200080E02B960FB6F894DEBF0FBECDBFDF91CD
:102B3000CF911F910F91FF90EF90DF90CF90BF90BA
:102B4000AF909F908F907F906F905F904F903F904D
:102B5000089538E08AE0DBCFE9E3F1E044914423D3
:102B600021F031969413FACFDBCF8317C8F24FEDE3
:102B7000490F4E35A8F64FE9490F4A3118F440EE97
:102B8000B42EB90EF601E30FF11DB0823F5FBFCF47
:102B90008981803229F2322E8B01DB015B968D9187
:102BA0009C915C97F701948F838F16961D921D92CE
:102BB0001D921C921997FB011286138614861586A6
:102BC000F80182859385A485B585438954896589F3
:102BD000768984179507A607B70708F04DC025E04A
:102BE000B695A795979587952A95D1F7F82FFF70F9
:102BF000AF2ED80115968C91823008F491CFC80180
:102C00000E94440E97FD8CCFF80182859385A485A0
:102C1000B5854F96A11DB11D82879387A487B5877F
:102C2000F0E2AF9EB001112464577E4F611571052B
:102C300009F476CFDB018C91882341F0853E09F0C1
:102C400062C0BB2029F0BB24B394BACFB1100EC030
:102C5000F701A28A8091000190910101A0910201E7
:102C6000B091030186879787A08BB18BDB018C9194
:102C70008111E9CFBB24B394832D8271823109F095
:102C80004FCFBB2009F44DC0F70166857785808959
:102C9000918941E00E945E06882309F441CFD70163
:102CA00052968C91B0E28B9FC001112484579E4FA5
:102CB000009709F435CFFC013A9626E1DF011D9219
:102CC0002A95E9F72BE0F601DC0101900D922A9597
:102CD000E1F721E238E2FC01318B208B40E058E043
:102CE00057874687338B228B318F208F578B468BAC
:102CF00081E00E943306882309F412CF432DD701C7
:102D000052966C910AC04BE050E0C6010E941D2310
:102D1000892B09F055CF432D6A2DC7010E949010D1
:102D200000CFF8018581823009F4FACEC8010E94F3
:102D30002B0A882309F4F4CED8015B96ED91FC911F
:102D40005C9716968D909D90AD90BC901997B2E0CF
:102D50008B1A9108A108B108858504C0880C991CBC
:102D6000AA1CBB1C8A95D2F786859785A089B18954
:102D7000880E991EAA1EBB1E848124013501480EAF
:102D8000511C611C711C84149504A604B70409F13C
:102D9000E1E04E1A51086108710881E00E94330693
:102DA000882309F4BDCEECE8F1E011928CE893E0C1
:102DB0008E179F07D1F74092000150920101609257
:102DC00002017092030180918701816080938701E5
:102DD000DACFD8015B96ED91FC91258580E092E0F9
:102DE000A0E0B0E004C0880F991FAA1FBB1F2A955E
:102DF000D2F7F8014389548965897689840F951F34
:102E0000A61FB71F838B948BA58BB68BD7015296C9
:102E10001C928CE891E04FCFEF92FF920F931F939B
:102E2000CF93DF93EC017B018A011B821A8288EE2B
:102E300093E0A0E0B0E08C839D83AE83BF838EE0FF
:102E400091E0998388838DE190E00E9436219A8FEA
:102E5000898F009779F02DE1F701DC0101900D9247
:102E60002A95E1F74CE050E0B801CE010C960E94A3
:102E70004E23188EDF91CF911F910F91FF90EF900D
:102E800008952F923F924F925F926F927F928F920E
:102E90009F92AF92BF92CF92DF92EF92FF920F93E9
:102EA0001F93CF93DF93CDB7DEB7C058D1090FB6CC
:102EB000F894DEBF0FBECDBF3C018B01EB961FAE79
:102EC0001EAEEB97ED961FAE1EAEED97EF961FAEC2
:102ED0001EAEEF97BC016E5F7F4FCE0187589F4FAC
:102EE0000E949314CE018D589F4F0E94ED0FF80160
:102EF00064817581EB96AEACBFACEB9719A218A2BA
:102F000084E591E09F8F8E8F1BA21C821B829A8387
:102F100089831E82645F7F4F4E01FEE18F0E911CFC
:102F2000C4010E94470965018E010F5F1F4F2401F4
:102F300018016FE270E0C6010E943323009709F484
:102F400061C0F60120812F3271F4FFEFCF1ADF0A42
:102F5000902F812F8201492E582E942D852D2801E6
:102F6000092F182FE6CF8C198D3008F08CE0E82E51
:102F7000F12CA701B601CE01885A9F4F0E944E2323
:102F8000E8E5F0E0EC0FFD1FEE0DFF1D1082C8011B
:102F90000E94CF0BF8018581882321F11EAE1DAE62
:102FA00084E591E09CAF8BAF21961FAE2197C1586D
:102FB000DF4FE881F981CF57D040AE0EBF1EF5013B
:102FC000808181112EC0BE01655C7F4FC1010E94CE
:102FD000880D41E751E0B101CE01885A9F4F0E9410
:102FE0000C1746C021E0AE01485A5F4FB201C8013C
:102FF0000E946015882391F2CE0CDF1CC2010E9452
:10300000CF0BABCFC6018A199B09C158DF4F9983FB
:103010008883CF57D040B201CE01CB960E94880D55
:10302000C6CF19A218A284E591E09F8F8E8F1BA2B4
:1030300021968FAD2197811147C06C961FAE1EAEB1
:103040006C9788EE93E0A0E0B0E0A0968CAF9DAFC7
:10305000AEAFBFAFA0978EE091E06A969FAF8EAF04
:103060006A97E3961FAE1EAEE397A5961FAEA5978F
:10307000E396EEADFFADE397309719F085818111AE
:103080003FC08AE291E00E940B11CE0187589F4F0A
:103090000E94AA14C058DF4F0FB6F894DEBF0FBECF
:1030A000CDBFDF91CF911F910F91FF90EF90DF90F7
:1030B000CF90BF90AF909F908F907F906F905F90D8
:1030C0004F903F902F90089527E1A501BE01655CC8
:1030D0007F4FC4010E946015882309F4AECFCE0152
:1030E000CB960E94CF0B49A95AA96BA97CA9C40110
:1030F0000E949709B401C1010E94880DA5016BCF00
:10310000E4964FADE49750E04053584F052E000C25
:10311000660B770B2AE0CE01885A9F4F0E949F12C0
:1031200068E271E0CE01885A9F4F0E949001E596B7
:103130006FADE597CE01885A9F4F0E94EB1266E271
:1031400071E0CE01885A9F4F0E949001E6966FADC4
:10315000E697CE01885A9F4F0E94EB1264E271E01D
:10316000CE01885A9F4F0E949001E7966FADE79776
:10317000CE01885A9F4F0E94EB1262E271E0CE01AD
:10318000885A9F4F0E949001E8966FADE897CE0154
:10319000885A9F4F0E94EB1260E271E0CE01885A7C
:1031A0009F4F0E949001E9966FADE997CE01885A32
:1031B0009F4F0E94EB126EE171E0CE01885A9F4F43
:1031C0000E949001F301428553856485758522E054
:1031D000CE01885A9F4F0E94F21262E671E0CE0142
:1031E000885A9F4F0E94FC10E3968EAD9FADE397E7
:1031F000009709F44ACF0E94CF0BE3968EAD9FADA6
:10320000E3970E94D22141CFCF92DF92EF92FF92BB
:1032100080E480937C0080917A00806480937A00BF
:1032200080917A0086FDFCCF8091780060917900D2
:10323000762F682F072E000C880B990B0E94031E17
:1032400020E030E040E85AE30E94621E6B017C01FE
:10325000AC019B0160E070E080E89FE30E94931F57
:103260009B01AC01C701B6010E94002020E030EBB9
:103270004FE955E40E94621E20E030E44CE156E440
:103280000E9400200E94AE2020E030EA46E555E48E
:103290000E9400202FE03FEC4BE55BE30E94941F6F
:1032A0009B01AC0160E070E080E89FE30E94002099
:1032B00023E333E948E853E40E94931FFF90EF9023
:1032C000DF90CF9008951F920F920FB60F921124A6
:1032D0002F933F934F935F936F937F938F939F931E
:1032E000AF93BF93EF93FF9386E594E00E9429028A
:1032F000FF91EF91BF91AF919F918F917F916F91CE
:103300005F914F913F912F910F900FBE0F901F90A3
:1033100018951F920F920FB60F9211242F938F932F
:103320009F93EF93FF93E0916604F091670480818F
:10333000E0916C04F0916D0482FD1BC0908180913E
:103340006F048F5F8F7320917004821741F0E091BA
:103350006F04F0E0EA5AFB4F958F80936F04FF9162
:10336000EF919F918F912F910F900FBE0F901F9013
:1033700018958081F4CF1F920F920FB60F921124EF
:103380002F933F938F939F93AF93BF938091D803D5
:103390009091D903A091DA03B091DB033091D70368
:1033A00023E0230F2D3758F50196A11DB11D209361
:1033B000D7038093D8039093D903A093DA03B093F3
:1033C000DB038091DC039091DD03A091DE03B091DB
:1033D000DF030196A11DB11D8093DC039093DD03F3
:1033E000A093DE03B093DF03BF91AF919F918F91C4
:1033F0003F912F910F900FBE0F901F90189526E8C8
:10340000230F0296A11DB11DD2CF1F920F920FB6AE
:103410000F9211242F933F934F935F936F937F935A
:103420008F939F93AF93BF93EF93FF938091B900D6
:10343000887F803609F44AC0F0F5883209F4A7C0C5
:1034400018F5803109F49BC0B8F4882309F4F9C059
:10345000883009F494C0FF91EF91BF91AF919F9193
:103460008F917F916F915F914F913F912F910F902D
:103470000FBE0F901F901895883109F488C08032D4
:1034800051F780932F0414C0803409F49DC040F498
:103490008033B9F38833F9F680932F0485ECB0C0FC
:1034A000803509F485C0883509F496C0883499F6CA
:1034B0000E949803D0CF883909F48CC038F588373A
:1034C00029F050F4883611F0803729F683E0809394
:1034D00031041092D60357C0883809F47BC0803974
:1034E00019F0803809F0B7CF8091D603803208F008
:1034F00071C0E091D60381E08E0F8093D603809156
:10350000BB00F0E0EA54FC4F80833DC0803B39F0C3
:10351000E0F4803A09F479C0883A09F09CCF84E05D
:10352000809331041092B3031092B203E091B00380
:10353000F091B10309958091B20381110FC081E030
:103540008093B2031092900309C0803C09F4A6CF87
:10355000883C09F4A3CF883B09F07DCFE091B30309
:1035600081E08E0F8093B303F0E0E057FC4F808141
:103570008093BB009091B3038091B20329C08091E6
:103580000C048093BB0085EC8093BC0064CF9091C9
:103590002E0480912D04981758F5E0912E0481E0B7
:1035A0008E0F80932E04F0E0E35FFB4F8081E9CF24
:1035B000E0912E0481E08E0F80932E048091BB0059
:1035C000F0E0E35FFB4F808390912E0480912D0407
:1035D0009817C8F285E8D8CFE0912E0481E08E0FCD
:1035E00080932E048091BB00F0E0E35FFB4F80836B
:1035F0008091300481115CCF81E080930B0484EAD8
:103600008093BC001092310426CF85EC8093BC00DF
:10361000109231048091D603803230F4E091D603C9
:10362000F0E0EA54FC4F10826091D60370E0E09124
:10363000B403F091B50386EB93E009951092D6039D
:103640000ACF10922F0434CF1F920F920FB60F9211
:1036500011242F933F934F935F936F937F938F9397
:103660009F93AF93BF93EF93FF93E0918E03F091FD
:103670008F030995FF91EF91BF91AF919F918F912A
:103680007F916F915F914F913F912F910F900FBE5E
:103690000F901F901895E6E5F4E01382128288EEF1
:1036A00093E0A0E0B0E084839583A683B78320E312
:1036B00031E03183208325EC30E03587248724EC0A
:1036C00030E03787268720EC30E0318B208B21ECEF
:1036D00030E0338B228B22EC30E0358B248B26ECD0
:1036E00030E0378B268B118E128E138E148EE3EF03
:1036F000F4E01382128284839583A683B78382E4E5
:1037000091E091838083EFEFF4E080E58083118284
:10371000E7E4F5E0158216821186138682E090E0D8
:10372000A0E0B0E084879587A687B78713A215A687
:1037300014A684E591E093A782A717A6A1E0B5E0BF
:1037400016961D921D921D921C9219971A961D9203
:103750001D921D921C921D971E961D921D921D92E8
:103760001C92519752961D921D921D921C92559734
:10377000A1E9B5E080E691E011969C938E9380E9F3
:1037800095E013969C938E9312971596FC93EE9367
:1037900014970895CF93DF93CDB7DEB762970FB636
:1037A000F894DEBF0FBECDBF789484B5826084BD2F
:1037B00084B5816084BD85B5826085BD85B5816035
:1037C00085BD80916E00816080936E0010928100B3
:1037D000809181008260809381008091810081606E
:1037E000809381008091800081608093800080912F
:1037F000B10084608093B1008091B00081608093BB
:10380000B00080917A00846080937A0080917A0081
:10381000826080937A0080917A00816080937A0040
:1038200080917A00806880937A001092C100109293
:1038300043051092440510924505109246051092DA
:1038400003051092040510920505109206050E94CA
:103850005A036B017C014B015C0128EB820E2BE0CB
:10386000921EA11CB11C0E945A036C157D058E0589
:103870009F0528F086169706A806B906A0F70E94AD
:1038800035034B015C0138EEC32E33E0D32EE12C1F
:10389000F12C0E943503681979098A099B09683E51
:1038A000734081059105A8F381E0C81AD108E108A9
:1038B000F108A8EE8A0EA3E09A1EA11CB11CC11447
:1038C000D104E104F10429F70E9467010E945A0320
:1038D0006093030570930405809305059093060596
:1038E00063E771E086E594E00E94FC100E945A03B1
:1038F0006B017C014B015C01EAE08E0E911CA11C66
:10390000B11C0E945A036C157D058E059F0528F099
:1039100086169706A806B906A0F781E080931705DA
:103920000E94670181E995E00E941E118091E003E9
:103930000091E4031091E5038111D0C01E861D861D
:10394000188A1F861A8A198A67EB71E0CE010D96D4
:103950000E94471480E190E00E9436218C01188675
:103960001F821A8619861C861B86BE01635F7F4FE5
:10397000CE0107960E94931480E291E0D8018D93C6
:103980009D936D01F80113821282158214821782B1
:103990001682CD010E948D148B859C85099708F4B1
:1039A00053C01A8219821C821B821E821D82CE0184
:1039B00001960E948D14EB84FC84E114F10429F13A
:1039C000F8E0EF16F10418F028E0E22EF12CEF8178
:1039D000F885EE0DFF1DB08010826F81788561152E
:1039E000710509F4DCC0FB0101900020E9F7319773
:1039F000AF01461B570BCE0101960E946C148F81BC
:103A00009885E80EF91ED701BC928F81988569814F
:103A10007A81009709F4CAC06115710509F4C4C020
:103A200049855A852D813E814217530708F4BCC051
:103A30000E9447238D819E819C878B871E821D82D9
:103A4000CE0101960E94AA141A8219821C821B823E
:103A50001E821D82BE01695F7F4FCE0101960E94CA
:103A60009314ED80FE80B4E0EB0EF11CB701CE01A3
:103A700001960E940D14882309F4A9C029813A8176
:103A80008D819E8169E971E0820F931F0E94EC1D78
:103A9000FE82ED82BE016F5F7F4FC6010E949314CC
:103AA000CE0101960E94AA14CE0107960E94AA1484
:103AB00088E291E0F80191838083CE010D960E9407
:103AC000AA148091E003E82FF0E0EE0FFF1FEC5105
:103AD000FC4F118300838F5F8093E0031093E70313
:103AE0000093E60383EA9FE0D80119969C938E9396
:103AF000189784E099E11F969C938E931E97E0910E
:103B0000E403F091E503309721F00084F185E02D86
:103B1000099580E1809381001092800084E0809379
:103B2000E30382E19AE79093E2038093E1039093A9
:103B300087008093860084E1809381008EE991E084
:103B40000E940B118091E803882311F18091E40316
:103B50009091E503009739F0DC01ED91FC91019023
:103B6000F081E02D0995E091E603F091E7034285AD
:103B700053856485758522E086E594E00E94F21203
:103B800062E671E086E594E00E94FC101092E80382
:103B90000E941F028823B1F20E94B214D3CFCE013B
:103BA00001960E9435142BCF0E94D22189819A81DF
:103BB00098878F838B819C819A8789878D819E814D
:103BC0009C878B871A8219821C821B8237CFCE0179
:103BD00001960E9435145ECFFB01DC0105900D9229
:103BE0000020E1F70895FC0105900020E9F7809599
:103BF00090958E0F9F1F08950E943E1E08F481E04D
:103C00000895E89409C097FB3EF4909580957095CF
:103C100061957F4F8F4F9F4F9923A9F0F92F96E918
:103C2000BB279395F695879577956795B795F1118D
:103C3000F8CFFAF4BB0F11F460FF1BC06F5F7F4F2A
:103C40008F4F9F4F16C0882311F096E911C077233C
:103C500021F09EE8872F762F05C0662371F096E845
:103C6000862F70E060E02AF09A95660F771F881F14
:103C7000DAF7880F9695879597F90895990F0008B8
:103C8000550FAA0BE0E8FEEF16161706E807F9072E
:103C9000C0F012161306E407F50798F0621B730BC9
:103CA000840B950B39F40A2661F0232B242B252B4A
:103CB00021F408950A2609F4A140A6958FEF811DED
:103CC000811D08950E94751E0C94E61E0E94D81E48
:103CD00038F00E94DF1E20F0952311F00C94CF1EC7
:103CE0000C94D51E11240C941A1F0E94F71E70F319
:103CF000959FC1F3950F50E0551F629FF001729F91
:103D0000BB27F00DB11D639FAA27F00DB11DAA1F9F
:103D1000649F6627B00DA11D661F829F2227B00DEC
:103D2000A11D621F739FB00DA11D621F839FA00D77
:103D3000611D221F749F3327A00D611D231F849FC7
:103D4000600D211D822F762F6A2F11249F5750401E
:103D50009AF0F1F088234AF0EE0FFF1FBB1F661F99
:103D6000771F881F91505040A9F79E3F510580F062
:103D70000C94CF1E0C941A1F5F3FE4F3983ED4F3CB
:103D8000869577956795B795F795E7959F5FC1F706
:103D9000FE2B880F911D9695879597F9089597F9B1
:103DA0009F6780E870E060E008959FEF80EC0895E1
:103DB00000240A941616170618060906089500240A
:103DC0000A9412161306140605060895092E039484
:103DD000000C11F4882352F0BB0F40F4BF2B11F4F8
:103DE00060FF04C06F5F7F4F8F4F9F4F089557FD57
:103DF0009058440F551F59F05F3F71F04795880F59
:103E000097FB991F61F09F3F79F0879508951216EF
:103E100013061406551FF2CF4695F1DF08C016169B
:103E200017061806991FF1CF86957105610508944C
:103E30000895E894BB2766277727CB0197F9089563
:103E4000A1E21A2EAA1BBB1BFD010DC0AA1FBB1F9E
:103E5000EE1FFF1FA217B307E407F50720F0A21B10
:103E6000B30BE40BF50B661F771F881F991F1A947D
:103E700069F760957095809590959B01AC01BD01A7
:103E8000CF0108950E94841FA59F900DB49F900DAF
:103E9000A49F800D911D112408952F923F924F925F
:103EA0005F926F927F928F929F92AF92BF92CF92CA
:103EB000DF92EF92FF920F931F93CF93DF93CDB7D3
:103EC000DEB7CA1BDB0B0FB6F894DEBF0FBECDBF4B
:103ED00009942A88398848885F846E847D848C841C
:103EE0009B84AA84B984C884DF80EE80FD800C8125
:103EF0001B81AA81B981CE0FD11D0FB6F894DEBF08
:103F00000FBECDBFED010895A29FB001B39FC001C8
:103F1000A39F700D811D1124911DB29F700D811DF5
:103F20001124911D08955058BB27AA270E94AB1F4A
:103F30000C94E61E0E94D81E38F00E94DF1E20F06E
:103F400039F49F3F19F426F40C94D51E0EF4E09535
:103F5000E7FB0C94CF1EE92F0E94F71E58F3BA1707
:103F6000620773078407950720F079F4A6F50C948F
:103F7000191F0EF4E0950B2EBA2FA02D0B01B901DD
:103F800090010C01CA01A0011124FF27591B99F0CF
:103F9000593F50F4503E68F11A16F040A22F232FDB
:103FA000342F4427585FF3CF469537952795A7952B
:103FB000F0405395C9F77EF41F16BA0B620B730BD2
:103FC000840BBAF09150A1F0FF0FBB1F661F771F43
:103FD000881FC2F70EC0BA0F621F731F841F48F4F8
:103FE000879577956795B795F7959E3F08F0B0CF81
:103FF0009395880F08F09927EE0F97958795089568
:104000000E9414200C94E61E0E94DF1E58F00E94AD
:10401000D81E40F029F45F3F29F00C94CF1E5111B7
:104020000C941A1F0C94D51E0E94F71E68F3992356
:10403000B1F3552391F3951B550BBB27AA276217A4
:104040007307840738F09F5F5F4F220F331F441FB1
:10405000AA1FA9F335D00E2E3AF0E0E832D09150E5
:104060005040E695001CCAF72BD0FE2F29D0660FD2
:10407000771F881FBB1F261737074807AB07B0E815
:1040800009F0BB0B802DBF01FF2793585F4F3AF01B
:104090009E3F510578F00C94CF1E0C941A1F5F3F81
:1040A000E4F3983ED4F3869577956795B795F795A1
:1040B0009F5FC9F7880F911D9695879597F9089589
:1040C000E1E0660F771F881FBB1F62177307840725
:1040D000BA0720F0621B730B840BBA0BEE1F88F734
:1040E000E09508950E94FF1E88F09F5798F0B92F21
:1040F0009927B751B0F0E1F0660F771F881F991F1D
:104100001AF0BA95C9F714C0B13091F00E94191F86
:10411000B1E008950C94191F672F782F8827B85F96
:1041200039F0B93FCCF3869577956795B395D9F774
:104130003EF490958095709561957F4F8F4F9F4F7E
:1041400008950E943E1E08F48FEF089516F00C9417
:10415000FB200C94D51E68940C94CF1E0E94FF1E69
:10416000A8F39923C1F3AEF3DF93CF931F930F937B
:10417000FF92C92FDD2788232AF02197660F771F2A
:10418000881FDAF720E030E040E85FEB9FE38839F2
:1041900020F0803E38F021968F770E94941FE8E649
:1041A000F0E004C00E94941FE5E9F0E00E940921BC
:1041B0008B01BE01EC01FB2E6F5771097595771FBE
:1041C000880B990B0E94031E28E132E741E35FE36D
:1041D0000E94751EAF2D9801AE01FF900F911F91A7
:1041E000CF91DF910E94AB1F0C94E61E0E943E1EF1
:1041F000880B990B08959F3F31F0915020F48795DB
:1042000077956795B795880F911D9695879597F93E
:104210000895DF93CF931F930F93FF92EF92DF9256
:104220007B018C01689406C0DA2EEF010E94751E96
:10423000FE01E894A5912591359145915591A6F3FC
:10424000EF010E94AB1FFE019701A801DA9469F704
:10425000DF90EF90FF900F911F91CF91DF91089524
:10426000EE0FFF1F0590F491E02D09940F931F931B
:10427000CF93DF938230910510F482E090E0E091DB
:104280009905F0919A0530E020E0B0E0A0E0309789
:1042900099F42115310509F44AC0281B390B243043
:1042A0003105D8F58A819B816115710589F1FB0182
:1042B00093838283FE0111C0408151810281138169
:1042C00048175907E0F04817590799F4109761F01B
:1042D00012960C93129713961C933296CF01DF918E
:1042E000CF911F910F9108950093990510939A050E
:1042F000F4CF2115310551F04217530738F0A901C9
:10430000DB019A01BD01DF01F801C1CFEF01F9CF57
:1043100090939A0580939905CDCFFE01E20FF31F8C
:10432000819391932250310939832883D7CF2091EB
:10433000970530919805232B41F420910601309187
:10434000070130939805209397052091040130913F
:1043500005012115310541F42DB73EB74091080103
:1043600050910901241B350BE0919705F0919805B8
:10437000E217F307A0F42E1B3F0B2817390778F03C
:10438000AC014E5F5F4F2417350748F04E0F5F1F9B
:104390005093980540939705819391939FCFF0E0B8
:1043A000E0E09CCFCF93DF930097E9F0FC013297D8
:1043B00013821282A0919905B0919A05ED0130E027
:1043C00020E01097A1F420813181820F931F20916A
:1043D0009705309198052817390709F061C0F093C7
:1043E0009805E0939705DF91CF910895EA01CE17E4
:1043F000DF07E8F54A815B819E0141155105B1F760
:10440000E901FB83EA8349915991C40FD51FEC1749
:10441000FD0761F4808191810296840F951FE90167
:1044200099838883828193819B838A83F0E0E0E093
:1044300012968D919C9113970097B9F52D913C910F
:104440001197CD010296820F931F2091970530910D
:1044500098052817390739F6309751F510929A05C3
:1044600010929905B0939805A0939705BCCFD3837C
:10447000C28340815181840F951FC817D90761F409
:104480004E5F5F4F88819981480F591F5183408348
:104490008A819B81938382832115310509F0B0CFF6
:1044A000F0939A05E09399059ECFFD01DC01C0CF02
:1044B00013821282D7CFB0E0A0E0E1E6F2E20C94E2
:1044C0004F1F8C01009751F4CB010E9436218C01C3
:1044D000C801CDB7DEB7E0E10C946B1FFC01E60F1D
:1044E000F71F9C0122503109E217F30708F49DC021
:1044F000D901CD91DC911197C617D70798F0C53037
:10450000D10530F3CE0104978617970708F3C61B31
:10451000D70B2297C193D1936D937C93CF010E94C7
:10452000D221D6CF5B01AC1ABD0A4C018C0E9D1E68
:10453000A0919905B0919A05512C412CF12CE12CB8
:10454000109731F5809197059091980588159905F8
:1045500009F05CC04616570608F058C08091040167
:1045600090910501009741F48DB79EB740910801E5
:1045700050910901841B950BE817F90708F055C005
:10458000F0939805E0939705F90171836083A0CFBC
:104590008D919C91119712966C90129713967C9026
:1045A0001397A815B90559F56C0142E0C40ED11C4A
:1045B000CA14DB0420F1AC014A195B09DA01129636
:1045C000159780F06282738251834083D9016D9385
:1045D0007C93E114F10471F0D7011396FC93EE93F0
:1045E000129776CF22968C0F9D1FF90191838083BD
:1045F000F301EFCFF0939A05E093990569CF481640
:10460000590608F42C017D01D3019ACFCB010E94F9
:1046100036217C01009749F0AE01B8010E942A239F
:10462000C8010E94D221870153CF10E000E050CF93
:1046300081E090E0F8940C945D23FB01DC0104C060
:104640008D910190801921F441505040C8F7881B8A
:10465000990B0895FB01DC0102C001900D924150BD
:104660005040D8F70895FC018191861721F08823E6
:10467000D9F7992708953197CF010895FB01DC01FF
:104680008D91019080190110D9F3990B0895FB01C8
:10469000DC0101900D920020E1F70895FB01DC019F
:1046A0004150504048F001900D920020C9F701C0E0
:0E46B0001D9241505040E0F70895F894FFCF5E
:1046BE00FFFFFFFF00009B058000000000002E0E94
:1046CE00110E010ED80DE10D640F6E0F00000000EB
:1046DE005E155E1500000000920F411700000000ED
:1046EE004B02B401E20198021302F101050200002F
:1046FE0000002104F4035004E101ED03DA03CB03BF
:10470E0000000000770DB401710B8F010000000056
:10471E001E110D0A006E616E00696E66006F766680
:10472E00002F00564D4450565F317C315F564D443C
:04473E0050560A00C7
:107E0000112484B714BE81FFF0D085E080938100F7
:107E100082E08093C00088E18093C10086E0809377
:107E2000C20080E18093C4008EE0C9D0259A86E02C
:107E300020E33CEF91E0309385002093840096BBD3
:107E4000B09BFECF1D9AA8958150A9F7CC24DD24C4
:107E500088248394B5E0AB2EA1E19A2EF3E0BF2EE7
:107E6000A2D0813461F49FD0082FAFD0023811F036
:107E7000013811F484E001C083E08DD089C08234E0
:107E800011F484E103C0853419F485E0A6D080C0E4
:107E9000853579F488D0E82EFF2485D0082F10E0AE
:107EA000102F00270E291F29000F111F8ED06801E7
:107EB0006FC0863521F484E090D080E0DECF843638
:107EC00009F040C070D06FD0082F6DD080E0C81688
:107ED00080E7D80618F4F601B7BEE895C0E0D1E017
:107EE00062D089930C17E1F7F0E0CF16F0E7DF06D8
:107EF00018F0F601B7BEE89568D007B600FCFDCFD4
:107F0000A601A0E0B1E02C9130E011968C91119780
:107F100090E0982F8827822B932B1296FA010C0160
:107F200087BEE89511244E5F5F4FF1E0A038BF0790
:107F300051F7F601A7BEE89507B600FCFDCF97BE46
:107F4000E89526C08437B1F42ED02DD0F82E2BD052
:107F50003CD0F601EF2C8F010F5F1F4F84911BD097
:107F6000EA94F801C1F70894C11CD11CFA94CF0C13
:107F7000D11C0EC0853739F428D08EE10CD085E9AC
:107F80000AD08FE07ACF813511F488E018D01DD067
:107F900080E101D065CF982F8091C00085FFFCCF94
:107FA0009093C60008958091C00087FFFCCF809118
:107FB000C00084FD01C0A8958091C6000895E0E648
:107FC000F0E098E1908380830895EDDF803219F02E
:107FD00088E0F5DFFFCF84E1DECF1F93182FE3DFCA
:107FE0001150E9F7F2DF1F91089580E0E8DFEE27F6
:047FF000FF270994CA
:027FFE00040479
:0400000300007E007B
:00000001FF