:100000000C94A8010C94D0010C94D0010C94D00154
:100010000C94D0010C94D0010C94D0010C94D0011C
:100020000C94D0010C94D0010C94D0010C94D0010C
:100030000C94D0010C940E220C94D0010C94D0019D
:100040000C94A5200C94D0010C9473200C944D209A
:100050000C94D0010C94D0010C94D0010C94D001DC
:100060000C94EF200C94D00108000000BE922449AB
:10007000123EABAAAA2ABECDCCCC4C3E00000080DA
:10008000BEABAAAAAA3E00000000BF000000803F4D
:100090000000000000084178D3BB4387D1133D190D
:1000A0000E3CC3BD4282AD2B3E68EC8276BED98F3A
:1000B000E1A93E4C80EFFFBE01C4FF7F3F0000007E
:1000C000000000407A10F35A00A0724E1809001088
:1000D000A5D4E80000E87648170000E40B540200BD
:1000E00000CA9A3B000000E1F505000080969800E8
:1000F000000040420F000000A08601000000102711
:1001000000000000E80300000000640000000000A0
:100110000A00000000000100000000002C76D888D2
:10012000DC674F0823DFC1DFAE59E1B1B796E5E3E5
:10013000E453C63AE651997696E8E6C28426EB89FE
:100140008C9B62ED407C6FFCEFBC9C9F40F2BAA59B
:100150006FA5F490055A2AF75C936B6CF9676DC133
:100160001BFCE0E40D47FEF520E6B500D0ED902E37
:100170000300943577050080841E080000204E0A95
:10018000000000C80C333333330F986E12831141D3
:10019000EF8D2114893BE65516CFFEE6DB18D1849E
:1001A0004B381BF77C1D901DA4BBE42420328472C5
:1001B0005E228100C9F124ECA1E53D272E6C6F671A
:1001C000004361726420496E697469616C697A6187
:1001D00074696F6E204661696C65642E00525443E9
:1001E000206E6F742072756E6E696E672E2E2E00F3
:1001F000525443206E6F7420666F756E642E0053E8
:10020000656E736F72206E6F7420666F756E6421F9
:1002100000207475726E6564206F66662E005365EB
:100220006E736F72200053656E736F72206E6F7401
:1002300020666F756E642100207475726E6564208F
:100240006F6E2E0053656E736F72200053656E7370
:100250006F727320737461727465642E0053656EDF
:10026000736F72732073746F707065642E00436FC8
:100270006D6D616E64206E6F7420666F756E6421A3
:10028000007475726E4F6666007475726E4F6E20E4
:100290000073746172740073746F70003A20003AD6
:1002A00020002C20003A20007C3C3E5E2B3D3F2F5E
:1002B0005B5D3B2C2A225C0000000000240027002C
:1002C0002A0000000000250028002B00000000008C
:1002D000230026002900000000080002010000039E
:1002E0000407000000000000000074696D652076BE
:1002F000616C756500496E697469616C697A6174D5
:10030000696F6E2066696E69736865642E003D3D95
:100310003D3D3D3D3D3D3D3D0004040404040404D9
:1003200004020202020202030303030303010204A4
:100330000810204080010204081020010204081067
:10034000201F1C1F1E1F1E1F1F1E1F1EC7237227BC
:1003500011241FBECFEFD8E0DEBFCDBF26E0A2ED57
:10036000B1E001C01D92A433B207E1F711E0A0E0B3
:10037000B1E0EAE8FFE502C005900D92A23DB107A9
:10038000D9F711E0C7EAD1E004C02197FE010E942D
:100390008C2DC63AD107C9F70E94C0250C94B82FFE
:1003A0000C94000008950895DC01ED91FC910190FA
:1003B000F081E02D0994DB0114964D915C91159725
:1003C0006D917C91DC01ED91FC910280F381E02D37
:1003D0000994EF92FF920F931F93CF93DF938C01B9
:1003E0007B01D0E0C0E0F701EC0FFD1F64916623B4
:1003F00061F0D801ED91FC910190F081E02DC801F0
:100400000995892B11F02196EECFCE01DF91CF9186
:100410001F910F91FF90EF900895AF92BF92CF92EE
:10042000DF92EF92FF920F931F93CF93DF936C01B4
:100430007B018B01040F151FEB015E01AE18BF0895
:10044000C017D10759F06991D601ED91FC91019047
:10045000F081E02DC6010995892B79F7C501DF915F
:10046000CF911F910F91FF90EF90DF90CF90BF90B1
:10047000AF90089581E0809334020895FC01538D7C
:10048000448D252F30E0842F90E0821B930B54176E
:1004900010F0CF96089501970895FC01918D828DFB
:1004A000981761F0A28DAE0FBF2FB11D5D968C9194
:1004B000928D9F5F9F73928F90E008958FEF9FEFD3
:1004C0000895FC01918D828D981731F0828DE80F8F
:1004D000F11D858D90E008958FEF9FEF0895FC0149
:1004E000918D228D892F90E0805C9F4F821B910916
:1004F0008F739927089585EA94E00E946F0221E0A6
:10050000892B09F420E0822F0895FC01A48DA80F07
:10051000B92FB11DA35ABF4F2C91848D90E0019645
:100520008F739927848FA689B7892C93A089B18965
:100530008C91837080648C93938D848D981306C006
:100540000288F389E02D80818F7D80830895EF926A
:10055000FF920F931F93CF93DF93EC0181E0888F7D
:100560009B8D8C8D98131AC0E889F989808185FF4D
:1005700015C09FB7F894EE89FF896083E889F989EF
:1005800080818370806480839FBF81E090E0DF91F1
:10059000CF911F910F91FF90EF900895F62E0B8D44
:1005A00010E00F5F1F4F0F731127E02E8C8D8E11FF
:1005B0000CC00FB607FCFACFE889F989808185FF66
:1005C000F5CFCE010E948502F1CFEB8DEC0FFD2F10
:1005D000F11DE35AFF4FF0829FB7F8940B8FEA8921
:1005E000FB8980818062CFCFCF93DF93EC01888D30
:1005F0008823B9F0AA89BB89E889F9898C9185FD9E
:1006000003C0808186FD0DC00FB607FCF7CF8C912B
:1006100085FFF2CF808185FFEDCFCE010E9485025C
:10062000E9CFDF91CF910895833081F028F48130B4
:1006300099F08230A9F008958730A9F08830C9F088
:100640008430B1F4809180008F7D03C08091800060
:100650008F7780938000089584B58F7784BD089547
:1006600084B58F7DFBCF8091B0008F778093B000F1
:1006700008958091B0008F7DF9CFCF93DF93282F1D
:1006800030E0F901EA52FD4F8491F901E35DFC4F3E
:10069000D491F901E75EFC4FC491CC23A1F0811104
:1006A0000E941403EC2FF0E0EE0FFF1FE453FD4F08
:1006B000A591B491EC91ED2381E090E009F480E004
:1006C000DF91CF91089580E090E0FACF1F93CF9310
:1006D000DF93282F30E0F901EA52FD4F8491F901B0
:1006E000E35DFC4FD491F901E75EFC4FC491CC234C
:1006F000A9F0162F81110E941403EC2FF0E0EE0FE9
:10070000FF1FEE53FD4FA591B4918FB7F894EC9174
:10071000111108C0D095DE23DC938FBFDF91CF91FC
:100720001F910895DE2BF8CFCF93DF9390E0FC016B
:10073000E35DFC4F2491875E9C4FFC0184918823EC
:10074000C9F090E0880F991FFC01E854FD4FA59176
:10075000B491FC01EE53FD4FC591D49161110DC0D0
:100760009FB7F8948C91209582238C9388812823BD
:1007700028839FBFDF91CF910895623051F49FB7D6
:10078000F8943C91822F809583238C93E8812E2BC3
:10079000EFCF8FB7F894EC912E2B2C938FBFEACF2D
:1007A0008E3008F08E508770806480937C0080913A
:1007B0007A00806480937A0080917A0086FDFCCF75
:1007C000809178009091790008953FB7F8948091D6
:1007D0002B0290912C02A0912D02B0912E0226B5F1
:1007E000A89B05C02F3F19F00196A11DB11D3FBF69
:1007F000BA2FA92F982F8827BC01CD01620F711D38
:10080000811D911D42E0660F771F881F991F4A9531
:10081000D1F708958F929F92AF92BF92CF92DF92BD
:10082000EF92FF926B017C010E94E5034B015C019A
:10083000C114D104E104F104B9F00E94E503681980
:1008400079098A099B09683E73408105910580F307
:1008500021E0C21AD108E108F10888EE880E83E091
:10086000981EA11CB11CE4CFFF90EF90DF90CF90B9
:10087000BF90AF909F908F9008952FB7F89460919C
:100880002702709128028091290290912A022FBF9D
:1008900008950F931F930E943D046093AD047093DD
:1008A000AE048093AF049093B00485EA94E00E9474
:1008B0004D0297FF1DC00E943D040091AD041091B0
:1008C000AE042091AF043091B004601B710B820B19
:1008D000930B0091A9041091AA042091AB043091CC
:1008E000AC046017710782079307F8F28FEF9FEF50
:1008F0001F910F91089520910102260F3327331F76
:1009000021323105ECF420919F04FC0190E080E05D
:10091000243069F082E00895A09101022191AC0198
:1009200041525E4FA40FB52FB11D2C93019686172F
:1009300098F380910102680F6093010280E00895AE
:1009400081E0089510929F0481E080937E041092CC
:10095000790461E082E10E94660361E083E10E9424
:100960006603E9EBF0E080818E7F808380818D7F5C
:10097000808388E48093B80085E48093BC00089568
:10098000CF93DF9391E09093DE018823B9F0C0917B
:10099000B800D091BA008091BC008A7B8093BC00E3
:1009A00060E082E10E94660360E083E10E946603EA
:1009B0000E94A204D093BA00C093B800DF91CF91F7
:1009C0000895CF92DF92EF92FF920F931F93CF93F0
:1009D000DF93D82FC62F613208F098C00E94E5033C
:1009E0006B017C0180919F0481116BC081E0809339
:1009F0009F0480937E049FEF90937D0410927C046B
:100A00009C0F90937B0480937A0480917A04DD0F8D
:100A1000D82BD0937A0480917904813009F078C082
:100A2000109279040E94E5036B017C0180917A04A5
:100A30008093BB008091A1049091A204A091A30493
:100A4000B091A404892B8A2B8B2BA1F00E94E50383
:100A50000091A1041091A2042091A3043091A40458
:100A60006C197D098E099F09061717072807390792
:100A700008F448C08091BC0083FDD8CF85EC8093FA
:100A8000BC000E94E5036B017C0180919F048130D2
:100A900009F440C080917C048C1710F4C0917C0450
:100AA000E9E5F4E0AFE7B4E080E08C1355C08C2FAB
:100AB000DF91CF911F910F91FF90EF90DF90CF903A
:100AC00008958091A1049091A204A091A304B091F3
:100AD000A404892B8A2B8B2B09F484CF0E94E50375
:100AE0000091A1041091A2042091A3043091A404C8
:100AF0006C197D098E099F09061717072807390702
:100B000008F070CF8091A0040E94C004C0E0CFCF55
:100B100085EEB5CF8091A1049091A204A091A30489
:100B2000B091A404892B8A2B8B2B09F4AECF0E94A1
:100B3000E5030091A1041091A2042091A304309137
:100B4000A4046C197D098E099F0906171707280749
:100B5000390708F09ACFD6CF91919D938F5FA5CF9B
:100B60008F929F92AF92BF92CF92DF92EF92FF92BD
:100B70000F931F93CF93DF93D0915804D13208F095
:100B8000D7C0182FC09157040E94E5036B017C0168
:100B900080919F0481116BC082E080939F04109329
:100BA0007E048FEF80937D0410927C04D0937B04AD
:100BB000A7E3B4E0E9E5F4E080E0D81391C0109237
:100BC0007A0480917A04CC0FC82BC0937A04809168
:100BD0007904813009F088C0109279040E94E503FD
:100BE0006B017C0180917A048093BB008091A10409
:100BF0009091A204A091A304B091A404892B8A2B04
:100C00008B2BA1F00E94E5030091A1041091A20496
:100C10002091A3043091A4046C197D098E099F09C9
:100C2000061717072807390708F442C08091BC004F
:100C300083FDD8CF85EC8093BC000E94E5036B0157
:100C40007C0180919F04823009F450C080917D0422
:100C50008F3F09F46FC080917D04803209F46CC02D
:100C600080917D04803309F469C084E026C08091BE
:100C7000A1049091A204A091A304B091A404892B93
:100C80008A2B8B2B09F484CF0E94E5038090A1046A
:100C90009090A204A090A304B090A4046C197D09C4
:100CA0008E099F0986169706A806B90608F070CF28
:100CB0008091A0040E94C00485E010923604109236
:100CC000580410923504DF91CF911F910F91FF903E
:100CD000EF90DF90CF90BF90AF909F908F9008954E
:100CE0009D9191938F5F69CF85EEA5CF8091A104EF
:100CF0009091A204A091A304B091A404892B8A2B03
:100D00008B2B09F49ECF0E94E5030091A104109162
:100D1000A2042091A3043091A4046C197D098E09CA
:100D20009F09061717072807390708F08ACFC0CF91
:100D300081E0C3CF80E0C1CF82E0BFCF83E0BDCFF1
:100D4000089508950895E091DD018091DC01E81790
:100D500030F4F0E0E158FB4F808190E008958FEF90
:100D60009FEF08959091DD018091DC012FEF3FEF1F
:100D7000981748F4E92FF0E0E158FB4F208130E06C
:100D80009F5F9093DD01C90108958091DC019091EE
:100D9000DD01891B990B0895CF92DF92EF92FF92AC
:100DA0000F931F93CF93DF937C01CB018A01209196
:100DB0003504222389F0EB016B01C40ED51ECC153E
:100DC000DD0569F06991D701ED91FC910190F08109
:100DD000E02DC7010995F3CF642F0E947B04C80161
:100DE000DF91CF911F910F91FF90EF90DF90CF9007
:100DF0000895CF93DF931F92CDB7DEB7698320911B
:100E000035042223F9F020915804203258F021E0D3
:100E100030E0FC013383228390E080E00F90DF918B
:100E2000CF91089580913604E82FF0E0E95CFB4F04
:100E3000998190838F5F809336048093580481E07A
:100E400090E0ECCF61E0CE0101960E947B04F7CFE9
:100E500090E080E00895CF92DF92EF92FF92CF93DF
:100E6000DF93DC011796CC911797D0E06111DC2F4E
:100E700018962C91189730E0220F331F24533D4FC2
:100E800050E040E0F90185919491FC01F080BA01B5
:100E900090E080E0EF2DEC23ED1310C04F5F5F4F2B
:100EA0001D96CD90DD90ED90FC9050976C157D05D2
:100EB0008E059F0538F36FEF7FEFCB01DF91CF9168
:100EC000FF90EF90DF90CF9008958F929F92AF9216
:100ED000BF92CF92DF92EF92FF920F931F93CF9327
:100EE000DF93CDB7DEB7C054D1400FB6F894DEBF64
:100EF0000FBECDBF8C010E943D04F801C184D28495
:100F0000E384F4849B01AC012C193D094E095F096F
:100F100069017A0130EDC31637E0D306E104F1042C
:100F2000A8F48189C05CDE4F0FB6F894DEBF0FBE17
:100F3000CDBFDF91CF911F910F91FF90EF90DF9088
:100F4000CF90BF90AF909F908F90089561877287E8
:100F5000838794871482138212821182108262E046
:100F600085810E94940361E070E080E090E00E943F
:100F70000A0461E0F80185810E94940360E0F801B1
:100F800085810E946603F80186818551823028F5AB
:100F90008BE291E10197F1F762E0F80185810E940F
:100FA0009403F801828990E08230910538F0880F2F
:100FB000991F880F991F05970197F1F7F89460E042
:100FC000C8010E942B076F3F7F4F8F4F9F4F61F4E7
:100FD000F801118A789480E0A5CF64E170E080E0A8
:100FE00090E00E940A04D8CF61E0C8010E942B075C
:100FF0006F3F7F4F8F4F9F4F59F39E012F5F3F4FA2
:1010000079015E013FEBA31A3EEFB30A670160E08E
:10101000C8010E942B07F60160837183828393834A
:1010200061E0C8010E942B07F60164837583868303
:101030009783F8E0CF0ED11CCA14DB0441F77894F3
:1010400030E020E0F70180809180A280B38044816D
:10105000558166817781FFEF8F169F06AF06BF0629
:1010600031F04F3F8FEF58076807780719F4F80100
:10107000118AB1CFF90183E0F595E7958A95E1F7FB
:10108000E00FF11F8081880F84169506A606B7062B
:10109000F0F080832F5F3F4FF8E0EF0EF11C283215
:1010A000310581F6F801448120818181280F3327A1
:1010B000331F8281280F311D8381820F932F911D51
:1010C00099274817190699F681E0818B2BCF81600B
:1010D000E0CF8FB7F8948091D4018FBF089561E07D
:1010E000FC0184810E9466038091D30181111092DA
:1010F000D30108958EBD00000DB407FEFDCF8EB55F
:1011000008958FEF0C947A080F931F93CF93DF937A
:10111000EC010E943D048B010E9481088F3F69F021
:101120000E943D04601B710B6C177D07A8F380E0E3
:10113000DF91CF911F910F91089581E0F9CF8CBD80
:101140009DBD0895CF93DF93EC018091D301811170
:1011500009C081E08093D30180914E0590914F05A5
:101160000E949F0860E08C81DF91CF910C94660310
:101170008F929F92AF92BF92FF920F931F93CF9344
:10118000DF93EC01F62E49015A018E81882389F004
:101190008F8198859C012F5F3F4F38872F83823046
:1011A000924018F40E948108F3CFCE010E946F088C
:1011B0001E82CE010E94A2088CE291E00E94840867
:1011C0008F2D80640E947A0808E110E0D501C401E7
:1011D000002E04C0B695A795979587950A94D2F7E7
:1011E0000E947A0808501109083F8FEF180771F71D
:1011F00085E9FF2021F028E087E8F2128FEF0E94B6
:101200007A0810E00E9481088A8787FF04C01F3F88
:1012100011F01F5FF7CFDF91CF911F910F91FF90DA
:10122000BF90AF909F908F900895AF92BF92CF9252
:10123000DF92EF92FF920F931F93CF93DF93EC0116
:101240006901C801820F931F8130924050F58E8151
:10125000882379F088819981AA81BB8184179507B9
:10126000A607B70731F48F819885C816D90608F00C
:1012700042C0488359836A837B838B85833039F0EE
:1012800089E0440F551F661F771F8A95D1F79A0191
:10129000AB0161E1CE010E94B808882389F083E0A8
:1012A0008D83CE010E946F0880E0DF91CF911F9166
:1012B0000F91FF90EF90DF90CF90BF90AF90089587
:1012C0000E943D045B010E9481088A878F3F69F478
:1012D0000E943D046A197B096D327140A0F38FE0D2
:1012E0008D83CE010E946F08DCCF8E3F89F4188673
:1012F0001F8281E08E838F8198858C159D0550F427
:101300000E9481088F819885019698878F83F3CFFB
:101310008DE0E6CF6701E00EF11E0E948108F60124
:1013200081936F01EE15FF05C1F78F819885080F36
:10133000191F18870F838985882319F0011512401A
:10134000A0F08E81882389F08F8198859C012F5F82
:101350003F4F38872F838230924018F40E948108D3
:10136000F3CFCE010E946F081E8281E09ECFCF9204
:10137000DF92EF92FF920F93CF93DF93EC0169011D
:1013800082E1411551056105710599F08B85833026
:1013900039F089E0440F551F661F771F8A95D1F7F2
:1013A0009A01AB0168E1CE010E94B808882319F0C8
:1013B00084E08D832DC08EEF0E947A0876018EEF37
:1013C000D81AF70181917F010E947A08EC14FD047C
:1013D000C1F78FEF0E947A088FEF0E947A080E946F
:1013E00081088A878F71853071F4011116C0CE0192
:1013F0000E946F0881E0DF91CF910F91FF90EF90F5
:10140000DF90CF90089581E18D83CE010E946F0817
:10141000CE010E946F0880E0EECF88E592E00E9446
:101420008408811102C085E1C4CF20E030E0A90129
:101430006DE0CE010E94B808882311F084E1B9CF95
:101440000E9481088111FACFD2CF0F934091D6012B
:101450005091D7016091D8017091D9014115510582
:101460006105710599F0082F25E332E08091DA01DA
:101470009091DB010E94B709882349F01092D601B0
:101480001092D7011092D8011092D90181E00F91EA
:1014900008950F93CF93C82F8091D501811105C076
:1014A000C1E08C2FCF910F91089540910001509190
:1014B000010160910201709103010C2F25E332E0DC
:1014C0008091DA019091DB010E94B709811102C07D
:1014D000C0E0E7CFCC2321F381E00E94250A8823D6
:1014E000B9F31092D501DDCF8F929F92AF92BF9248
:1014F000EF92FF920F931F93CF934B015C01C42F88
:101500008091000190910101A0910201B09103012D
:1015100088159905AA05BB0551F181E00E94490A89
:1015200081110BC080E0CF911F910F91FF90EF9040
:10153000BF90AF909F908F90089585E3E82E82E052
:10154000F82E00E012E030E020E0B501A401809127
:10155000DA019091DB010E941509882319F380922A
:10156000000190920101A0920201B092030140910A
:10157000D5014C2B4093D50181E0D5CFCF93DF939C
:10158000EC016E857F858889998941E00E94740A03
:10159000882351F08A8920E2829FC00111248B5C4C
:1015A0009D4FDF91CF91089590E080E0FACF4F9268
:1015B0005F926F927F928F929F92AF92BF92CF92E3
:1015C000DF92EF92FF920F931F93CF93DF93EC0183
:1015D000423051056105710590F480E0DF91CF91B3
:1015E0001F910F91FF90EF90DF90CF90BF90AF9041
:1015F0009F908F907F906F905F904F900895898516
:101600009A85AB85BC850196A11DB11D84179507F0
:10161000A607B70710F3CB88DC88ED88FE888F8992
:10162000803109F042C0BB27A72F962F852F480194
:1016300059012A013B01C80ED91EEA1EFB1E8091EA
:10164000000190910101A0910201B0910301C8161F
:10165000D906EA06FB0699F58F898031C1F5B301F9
:10166000A201552766277727440F551F4B5C5D4F16
:10167000FA01918280828091D50181608093D501A9
:101680008A89823080F08D819E81AF81B8858C0DF2
:101690009D1DAE1DBF1D8093D6019093D701A093D1
:1016A000D801B093D90181E099CFDB01CA01E7E00D
:1016B000B695A79597958795EA95D1F7B8CF40E06D
:1016C000C701B6010E94740A8111C6CF86CFB3014B
:1016D000A2014F77552766277727440F551F440FE0
:1016E000551F4B5C5D4FFA0180829182A282B382CA
:1016F000C2CF8F929F92AF92BF92CF92DF92EF9222
:10170000FF920F931F93CF93DF93FC018185928506
:10171000A385B4850196A11DB11D84179507A60761
:10172000B70770F480E0DF91CF911F910F91FF9088
:10173000EF90DF90CF90BF90AF909F908F900895E3
:1017400083889488A588B6888789803189F5BB27E6
:10175000A72F962F852FE9016A017B018F01BC011C
:10176000CD01680D791D8A1D9B1D80900001909010
:101770000101A0900201B090030186169706A80609
:10178000B90601F5F8018789803111F5DD24EE24D1
:10179000FF24F601EE0FFF1FEB5CFD4F808191816E
:1017A000B0E0A0E088839983AA83BB8381E0BBCFAC
:1017B000DB01CA01C7E0B695A79597958795CA95AD
:1017C000D1F7C9CF40E00E94740A8111DBCFAACFC4
:1017D000E894C7F8DD24EE24FF24F601EE0FFF1F86
:1017E000EE0FFF1FEB5CFD4F80819181A281B381E1
:1017F000BF70D8CF4F925F926F927F92AF92BF929D
:10180000CF92DF92EF92FF920F931F93CF93DF93CC
:1018100000D000D0CDB7DEB78C0149835A836B83EB
:101820007C835901C12CD12C7601412C82E0582EA9
:10183000612C712C49815A816B817C819E012F5FC3
:101840003F4FC8010E94790B882339F1F801858543
:10185000A301920104C0220F331F441F551F8A9514
:10186000D2F7DA01C901C80ED91EEA1EFB1E498152
:101870005A816B817C818789803111F188EF9FEFDC
:10188000AFEFBFE0481759076A077B0798F2F501E9
:10189000C082D182E282F38281E00F900F900F909C
:1018A0000F90DF91CF911F910F91FF90EF90DF90FC
:1018B000CF90BF90AF907F906F905F904F900895C2
:1018C00088EF9FEFA0E0B0E0DDCF8F929F92AF92C4
:1018D000BF92CF92DF92EF92FF920F931F93CF931D
:1018E000DF93EC018D8181110EC080E0DF91CF91FB
:1018F0001F910F91FF90EF90DF90CF90BF90AF902E
:101900009F908F9008950B891C892D893E8904171B
:1019100015072607370748F34A015B01823031F487
:101920008A869B86AC86BD8681E0E0CF81149104D7
:10193000A104B10449F41E821F82188619861A86F2
:101940001B861C861D86F0CF0A851B852C853D8550
:10195000EB8DFC8D858590E00996B901A801415079
:10196000510961097109082E04C07695679557954C
:1019700047950A94D2F775016401E1E0CE1AD108C7
:10198000E108F10804C0F694E794D794C7948A95C7
:10199000D2F7C416D506E606F70620F0012B022B77
:1019A000032B11F58F89988DA98DBA8D8E839F8316
:1019B000A887B9878E010A5F1F4FC114D104E104C3
:1019C000F10409F4ADCF4E815F8168857985980176
:1019D0008B8D9C8D0E94790B91E0C91AD108E1088A
:1019E000F1088111EACF81CFC41AD50AE60AF70AB5
:1019F000E1CF3F924F925F926F927F928F929F9230
:101A0000AF92BF92CF92DF92EF92FF920F931F930C
:101A1000CF93DF93CDB7DEB72C970FB6F894DEBF28
:101A20000FBECDBF5C01DC015B968D909C905C97F6
:101A300016964D905D906D907C90199741145104CD
:101A40006104710409F468C0BFEF4B1A5B0A6B0AAA
:101A50007B0A312CF40181859285A385B4859C0194
:101A6000AD012F5F3F4F4F4F5F4F29873A874B871D
:101A70005C87730162011D821E821F821886F40139
:101A800081859285A385B4852D813E814F815885BE
:101A9000281739074A075B0708F056C089859A85D9
:101AA000AB85BC858C159D05AE05BF0550F482E065
:101AB000C82ED12CE12CF12C92E0492E512C612C16
:101AC000712C9E012F5F3F4FB701A601C4010E94F8
:101AD000790B8823C9F189819A81AB81BC81892BDB
:101AE0008A2B8B2B09F1260137019FEF491A590ADE
:101AF000690A790A2D813E814F8158852F5F3F4FBA
:101B00004F4F5F4F2D833E834F8358873FEFC31A5C
:101B1000D30AE30AF30AB3CFF40140805180628014
:101B200073803324339496CFC414D504E604F704A9
:101B300009F70FEF1FEF2FEF3FE0B701A601C40138
:101B40000E94D70A811119C080E02C960FB6F89434
:101B5000DEBF0FBECDBFDF91CF911F910F91FF90E0
:101B6000EF90DF90CF90BF90AF909F908F907F903D
:101B70006F905F904F903F900895D50116964D91CC
:101B80005D916D917C911997411551056105710524
:101B900039F097018601C4010E94D70A8823A1F277
:101BA000D5011696CD92DD92ED92FC9219973320D5
:101BB00051F0D701C6010196A11DB11DF40180832A
:101BC0009183A283B383F5018789908DA18DB28D16
:101BD000892B8A2B8B2B39F48481C78AD08EE18E96
:101BE000F28E80688483F50184818062848381E041
:101BF000ACCF1F93CF93DF93FC012581222371F19A
:101C0000162FEC01848187FF1EC0CF010E94BE0AFF
:101C1000FC01892B19F18D81823040F48B899C89DC
:101C2000AD89BE89848F958FA68FB78F8F89988D48
:101C3000938F828F8F89988DA98DBA8DB58BA48B48
:101C40008C818F778C83111103C08C818F7E8C8364
:101C5000812FDF91CF911F910C94490A80E0DF9191
:101C6000CF911F910895FF920F931F93CF93DF930E
:101C7000EC018D81813041F090E080E0DF91CF91E7
:101C80001F910F91FF9008958C8181FFF5CF82FD08
:101C90001BC00091DA011091DB01C8010E94A2086B
:101CA0000E948108F82EC8010E946F088FEFF81279
:101CB000E3CF8C8185FF1BC060E0CE010E94F90D4F
:101CC0008C818F7D8C83D8CF4B895C896D897E898F
:101CD0008A859B85AC85BD8584179507A607B707C0
:101CE000C1F2CE010E94650C8111D3CFC5CF4091C6
:101CF000D6015091D7016091D8017091D901452B3F
:101D0000462B472B21F080E00E94250AB5CF806149
:101D10008C832A853B85317080E092E0821B930B97
:101D2000ADCFCF93DF93EC0161E00E94F90D8823E2
:101D300011F01D8281E0DF91CF9108959F92AF92C3
:101D4000BF92CF92DF92EF92FF920F931F93CF93A8
:101D5000DF9300D000D01F92CDB7DEB78C016D832A
:101D6000DC0115968C911597813009F0B9C0149655
:101D70008C9181FFB5C082FD9FC0D8015B96ED912B
:101D8000FC915C971A96AD90BD90CD90DC901D971C
:101D900094809A94B601A50189E076956795579548
:101DA00047958A95D1F79422B1E0BB22992009F496
:101DB0009DC0D8015B96ED91FC915C971696CD90F5
:101DC000DD90ED90FC901997B2E0CB1AD108E108B4
:101DD000F108858504C0CC0CDD1CEE1CFF1C8A9527
:101DE000D2F74685578560897189C40ED51EE61ED7
:101DF000F71EC90CD11CE11CF11CA114B10409F09F
:101E000004C1F80142855385648575858389948969
:101E1000A589B689481759076A077B0708F4F5C0F2
:101E200081E00E94490A882309F45AC0C092000147
:101E3000D0920101E0920201F09203018091D5015C
:101E400081608093D501F501EB5CFD4F8D8180832E
:101E5000F80182859385A485B5850196A11DB11DE4
:101E600082879387A487B587438954896589768952
:101E7000481759076A077B0738F42481838B948BB2
:101E8000A58BB68B20682483D80114968C9183FD92
:101E90009DC081E090E00F900F900F900F900F90F9
:101EA000DF91CF911F910F91FF90EF90DF90CF9036
:101EB000BF90AF909F900895F80143895489658938
:101EC000768982859385A485B585481759076A0761
:101ED0007B0709F452CFC8010E94650C81114DCFD8
:101EE00081E090E0F8019383828349C0D80116967F
:101EF0004D915D916D917C911997A114B10409F0F8
:101F00006DC0411551056105710589F557968D9193
:101F10009D910D90BC91A02D0097A105B10509F0F0
:101F20004FC0C8010E94F90C8823D1F2D8015B96FA
:101F3000ED91FC915C971696CD90DD90ED90FC9024
:101F40001997B2E0CB1AD108E108F108858504C0E1
:101F5000CC0CDD1CEE1CFF1C8A95D2F746855785FC
:101F600060897189C40ED51EE61EF71E4ACF9E01F8
:101F70002F5F3F4FCF010E94790B811103C090E08A
:101F800080E089CF89819A81AB81BC81F801238D62
:101F9000348DF901278948EF5FEF60E070E0203170
:101FA00021F048EF5FEF6FEF7FE084179507A607FA
:101FB000B70730F0C8010E94F90C8111FACE90CF1A
:101FC000F80186839783A087B187F3CE61E0C801CB
:101FD0000E94F90D882309F483CF5BCF6A017B014E
:101FE00082E0C81AD108E108F108858504C0CC0C4C
:101FF000DD1CEE1CFF1C8A95D2F74685578560894B
:102000007189C40ED51EE61EF71E41E0C701B60158
:102010000E94740A811117CF63CFCF93DF93EC0135
:10202000ED85FE85099599878887DF91CF91089581
:10203000DC011B96ED91FC910994FC011286089538
:1020400021E0FC0122870895FC0182850895CF9349
:10205000DF93EC01EF85F8890995688779878A878E
:102060009B87DF91CF910895DC011D96ED91FC9146
:1020700009940F931F93CF93DF93CDB7DEB72A97C1
:102080000FB6F894DEBF0FBECDBF8C01DC015596B4
:10209000ED91FC91CE01019609958B819C81AD81DA
:1020A000BE81F80182879387A487B5878F81988541
:1020B000A985BA8586879787A08BB18B2A960FB69C
:1020C000F894DEBF0FBECDBFDF91CF911F910F916E
:1020D0000895DC015396ED91FC910994FC01128A5C
:1020E000089521E0FC01228B0895FC018289089566
:1020F000FC011486089521E0FC0124870895FC0169
:10210000848508958F929F92AF92BF92FF920F9312
:102110001F93CF93DF93EC018C01095E1F4FC80121
:102120000E946507882339F08D8D8C3009F45CC0DE
:1021300038F48B30E1F060E070E080EC9FE73DC068
:1021400085518230C0F7F98C6F2D70E0762F6627AD
:1021500066277F778A8D682B90E080E00E94372A7F
:102160002DEC3CEC4CEC5DE30E94982A57C0698D45
:1021700070E090E080E00E94372A4B015C01FA8C0D
:10218000F7FE0AC0AC019B0160E070E080E89FEBC5
:102190000E94A72B4B015C016F2D6F7070E090E0E7
:1021A00080E00E94392A2DEC3CEC4CEC5DE30E946F
:1021B000982AA50194010E94A82B6A877B878C87A7
:1021C0009D87C8010E946507882349F08D8D8B305B
:1021D00030F08D3038F18551823008F44BC060E02A
:1021E00070E080EC9FE738C0F98C6F2D70E090E0D4
:1021F00080E00E94372A4B015C016A8D6F7070E0AD
:1022000090E080E00E94392A2DEC3CEC4CEC5DE340
:102210000E94982AA50194010E94A82BF7FECDCF19
:102220009058CBCF688D70E090E080E00E94392A12
:102230002DEC3CEC4CEC5DE30E94982A4B015C01D8
:102240006F8970E090E080E00E94392A9B01AC0128
:10225000C501B4010E94A82B6E877F87888B998B5C
:10226000DF91CF911F910F91FF90BF90AF909F9002
:102270008F9008956F89788D76276727762790E06D
:1022800080E00E94372A2DEC3CEC4CEC5DE30E9490
:10229000982AE2CFCF93DF93EC0162E08C8D0E940D
:1022A00094030E943D04605D77408109910968A311
:1022B00079A38AA39BA387E389A7DF91CF91089590
:1022C00060E0FC0181A10C949403CF93DF93EC01B7
:1022D0008F850E94D00399878887DF91CF910895D9
:1022E00060E0FC0187850C949403FF920F931F9389
:1022F000CF93DF93F82E062FC7E0D0E010E061E027
:10230000802F0E9466038F2D0E943D030C2E01C07A
:10231000880F0A94EAF7182B60E0802F0E9466036A
:10232000219768F7812FDF91CF911F910F91FF9037
:102330000895CF92DF92EF92FF920F931F93CF9366
:10234000DF93EC018B810E943D03892B31F060E02B
:1023500070E0CB010E940A04F5CFEFB6F8946A81D1
:102360008B810E947511082F6A818B810E947511E3
:10237000182F6A818B810E947511F82ED12CC12CE7
:102380008C818C151D0469F060F061E08A810E94E7
:10239000660360E08A810E9466038FEFC81AD80A3C
:1023A000EFCFEFBE612F70E090E080E0982F872F95
:1023B000762F6627802B6F29D02FDD0FDD0B0D2F99
:1023C00010E030E020E0302F222711270027602B7B
:1023D000712B822B932BDF91CF911F910F91FF9047
:1023E000EF90DF90CF900895AF92BF92CF92DF929F
:1023F000EF92FF921F93CF93DF93EC015C0184E196
:10240000A80EB11C1B898A8999898E8B9F8B61E0EC
:102410000E94940362E08F890E9494031034B1F10A
:10242000103821F0103221F482E001C081E0888F61
:102430001AE0C12CD12C7601C5010E949911C60E5B
:10244000D71EE81EF91E60E070E0CB010E940A046E
:10245000115091F7C701B6012AE030E040E050E0AA
:102460000E946D2DCA01B9010E94392A0E94862C52
:10247000698F7A8F8B8F9C8FDF91CF911F91FF9007
:10248000EF90DF90CF90BF90AF90089583E0CFCFD3
:10249000CF92DF92EF92FF92CF93DF93EC018F897F
:1024A0000E943D03892BE9F4CE0144960E949911C4
:1024B0006B017C0160E070E0CB010E940A04898D11
:1024C0009A8DAB8DBC8DA7019601281B390B4A0B49
:1024D0005B0BCA01B9010E94392A688779878A870C
:1024E0009B87DF91CF91FF90EF90DF90CF90089581
:1024F0008F929F92AF92BF92CF92DF92EF92FF9214
:102500000F931F93CF93DF9300D000D0CDB7DEB7EA
:10251000FC018581813091F080E00F900F900F9049
:102520000F90DF91CF911F910F91FF90EF90DF906F
:10253000CF90BF90AF909F908F900895848181FF3E
:10254000EBCF83899489A589B689892B8A2B8B2B1C
:1025500009F45FC07F0140E050E0BA01CF010E9462
:10256000650C8823C9F2F701C38CD48C8788908CC2
:10257000A18CB28C82E090E0A0E0B0E0F601808314
:102580009183A283B3839E012F5F3F4FB501A401C6
:10259000C6010E94790B882309F4BECF00E010E049
:1025A0009801B501A401C6010E94D70A882309F445
:1025B000B3CF89809A80AB80BC80F6018789803157
:1025C00019F188EF9FEFAFEFBFE088169906AA06D2
:1025D000BB06C8F2F701178A108E118E128E138A6D
:1025E000148A158A168A84818068848361E0C70111
:1025F0000E94F90D882309F48FCF40E050E0BA0122
:10260000C7010E94650C89CF88EF9FEFA0E0B0E082
:10261000DCCF81E082CFCF92DF92EF92FF921F93C7
:10262000CF93DF93EC0180E2689FF0011124EB5C13
:10263000FD4F9385917161F0842F827449F080E0A1
:10264000DF91CF911F91FF90EF90DF90CF90089591
:10265000142F6A8B8091000190910101A0910201D9
:10266000B09103018E879F87A88BB98BC488D588CA
:10267000F12CE12C7601DD24CC24CF8AD88EE98E92
:10268000FA8E828D938DB0E0A0E0AC01BD014C29A3
:102690005D296E297F294F8B588F698F7A8F8385AB
:1026A0008871B1F4848D958DA68DB78D8B8B9C8BA5
:1026B000AD8BBE8B81E08D831F701C831E821F82B9
:1026C000188619861A861B861C861D8681E0B8CF5F
:1026D000803109F0B4CF9E012D5E3F4F8B8D9C8DD4
:1026E0000E94FA0B882309F4AACF84E0E4CFFB010F
:1026F00001900020E9F73197AF01461B570BDC0131
:10270000ED91FC910280F381E02D0994CF93DF934A
:10271000BC0185EA94E00E94E901EC016AEA71E0FB
:1027200085EA94E00E9477138C0F9D1FDF91CF9173
:1027300008958F929F92AF92BF92DF92EF92FF9295
:102740000F931F93CF93DF938C011092DD011092B2
:10275000DC0110923604109258040E94A20480EA10
:1027600096E0909300028093FF0181EA96E09093B7
:10277000040280930302C1E0C093350488E680938D
:10278000570481E00E94B00581119BC0C0933504BD
:10279000109236041092580460E082E495E00E94A2
:1027A000F90681E00E94B00561E088E60E94E1043C
:1027B0008093DC0182E495E00E94B20687FD86C02A
:1027C000F801C285D3858FA5882321F0CE018A9692
:1027D0000E94910E1B8619861E821D828AE08C83C0
:1027E0000E943D047B0161E08C810E94940361E0C2
:1027F0008C810E946603DFB6F8948091D20181112A
:1028000027C0E3E2F3E08491E7E3F3E09491E82F5B
:10281000F0E0EE0FFF1FE854FD4FA591B491EC914D
:10282000E92321F461E08AE00E94660361E08AE026
:102830000E9494038CB580618CBD8CB580648CBD86
:1028400061E08DE00E94940361E08BE00E949403BC
:102850008091D2018F5F8093D201DFBE82E58093A9
:102860004E0510924F0580914E0590914F050E94A4
:102870009F085AE0D52E8FEF0E947A08DA94D11083
:10288000FACFCE010E94A20820E030E0A90160E06A
:10289000CE010E94B808D82E8A87F1E08F17D9F0B0
:1028A0000E943D046E197F09613D774068F381E025
:1028B0008D83CE010E946F0881EC91E00E94861307
:1028C000FFCF80EF91E00E948613FFCF8DED91E066
:1028D0000E948613FFCF2AEA31E040E050E068E032
:1028E000CE010E94B80882FF25C0DB868B85812C33
:1028F000912C5401823029F4812C912CA12C30E4AC
:10290000B32E20E030E0A90167E3CE010E94B808B1
:10291000A501940169E2CE010E94B8088A87882344
:10292000C1F00E943D046E197F09613D774048F374
:1029300088E0BECF44E0D42E0E9481088A87DA94D2
:10294000D110FACF8A3A11F082E0B2CF82E08B87C1
:10295000CDCF8B858230C1F420E030E0A9016AE35D
:10296000CE010E94B808882311F086E0A1CF0E9412
:102970008108807C803C11F483E08B870E94810871
:102980000E9481080E948108CE010E946F0880E5A4
:1029900080934E0510924F057E01FCE0EF0EF11C76
:1029A00041E0BE01C7010E943522882309F4D6C048
:1029B0008FA5811181CF8BA1803109F0D8C082E031
:1029C0008FA7FE01EF5BFF4F1082118212821382EC
:1029D00034978CA19DA1B0E0A0E025E0880F991F5D
:1029E000AA1FBB1F2A95D1F780839183A283B3834B
:1029F000FE01EB5BFF4FF182E08281E08EA718AA17
:102A000019AA1AAA1BAA1CAA1DAA1EAA1FAA18AE96
:102A100019AE1AAE1BAE1CAE8093350488E68093C7
:102A20005704109236041092580460E082E495E056
:102A30000E94F90681E00E94B00567E088E60E94E6
:102A4000E1041092DD018093DC0182E495E00E94B4
:102A5000B2068F77282F30E094E0359527959A9528
:102A6000E1F7922F990F990FC22FC91BCC0FC80FF6
:102A700082E495E00E94B2069C0144E035952795DA
:102A80004A95E1F72F703327922F990F990FD22F84
:102A9000D91BDD0FD80F82E495E00E94B2069C019D
:102AA00054E0359527955A95E1F72F703327922FEB
:102AB000990F990FF22EF91AFF0CF80E82E495E0A7
:102AC0000E94B20682E495E00E94B2069C0164E096
:102AD000359527956A95E1F72F703327922F990F37
:102AE000990FE22EE91AEE0CE80E82E495E00E94BE
:102AF000B2069C0174E0359527957A95E1F72F7021
:102B00003327922F990F990FD22ED91ADD0CD80E98
:102B100082E495E00E94B2069C01E4E03595279599
:102B2000EA95E1F72F703327922F990F990F291B00
:102B3000220F820FF8018283D382E482F582D6834A
:102B4000C78380E0DF91CF911F910F91FF90EF90AD
:102B5000DF90BF90AF909F908F90089540E0BE01AE
:102B6000C7010E943522882309F4A6CE21CF8032E6
:102B700009F0A2CE83E08FA74EA15FA168A579A539
:102B8000FE01EF5BFF4F40835183628373839E019D
:102B9000235C3F4FC7010E94FA0B811129CF8CCED5
:102BA0008F929F92AF92BF92EF92FF920F931F93DB
:102BB000CF93DF93CDB7DEB7A1970FB6F894DEBF02
:102BC0000FBECDBF7C01FA01CB0119A2223008F45F
:102BD0002AE08E010F5D1F4F822E912CB12CA12C6B
:102BE000BF01A50194010E944B2DF901CA016A3071
:102BF0000CF5605DD8016E938D01232B242B252BC2
:102C000079F790E080E0109721F0BD01C7010E94A4
:102C10007713A1960FB6F894DEBF0FBECDBFDF913C
:102C2000CF911F910F91FF90EF90BF90AF909F9029
:102C30008F900895695CDECFFB0144815581FC01D2
:102C4000248135812417350778F0808191810097A0
:102C500059F0FB01608171816115710529F00E94B5
:102C60009F2F21E0892B09F020E0822F0895FC019D
:102C700024813581FB014481558124173507E1F416
:102C8000FC0180819181FB01608171810097D1F00D
:102C900061157105A1F4232BC1F0FC01808190E046
:102CA00008C0232B91F0FB01808190E091958195E4
:102CB000910921E0892B09F020E0822F08950E94DC
:102CC0008F2FF7CF6115710561F721E0F6CF0F93D4
:102CD0001F93CF93DF93EC0188819981009759F07E
:102CE0002A813B812617370730F081E0DF91CF91B1
:102CF0001F910F9108958B016F5F7F4F0E94B72E38
:102D0000009759F0998388831B830A832C813D8126
:102D1000232B59F7FC011082E8CF80E0E7CFEF9238
:102D2000FF920F931F93CF93DF936115710541F4C9
:102D300080E0DF91CF911F910F91FF90EF90089568
:102D40007B01EC01CB010E94BD270097A9F00C810B
:102D50001D81080F191FB801CE010E946716882334
:102D600039F3288139818C819D81B701820F931FAE
:102D70000E94B6271D830C8381E0DBCFCF92DF92C8
:102D8000EF92FF920F931F93CF93DF93CDB7DEB7F0
:102D900064970FB6F894DEBF0FBECDBF7C01CB01A8
:102DA000BA018E010F5F1F4F22E044E00E94982776
:102DB0006C01FC0101900020E9F73197E81BF90B49
:102DC000892B81F480E064960FB6F894DEBF0FBEC5
:102DD000CDBFDF91CF911F910F91FF90EF90DF90CA
:102DE000CF9008953097D9F0D70114960D911C918A
:102DF0000E0F1F1FB801C7010E946716882311F329
:102E0000F7012081318184819581B601820F931F62
:102E10000E94982FD70115961C930E93149781E06A
:102E2000D2CFCF93DF93EC0188819981009711F085
:102E30000E942E2E198218821D821C821B821A82E9
:102E4000DF91CF910895EF92FF920F931F93CF934D
:102E5000DF93EC018B016115710551F0CB010E94EC
:102E6000BD277C01BC01CE010E94671681110BC0F9
:102E7000CE010E941117CE01DF91CF911F910F91CA
:102E8000FF90EF900895FD82EC82B80188819981CE
:102E90000E94B627F0CFEF92FF920F931F93CF932C
:102EA000DF93EC017B018A01BA010E946716811150
:102EB0000BC0CE010E941117CE01DF91CF911F915F
:102EC0000F91FF90EF9008951D830C83B7018881C7
:102ED00099810E94982FF0CFFB0101900020E9F723
:102EE0003197AF01461B570B0C944B17CF93DF93D1
:102EF000EC01FB018617970749F06081718161152C
:102F0000710541F0448155810E944B17CE01DF913C
:102F1000CF9108950E941117F9CFFC011182108200
:102F200013821282158214820C947617FC0111828E
:102F300010821382128215821482FB0101900020FC
:102F4000E9F73197AF01461B570B0C944B17AF9223
:102F5000BF92CF92DF92EF92FF920F931F93CF9386
:102F6000DF936C015B017A0189012417350720F496
:102F70008F2D7901042F182F6CEA71E0C6010E9491
:102F80009617D5011496CD91DC91EC16FD06E0F470
:102F90000C171D0708F4E801D501ED91FC9111977C
:102FA000EC0FFD1F108110826D917C916E0D7F1DC5
:102FB000C60161157105A1F00E946C17F5018081B1
:102FC0009181C80FD91F1883C601DF91CF911F913E
:102FD0000F91FF90EF90DF90CF90BF90AF9008954A
:102FE0000E941117EBCF0F931F93CF93DF93EC0148
:102FF0008B016CEA71E00E949617F80142815381BF
:1030000064817581CE010E94BE1662EA72E0CE0133
:103010000E948F16F8014681578160857185CE0127
:103020000E94BE16CE01DF91CF911F910F9108959E
:103030000F931F93CF93DF938C01EB016E5F7F4F54
:103040000E948D17BE01685F7F4FC80106960E94DF
:10305000F317C801DF91CF911F910F910895CF927F
:10306000DF92EF92FF920F931F93CF93DF93CDB731
:10307000DEB7A1970FB6F894DEBF0FBECDBF7C01BF
:103080008B016E5F7F4F0E948D17670186E0C80E2F
:10309000D11CF8016085718582859385F7011782BF
:1030A000168211861086138612868E010F5F1F4FBF
:1030B00022E044E00E9498270097A1F0BC01C601DD
:1030C0000E946C17C701A1960FB6F894DEBF0FBE21
:1030D000CDBFDF91CF911F910F91FF90EF90DF90C7
:1030E000CF900895C6010E941117ECCFFC0180819A
:1030F0009181009711F00C942E2E08950F931F9339
:10310000CF93DF9300D000D000D0CDB7DEB78B01D6
:10311000DC01ED91FC910280F381E02DBC01CE0138
:1031200001960995BE016F5F7F4FC8010E94DB01C8
:103130008C01CE0101960E947618C80126960FB622
:10314000F894DEBF0FBECDBFDF91CF911F910F91DD
:1031500008950C942E2E0E94742F85ED8093BC0050
:103160008091A1049091A204A091A304B091A40421
:103170000796A11DB11D23E0B695A7959795879554
:103180002A95D1F72091BC0024FD03C010929F0422
:1031900008954091A1045091A2046091A3047091FC
:1031A000A404452B462B472B69F30097A105B105D5
:1031B00041F025E32A95F1F700000197A109B10933
:1031C000E1CF8091A0040C94C0042F923F924F92C3
:1031D0005F926F927F928F929F92AF92BF92CF92A7
:1031E000DF92EF92FF920F931F93CF93DF93CDB7B0
:1031F000DEB763970FB6F894DEBF0FBECDBF5C019C
:10320000FE0131968E01045F1F4F1E870D874F010F
:1032100080E28193AD85BE85AE17BF07D1F7DA0195
:1032200030E087E09D91592E992309F43EC09E32EB
:1032300001F58A30D9F4512C852D63960FB6F89498
:10324000DEBF0FBECDBFDF91CF911F910F91FF90D9
:10325000EF90DF90CF90BF90AF909F908F907F9036
:103260006F905F904F903F902F90089538E08AE0E4
:10327000D9CFE8EAF2E04491442321F03196941347
:10328000FACFD9CF8317B8F24FED490F4E3598F6E4
:103290004FE9490F4A3118F4F0EE5F2E590EF40150
:1032A000E30FF11D50823F5FBDCF8981803209F469
:1032B000C2CF2B8B6B01FB01838D948DD5015C9666
:1032C0009C938E935B9716821782108611861286C6
:1032D000138614861586212C3696F88BEF87D60137
:1032E0001A964D915D916D917C911D9753968D919C
:1032F0009D910D90BC91A02D481759076A077B0737
:1033000008F0DEC0DB01CA01E5E0B695A795979508
:103310008795EA95D1F7E82FEF703E2ED6011596E6
:103320002C911597223008F486CF14968C9114971F
:1033300080FF82CF3A01F1E07F225B968D919C91D4
:103340007A018B0139E016950795F794E7943A9541
:10335000D1F7223009F045C0FC01628D738D848D58
:10336000958D6E0D7F1D801F911FF601248126FF14
:103370000EC00091000110910101209102013091D5
:103380000301061717072807390709F073C040E043
:103390000E94740A882309F44FCFF6018285938531
:1033A000A485B5858096A11DB11D82879387A487CA
:1033B000B587F0E23F9EB00111246B5C7D4F611533
:1033C000710509F438CFDB018C91882309F462C0C0
:1033D000853E09F0B2C0222009F45EC02224239465
:1033E0007ECFDC0114962C912150E22261147104ED
:1033F00079F4E1100DC0452B462B472B69F5F601FA
:103400008789908DA18DB28D86839783A087B187A0
:10341000D6015B96ED91FC915C9716966D917D912E
:103420008D919C91199762507109810991092585A7
:1034300004C0660F771F881F991F2A95D2F706854B
:10344000178520893189600F711F821F931F6E0DB0
:10345000711D811D911D89CFD60116964D915D91EB
:103460006D917C9119972F8538890E94790B811174
:10347000CFCFE2CE8E01045F1F4F780101E010E054
:103480009301AB01BC018091DA019091DB010E94B4
:10349000150980CF21100EC0F501328A80910001FC
:1034A00090910101A0910201B09103018687978755
:1034B000A08BB18BDB018C91811190CF22242394BE
:1034C0008B898271823109F0B6CE222009F444C082
:1034D000C5010E94BE0A009709F4ADCE20E2FC01AE
:1034E00011922A95E9F72BE0F401DC0101900D928D
:1034F0002A95E1F721E238E2DC0151963C932E93C4
:10350000509740E058E01F965C934E931E97539659
:103510003C932E93529759963C932E9358975796D7
:103520005C934E93569781E00E94490A882309F4E0
:1035300082CE4B89F50162890AC04BE050E0C4019C
:103540000E94792F892B09F0CACE4B89632DC501C2
:103550000E940B13582E70CEF6018581823009F43B
:103560006ACEC6010E94F90C882309F464CED60104
:103570005B96ED91FC915C9716964D915D916D91E6
:103580007C911997DB01CA010297A109B109258530
:1035900004C0880F991FAA1FBB1F2A95D2F7468522
:1035A0005785608971898C019D01040F151F261FA5
:1035B000371F0F87188B298B3A8B8481080F111DB9
:1035C000211D311DD901C8012F85388949895A89A2
:1035D000281739074A075B0721F12C013D0131E02B
:1035E000431A51086108710881E00E94490A882342
:1035F00009F421CEE5E3F2E0119244E0E533F4076B
:10360000D9F740920001509201016092020170923C
:1036100003018091D50181608093D501D301C2015E
:10362000D3CFD6015B96ED91FC91258580E092E0A9
:10363000A0E0B0E004C0880F991FAA1FBB1F2A9505
:10364000D2F7F6014389548965897689840F951FDD
:10365000A61FB71F838B948BA58BB68BD501529673
:103660001C9285E392E03ACF1F93CF93DF93CDB7BF
:10367000DEB76D970FB6F894DEBF0FBECDBFAB01BE
:103680001C821B8222E331E03A8329831E8221E0DF
:10369000BC01CE0101960E94E51811E081110CC019
:1036A00010E0812F6D960FB6F894DEBF0FBECDBF30
:1036B000DF91CF911F910895CE0101960E94910E46
:1036C000F0CF3F924F925F926F927F928F929F9234
:1036D000AF92BF92CF92DF92EF92FF920F931F9320
:1036E000CF93DF93CDB7DEB7C754D1090FB6F894A7
:1036F000DEBF0FBECDBF5C016B012A0119A218A26B
:1037000082E391E09F8F8E8F1BA21C821B829A8383
:1037100089831E828B01712C612C7E013EE1E30EB8
:10372000F11CF501E60DF71D80818F3219F48FEF42
:10373000681A780AD501A60DB71DFE01FB9690E028
:1037400080E04F012D912F3251F0222341F03FEFC5
:10375000631A730A019621938C30910599F7880DAD
:10376000991DFC011082F501E60DF71D80818F3255
:1037700019F4FFEF6F1A7F0AF501E60DF71D30808F
:1037800041E0311040E030E020E0B401C801F20136
:103790000995811107C00C151D05C9F0C8010E94CB
:1037A000910E15C03320A9F0F70185818111F3CF67
:1037B00021E0A401B801C7010E94E518982E0C155C
:1037C0001D0539F1C8010E94910E911027C080E0BB
:1037D00007C00C151D0519F0C8010E94910E81E06B
:1037E000C95BDF4F0FB6F894DEBF0FBECDBFDF91D0
:1037F000CF911F910F91FF90EF90DF90CF90BF90EE
:10380000AF909F908F907F906F905F904F903F9080
:1038100008958823E1F28E010F5F1F4F902F812FB3
:103820008701E92EF82E7DCFCF93DF93CDB7DEB79A
:103830006D970FB6F894DEBF0FBECDBF442399F14C
:10384000AB01BC011C821B8282E391E09A838983D5
:103850001E8222E0CE0101960E94E51881110EC061
:1038600090E081E0911101C080E06D960FB6F89470
:10387000DEBF0FBECDBFDF91CF910895CE0101967F
:103880000E947812882361F3CE0101960E94BE0A3D
:10389000009731F325EEFC0120831E8281E00E9417
:1038A000490A982FDECF81E0E0CFEF92FF920F938D
:1038B0001F93CF93DF93CDB7DEB762970FB6F8941F
:1038C000DEBF0FBECDBF8C017B016E5F7F4F0E94BC
:1038D0008D17F70180859185F80117821682118670
:1038E0001086138612864AE0BE016F5F7F4F0E94EA
:1038F000C627BE016F5F7F4FC80106960E946C17F6
:10390000C80162960FB6F894DEBF0FBECDBFDF913F
:10391000CF911F910F91FF90EF9008958F929F92FA
:10392000AF92BF92CF92DF92EF92FF92CF93DF934D
:10393000EC0189A10E94D003BC01990F880B990B5F
:103940000E94392A20E030EC4FE754E40E94142C06
:103950006B017C01AC019B0160E070E080E89FE3BB
:103960000E94A72B9B01AC01C701B6010E94142C39
:103970002D8D3E8D4F8D58A10E94982A298D3A8D0C
:103980004B8D5C8D0E94142C0E94C92C4B015C0154
:1039900023E333E948E853E46D897E898F89988D64
:1039A0000E94A82B9B01AC0160E070E080E89FE3DF
:1039B0000E94142C6B017C0129893A894B895C890E
:1039C000C501B4010E94142C9B01AC01C701B601D2
:1039D0000E94A82B9B01AC0160E070E080E89FE3AF
:1039E0000E94142C23E333E948E853E40E94A72BF8
:1039F000688779878A879B87DF91CF91FF90EF90C7
:103A0000DF90CF90BF90AF909F908F9008959F923E
:103A1000AF92BF92CF92DF92EF92FF920F931F93DC
:103A2000CF93DF937C01EB016B0142E0C40ED11C0C
:103A3000AE80BF80A114B104A9F42FEF3FEF50E096
:103A400040E0B601C7010E94A717C701DF91CF91DF
:103A50001F910F91FF90EF90DF90CF90BF90AF90AC
:103A60009F900895EA81FB81EA0DFB1D90801082F2
:103A70000A811B816EE270E0C8010E94AD2F0A0D21
:103A80001B1DF80190820097C1F22A813B81AC0195
:103A9000421B530B9A01D3CFEF92FF920F931F93C8
:103AA000CF93DF9300D000D000D0CDB7DEB77B013D
:103AB000FC01608171816115710519F18C01CE01E4
:103AC00001960E94071DB701CE0101960E9437168C
:103AD000F82ECE0101960E94761890E080E0FF203B
:103AE00019F0F8018081918126960FB6F894DEBF17
:103AF0000FBECDBFDF91CF911F910F91FF90EF903F
:103B00000895F2CF0F931F93CF93DF93CDB7DEB716
:103B10002C970FB6F894DEBF0FBECDBF6CEA71E0F4
:103B2000CE0107960E9496170E94490497FD1BC07C
:103B300089831A820B851C850F5F1F4FB801CE0148
:103B400007960E946716882379F32F8138858B8525
:103B50009C85BE016F5F7F4F820F931F0E94982F3D
:103B60001C870B87E1CF1A8219821C821B821E825E
:103B70001D8267E972E0CE0101960E942317BE0103
:103B80006F5F7F4FCE0107960E943716182FCE0128
:103B900001960E947618112351F080E180938100F4
:103BA000109234028DE592E00E94861379C01A8249
:103BB00019821C821B821E821D8261E972E0CE0185
:103BC00001960E942317BE016F5F7F4FCE010796BB
:103BD0000E943716182FCE0101960E9476181123E5
:103BE00089F08AE392E0909333028093320281E07D
:103BF00080936F00809131028061809381008CE41A
:103C000092E0D2CF1A8219821C821B821E821D82F0
:103C100069E872E0CE0101960E942317BE016F5F32
:103C20007F4FCE0107960E941C16182FCE010196D9
:103C30000E947618112309F445C02B853C8547E086
:103C400050E0BE01695F7F4FCE0101960E94A71729
:103C50008091CD059091CE05BE016F5F7F4F039699
:103C60000E944C1D009759F1DC01ED91FC910084FC
:103C7000F185E02D099564E472E085EA94E00E9404
:103C8000E901BE016F5F7F4F85EA94E00E94DB018E
:103C900088E392E00E948613CE0101960E94761876
:103CA000CE0107960E9476182C960FB6F894DEBFC8
:103CB0000FBECDBFDF91CF911F910F91089586E286
:103CC00092E0E8CF1A8219821C821B821E821D821A
:103CD00061E872E0CE0101960E942317BE016F5F7A
:103CE0007F4FCE0107960E941C16182FCE01019619
:103CF0000E9476188EE692E0112309F455CF2B85A9
:103D00003C8547E050E0BE01695F7F4FCE010196E0
:103D10000E94A7178091CD059091CE05BE016F5FDF
:103D20007F4F03960E944C1D0097B9F0DC01ED9186
:103D3000FC910284F385E02D09956EE172E085EA3D
:103D400094E00E94E901BE016F5F7F4F85EA94E035
:103D50000E94DB0181E192E09DCF8FEF91E09ACF4D
:103D60000E947B0281110C94821D08958F929F9274
:103D7000AF92BF92CF92DF92EF92FF920F931F9379
:103D8000CF93DF9300D000D000D0CDB7DEB77C0159
:103D90005B01BC01CE0101960E94071DBE016F5F51
:103DA0007F4FC5010E94DB018C0165EA72E0C5010D
:103DB0000E94E901080F191FF701C084D1840D2C5E
:103DC000000CEE08FF08F7FE2CC06DE2C5010E9452
:103DD000D4014C0144275527BA014C195D096E09DD
:103DE0007F092AE0C5010E94D015880D991D080F92
:103DF000191FCE0101960E947618C80126960FB6AB
:103E0000F894DEBF0FBECDBFDF91CF911F910F9110
:103E1000FF90EF90DF90CF90BF90AF909F908F90EA
:103E200008952AE0B701A601C5010E94D015DFCF91
:103E3000CF92DF92EF92FF920F931F93CF93DF9376
:103E400000D000D000D0CDB7DEB76C017B01BC0143
:103E5000CE0101960E94071DBE016F5F7F4FC70113
:103E60000E94DB018C016FE972E0C7010E94E90149
:103E7000080F191FB701C60108960E947E18080F87
:103E8000191FCE0101960E947618C80126960FB61A
:103E9000F894DEBF0FBECDBFDF91CF911F910F9180
:103EA000FF90EF90DF90CF9008954F925F926F92C6
:103EB0007F928F929F92AF92BF92CF92DF92EF92BA
:103EC000FF920F931F93CF93DF9300D000D000D0C9
:103ED000CDB7DEB75C018B01BC01CE0101960E941B
:103EE000071DBE016F5F7F4FC8010E94DB016C019F
:103EF0006CE972E0C8010E94E901C80ED91EF50103
:103F000080849184A284B384A5019401C501B40185
:103F10000E94112D6DEA71E081111AC02401350152
:103F2000E89477F82FEF3FEF4FE75FE7C301B20167
:103F30000E94112D81112DC02FEF3FEF4FE75FE75A
:103F4000C301B2010E94322A18161CF561EB71E020
:103F5000C8010E947713C80ED91ECE0101960E9497
:103F60007618C60126960FB6F894DEBF0FBECDBFF9
:103F7000DF91CF911F910F91FF90EF90DF90CF9045
:103F8000BF90AF909F908F907F906F905F904F9079
:103F900008952FEF3FEF4FE75FE4C501B4010E94A2
:103FA000BC2C18161CF465EB71E0D2CF2FEF3FEF5D
:103FB0004FE75FECC501B4010E94322A87FDF3CFC1
:103FC00020E030E0A901C501B4010E94322AF12CA1
:103FD000E12C87FF09C06DE2C8010E94D4017C0179
:103FE000B7FAB094B7F8B0942AE037ED43EA5BE350
:103FF000C501B4010E94A82B4B015C010E948D2CCD
:104000002B013C010E94372A9B01AC01C501B40180
:104010000E94A72B4B015C012AE0B301A201C80159
:104020000E94D015E80EF91E6EE2C8010E94D4016C
:10403000E80EF91E20E030E040E251E4C501B40191
:104040000E94982A2B013C010E948D2C4B01B12C1F
:10405000A12C2AE0B501A401C8010E94D015E80EE8
:10406000F91EC501B4010E94372A9B01AC01C301AE
:10407000B2010E94A72B20E030E040E251E40E9410
:10408000982A0E948D2CAB0170E060E02AE0C80104
:104090000E94D0158E0D9F1D5ECF1F920F920FB6FE
:1040A0000F9211242F933F934F935F936F937F93BE
:1040B0008F939F93AF93BF93EF93FF9385EA94E021
:1040C0000E948502FF91EF91BF91AF919F918F91D7
:1040D0007F916F915F914F913F912F910F900FBE04
:1040E0000F901F9018951F920F920FB60F921124E8
:1040F0002F938F939F93EF93FF93E091B504F091EB
:10410000B6048081E091BB04F091BC0482FD1BC029
:1041100090818091BE048F5F8F732091BF048217BE
:1041200041F0E091BE04F0E0EB55FB4F958F80939A
:10413000BE04FF91EF919F918F912F910F900FBE31
:104140000F901F9018958081F4CF1F920F920FB699
:104150000F9211242F933F938F939F93AF93BF930D
:104160008091270290912802A0912902B0912A0201
:104170003091260223E0230F2D3758F50196A11D1B
:10418000B11D209326028093270290932802A093CA
:104190002902B0932A0280912B0290912C02A091C7
:1041A0002D02B0912E020196A11DB11D80932B020C
:1041B00090932C02A0932D02B0932E02BF91AF9149
:1041C0009F918F913F912F910F900FBE0F901F9055
:1041D000189526E8230F0296A11DB11DD2CF1F927C
:1041E0000F920FB60F9211242F933F934F935F932B
:1041F0006F937F938F939F93AF93BF93EF93FF93AF
:104200008091B900887F803609F44AC0F0F5883281
:1042100009F4A7C018F5803109F49BC0B8F48823CD
:1042200009F4F9C0883009F494C0FF91EF91BF916F
:10423000AF919F918F917F916F915F914F913F913E
:104240002F910F900FBE0F901F901895883109F491
:1042500088C0803251F780937D0414C0803409F403
:104260009DC040F48033B9F38833F9F680937D0420
:1042700085ECB0C0803509F485C0883509F496C056
:10428000883499F60E94AD18D0CF883909F48CC0D3
:1042900038F5883729F050F4883611F0803729F640
:1042A00083E080939F041092250257C0883809F458
:1042B0007BC0803919F0803809F0B7CF8091250292
:1042C000803208F071C0E091250281E08E0F80936A
:1042D00025028091BB00F0E0EB5FFD4F80833DC085
:1042E000803B39F0E0F4803A09F479C0883A09F06B
:1042F0009CCF84E080939F041092020210920102EE
:10430000E091FF01F0910002099580910102811175
:104310000FC081E0809301021092DF0109C0803C50
:1043200009F4A6CF883C09F4A3CF883B09F07DCFE0
:10433000E091020281E08E0F80930202F0E0E152F0
:10434000FE4F80818093BB00909102028091010218
:1043500029C080917A048093BB0085EC8093BC00D7
:1043600064CF90917C0480917B04981758F5E0917C
:104370007C0481E08E0F80937C04F0E0E75AFB4FD1
:104380008081E9CFE0917C0481E08E0F80937C04F2
:104390008091BB00F0E0E75AFB4F808390917C0452
:1043A00080917B049817C8F285E8D8CFE0917C040F
:1043B00081E08E0F80937C048091BB00F0E0E75A8F
:1043C000FB4F808380917E0481115CCF81E08093DC
:1043D000790484EA8093BC0010929F0426CF85EC78
:1043E0008093BC0010929F0480912502803230F4AB
:1043F000E0912502F0E0EB5FFD4F10826091250215
:1044000070E0E0910302F091040285E092E00995EA
:10441000109225020ACF10927D0434CF1F920F9282
:104420000FB60F9211242F933F934F935F936F9387
:104430007F938F939F93AF93BF93EF93FF93E091FD
:104440003202F09133020995FF91EF91BF91AF9144
:104450009F918F917F916F915F914F913F912F919C
:104460000F900FBE0F901F9018958F929F92AF9252
:10447000BF92CF92DF92EF92FF920F931F93CF9351
:10448000DF93EC017093DB016093DA01442309F4BC
:104490006AC040E060E070E0CB010E94740A8111C4
:1044A0000EC080E0DF91CF911F910F91FF90EF90B0
:1044B000DF90CF90BF90AF909F908F9008958091A4
:1044C000F3038F7771F78091FF0390910004A0911F
:1044D0000104B091020484369105A105B10508F3E9
:1044E000C090FB03D090FC03E090FD03F090FE032E
:1044F000C114D104E104F104A1F240E0C701B60106
:104500000E94740A882369F28091400290914102CE
:104510008115924031F690914502992311F2209134
:10452000430230914402232B09F4BBCF8091420215
:10453000882309F4B6CF9A8B8C831D8690E041E0E6
:1045400050E02D85E22FBA01022E02C0660F771FC0
:104550000A94E2F78617970751F031E0320F3D8752
:10456000283078F39ECFC12CD12C7601C6CF209174
:104570004B0230914C0250E040E02115310541F4EE
:104580002091590230915A0240915B0250915C0295
:104590002D833E834F83588780914302909144023C
:1045A00046015701880E991EA11CB11C8B8A9C8A5A
:1045B000AD8ABE8A0091460210914702198F088F7A
:1045C000A0914502B0E00E94562BDC01CB01880D82
:1045D000991DAA1DBB1D8A8F9B8FAC8FBD8F25E0B7
:1045E000000F111F2A95E1F701501E4F012F1127CF
:1045F0000695800F911FA11DB11D8E879F87A88BE7
:10460000B98B009148021091490230E020E0011579
:10461000110541F400915502109156022091570264
:1046200030915802C81AD90AEA0AFB0AC00ED11EF4
:10463000E21EF31E04C0F694E794D794C794EA955B
:10464000D2F7C986DA86EB86FC8685EFC8168FE03E
:10465000D806E104F10420F48CE08F8B81E022CFB6
:1046600080E125EFC2162FEFD206E104F104A8F392
:104670008091610290916202A0916302B091640204
:104680008A8F9B8FAC8FBD8F80E2E7CFEF92FF9236
:104690000F931F93CF93DF9300D000D000D0CDB7FE
:1046A000DEB78B017C018EE391E0F701819391935A
:1046B0007F016CEA71E0CF010E949617F8018481B6
:1046C0009581099740F128E030E050E040E0B801E2
:1046D000CE0101960E94A717F80180819181009771
:1046E00009F443C069817A8161157105E1F1428164
:1046F00053812D813E8142175307A8F10E94982FC4
:104700008D819E81F801958384831E821D82CE0156
:1047100001960E947618B801CE0101960E948D176D
:104720006CEB71E0CE0101960E948F16811104C0DE
:10473000CE0101960E941117BE016F5F7F4FC70126
:104740000E947617CE0101960E94761826960FB623
:10475000F894DEBF0FBECDBFDF91CF911F910F91B7
:10476000FF90EF9008950E942E2E89819A81F80182
:10477000918380838B819C81938382838D819E81B1
:10478000958384831A8219821C821B82BECF1F9359
:10479000CF93DF93CDB7DEB72C970FB6F894DEBF7B
:1047A0000FBECDBF1092A8041092A70488EE93E02C
:1047B000A0E0B0E08093A9049093AA04A093AB0476
:1047C000B093AC042EE031E03093A6042093A5040E
:1047D00025EC30E03093B2042093B10424EC30E0B7
:1047E0003093B4042093B30420EC30E03093B6044B
:1047F0002093B50421EC30E03093B8042093B70443
:1048000022EC30E03093BA042093B90426EC30E077
:104810003093BC042093BB041092BE041092BF04DA
:104820001092C0041092C1041092450510924405E4
:104830008093460590934705A0934805B09349059A
:1048400080E291E0909343058093420580E5809358
:104850004E0510924F051092E0051092E10510925E
:10486000E4051092E60582E090E0A0E0B0E08093DD
:10487000E7059093E805A093E905B093EA05109247
:10488000FE05109208061092070682E391E09093CD
:1048900006068093050610920A0686E991E0909339
:1048A00025068093240610922B0610922A06109259
:1048B000290610922606E1E4F3E081E08C3051F005
:1048C0009491823009F49F5F21E0280F319699235B
:1048D00009F454C18093270611E0109328068AED4D
:1048E00095E090932D0680932C068BED95E09093A8
:1048F0002F0680932E0684E296E09093D005809355
:10490000CF051092D1058FEC95E09093CE05809362
:10491000CD0569EB71E0CE0107960E949617BE01A6
:10492000695F7F4FCE0101960E948D17BE016F5FB8
:104930007F4F8BEA95E00E944623CE0101960E94AC
:1049400076181093B7058CE991E09093AC058093AD
:10495000AB0580E090EAA6E5B5E48093BC059093B2
:10496000BD05A093BE05B093BF0580E090E0A8EC24
:10497000B1E48093C0059093C105A093C205B093A4
:10498000C30580E090E4ACE1B6E48093C405909365
:10499000C505A093C605B093C70580E090EBAFE9CD
:1049A000B5E48093C8059093C905A093CA05B09358
:1049B000CB058EE08093CC051092B9051092B80516
:1049C0001092BB051092BA05CE0107960E94761888
:1049D0006FEB71E0CE0107960E949617BE01695FEA
:1049E0007F4FCE0101960E948D17BE016F5F7F4FF2
:1049F00081E895E00E944623CE0101960E94761838
:104A00008CE791E090938A05809389051093930534
:104A100084E891E0909382058093810582E0809301
:104A20009D058BE080939E05EFE2F3E0E491E09337
:104A30009F05EBE1F3E0E491E093A00580E89EE3BD
:104A4000A0E0B0E08093A5059093A605A093A705EC
:104A5000B093A805109295051092940510929705B1
:104A600010929605CE0107960E94761866EC71E0CA
:104A7000CE0107960E949617BE01695F7F4FCE0157
:104A800001960E948D17BE016F5F7F4F81E795E011
:104A90000E944623CE0101960E94761810937B0552
:104AA0008AE691E090937205809371058FE0809380
:104AB000800510927D0510927C0510927F05109262
:104AC0007E05CE0107960E9476186CEC71E0CE014F
:104AD00007960E949617BE01695F7F4FCE0101962F
:104AE0000E948D17BE016F5F7F4F80E595E00E94A9
:104AF0004623CE0101960E94761810935C0588E546
:104B000091E0909351058093500580E591E090935A
:104B10006505809364051092690510926A051092EC
:104B20006B0510926C0580E090E0A0E8BFE38093F5
:104B30006D0590936E05A0936F05B093700586E0A8
:104B40008093610585E08093620580E8809363052A
:104B500010925E0510925D051092600510925F053F
:104B6000CE0107960E9476182C960FB6F894DEBFF9
:104B70000FBECDBFDF91CF911F910895822F9ECEA2
:104B8000CF93DF9300D000D000D0CDB7DEB77894BC
:104B900084B5826084BD84B5816084BD85B5826042
:104BA00085BD85B5816085BD80916E0081608093F3
:104BB0006E0010928100809181008260809381005C
:104BC000809181008160809381008091800081606C
:104BD000809380008091B10084608093B1008091C7
:104BE000B00081608093B00080917A0084608093EF
:104BF0007A0080917A00826080937A0080917A00B6
:104C0000816080937A0080917A00806880937A0036
:104C10001092C100E091B504F091B60482E0808367
:104C2000E091B104F091B2041082E091B304F091EC
:104C3000B40480E180831092BD04E091B904F09146
:104C4000BA0486E08083E091B704F091B8048081D3
:104C500080618083E091B704F091B804808188601E
:104C60008083E091B704F091B804808180688083EC
:104C7000E091B704F091B80480818F7D80838091AA
:104C8000D105843068F4E82FF0E0EE0FFF1FE15308
:104C9000FA4F2BEA35E0348323838F5F8093D1056D
:104CA0008091D105843068F4E82FF0E0EE0FFF1F0B
:104CB000E153FA4F21E835E0348323838F5F8093FB
:104CC000D1058091D105843068F4E82FF0E0EE0F33
:104CD000FF1FE153FA4F21E735E0348323838F5FD1
:104CE0008093D1058091D105843068F4E82FF0E0FD
:104CF000EE0FFF1FE153FA4F20E535E034832383A5
:104D00008F5F8093D1058091CF059091D005DC0114
:104D1000ED91FC910190F081E02D099587EDE82E51
:104D200085E0F82E0FEC15E0F801638174816115C0
:104D3000710509F43FC0E091CF05F091D005C28420
:104D4000D3846E5F7F4FCE0101960E948D17B6010E
:104D5000665D7F4F44E35BE189819A810E94611B1C
:104D6000D82ECE0101960E947618DD20E9F0E09160
:104D7000CF05F091D005C284D384D80113966D91EC
:104D80007C916E5F7F4FCE0101960E948D17B60118
:104D9000665D7F4F44E15CE189819A810E94611BDD
:104DA000CE0101960E9476180E5F1F4FE016F106A5
:104DB00009F0BACF8AEE92E00E94861302ED15E068
:104DC000F801819191918F01009759F0DC01ED91EB
:104DD000FC910280F381E02D0995B5E00A3D1B07A7
:104DE00079F780E1809381001092800084E08093C5
:104DF000310284E294EF9093300280932F029093DB
:104E000087008093860084E18093810085EF92E0A3
:104E10000E9486138AE392E09093330280933202D9
:104E200081E080936F0080913102806180938100E6
:104E300080913402882309F44DC00FEC15E0F8018D
:104E4000838194810097C1F0DC01ED91FC91068093
:104E5000F781E02D0995882351F0F8018381948131
:104E6000DC01ED91FC910480F581E02D09950E5F48
:104E70001F4FE016F10619F70FEC15E0F8018381DA
:104E80009481009709F1DC01ED91FC910680F78196
:104E9000E02D0995882391F0F80183819481DC014C
:104EA000ED91FC910190F081E02D65EA74E00995A7
:104EB0006AEA71E085EA94E00E9477130E5F1F4F63
:104EC000B5E0073D1B07D1F68EE093E00E94861304
:104ED000109234020E947B02882309F4A9CF0E9419
:104EE000821DA6CFCF93DF93CEE3D1E0D0935105BF
:104EF000C093500582E595E00E947618D093720524
:104F0000C093710583E795E00E947618D0938205DF
:104F1000C093810583E895E00E947618D093AC0594
:104F2000C093AB058DEA95E0DF91CF910C94761894
:104F3000EF920F931F93CF93DF93E80134E047FD87
:104F400034E1042E000C550B57FF03C051954195D9
:104F50005109E32E022F242FAE010E94EB27CE0130
:104F6000DF91CF911F910F91EF900895FB01DC012C
:104F700005900D920020E1F70895FC0105900020B6
:104F8000E9F7809590958E0F9F1F0895BB274A30B3
:104F900031F4992322F4BDE2909581959F4F0C94B2
:104FA000D227BB27FB015527AA27880F991FAA1FC5
:104FB000A41710F0A41B83955051B9F7A05DAA3334
:104FC00008F0A95DA193009779F7B111B1931192FF
:104FD000CB010C94222AA9E0B0E0E1EFF7E20C94B7
:104FE000672B6A01F22EB02E102FFBE3AF2EA01616
:104FF00008F41BE31F5F012F27E0AE014F5F5F4FF7
:105000000E944A29BC018981982F9970913009F436
:105010003FC09BE2E1FC04C09E2D9170E0FC3AC0D1
:105020005E2D5071E82FE87083FF46C084E0911137
:1050300001C083E0EF2DE81B8F1508F0E0E0D601FA
:105040008E2F20E2552351F1992329F0D6019C930C
:10505000C60101966C0196012D5F3F4FE2FE24C010
:105060008EE4D6018C9391E411969C93119712963D
:105070008C93D9018E2F90E281111BC0E20FF32F88
:10508000F11D10828EEF9FEF2996ECE00C94832B9C
:105090009DE2C6CF90E2C4CF2D9381508111FCCF09
:1050A000CE0ED11CE0E0D0CF8EE6D6018C9391E6F7
:1050B000DBCF9D938150E0CF482F447082FF3DC0ED
:1050C00084E0911101C083E08F1510F4EF2DE81BEF
:1050D000D6018E2F20E2552309F1992329F0D6011C
:1050E0009C93C60101966C0196012D5F3F4FE2FE35
:1050F0001BC089E4D6018C938EE411968C93119792
:1051000086E412968C93D9018E2F90E2882309F4BD
:10511000B5CF9D938150FACF2D9381508111FCCF53
:10512000CE0ED11CE0E0D9CF89E6D6018C938EE675
:1051300011968C93119786E6E4CF9B0177FF02C00E
:1051400030E020E0A1E0B0E0911102C0B0E0A0E0CA
:10515000F9013196AE0FBF1F8B2C912CBB2009F4A7
:1051600061C05401EFEFAE1ABE0AAA0DBB1DFA16BC
:105170001B0619F014F04F2D4A1B511188C0E3FC97
:1051800059C07601A42FB0E2A1114FC0C40ED11CAA
:10519000992309F45BC040E0D6011196F601908393
:1051A0006D01552309F448C0012F060F9A81582F2D
:1051B000507184FF03C0913309F4015010160CF0B4
:1051C00047C0093008F008E0EEE2FE2E5B01A01AAD
:1051D000B10885019194819491082F3F320729F4F9
:1051E000D601FC92F60131966F016217730794F1B4
:1051F000021713077CF5DB01A21BB30BAA24A394AF
:10520000B12CAC0EBD1EAA0DBB1D11968C91215068
:105210003109D601119628153905F4F0F60180837D
:105220006D01DBCFB12CA12CA0CFF701B1937F0191
:10523000A150AACF9111B0CFD601942F50E302C054
:105240005D9391509111FCCFC40ED11C40E0ACCFC6
:1052500001E0BACF80E3DBCF6217730731F49633F6
:1052600088F4953311F4552369F0F6018083FD012C
:10527000842F90E2811108C0A40FB11D1C9290E010
:1052800080E002CF81E3F1CF91938150F3CF911170
:1052900083CF8ACF283008F027E03327DA01990F2F
:1052A000311D87FD916000966105710539F432600A
:1052B0002E5F3D9330E32A95E1F708959F3F30F04C
:1052C00080387105610509F03C5F3C5F3D9391308A
:1052D00008F08068911DDF93CF931F930F93FF9287
:1052E000EF92192F987F9695E92F96959695E90F4D
:1052F000FF27E45EFE4F99273327EE24FF24A70102
:10530000E70105900894079428F4360FE71EF81E6D
:10531000491F511D660F771F881F991F0694A1F71B
:105320000590079428F4E70EF81E491F561FC11D6B
:10533000770F881F991F661F0694A1F705900794A1
:1053400028F4F80E491F561FC71FD11D880F991F3B
:10535000661F771F0694A1F70590079420F4490F64
:10536000561FC71FD81F990F661F771F881F0694E7
:10537000A9F784911095177041F0D695C795579568
:105380004795F794E7941A95C1F7E2ECF0E068943A
:105390001590159135916591959105907FE27395E2
:1053A000E118F10A430B560BC90BD009C0F7E10C09
:1053B000F11E431F561FC91FD01D7EF4703311F418
:1053C0008A95E6CFE894015030F0080F0AF40027E0
:1053D000021708F4202F2395022F7A3328F079E35F
:1053E0007D932A95E9F710C07D932A9589F6069456
:1053F00097956795379517951794E118F10A430B20
:10540000560BC90BD00998F023957E9173957A338A
:1054100008F070E37C932013B8F77E9170617D9360
:1054200030F0839571E37D9370E32A95E1F71124C1
:10543000EF90FF900F911F91CF91DF91992787FDFA
:1054400090950895DC01FC01672F71917723E1F7B6
:10545000329704C07C916D9370836291AE17BF0741
:10546000C8F308950E94742A08F481E00895E8942E
:1054700009C097FB3EF490958095709561957F4F9C
:105480008F4F9F4F9923A9F0F92F96E9BB2793954A
:10549000F695879577956795B795F111F8CFFAF45A
:1054A000BB0F11F460FF1BC06F5F7F4F8F4F9F4F8B
:1054B00016C0882311F096E911C0772321F09EE8E9
:1054C000872F762F05C0662371F096E8862F70E04F
:1054D00060E02AF09A95660F771F881FDAF7880F29
:1054E0009695879597F90895990F0008550FAA0B7F
:1054F000E0E8FEEF16161706E807F907C0F01216E7
:105500001306E407F50798F0621B730B840B950BE9
:1055100039F40A2661F0232B242B252B21F408953E
:105520000A2609F4A140A6958FEF811D811D0895DB
:105530000E94AB2A0C941C2B0E940E2B38F00E9468
:10554000152B20F0952311F00C94052B0C940B2BAC
:1055500011240C94502B0E942D2B70F3959FC1F3B6
:10556000950F50E0551F629FF001729FBB27F00D11
:10557000B11D639FAA27F00DB11DAA1F649F662766
:10558000B00DA11D661F829F2227B00DA11D621FB5
:10559000739FB00DA11D621F839FA00D611D221F6F
:1055A000749F3327A00D611D231F849F600D211D53
:1055B000822F762F6A2F11249F5750409AF0F1F0D6
:1055C00088234AF0EE0FFF1FBB1F661F771F881F3F
:1055D00091505040A9F79E3F510580F00C94052B47
:1055E0000C94502B5F3FE4F3983ED4F38695779567
:1055F0006795B795F795E7959F5FC1F7FE2B880FE5
:10560000911D9695879597F9089597F99F6780E87A
:1056100070E060E008959FEF80EC089500240A9404
:105620001616170618060906089500240A9412167D
:105630001306140605060895092E0394000C11F4B0
:10564000882352F0BB0F40F4BF2B11F460FF04C05D
:105650006F5F7F4F8F4F9F4F089557FD9058440FB6
:10566000551F59F05F3F71F04795880F97FB991FC1
:1056700061F09F3F79F0879508951216130614067E
:10568000551FF2CF4695F1DF08C01616170618060B
:10569000991FF1CF86957105610508940895E894E6
:1056A000BB2766277727CB0197F908950E94982B8F
:1056B000A59F900DB49F900DA49F800D911D112466
:1056C00008952F923F924F925F926F927F928F92A6
:1056D0009F92AF92BF92CF92DF92EF92FF920F9381
:1056E0001F93CF93DF93CDB7DEB7CA1BDB0B0FB68B
:1056F000F894DEBF0FBECDBF09942A883988488848
:105700005F846E847D848C849B84AA84B984C884DD
:10571000DF80EE80FD800C811B81AA81B981CE0FD4
:10572000D11D0FB6F894DEBF0FBECDBFED010895B9
:10573000A29FB001B39FC001A39F700D811D1124D2
:10574000911DB29F700D811D1124911D0895505817
:10575000BB27AA270E94BF2B0C941C2B0E940E2B48
:1057600038F00E94152B20F039F49F3F19F426F4ED
:105770000C940B2B0EF4E095E7FB0C94052BE92F12
:105780000E942D2B58F3BA176207730784079507F9
:1057900020F079F4A6F50C944F2B0EF4E0950B2E27
:1057A000BA2FA02D0B01B90190010C01CA01A00173
:1057B0001124FF27591B99F0593F50F4503E68F1CE
:1057C0001A16F040A22F232F342F4427585FF3CF0F
:1057D000469537952795A795F0405395C9F77EF4E0
:1057E0001F16BA0B620B730B840BBAF09150A1F029
:1057F000FF0FBB1F661F771F881FC2F70EC0BA0FAF
:10580000621F731F841F48F4879577956795B79536
:10581000F7959E3F08F0B0CF9395880F08F0992731
:10582000EE0F9795879508950E94282C0C941C2BB9
:105830000E94152B58F00E940E2B40F029F45F3F78
:1058400029F00C94052B51110C94502B0C940B2B1C
:105850000E942D2B68F39923B1F3552391F3951BE7
:10586000550BBB27AA2762177307840738F09F5F81
:105870005F4F220F331F441FAA1FA9F335D00E2EEE
:105880003AF0E0E832D091505040E695001CCAF75B
:105890002BD0FE2F29D0660F771F881FBB1F26171E
:1058A00037074807AB07B0E809F0BB0B802DBF01F5
:1058B000FF2793585F4F3AF09E3F510578F00C94C4
:1058C000052B0C94502B5F3FE4F3983ED4F3869560
:1058D00077956795B795F7959F5FC9F7880F911DE5
:1058E0009695879597F90895E1E0660F771F881FD1
:1058F000BB1F621773078407BA0720F0621B730B84
:10590000840BBA0BEE1F88F7E09508950E948D2C4A
:105910006894B1110C94502B08950E94352B88F097
:105920009F5798F0B92F9927B751B0F0E1F0660F63
:10593000771F881F991F1AF0BA95C9F714C0B130A4
:1059400091F00E944F2BB1E008950C944F2B672FDC
:10595000782F8827B85F39F0B93FCCF386957795D3
:105960006795B395D9F73EF49095809570956195BC
:105970007F4F8F4F9F4F08950E94742A08F48FEF36
:10598000089516F00C94162D0C940B2B68940C941F
:10599000052B0E94352BA8F39923C1F3AEF3DF93B7
:1059A000CF931F930F93FF92C92FDD2788232AF0EF
:1059B0002197660F771F881FDAF720E030E040E874
:1059C0005FEB9FE3883920F0803E38F021968F7797
:1059D0000E94A82BE8E6F0E004C00E94A82BE5E9AD
:1059E000F0E00E94242D8B01BE01EC01FB2E6F57CD
:1059F00071097595771F880B990B0E94392A28E148
:105A000032E741E35FE30E94AB2AAF2D9801AE017C
:105A1000FF900F911F91CF91DF910E94BF2B0C94AB
:105A20001C2B0E94742A880B990B08959F3F31F01C
:105A3000915020F4879577956795B795880F911DBC
:105A40009695879597F90895DF93CF931F930F93BA
:105A5000FF92EF92DF927B018C01689406C0DA2EF0
:105A6000EF010E94AB2AFE01E894A59125913591A2
:105A700045915591A6F3EF010E94BF2BFE019701BE
:105A8000A801DA9469F7DF90EF90FF900F911F91D2
:105A9000CF91DF910895A1E21A2EAA1BBB1BFD0135
:105AA0000DC0AA1FBB1FEE1FFF1FA217B307E407FD
:105AB000F50720F0A21BB30BE40BF50B661F771F55
:105AC000881F991F1A9469F7609570958095909535
:105AD0009B01AC01BD01CF010895052E97FB1EF47B
