:100000000C949D010C94C5010C94C5010C94C50180
:100010000C94C5010C94C5010C94C5010C94C50148
:100020000C94C5010C94C5010C94C5010C94C50138
:100030000C94C5010C94E3220C94C5010C94C501E9
:100040000C947A210C94C5010C9448210C94222123
:100050000C94C5010C94C5010C94C5010C94C50108
:100060000C94C4210C94C50108000000BE922449E0
:10007000123EABAAAA2ABECDCCCC4C3E00000080DA
:10008000BEABAAAAAA3E00000000BF000000803F4D
:100090000000000000084178D3BB4387D1133D190D
:1000A0000E3CC3BD4282AD2B3E68EC8276BED98F3A
:1000B000E1A93E4C80EFFFBE01C4FF7F3F0000007E
:1000C000000000407A10F35A00A0724E1809001088
:1000D000A5D4E80000E87648170000E40B540200BD
:1000E00000CA9A3B000000E1F505000080969800E8
:1000F000000040420F000000A08601000000102711
:1001000000000000E80300000000640000000000A0
:100110000A00000000000100000000002C76D888D2
:10012000DC674F0823DFC1DFAE59E1B1B796E5E3E5
:10013000E453C63AE651997696E8E6C28426EB89FE
:100140008C9B62ED407C6FFCEFBC9C9F40F2BAA59B
:100150006FA5F490055A2AF75C936B6CF9676DC133
:100160001BFCE0E40D47FEF520E6B500D0ED902E37
:100170000300943577050080841E080000204E0A95
:10018000000000C80C333333330F986E12831141D3
:10019000EF8D2114893BE65516CFFEE6DB18D1849E
:1001A0004B381BF77C1D901DA4BBE42420328472C5
:1001B0005E228100C9F124ECA1E53D272E6C6F671A
:1001C000004361726420496E697469616C697A6187
:1001D00074696F6E204661696C65642E00525443E9
:1001E000206E6F7420666F756E642E0053656E739B
:1001F0006F72206E6F7420666F756E6421002074BC
:1002000075726E6564206F66662E0053656E736F3F
:1002100072200053656E736F72206E6F7420666F6C
:10022000756E642100207475726E6564206F6E2E89
:100230000053656E736F72200053656E736F727337
:1002400020737461727465642E0053656E736F72EF
:10025000732073746F707065642E00436F6D6D61F1
:100260006E64206E6F7420666F756E642100747505
:10027000726E4F6666007475726E4F6E20007374F6
:100280006172740073746F70003A20003A20002C81
:1002900020003A20007C3C3E5E2B3D3F2F5B5D3BC7
:1002A0002C2A225C0000000000240027002A000005
:1002B000000000250028002B00000000002300267D
:1002C00000290000000008000201000003040700EC
:1002D00000000000000000496E697469616C697A71
:1002E0006174696F6E2066696E69736865642E005B
:1002F0003D3D3D3D3D3D3D3D3D3D0054696D653AD3
:1003000020000404040404040404020202020202A1
:1003100003030303030301020408102040800102C9
:10032000040810200102040810201F1C1F1E1F1E9D
:100330001F1F1E1F1E008B23472711241FBECFEF38
:10034000D8E0DEBFCDBF26E0A2EDB1E001C01D9236
:10035000A433B207E1F711E0A0E0B1E0E4E3FFE588
:1003600002C005900D92A23DB107D9F711E0CCE98A
:10037000D1E004C02197FE010E94612DCB39D10745
:10038000C9F70E9484250C948D2F0C9400000895C9
:100390000895DC01ED91FC910190F081E02D09942C
:1003A000DB0114964D915C9115976D917C91DC0168
:1003B000ED91FC910280F381E02D0994EF92FF9280
:1003C0000F931F93CF93DF938C017B01D0E0C0E0AC
:1003D000F701EC0FFD1F6491662361F0D801ED91E8
:1003E000FC910190F081E02DC8010995892B11F055
:1003F0002196EECFCE01DF91CF911F910F91FF900B
:10040000EF900895AF92BF92CF92DF92EF92FF925A
:100410000F931F93CF93DF936C017B018B01040F2C
:10042000151FEB015E01AE18BF08C017D10759F0C8
:100430006991D601ED91FC910190F081E02DC6010A
:100440000995892B79F7C501DF91CF911F910F9104
:10045000FF90EF90DF90CF90BF90AF90089581E034
:10046000809354020895FC01538D448D252F30E074
:10047000842F90E0821B930B541710F0CF960895B1
:1004800001970895FC01918D828D981761F0A28DDE
:10049000AE0FBF2FB11D5D968C91928D9F5F9F73A4
:1004A000928F90E008958FEF9FEF0895FC01918D5A
:1004B000828D981731F0828DE80FF11D858D90E0C7
:1004C00008958FEF9FEF0895FC01918D228D892F64
:1004D00090E0805C9F4F821B91098F73992708954C
:1004E00085EA94E00E94640221E0892B09F420E06F
:1004F000822F0895FC01A48DA80FB92FB11DA35A16
:10050000BF4F2C91848D90E001968F739927848F33
:10051000A689B7892C93A089B1898C918370806456
:100520008C93938D848D981306C00288F389E02DF7
:1005300080818F7D80830895EF92FF920F931F93A8
:10054000CF93DF93EC0181E0888F9B8D8C8D981386
:100550001AC0E889F989808185FF15C09FB7F89492
:10056000EE89FF896083E889F989808183708064DE
:1005700080839FBF81E090E0DF91CF911F910F9129
:10058000FF90EF900895F62E0B8D10E00F5F1F4F38
:100590000F731127E02E8C8D8E110CC00FB607FC47
:1005A000FACFE889F989808185FFF5CFCE010E94D5
:1005B0007A02F1CFEB8DEC0FFD2FF11DE35AFF4FC7
:1005C000F0829FB7F8940B8FEA89FB898081806263
:1005D000CFCFCF93DF93EC01888D8823B9F0AA8920
:1005E000BB89E889F9898C9185FD03C0808186FDEE
:1005F0000DC00FB607FCF7CF8C9185FFF2CF80813D
:1006000085FFEDCFCE010E947A02E9CFDF91CF9135
:100610000895833081F028F4813099F08230A9F078
:1006200008958730A9F08830C9F08430B1F4809102
:1006300080008F7D03C0809180008F778093800041
:10064000089584B58F7784BD089584B58F7DFBCFE1
:100650008091B0008F778093B00008958091B000B2
:100660008F7DF9CFCF93DF93282F30E0F901ED5341
:10067000FD4F8491F901EA5EFC4FD491F901EE5FE0
:10068000FC4FC491CC23A1F081110E940903EC2FEF
:10069000F0E0EE0FFF1FE754FD4FA591B491EC91F0
:1006A000ED2381E090E009F480E0DF91CF9108959F
:1006B00080E090E0FACF1F93CF93DF93282F30E0B4
:1006C000F901ED53FD4F8491F901EA5EFC4FD4919D
:1006D000F901EE5FFC4FC491CC23A9F0162F8111D4
:1006E0000E940903EC2FF0E0EE0FFF1FE155FD4FD4
:1006F000A591B4918FB7F894EC91111108C0D095E1
:10070000DE23DC938FBFDF91CF911F910895DE2B05
:10071000F8CFCF93DF9390E0FC01EA5EFC4F249189
:100720008E5F9C4FFC0184918823C9F090E0880F74
:10073000991FFC01EB55FD4FA591B491FC01E155CA
:10074000FD4FC591D49161110DC09FB7F8948C9164
:10075000209582238C938881282328839FBFDF9153
:10076000CF910895623051F49FB7F8943C91822F55
:10077000809583238C93E8812E2BEFCF8FB7F8944D
:10078000EC912E2B2C938FBFEACF8E3008F08E5039
:100790008770806480937C0080917A00806480936D
:1007A0007A0080917A0086FDFCCF8091780090914C
:1007B000790008953FB7F89480914B0290914C02D4
:1007C000A0914D02B0914E0226B5A89B05C02F3FC7
:1007D00019F00196A11DB11D3FBFBA2FA92F982F67
:1007E0008827BC01CD01620F711D811D911D42E062
:1007F000660F771F881F991F4A95D1F708958F922A
:100800009F92AF92BF92CF92DF92EF92FF926B01D5
:100810007C010E94DA034B015C01C114D104E104A4
:10082000F104B9F00E94DA03681979098A099B0971
:10083000683E73408105910580F321E0C21AD1081A
:10084000E108F10888EE880E83E0981EA11CB11C17
:10085000E4CFFF90EF90DF90CF90BF90AF909F904C
:100860008F9008952FB7F8946091470270914802D5
:100870008091490290914A022FBF08950F931F93D0
:100880000E9432046093AD047093AE048093AF0471
:100890009093B00485EA94E00E94420297FF1DC045
:1008A0000E9432040091AD041091AE042091AF0477
:1008B0003091B004601B710B820B930B0091A90463
:1008C0001091AA042091AB043091AC046017710719
:1008D00082079307F8F28FEF9FEF1F910F91089512
:1008E00020912102260F3327331F21323105ECF4EA
:1008F00020917B04FC0190E080E0243069F082E0EC
:100900000895A09121022191AC0141505E4FA40FA6
:10091000B52FB11D2C930196861798F38091210273
:10092000680F6093210280E0089581E0089510929D
:100930007B0481E080937A041092550461E082E1A7
:100940000E945B0361E083E10E945B03E9EBF0E05E
:1009500080818E7F808380818D7F808388E48093F7
:10096000B80085E48093BC000895CF93DF9391E0B5
:100970009093FE018823B9F0C091B800D091BA00DD
:100980008091BC008A7B8093BC0060E082E10E9481
:100990005B0360E083E10E945B030E949704D093B5
:1009A000BA00C093B800DF91CF9108958F929F92C3
:1009B000AF92BF92CF92DF92EF92FF920F931F936D
:1009C000CF93DF93D091A404D13208F0D7C0182F71
:1009D000C091A3040E94DA036B017C0180917B0427
:1009E00081116BC082E080937B0410937A048FEFB7
:1009F0008093790410927804D0937704A3E8B4E04C
:100A0000E7E5F4E080E0D81391C01092560480919D
:100A10005604CC0FC82BC0935604809155048130E6
:100A200009F088C0109255040E94DA036B017C0122
:100A3000809156048093BB0080917D0490917E0448
:100A4000A0917F04B0918004892B8A2B8B2BA1F07D
:100A50000E94DA0300917D0410917E0420917F04AE
:100A6000309180046C197D098E099F0906171707BC
:100A70002807390708F442C08091BC0083FDD8CF15
:100A800085EC8093BC000E94DA036B017C018091AD
:100A90007B04823009F450C0809179048F3F09F4BF
:100AA0006FC080917904803209F46CC08091790420
:100AB000803309F469C084E026C080917D04909160
:100AC0007E04A0917F04B0918004892B8A2B8B2B0C
:100AD00009F484CF0E94DA0380907D0490907E0414
:100AE000A0907F04B09080046C197D098E099F0945
:100AF00086169706A806B90608F070CF80917C0488
:100B00000E94B50485E0109282041092A404109211
:100B10008104DF91CF911F910F91FF90EF90DF90B3
:100B2000CF90BF90AF909F908F9008959D9191939B
:100B30008F5F69CF85EEA5CF80917D0490917E0473
:100B4000A0917F04B0918004892B8A2B8B2B09F410
:100B50009ECF0E94DA0300917D0410917E042091C3
:100B60007F04309180046C197D098E099F09061756
:100B700017072807390708F08ACFC0CF81E0C3CF15
:100B800080E0C1CF82E0BFCF83E0BDCF089508955C
:100B90000895E091FD018091FC01E81730F4F0E048
:100BA000E452FE4F808190E008958FEF9FEF08950B
:100BB0009091FD018091FC012FEF3FEF981748F4D1
:100BC000E92FF0E0E452FE4F208130E09F5F9093E8
:100BD000FD01C90108958091FC019091FD01891BDF
:100BE000990B0895CF92DF92EF92FF920F931F938C
:100BF000CF93DF937C01CB018A01209181042223D2
:100C000089F0EB016B01C40ED51ECC15DD0569F032
:100C10006991D701ED91FC910190F081E02DC70120
:100C20000995F3CF642F0E947004C801DF91CF9122
:100C30001F910F91FF90EF90DF90CF900895CF9389
:100C4000DF931F92CDB7DEB7698320918104222301
:100C5000F9F02091A404203258F021E030E0FC01AA
:100C60003383228390E080E00F90DF91CF9108954D
:100C700080918204E82FF0E0ED57FB4F998190833B
:100C80008F5F809382048093A40481E090E0ECCF96
:100C900061E0CE0101960E947004F7CF90E080E001
:100CA0000895CF92DF92EF92FF92CF93DF93DC0112
:100CB0001796CC911797D0E06111DC2F18962C91E4
:100CC000189730E0220F331F27543D4F50E040E08B
:100CD000F90185919491FC01F080BA0190E080E0E7
:100CE000EF2DEC23ED1310C04F5F5F4F1D96CD909D
:100CF000DD90ED90FC9050976C157D058E059F055D
:100D000038F36FEF7FEFCB01DF91CF91FF90EF9042
:100D1000DF90CF9008958F929F92AF92BF92CF9223
:100D2000DF92EF92FF920F931F93CF93DF93CDB794
:100D3000DEB7C054D1400FB6F894DEBF0FBECDBFB2
:100D40008C010E943204F801C184D284E384F484CB
:100D50009B01AC012C193D094E095F0969017A011B
:100D600030EDC31637E0D306E104F104A8F481891D
:100D7000C05CDE4F0FB6F894DEBF0FBECDBFDF9173
:100D8000CF911F910F91FF90EF90DF90CF90BF9088
:100D9000AF909F908F900895618772878387948723
:100DA0001482138212821182108262E085810E9475
:100DB000890361E070E080E090E00E94FF0361E061
:100DC000F80185810E94890360E0F80185810E9415
:100DD0005B03F80186818551823028F58BE291E131
:100DE0000197F1F762E0F80185810E948903F8011B
:100DF000828990E08230910538F0880F991F880F22
:100E0000991F05970197F1F7F89460E0C8010E94D7
:100E100051066F3F7F4F8F4F9F4F61F4F801118A4A
:100E2000789480E0A5CF64E170E080E090E00E94DB
:100E3000FF03D8CF61E0C8010E9451066F3F7F4F8A
:100E40008F4F9F4F59F39E012F5F3F4F79015E01F6
:100E50003FEBA31A3EEFB30A670160E0C8010E94AE
:100E60005106F601608371838283938361E0C80138
:100E70000E945106F6016483758386839783F8E0A8
:100E8000CF0ED11CCA14DB0441F7789430E020E087
:100E9000F70180809180A280B38044815581668172
:100EA0007781FFEF8F169F06AF06BF0631F04F3FE9
:100EB0008FEF58076807780719F4F801118AB1CF46
:100EC000F90183E0F595E7958A95E1F7E00FF11FC9
:100ED0008081880F84169506A606B706F0F08083F9
:100EE0002F5F3F4FF8E0EF0EF11C2832310581F6FD
:100EF000F801448120818181280F3327331F8281AB
:100F0000280F311D8381820F932F911D9927481738
:100F1000190699F681E0818B2BCF8160E0CF8FB7E6
:100F2000F8948091D4018FBF089561E0FC01848121
:100F30000E945B038091D30181111092D301089527
:100F40008EBD00000DB407FEFDCF8EB508958FEF66
:100F50000C94A0070F931F93CF93DF93EC010E9493
:100F600032048B010E94A7078F3F69F00E94320470
:100F7000601B710B6C177D07A8F380E0DF91CF91A8
:100F80001F910F91089581E0F9CF8CBD9DBD08950B
:100F9000CF93DF93EC018091D301811109C081E0EF
:100FA0008093D30180914E0590914F050E94C50713
:100FB00060E08C81DF91CF910C945B038F929F92C4
:100FC000AF92BF92FF920F931F93CF93DF93EC01E9
:100FD000F62E49015A018E81882389F08F819885E8
:100FE0009C012F5F3F4F38872F838230924018F447
:100FF0000E94A707F3CFCE010E9495071E82CE0163
:101000000E94C8078CE291E00E94AA078F2D80649D
:101010000E94A00708E110E0D501C401002E04C021
:10102000B695A795979587950A94D2F70E94A00741
:1010300008501109083F8FEF180771F785E9FF2065
:1010400021F028E087E8F2128FEF0E94A00710E05D
:101050000E94A7078A8787FF04C01F3F11F01F5F08
:10106000F7CFDF91CF911F910F91FF90BF90AF907D
:101070009F908F900895AF92BF92CF92DF92EF92A0
:10108000FF920F931F93CF93DF93EC016901C80187
:10109000820F931F8130924050F58E81882379F022
:1010A00088819981AA81BB8184179507A607B70714
:1010B00031F48F819885C816D90608F042C048835C
:1010C00059836A837B838B85833039F089E0440FB1
:1010D000551F661F771F8A95D1F79A01AB0161E111
:1010E000CE010E94DE07882389F083E08D83CE0144
:1010F0000E94950780E0DF91CF911F910F91FF90A3
:10110000EF90DF90CF90BF90AF9008950E9432048F
:101110005B010E94A7078A878F3F69F40E9432040F
:101120006A197B096D327140A0F38FE08D83CE0187
:101130000E949507DCCF8E3F89F418861F8281E0DC
:101140008E838F8198858C159D0550F40E94A7078A
:101150008F819885019698878F83F3CF8DE0E6CFB6
:101160006701E00EF11E0E94A707F60181936F014F
:10117000EE15FF05C1F78F819885080F191F188795
:101180000F838985882319F001151240A0F08E8104
:10119000882389F08F8198859C012F5F3F4F388786
:1011A0002F838230924018F40E94A707F3CFCE011C
:1011B0000E9495071E8281E09ECFCF92DF92EF9230
:1011C000FF920F93CF93DF93EC01690182E1411508
:1011D00051056105710599F08B85833039F089E0FF
:1011E000440F551F661F771F8A95D1F79A01AB01EF
:1011F00068E1CE010E94DE07882319F084E08D8328
:101200002DC08EEF0E94A00776018EEFD81AF7014D
:1012100081917F010E94A007EC14FD04C1F78FEFBC
:101220000E94A0078FEF0E94A0070E94A7078A874D
:101230008F71853071F4011116C0CE010E9495079F
:1012400081E0DF91CF910F91FF90EF90DF90CF90F1
:10125000089581E18D83CE010E949507CE010E9401
:10126000950780E0EECF88E592E00E94AA07811101
:1012700002C085E1C4CF20E030E0A9016DE0CE01DD
:101280000E94DE07882311F084E1B9CF0E94A707EE
:101290008111FACFD2CF0F934091D6015091D7014F
:1012A0006091D8017091D901411551056105710511
:1012B00099F0082F25E532E08091DA019091DB0169
:1012C0000E94DD08882349F01092D6011092D701C0
:1012D0001092D8011092D90181E00F9108950F93D7
:1012E000CF93C82F8091D501811105C0C1E08C2F0B
:1012F000CF910F91089540910001509101016091AB
:101300000201709103010C2F25E532E08091DA0192
:101310009091DB010E94DD08811102C0C0E0E7CF9F
:10132000CC2321F381E00E944B098823B9F310926A
:10133000D501DDCF8F929F92AF92BF92EF92FF9235
:101340000F931F93CF934B015C01C42F8091000139
:1013500090910101A0910201B091030188159905B6
:10136000AA05BB0551F181E00E946F0981110BC0F4
:1013700080E0CF911F910F91FF90EF90BF90AF90C1
:101380009F908F90089585E5E82E82E0F82E00E08A
:1013900012E030E020E0B501A4018091DA019091E3
:1013A000DB010E943B08882319F380920001909290
:1013B0000101A0920201B09203014091D5014C2B92
:1013C0004093D50181E0D5CFCF93DF93EC016E85BB
:1013D0007F858889998941E00E949A09882351F084
:1013E0008A8920E2829FC00111248B5A9D4FDF9190
:1013F000CF91089590E080E0FACF8F929F92AF92C4
:10140000BF92CF92DF92EF92FF920F931F93CF93F1
:10141000DF93EC017093DB016093DA01442309F45C
:101420006AC040E060E070E0CB010E949A0981113F
:101430000EC080E0DF91CF911F910F91FF90EF9050
:10144000DF90CF90BF90AF909F908F900895809144
:1014500013048F7771F780911F0490912004A0915D
:101460002104B091220484369105A105B10508F349
:10147000C0901B04D0901C04E0901D04F0901E044A
:10148000C114D104E104F104A1F240E0C701B601A6
:101490000E949A09882369F280916002909161020A
:1014A0008115924031F690916502992311F22091B5
:1014B000630230916402232B09F4BBCF8091620256
:1014C000882309F4B6CF9A8B8C831D8690E041E087
:1014D00050E02D85E22FBA01022E02C0660F771F61
:1014E0000A94E2F78617970751F031E0320F3D87F3
:1014F000283078F39ECFC12CD12C7601C6CF209115
:101500006B0230916C0250E040E02115310541F44E
:101510002091790230917A0240917B0250917C02B5
:101520002D833E834F83588780916302909164029C
:1015300046015701880E991EA11CB11C8B8A9C8AFA
:10154000AD8ABE8A0091660210916702198F088FDA
:10155000A0916502B0E00E942B2BDC01CB01880D2D
:10156000991DAA1DBB1D8A8F9B8FAC8FBD8F25E057
:10157000000F111F2A95E1F701501E4F012F11276F
:101580000695800F911FA11DB11D8E879F87A88B87
:10159000B98B009168021091690230E020E00115DA
:1015A000110541F4009175021091760220917702A5
:1015B00030917802C81AD90AEA0AFB0AC00ED11E75
:1015C000E21EF31E04C0F694E794D794C794EA95FC
:1015D000D2F7C986DA86EB86FC8685EFC8168FE0DF
:1015E000D806E104F10420F48CE08F8B81E022CF57
:1015F00080E125EFC2162FEFD206E104F104A8F333
:101600008091810290918202A0918302B091840224
:101610008A8F9B8FAC8FBD8F80E2E7CF4F925F9216
:101620006F927F928F929F92AF92BF92CF92DF92F2
:10163000EF92FF920F931F93CF93DF93EC01423011
:1016400051056105710590F480E0DF91CF911F9104
:101650000F91FF90EF90DF90CF90BF90AF909F9051
:101660008F907F906F905F904F90089589859A85B5
:10167000AB85BC850196A11DB11D84179507A607F2
:10168000B70710F3CB88DC88ED88FE888F8980311E
:1016900009F042C0BB27A72F962F852F480159017B
:1016A0002A013B01C80ED91EEA1EFB1E80910001D3
:1016B00090910101A0910201B0910301C816D906D1
:1016C000EA06FB0699F58F898031C1F5B301A201C5
:1016D000552766277727440F551F4B5A5D4FFA0150
:1016E000918280828091D50181608093D5018A8921
:1016F000823080F08D819E81AF81B8858C0D9D1DDB
:10170000AE1DBF1D8093D6019093D701A093D80141
:10171000B093D90181E099CFDB01CA01E7E0B6952A
:10172000A79597958795EA95D1F7B8CF40E0C7017F
:10173000B6010E949A098111C6CF86CFB301A201DA
:101740004F77552766277727440F551F440F551F9E
:101750004B5A5D4FFA0180829182A282B382C2CF3E
:101760008F929F92AF92BF92CF92DF92EF92FF92B1
:101770000F931F93CF93DF93FC0181859285A385FF
:10178000B4850196A11DB11D84179507A607B7075B
:1017900070F480E0DF91CF911F910F91FF90EF9057
:1017A000DF90CF90BF90AF909F908F9008958388E7
:1017B0009488A588B6888789803189F5BB27A72FAB
:1017C000962F852FE9016A017B018F01BC01CD01B4
:1017D000680D791D8A1D9B1D80900001909001016C
:1017E000A0900201B090030186169706A806B906DC
:1017F00001F5F8018789803111F5DD24EE24FF24FD
:10180000F601EE0FFF1FEB5AFD4F80819181B0E092
:10181000A0E088839983AA83BB8381E0BBCFDB01EF
:10182000CA01C7E0B695A79597958795CA95D1F750
:10183000C9CF40E00E949A098111DBCFAACFE8947A
:10184000C7F8DD24EE24FF24F601EE0FFF1FEE0F94
:10185000FF1FEB5AFD4F80819181A281B381BF7040
:10186000D8CF4F925F926F927F92AF92BF92CF92FA
:10187000DF92EF92FF920F931F93CF93DF9300D0ED
:1018800000D0CDB7DEB78C0149835A836B837C834C
:101890005901C12CD12C7601412C82E0582E612CAB
:1018A000712C49815A816B817C819E012F5F3F4F52
:1018B000C8010E94B00B882339F1F8018585A30186
:1018C000920104C0220F331F441F551F8A95D2F77F
:1018D000DA01C901C80ED91EEA1EFB1E49815A81D0
:1018E0006B817C818789803111F188EF9FEFAFEFA9
:1018F000BFE0481759076A077B0798F2F501C082D5
:10190000D182E282F38281E00F900F900F900F90CE
:10191000DF91CF911F910F91FF90EF90DF90CF90CB
:10192000BF90AF907F906F905F904F90089588EF39
:101930009FEFA0E0B0E0DDCF8F929F92AF92BF9279
:10194000CF92DF92EF92FF920F931F93CF93DF938B
:10195000EC018D8181110EC080E0DF91CF911F914C
:101960000F91FF90EF90DF90CF90BF90AF909F903E
:101970008F9008950B891C892D893E8904171507BE
:101980002607370748F34A015B01823031F48A8623
:101990009B86AC86BD8681E0E0CF81149104A104D2
:1019A000B10449F41E821F82188619861A861B8686
:1019B0001C861D86F0CF0A851B852C853D85EB8D09
:1019C000FC8D858590E00996B901A8014150510927
:1019D00061097109082E04C076956795579547955A
:1019E0000A94D2F775016401E1E0CE1AD108E1084A
:1019F000F10804C0F694E794D794C7948A95D2F777
:101A0000C416D506E606F70620F0012B022B032BA1
:101A100011F58F89988DA98DBA8D8E839F83A887A4
:101A2000B9878E010A5F1F4FC114D104E104F1048C
:101A300009F4ADCF4E815F816885798598018B8DE2
:101A40009C8D0E94B00B91E0C91AD108E108F10801
:101A50008111EACF81CFC41AD50AE60AF70AE1CF8D
:101A60003F924F925F926F927F928F929F92AF922E
:101A7000BF92CF92DF92EF92FF920F931F93CF937B
:101A8000DF93CDB7DEB72C970FB6F894DEBF0FBE4D
:101A9000CDBF5C01DC015B968D909C905C971696A7
:101AA0004D905D906D907C901997411451046104A4
:101AB000710409F468C0BFEF4B1A5B0A6B0A7B0A1A
:101AC000312CF40181859285A385B4859C01AD01FB
:101AD0002F5F3F4F4F4F5F4F29873A874B875C8778
:101AE000730162011D821E821F821886F4018185A6
:101AF0009285A385B4852D813E814F815885281715
:101B000039074A075B0708F056C089859A85AB8577
:101B1000BC858C159D05AE05BF0550F482E0C82E2E
:101B2000D12CE12CF12C92E0492E512C612C712CFE
:101B30009E012F5F3F4FB701A601C4010E94B00B69
:101B40008823C9F189819A81AB81BC81892B8A2B39
:101B50008B2B09F1260137019FEF491A590A690AAF
:101B6000790A2D813E814F8158852F5F3F4F4F4F1E
:101B70005F4F2D833E834F8358873FEFC31AD30AAD
:101B8000E30AF30AB3CFF40140805180628073808E
:101B90003324339496CFC414D504E604F70409F72C
:101BA0000FEF1FEF2FEF3FE0B701A601C4010E9426
:101BB0000E0B811119C080E02C960FB6F894DEBF91
:101BC0000FBECDBFDF91CF911F910F91FF90EF908E
:101BD000DF90CF90BF90AF909F908F907F906F904D
:101BE0005F904F903F900895D50116964D915D916D
:101BF0006D917C911997411551056105710539F079
:101C000097018601C4010E940E0B8823A1F2D50121
:101C10001696CD92DD92ED92FC921997332051F0F9
:101C2000D701C6010196A11DB11DF40180839183E6
:101C3000A283B383F5018789908DA18DB28D892B05
:101C40008A2B8B2B39F48481C78AD08EE18EF28E59
:101C500080688483F50184818062848381E0ACCFD5
:101C60001F93CF93DF93FC012581222371F1162F5F
:101C7000EC01848187FF1EC0CF010E94E409FC01B2
:101C8000892B19F18D81823040F48B899C89AD8933
:101C9000BE89848F958FA68FB78F8F89988D938FEC
:101CA000828F8F89988DA98DBA8DB58BA48B8C81ED
:101CB0008F778C83111103C08C818F7E8C83812F51
:101CC000DF91CF911F910C946F0980E0DF91CF914C
:101CD0001F910895FF920F931F93CF93DF93EC0111
:101CE0008D81813041F090E080E0DF91CF911F91B4
:101CF0000F91FF9008958C8181FFF5CF82FD1BC06D
:101D00000091DA011091DB01C8010E94C8070E940E
:101D1000A707F82EC8010E9495078FEFF812E3CFAE
:101D20008C8185FF1BC060E0CE010E94300E8C814B
:101D30008F7D8C83D8CF4B895C896D897E898A851C
:101D40009B85AC85BD8584179507A607B707C1F2AB
:101D5000CE010E949C0C8111D3CFC5CF4091D601FA
:101D60005091D7016091D8017091D901452B462B34
:101D7000472B21F080E00E944B09B5CF80618C8316
:101D80002A853B85317080E092E0821B930BADCFBA
:101D9000CF93DF93EC0161E00E94300E882311F0B5
:101DA0001D8281E0DF91CF9108959F92AF92BF9203
:101DB000CF92DF92EF92FF920F931F93CF93DF9317
:101DC00000D000D01F92CDB7DEB78C016D83DC014F
:101DD00015968C911597813009F0B9C014968C91A5
:101DE00081FFB5C082FD9FC0D8015B96ED91FC914B
:101DF0005C971A96AD90BD90CD90DC901D97948025
:101E00009A94B601A50189E076956795579547950F
:101E10008A95D1F79422B1E0BB22992009F49DC0A4
:101E2000D8015B96ED91FC915C971696CD90DD9074
:101E3000ED90FC901997B2E0CB1AD108E108F108B7
:101E4000858504C0CC0CDD1CEE1CFF1C8A95D2F7E6
:101E50004685578560897189C40ED51EE61EF71E1A
:101E6000C90CD11CE11CF11CA114B10409F004C17E
:101E7000F801428553856485758583899489A58990
:101E8000B689481759076A077B0708F4F5C081E04F
:101E90000E946F09882309F45AC0C0920001D092B1
:101EA0000101E0920201F09203018091D50181606D
:101EB0008093D501F501EB5AFD4F8D818083F801A8
:101EC00082859385A485B5850196A11DB11D828764
:101ED0009387A487B587438954896589768948178C
:101EE00059076A077B0738F42481838B948BA58B71
:101EF000B68B20682483D80114968C9183FD9DC0F5
:101F000081E090E00F900F900F900F900F90DF9175
:101F1000CF911F910F91FF90EF90DF90CF90BF90E6
:101F2000AF909F900895F801438954896589768917
:101F300082859385A485B585481759076A077B076D
:101F400009F452CFC8010E949C0C81114DCF81E051
:101F500090E0F8019383828349C0D80116964D9191
:101F60005D916D917C911997A114B10409F06DC038
:101F7000411551056105710589F557968D919D9122
:101F80000D90BC91A02D0097A105B10509F04FC09F
:101F9000C8010E94300D8823D1F2D8015B96ED91E3
:101FA000FC915C971696CD90DD90ED90FC90199782
:101FB000B2E0CB1AD108E108F108858504C0CC0C49
:101FC000DD1CEE1CFF1C8A95D2F74685578560897B
:101FD0007189C40ED51EE61EF71E4ACF9E012F5FE3
:101FE0003F4FCF010E94B00B811103C090E080E011
:101FF00089CF89819A81AB81BC81F801238D348D91
:10200000F901278948EF5FEF60E070E0203121F0AF
:1020100048EF5FEF6FEF7FE084179507A607B707DC
:1020200030F0C8010E94300D8111FACE90CFF80136
:1020300086839783A087B187F3CE61E0C8010E94B1
:10204000300E882309F483CF5BCF6A017B0182E0E5
:10205000C81AD108E108F108858504C0CC0CDD1C44
:10206000EE1CFF1C8A95D2F74685578560897189D9
:10207000C40ED51EE61EF71E41E0C701B6010E9440
:102080009A09811117CF63CFCF93DF93EC01ED85D0
:10209000FE85099599878887DF91CF910895DC01A6
:1020A0001B96ED91FC910994FC011286089521E0A4
:1020B000FC0122870895FC0182850895CF93DF9368
:1020C000EC01EF85F8890995688779878A879B876E
:1020D000DF91CF910895DC011D96ED91FC9109945B
:1020E0000F931F93CF93DF93CDB7DEB72A970FB629
:1020F000F894DEBF0FBECDBF8C01DC015596ED918B
:10210000FC91CE01019609958B819C81AD81BE81A8
:10211000F80182879387A487B5878F819885A985E1
:10212000BA8586879787A08BB18B2A960FB6F894CD
:10213000DEBF0FBECDBFDF91CF911F910F910895EC
:10214000DC015396ED91FC910994FC01128A0895EB
:1021500021E0FC01228B0895FC0182890895FC0195
:102160001486089521E0FC0124870895FC018485EC
:1021700008958F929F92AF92BF92FF920F931F93F9
:10218000CF93DF93EC018C01095E1F4FC8010E94C1
:102190008B06882339F08D8D8C3009F45CC038F4BF
:1021A0008B30E1F060E070E080EC9FE73DC085514E
:1021B0008230C0F7F98C6F2D70E0762F6627662786
:1021C0007F778A8D682B90E080E00E940C2A2DECAE
:1021D0003CEC4CEC5DE30E946D2A57C0698D70E0C9
:1021E00090E080E00E940C2A4B015C01FA8CF7FE23
:1021F0000AC0AC019B0160E070E080E89FEB0E94A8
:102200007C2B4B015C016F2D6F7070E090E080E0E3
:102210000E940E2A2DEC3CEC4CEC5DE30E946D2AF2
:10222000A50194010E947D2B6A877B878C879D87FF
:10223000C8010E948B06882349F08D8D8B3030F0C9
:102240008D3038F18551823008F44BC060E070E089
:1022500080EC9FE738C0F98C6F2D70E090E080E053
:102260000E940C2A4B015C016A8D6F7070E090E057
:1022700080E00E940E2A2DEC3CEC4CEC5DE30E94C9
:102280006D2AA50194010E947D2BF7FECDCF9058B9
:10229000CBCF688D70E090E080E00E940E2A2DEC9C
:1022A0003CEC4CEC5DE30E946D2A4B015C016F89B4
:1022B00070E090E080E00E940E2A9B01AC01C50115
:1022C000B4010E947D2B6E877F87888B998BDF916D
:1022D000CF911F910F91FF90BF90AF909F908F90E3
:1022E00008956F89788D76276727762790E080E0BC
:1022F0000E940C2A2DEC3CEC4CEC5DE30E946D2A14
:10230000E2CFCF93DF93EC0162E08C8D0E948903D2
:102310000E943204605D77408109910968A379A326
:102320008AA39BA387E389A7DF91CF91089560E0FB
:10233000FC0181A10C948903CF93DF93EC018F857D
:102340000E94C50399878887DF91CF91089560E047
:10235000FC0187850C948903FF920F931F93CF9301
:10236000DF93F82E062FC7E0D0E010E061E0802F69
:102370000E945B038F2D0E9432030C2E01C0880F38
:102380000A94EAF7182B60E0802F0E945B032197E4
:1023900068F7812FDF91CF911F910F91FF900895E2
:1023A000CF92DF92EF92FF920F931F93CF93DF9321
:1023B000EC018B810E943203892B31F060E070E0E8
:1023C000CB010E94FF03F5CFEFB6F8946A818B81B1
:1023D0000E94AC11082F6A818B810E94AC11182FCA
:1023E0006A818B810E94AC11F82ED12CC12C8C817A
:1023F0008C151D0469F060F061E08A810E945B0326
:1024000060E08A810E945B038FEFC81AD80AEFCF81
:10241000EFBE612F70E090E080E0982F872F762F3D
:102420006627802B6F29D02FDD0FDD0B0D2F10E0DD
:1024300030E020E0302F222711270027602B712B5E
:10244000822B932BDF91CF911F910F91FF90EF90F3
:10245000DF90CF900895CF92DF92EF92FF92CF93CB
:10246000DF93EC018F890E943203892BE9F4CE01BE
:1024700044960E94D0116B017C0160E070E0CB01BA
:102480000E94FF03898D9A8DAB8DBC8DA7019601AB
:10249000281B390B4A0B5B0BCA01B9010E940E2A9B
:1024A000688779878A879B87DF91CF91FF90EF902C
:1024B000DF90CF900895AF92BF92CF92DF92EF92CC
:1024C000FF921F93CF93DF93EC015C0184E1A80E90
:1024D000B11C1B898A8999898E8B9F8B61E00E9430
:1024E000890362E08F890E9489031034B1F11038AA
:1024F00021F0103221F482E001C081E0888F1AE0DF
:10250000C12CD12C7601C5010E94D011C60ED71E58
:10251000E81EF91E60E070E0CB010E94FF0311503D
:1025200091F7C701B6012AE030E040E050E00E9498
:10253000422DCA01B9010E940E2A0E945B2C698FAC
:102540007A8F8B8F9C8FDF91CF911F91FF90EF90AF
:10255000DF90CF90BF90AF90089583E0CFCF8F9260
:102560009F92AF92BF92CF92DF92EF92FF920F9322
:102570001F93CF93DF9300D000D0CDB7DEB7FC011F
:102580008581813091F080E00F900F900F900F9037
:10259000DF91CF911F910F91FF90EF90DF90CF903F
:1025A000BF90AF909F908F900895848181FFEBCF73
:1025B00083899489A589B689892B8A2B8B2B09F469
:1025C0005FC07F0140E050E0BA01CF010E949C0C47
:1025D0008823C9F2F701C38CD48C8788908CA18C96
:1025E000B28C82E090E0A0E0B0E0F60180839183BD
:1025F000A283B3839E012F5F3F4FB501A401C601A3
:102600000E94B00B882309F4BECF00E010E09801CF
:10261000B501A401C6010E940E0B882309F4B3CFB3
:1026200089809A80AB80BC80F6018789803119F15E
:1026300088EF9FEFAFEFBFE088169906AA06BB06AA
:10264000C8F2F701178A108E118E128E138A148A1F
:10265000158A168A84818068848361E0C7010E949C
:10266000300E882309F48FCF40E050E0BA01C70153
:102670000E949C0C89CF88EF9FEFA0E0B0E0DCCFF8
:1026800081E082CFCF92DF92EF92FF921F93CF93A0
:10269000DF93EC0180E2689FF0011124EB5AFD4FBB
:1026A0009385917161F0842F827449F080E0DF910D
:1026B000CF911F91FF90EF90DF90CF900895142F4E
:1026C0006A8B8091000190910101A0910201B0916B
:1026D00003018E879F87A88BB98BC488D588F12C7E
:1026E000E12C7601DD24CC24CF8AD88EE98EFA8EB7
:1026F000828D938DB0E0A0E0AC01BD014C295D2935
:102700006E297F294F8B588F698F7A8F83858871C7
:10271000B1F4848D958DA68DB78D8B8B9C8BAD8BF5
:10272000BE8B81E08D831F701C831E821F821886E2
:1027300019861A861B861C861D8681E0B8CF8031DB
:1027400009F0B4CF9E012D5E3F4F8B8D9C8D0E9472
:10275000310C882309F4AACF84E0E4CFFB01019077
:102760000020E9F73197AF01461B570BDC01ED91D3
:10277000FC910280F381E02D0994CF93DF93BC019B
:1027800085EA94E00E94DE01EC016AEA71E085EAE4
:1027900094E00E94AE138C0F9D1FDF91CF9108959E
:1027A0004F925F926F927F928F929F92AF92BF9261
:1027B000DF92EF92FF920F931F93CF93DF938C01E1
:1027C0001092FD011092FC01109282041092A40458
:1027D0000E94970486EC95E09093200280931F025C
:1027E00087EC95E0909324028093230281E080930C
:1027F000810488E68093A30481E00E94D6048111BD
:1028000081C0F801C285D3858FA5882321F0CE0130
:102810008A960E94C80E1B8619861E821D828AE037
:102820008C830E9432047B0161E08C810E948903C9
:1028300061E08C810E945B03DFB6F8948091D20145
:10284000811127C0ECE0F3E08491E0E2F3E09491A1
:10285000E82FF0E0EE0FFF1FEB55FD4FA591B4916F
:10286000EC91E92321F461E08AE00E945B0361E0DE
:102870008AE00E9489038CB580618CBD8CB5806430
:102880008CBD61E08DE00E94890361E08BE00E94D5
:1028900089038091D2018F5F8093D201DFBE82E5F0
:1028A00080934E0510924F0580914E0590914F05F3
:1028B0000E94C5075AE0D52E8FEF0E94A007DA9438
:1028C000D110FACFCE010E94C80720E030E0A90164
:1028D00060E0CE010E94DE07D82E8A87F1E08F17D4
:1028E000B1F00E9432046E197F09613D774068F3B0
:1028F00081E08D83CE010E94950781EC91E00E94DA
:10290000BD13FFCF8DED91E00E94BD13FFCF2AEAEA
:1029100031E040E050E068E0CE010E94DE0782FF37
:1029200026C0DB868B85812C912C5401823029F4C2
:10293000812C912CA12C30E4B32E20E030E0A901B1
:1029400067E3CE010E94DE07A501940169E2CE0192
:102950000E94DE07D82E8A878823C1F00E943204A5
:102960006E197F09613D774040F388E0C2CF44E0B3
:10297000D42E0E94A7078A87DA94D110FACF8A3A18
:1029800011F082E0B6CF82E08B87CCCF8B8582308E
:10299000C1F420E030E0A9016AE3CE010E94DE0725
:1029A000882311F086E0A5CF0E94A707807C803C99
:1029B00011F483E08B870E94A7070E94A7070E945B
:1029C000A707CE010E94950780E580934E051092DF
:1029D0004F057E01FCE0EF0EF11C41E0BE01C70196
:1029E0000E94FD09882309F4B2C08FA5811185CF0B
:1029F0008BA1803109F0B4C082E08FA7FE01EF5BAC
:102A0000FF4F108211821282138234978CA19DA1F4
:102A1000B0E0A0E025E0880F991FAA1FBB1F2A95F0
:102A2000D1F780839183A283B383FE01EB5BFF4FD9
:102A3000F182E08281E08EA718AA19AA1AAA1BAA1D
:102A40001CAA1DAA1EAA1FAA18AE19AE1AAE1BAE4A
:102A50001CAE8093810488E68093A30410928204C4
:102A60001092A40460E082E495E00E941F0681E0D9
:102A70000E94D6040E94DA034B015C0180917B0422
:102A8000811187C081E080937B0480937A049FEF5B
:102A9000909379041092780496E090937704809351
:102AA000560480915604806D80935604809155049D
:102AB000813009F024C1109255040E94DA034B01C1
:102AC0005C01809156048093BB0080917D049091BD
:102AD0007E04A0917F04B0918004892B8A2B8B2BDC
:102AE000A1F00E94DA0340907D0450907E04609033
:102AF0007F0470908004681979098A099B09461639
:102B000057066806790608F465C08091BC0083FD0D
:102B1000D8CF85EC8093BC000E94DA034B015C01A6
:102B200080917B04813009F4ECC080917804873077
:102B300008F009C180917804E7E5F4E0ACEDB1E07C
:102B4000D81609F44BC091919D93D394F9CF40E0EE
:102B5000BE01C7010E94FD09882309F4CECE45CFEE
:102B6000803209F0CACE83E08FA74EA15FA168A58D
:102B700079A5FE01EF5BFF4F40835183628373832E
:102B80009E01235C3F4FC7010E94310C81114DCF44
:102B9000B4CE80917D0490917E04A0917F04B09189
:102BA0008004892B8A2B8B2B09F468CF0E94DA03CF
:102BB00040907D0450907E0460907F04709080046B
:102BC000681979098A099B09461657066806790625
:102BD00008F054CF80917C040E94B5041092FD014E
:102BE000D092FC0182E495E00E94D8058F77282FCF
:102BF00030E094E0359527959A95E1F7922F990F5B
:102C0000990FC22FC91BCC0FC80F82E495E00E9418
:102C1000D8059C0144E0359527954A95E1F72F703A
:102C20003327922F990F990FD22FD91BDD0FD80F71
:102C300082E495E00E94D8059C0154E035952795E3
:102C40005A95E1F72F703327922F990F990FF22E93
:102C5000F91AFF0CF80E82E495E00E94D80582E490
:102C600095E00E94D8059C0164E0359527956A950A
:102C7000E1F72F703327922F990F990FE22EE91A5F
:102C8000EE0CE80E82E495E00E94D8059C0174E009
:102C9000359527957A95E1F72F703327922F990F65
:102CA000990FD22ED91ADD0CD80E82E495E00E943D
:102CB000D8059C01E4E035952795EA95E1F72F705A
:102CC0003327922F990F990F291B220F820FF8019A
:102CD0008283D382E482F582D683C78380E0DF914A
:102CE000CF911F910F91FF90EF90DF90BF90AF9029
:102CF0009F908F907F906F905F904F90089585EE9A
:102D000009CF80917D0490917E04A0917F04B091C1
:102D10008004892B8A2B8B2B09F402CF0E94DA03C3
:102D200040907D0450907E0460907F0470908004F9
:102D3000681979098A099B094616570668067906B3
:102D400008F0EECE47CF87E0F7CE8F929F92AF92FA
:102D5000BF92EF92FF920F931F93CF93DF93CDB764
:102D6000DEB7A1970FB6F894DEBF0FBECDBF7C01D2
:102D7000FA01CB0119A2223008F42AE08E010F5D7E
:102D80001F4F822E912CB12CA12CBF01A5019401C3
:102D90000E94202DF901CA016A300CF5605DD8014E
:102DA0006E938D01232B242B252B79F790E080E067
:102DB000109721F0BD01C7010E94AE13A1960FB676
:102DC000F894DEBF0FBECDBFDF91CF911F910F9161
:102DD000FF90EF90BF90AF909F908F900895695CA7
:102DE000DECFFB0144815581FC012481358124170C
:102DF000350778F080819181009759F0FB0160815F
:102E000071816115710529F00E94742F21E0892BD1
:102E100009F020E0822F0895FC0124813581FB0117
:102E20004481558124173507E1F4FC0180819181AB
:102E3000FB01608171810097D1F061157105A1F4EA
:102E4000232BC1F0FC01808190E008C0232B91F07E
:102E5000FB01808190E091958195910921E0892B7A
:102E600009F020E0822F08950E94642FF7CF6115AA
:102E7000710561F721E0F6CF0F931F93CF93DF9396
:102E8000EC0188819981009759F02A813B812617AE
:102E9000370730F081E0DF91CF911F910F910895B6
:102EA0008B016F5F7F4F0E948C2E009759F09983A2
:102EB00088831B830A832C813D81232B59F7FC01D6
:102EC0001082E8CF80E0E7CFEF92FF920F931F933D
:102ED000CF93DF936115710541F480E0DF91CF91CD
:102EE0001F910F91FF90EF9008957B01EC01CB01B2
:102EF0000E9492270097A9F00C811D81080F191FCD
:102F0000B801CE010E943C17882339F3288139810A
:102F10008C819D81B701820F931F0E948B271D8397
:102F20000C8381E0DBCFCF92DF92EF92FF920F9381
:102F30001F93CF93DF93CDB7DEB764970FB6F894A6
:102F4000DEBF0FBECDBF7C01CB01BA018E010F5F8A
:102F50001F4F22E044E00E946D276C01FC010190AC
:102F60000020E9F73197E81BF90B892B81F480E009
:102F700064960FB6F894DEBF0FBECDBFDF91CF9140
:102F80001F910F91FF90EF90DF90CF9008953097B1
:102F9000D9F0D70114960D911C910E0F1F1FB80187
:102FA000C7010E943C17882311F3F701208131816A
:102FB00084819581B601820F931F0E946D2FD701E6
:102FC00015961C930E93149781E0D2CFCF93DF9385
:102FD000EC0188819981009711F00E94032E1982DB
:102FE00018821D821C821B821A82DF91CF91089564
:102FF000EF92FF920F931F93CF93DF93EC018B011E
:103000006115710551F0CB010E9492277C01BC0132
:10301000CE010E943C1781110BC0CE010E94E61721
:10302000CE01DF91CF911F910F91FF90EF90089506
:10303000FD82EC82B801888199810E948B27F0CFB4
:10304000EF92FF920F931F93CF93DF93EC017B01DD
:103050008A01BA010E943C1781110BC0CE010E9467
:10306000E617CE01DF91CF911F910F91FF90EF9066
:1030700008951D830C83B701888199810E946D2F6B
:10308000F0CFFB0101900020E9F73197AF01461B1B
:10309000570B0C942018CF93DF93EC01FB0186179C
:1030A000970749F0608171816115710541F0448194
:1030B00055810E942018CE01DF91CF9108950E9482
:1030C000E617F9CFFC011182108213821282158259
:1030D00014820C944B18FC0111821082138212820C
:1030E00015821482FB0101900020E9F73197AF01AE
:1030F000461B570B0C942018AF92BF92CF92DF92D1
:10310000EF92FF920F931F93CF93DF936C015B01BC
:103110007A0189012417350720F48F2D7901042FB6
:10312000182F6CEA71E0C6010E946B18D501149645
:10313000CD91DC91EC16FD06E0F40C171D0708F4A8
:10314000E801D501ED91FC911197EC0FFD1F108165
:1031500010826D917C916E0D7F1DC6016115710508
:10316000A1F00E944118F50180819181C80FD91FFB
:103170001883C601DF91CF911F910F91FF90EF90BF
:10318000DF90CF90BF90AF9008950E94E617EBCFED
:103190000F931F93CF93DF93EC018B016CEA71E0E7
:1031A0000E946B18F8014281538164817581CE01C0
:1031B0000E9493176FE872E0CE010E946417F80135
:1031C0004681578160857185CE010E949317CE019B
:1031D000DF91CF911F910F9108950F931F93CF937C
:1031E000DF938C01EB016E5F7F4F0E946218BE017E
:1031F000685F7F4FC80106960E94C818C801DF911A
:10320000CF911F910F910895CF92DF92EF92FF928D
:103210000F931F93CF93DF93CDB7DEB7A1970FB670
:10322000F894DEBF0FBECDBF7C018B016E5F7F4F78
:103230000E946218670186E0C80ED11CF801608503
:10324000718582859385F701178216821186108613
:10325000138612868E010F5F1F4F22E044E00E940A
:103260006D270097A1F0BC01C6010E944118C7015B
:10327000A1960FB6F894DEBF0FBECDBFDF91CF9100
:103280001F910F91FF90EF90DF90CF900895C601AE
:103290000E94E617ECCFFC0180819181009711F02C
:1032A0000C94032E08950F931F93CF93DF9300D0B8
:1032B00000D000D0CDB7DEB78B01DC01ED91FC91E1
:1032C0000280F381E02DBC01CE0101960995BE017B
:1032D0006F5F7F4FC8010E94D0018C01CE01019623
:1032E0000E944B19C80126960FB6F894DEBF0FBE98
:1032F000CDBFDF91CF911F910F9108950C94032EB4
:103300000E94492F85ED8093BC0080917D049091AF
:103310007E04A0917F04B09180040796A11DB11D89
:1033200023E0B695A795979587952A95D1F7209193
:10333000BC0024FD03C010927B04089540917D04DD
:1033400050917E0460917F0470918004452B462B40
:10335000472B69F30097A105B10541F025E32A95B4
:10336000F1F700000197A109B109E1CF80917C0438
:103370000C94B5042F923F924F925F926F927F927E
:103380008F929F92AF92BF92CF92DF92EF92FF9275
:103390000F931F93CF93DF93CDB7DEB763970FB62D
:1033A000F894DEBF0FBECDBF5C01FE0131968E01E9
:1033B000045F1F4F1E870D874F0180E28193AD850B
:1033C000BE85AE17BF07D1F7DA0130E087E09D91E7
:1033D000592E992309F43EC09E3201F58A30D9F462
:1033E000512C852D63960FB6F894DEBF0FBECDBF6E
:1033F000DF91CF911F910F91FF90EF90DF90CF90D1
:10340000BF90AF909F908F907F906F905F904F9004
:103410003F902F90089538E08AE0D9CFE5E9F2E0B7
:103420004491442321F031969413FACFD9CF8317D6
:10343000B8F24FED490F4E3598F64FE9490F4A3132
:1034400018F4F0EE5F2E590EF401E30FF11D5082D7
:103450003F5FBDCF8981803209F4C2CF2B8B6B01D6
:10346000FB01838D948DD5015C969C938E935B9725
:103470001682178210861186128613861486158688
:10348000212C3696F88BEF87D6011A964D915D91D7
:103490006D917C911D9753968D919D910D90BC914E
:1034A000A02D481759076A077B0708F0DEC0DB012B
:1034B000CA01E5E0B695A79597958795EA95D1F766
:1034C000E82FEF703E2ED60115962C9115972230DD
:1034D00008F486CF14968C91149780FF82CF3A011E
:1034E000F1E07F225B968D919C917A018B0139E00E
:1034F00016950795F794E7943A95D1F7223009F09D
:1035000045C0FC01628D738D848D958D6E0D7F1D80
:10351000801F911FF601248126FF0EC0009100013B
:103520001091010120910201309103010617170744
:103530002807390709F073C040E00E949A098823E0
:1035400009F44FCFF60182859385A485B5858096D1
:10355000A11DB11D82879387A487B587F0E23F9EA6
:10356000B00111246B5A7D4F6115710509F438CFF4
:10357000DB018C91882309F462C0853E09F0B2C05A
:10358000222009F45EC0222423947ECFDC0114960D
:103590002C912150E2226114710479F4E1100DC0E4
:1035A000452B462B472B69F5F6018789908DA18D18
:1035B000B28D86839783A087B187D6015B96ED9104
:1035C000FC915C9716966D917D918D919C911997C8
:1035D0006250710981099109258504C0660F771F22
:1035E000881F991F2A95D2F706851785208931896A
:1035F000600F711F821F931F6E0D711D811D911D24
:1036000089CFD60116964D915D916D917C91199758
:103610002F8538890E94B00B8111CFCFE2CE8E0169
:10362000045F1F4F780101E010E09301AB01BC0182
:103630008091DA019091DB010E943B0880CF21103C
:103640000EC0F501328A8091000190910101A09194
:103650000201B091030186879787A08BB18BDB01B4
:103660008C91811190CF222423948B898271823195
:1036700009F0B6CE222009F444C0C5010E94E40935
:10368000009709F4ADCE20E2FC0111922A95E9F7EA
:103690002BE0F401DC0101900D922A95E1F721E283
:1036A00038E2DC0151963C932E93509740E058E06D
:1036B0001F965C934E931E9753963C932E9352976E
:1036C00059963C932E93589757965C934E935697E2
:1036D00081E00E946F09882309F482CE4B89F501AD
:1036E00062890AC04BE050E0C4010E944E2F892B32
:1036F00009F0CACE4B89632DC5010E944213582E92
:1037000070CEF6018581823009F46ACEC6010E942E
:10371000300D882309F464CED6015B96ED91FC91BF
:103720005C9716964D915D916D917C911997DB0197
:10373000CA010297A109B109258504C0880F991F04
:10374000AA1FBB1F2A95D2F74685578560897189C4
:103750008C019D01040F151F261F371F0F87188B23
:10376000298B3A8B8481080F111D211D311DD90130
:10377000C8012F85388949895A89281739074A0786
:103780005B0721F12C013D0131E0431A510861082A
:10379000710881E00E946F09882309F421CEE5E5D4
:1037A000F2E0119244E0E535F407D9F740920001C8
:1037B0005092010160920201709203018091D50143
:1037C00081608093D501D301C201D3CFD6015B962E
:1037D000ED91FC91258580E092E0A0E0B0E004C08E
:1037E000880F991FAA1FBB1F2A95D2F7F60143899C
:1037F000548965897689840F951FA61FB71F838B0F
:10380000948BA58BB68BD50152961C9285E592E0E0
:103810003ACF1F93CF93DF93CDB7DEB76D970FB637
:10382000F894DEBF0FBECDBFAB011C821B8222E32A
:1038300031E03A8329831E8221E0BC01CE0101964A
:103840000E94BA1911E081110CC010E0812F6D9611
:103850000FB6F894DEBF0FBECDBFDF91CF911F91A1
:103860000895CE0101960E94C80EF0CF3F924F926C
:103870005F926F927F928F929F92AF92BF92CF9200
:10388000DF92EF92FF920F931F93CF93DF93CDB709
:10389000DEB7C754D1090FB6F894DEBF0FBECDBF57
:1038A0005C016B012A0119A218A282E391E09F8FAB
:1038B0008E8F1BA21C821B829A8389831E828B019E
:1038C000712C612C7E013EE1E30EF11CF501E60D49
:1038D000F71D80818F3219F48FEF681A780AD501AD
:1038E000A60DB71DFE01FB9690E080E04F012D91E3
:1038F0002F3251F0222341F03FEF631A730A0196F1
:1039000021938C30910599F7880D991DFC01108247
:10391000F501E60DF71D80818F3219F4FFEF6F1A64
:103920007F0AF501E60DF71D308041E0311040E0DF
:1039300030E020E0B401C801F2010995811107C00F
:103940000C151D05C9F0C8010E94C80E15C0332012
:10395000A9F0F70185818111F3CF21E0A401B8011D
:10396000C7010E94BA19982E0C151D0539F1C8011E
:103970000E94C80E911027C080E007C00C151D05DD
:1039800019F0C8010E94C80E81E0C95BDF4F0FB675
:10399000F894DEBF0FBECDBFDF91CF911F910F9185
:1039A000FF90EF90DF90CF90BF90AF909F908F905F
:1039B0007F906F905F904F903F9008958823E1F241
:1039C0008E010F5F1F4F902F812F8701E92EF82E58
:1039D0007DCFCF93DF93CDB7DEB76D970FB6F89459
:1039E000DEBF0FBECDBF442399F1AB01BC011C82E9
:1039F0001B8282E391E09A8389831E8222E0CE01BA
:103A000001960E94BA1981110EC090E081E09111D7
:103A100001C080E06D960FB6F894DEBF0FBECDBF3B
:103A2000DF91CF910895CE0101960E94AF128823B5
:103A300061F3CE0101960E94E409009731F325EE6F
:103A4000FC0120831E8281E00E946F09982FDECF47
:103A500081E0E0CFEF92FF920F931F93CF93DF931C
:103A6000CDB7DEB762970FB6F894DEBF0FBECDBFFD
:103A70008C017B016E5F7F4F0E946218F701808589
:103A80009185F80117821682118610861386128698
:103A90004AE0BE016F5F7F4F0E949B27BE016F5FB0
:103AA0007F4FC80106960E944118C80162960FB662
:103AB000F894DEBF0FBECDBFDF91CF911F910F9164
:103AC000FF90EF9008958F929F92AF92BF92CF9206
:103AD000DF92EF92FF92CF93DF93EC0189A10E94D6
:103AE000C503BC01990F880B990B0E940E2A20E098
:103AF00030EC4FE754E40E94E92B6B017C01AC01F0
:103B00009B0160E070E080E89FE30E947C2B9B01BA
:103B1000AC01C701B6010E94E92B2D8D3E8D4F8D62
:103B200058A10E946D2A298D3A8D4B8D5C8D0E9483
:103B3000E92B0E949E2C4B015C0123E333E948E80A
:103B400053E46D897E898F89988D0E947D2B9B011E
:103B5000AC0160E070E080E89FE30E94E92B6B011C
:103B60007C0129893A894B895C89C501B4010E948D
:103B7000E92B9B01AC01C701B6010E947D2B9B0183
:103B8000AC0160E070E080E89FE30E94E92B23E352
:103B900033E948E853E40E947C2B688779878A8759
:103BA0009B87DF91CF91FF90EF90DF90CF90BF90F8
:103BB000AF909F908F9008959F92AF92BF92CF92B7
:103BC000DF92EF92FF920F931F93CF93DF937C01CD
:103BD000EB016B0142E0C40ED11CAE80BF80A1148A
:103BE000B104A9F42FEF3FEF50E040E0B601C70168
:103BF0000E947C18C701DF91CF911F910F91FF9018
:103C0000EF90DF90CF90BF90AF909F900895EA81A2
:103C1000FB81EA0DFB1D908010820A811B816EE200
:103C200070E0C8010E94822F0A0D1B1DF8019082CE
:103C30000097C1F22A813B81AC01421B530B9A01D0
:103C4000D3CFEF92FF920F931F93CF93DF9300D0C8
:103C500000D000D0CDB7DEB77B01FC01608171815F
:103C60006115710519F18C01CE0101960E94DC1DD0
:103C7000B701CE0101960E940C17F82ECE010196D5
:103C80000E944B1990E080E0FF2019F0F80180813C
:103C9000918126960FB6F894DEBF0FBECDBFDF919F
:103CA000CF911F910F91FF90EF900895F2CF0F9356
:103CB0001F93CF93DF93CDB7DEB72C970FB6F89451
:103CC000DEBF0FBECDBF6CEA71E0CE0107960E9449
:103CD0006B180E943E0497FD1BC089831A820B85D6
:103CE0001C850F5F1F4FB801CE0107960E943C173D
:103CF000882379F32F8138858B859C85BE016F5F82
:103D00007F4F820F931F0E946D2F1C870B87E1CF7F
:103D10001A8219821C821B821E821D8264E872E054
:103D2000CE0101960E94F817BE016F5F7F4FCE0152
:103D300007960E940C17182FCE0101960E944B196E
:103D4000112351F080E180938100109254028AE4A3
:103D500092E00E94BD1379C01A8219821C821B82D4
:103D60001E821D826EE772E0CE0101960E94F81756
:103D7000BE016F5F7F4FCE0107960E940C17182F70
:103D8000CE0101960E944B19112389F08FE292E037
:103D9000909353028093520281E080936F00809150
:103DA000510280618093810089E392E0D2CF1A8230
:103DB00019821C821B821E821D8266E772E0CE0180
:103DC00001960E94F817BE016F5F7F4FCE010796E4
:103DD0000E94F116182FCE0101960E944B19112353
:103DE00009F445C02B853C8547E050E0BE01695F82
:103DF0007F4FCE0101960E947C188091CD05909155
:103E0000CE05BE016F5F7F4F03960E94211E009773
:103E100059F1DC01ED91FC910084F185E02D0995CB
:103E200061E372E085EA94E00E94DE01BE016F5F0B
:103E30007F4F85EA94E00E94D00185E292E00E94E3
:103E4000BD13CE0101960E944B19CE0107960E9428
:103E50004B192C960FB6F894DEBF0FBECDBFDF9185
:103E6000CF911F910F91089583E192E0E8CF1A82DC
:103E700019821C821B821E821D826EE672E0CE01B8
:103E800001960E94F817BE016F5F7F4FCE01079623
:103E90000E94F116182FCE0101960E944B198BE556
:103EA00092E0112309F455CF2B853C8547E050E083
:103EB000BE01695F7F4FCE0101960E947C18809100
:103EC000CD059091CE05BE016F5F7F4F03960E9496
:103ED000211E0097B9F0DC01ED91FC910284F3857D
:103EE000E02D09956BE072E085EA94E00E94DE0126
:103EF000BE016F5F7F4F85EA94E00E94D0018EEF94
:103F000091E09DCF8CEE91E09ACF0E9470028111DA
:103F10000C94571E08958F929F92AF92BF92CF92AA
:103F2000DF92EF92FF920F931F93CF93DF9300D016
:103F300000D000D0CDB7DEB77C015B01BC01CE0163
:103F400001960E94DC1DBE016F5F7F4FC5010E947C
:103F5000D0018C0162E972E0C5010E94DE01080F08
:103F6000191FF701C084D1840D2C000CEE08FF0846
:103F7000F7FE2CC06DE2C5010E94C9014C01442727
:103F80005527BA014C195D096E097F092AE0C50160
:103F90000E94A516880D991D080F191FCE010196C4
:103FA0000E944B19C80126960FB6F894DEBF0FBECB
:103FB000CDBFDF91CF911F910F91FF90EF90DF90D8
:103FC000CF90BF90AF909F908F9008952AE0B70157
:103FD000A601C5010E94A516DFCFCF92DF92EF9216
:103FE000FF920F931F93CF93DF9300D000D000D0A8
:103FF000CDB7DEB76C017B01BC01CE0101960E94FA
:10400000DC1DBE016F5F7F4FC7010E94D0018C0194
:104010006CE872E0C7010E94DE01080F191FB701AA
:10402000C60108960E945319080F191FCE01019668
:104030000E944B19C80126960FB6F894DEBF0FBE3A
:10404000CDBFDF91CF911F910F91FF90EF90DF9047
:10405000CF9008954F925F926F927F928F929F922E
:10406000AF92BF92CF92DF92EF92FF920F931F9386
:10407000CF93DF9300D000D000D0CDB7DEB75C0186
:104080008B01BC01CE0101960E94DC1DBE016F5F59
:104090007F4FC8010E94D0016C0169E872E0C8013D
:1040A0000E94DE01C80ED91EF50180849184A2848D
:1040B000B384A5019401C501B4010E94E62C6DEA08
:1040C00071E081111AC024013501E89477F82FEFCF
:1040D0003FEF4FE75FE7C301B2010E94E62C811179
:1040E0002DC02FEF3FEF4FE75FE7C301B2010E9402
:1040F000072A18161CF561EB71E0C8010E94AE1387
:10410000C80ED91ECE0101960E944B19C6012696F3
:104110000FB6F894DEBF0FBECDBFDF91CF911F91D8
:104120000F91FF90EF90DF90CF90BF90AF909F9056
:104130008F907F906F905F904F9008952FEF3FEF9B
:104140004FE75FE4C501B4010E94912C18161CF4DE
:1041500065EB71E0D2CF2FEF3FEF4FE75FECC5018A
:10416000B4010E94072A87FDF3CF20E030E0A901C7
:10417000C501B4010E94072AF12CE12C87FF09C078
:104180006DE2C8010E94C9017C01B7FAB094B7F88A
:10419000B0942AE037ED43EA5BE3C501B4010E9425
:1041A0007D2B4B015C010E94622C2B013C010E9483
:1041B0000C2A9B01AC01C501B4010E947C2B4B0170
:1041C0005C012AE0B301A201C8010E94A516E80E15
:1041D000F91E6EE2C8010E94C901E80EF91E20E036
:1041E00030E040E251E4C501B4010E946D2A2B0188
:1041F0003C010E94622C4B01B12CA12C2AE0B5019C
:10420000A401C8010E94A516E80EF91EC501B4015B
:104210000E940C2A9B01AC01C301B2010E947C2BBD
:1042200020E030E040E251E40E946D2A0E94622CBE
:10423000AB0170E060E02AE0C8010E94A5168E0D77
:104240009F1D5ECF1F920F920FB60F9211242F93D6
:104250003F934F935F936F937F938F939F93AF930E
:10426000BF93EF93FF9385EA94E00E947A02FF9157
:10427000EF91BF91AF919F918F917F916F915F91DE
:104280004F913F912F910F900FBE0F901F90189557
:104290001F920F920FB60F9211242F938F939F931B
:1042A000EF93FF93E091B504F091B6048081E09123
:1042B000BB04F091BC0482FD1BC090818091BE04C0
:1042C0008F5F8F732091BF04821741F0E091BE048D
:1042D000F0E0EB55FB4F958F8093BE04FF91EF917B
:1042E0009F918F912F910F900FBE0F901F90189557
:1042F0008081F4CF1F920F920FB60F9211242F934B
:104300003F938F939F93AF93BF9380914702909178
:104310004802A0914902B0914A023091460223E03E
:10432000230F2D3758F50196A11DB11D209346028C
:104330008093470290934802A0934902B0934A02A7
:1043400080914B0290914C02A0914D02B0914E028F
:104350000196A11DB11D80934B0290934C02A09336
:104360004D02B0934E02BF91AF919F918F913F91BB
:104370002F910F900FBE0F901F90189526E8230FD6
:104380000296A11DB11DD2CF1F920F920FB60F92B0
:1043900011242F933F934F935F936F937F938F934A
:1043A0009F93AF93BF93EF93FF938091B900887F62
:1043B000803609F44AC0F0F5883209F4A7C018F530
:1043C000803109F49BC0B8F4882309F4F9C088301F
:1043D00009F494C0FF91EF91BF91AF919F918F919C
:1043E0007F916F915F914F913F912F910F900FBEF1
:1043F0000F901F901895883109F488C0803251F7CA
:104400008093790414C0803409F49DC040F4803353
:10441000B9F38833F9F68093790485ECB0C0803520
:1044200009F485C0883509F496C0883499F60E944D
:104430008219D0CF883909F48CC038F5883729F033
:1044400050F4883611F0803729F683E080937B049E
:104450001092450257C0883809F47BC0803919F0A2
:10446000803809F0B7CF80914502803208F071C0E2
:10447000E091450281E08E0F809345028091BB0060
:10448000F0E0EB5DFD4F80833DC0803B39F0E0F410
:10449000803A09F479C0883A09F09CCF84E080938F
:1044A0007B041092220210922102E0911F02F091EF
:1044B000200209958091210281110FC081E0809333
:1044C00021021092FF0109C0803C09F4A6CF883C6C
:1044D00009F4A3CF883B09F07DCFE091220281E06F
:1044E0008E0F80932202F0E0E150FE4F8081809396
:1044F000BB00909122028091210229C08091560434
:104500008093BB0085EC8093BC0064CF90917804CD
:1045100080917704981758F5E091780481E08E0F28
:1045200080937804F0E0E95AFB4F8081E9CFE09175
:10453000780481E08E0F809378048091BB00F0E0D6
:10454000E95AFB4F80839091780480917704981703
:10455000C8F285E8D8CFE091780481E08E0F80938F
:1045600078048091BB00F0E0E95AFB4F8083809192
:104570007A0481115CCF81E08093550484EA8093B2
:10458000BC0010927B0426CF85EC8093BC00109277
:104590007B0480914502803230F4E0914502F0E0E6
:1045A000EB5DFD4F10826091450270E0E0912302C7
:1045B000F091240285E292E00995109245020ACF1B
:1045C0001092790434CF1F920F920FB60F921124DC
:1045D0002F933F934F935F936F937F938F939F930B
:1045E000AF93BF93EF93FF93E0915202F091530288
:1045F0000995FF91EF91BF91AF919F918F917F911D
:104600006F915F914F913F912F910F900FBE0F903F
:104610001F901895EF92FF920F931F93CF93DF9304
:1046200000D000D000D0CDB7DEB78B017C018EE387
:1046300091E0F701819391937F016CEA71E0CF01E2
:104640000E946B18F80184819581099740F128E058
:1046500030E050E040E0B801CE0101960E947C18A5
:10466000F80180819181009709F443C069817A81C2
:1046700061157105E1F1428153812D813E8142171F
:104680005307A8F10E946D2F8D819E81F8019583BB
:1046900084831E821D82CE0101960E944B19B801AF
:1046A000CE0101960E9462186CEB71E0CE0101967A
:1046B0000E946417811104C0CE0101960E94E61782
:1046C000BE016F5F7F4FC7010E944B18CE0101965C
:1046D0000E944B1926960FB6F894DEBF0FBECDBFD1
:1046E000DF91CF911F910F91FF90EF9008950E945D
:1046F000032E89819A81F801918380838B819C812B
:10470000938382838D819E81958384831A8219820B
:104710001C821B82BECF1F93CF93DF93CDB7DEB732
:104720002C970FB6F894DEBF0FBECDBF1092A80431
:104730001092A70488EE93E0A0E0B0E08093A90473
:104740009093AA04A093AB04B093AC042EE031E0A4
:104750003093A6042093A50425EC30E03093B204F6
:104760002093B10424EC30E03093B4042093B304DC
:1047700020EC30E03093B6042093B50421EC30E017
:104780003093B8042093B70422EC30E03093BA049D
:104790002093B90426EC30E03093BC042093BB0492
:1047A0001092BE041092BF041092C0041092C10473
:1047B0001092450510924405809346059093470555
:1047C000A0934805B093490580E291E0909343059A
:1047D0008093420580E580934E0510924F0510921C
:1047E000E0051092E1051092E4051092E60582E0E2
:1047F00090E0A0E0B0E08093E7059093E805A093F7
:10480000E905B093EA051092FE0510920806109291
:10481000070682E391E090930606809305061092C6
:104820000A0686E991E0909325068093240610926B
:104830002B0610922A061092290610922606EAE20A
:10484000F3E081E08C3051F09491823009F49F5F65
:1048500021E0280F3196992309F454C1809327064B
:1048600011E0109328068AED95E090932D06809331
:104870002C068BED95E090932F0680932E0684E214
:1048800096E09093D0058093CF051092D1058FECE0
:1048900095E09093CE058093CD0569EB71E0CE0154
:1048A00007960E946B18BE01695F7F4FCE0101968B
:1048B0000E946218BE016F5F7F4F8BEA95E00E94F5
:1048C0000A23CE0101960E944B191093B7058CE97B
:1048D00091E09093AC058093AB0580E090EAA6E56B
:1048E000B5E48093BC059093BD05A093BE05B0933D
:1048F000BF0580E090E0A8ECB1E48093C005909300
:10490000C105A093C205B093C30580E090E4ACE17B
:10491000B6E48093C4059093C505A093C605B093F3
:10492000C70580E090EBAFE9B5E48093C8059093AC
:10493000C905A093CA05B093CB058EE08093CC0542
:104940001092B9051092B8051092BB051092BA05E5
:10495000CE0107960E944B196FEB71E0CE010796CE
:104960000E946B18BE01695F7F4FCE0101960E94C5
:104970006218BE016F5F7F4F81E895E00E940A23B5
:10498000CE0101960E944B198CE791E090938A0525
:10499000809389051093930584E891E090938205B4
:1049A0008093810582E080939D058BE080939E0536
:1049B000E8E1F3E0E491E0939F05E4E0F3E0E491C3
:1049C000E093A00580E89EE3A0E0B0E08093A50519
:1049D0009093A605A093A705B093A80510929505FE
:1049E000109294051092970510929605CE010796A5
:1049F0000E944B1966EC71E0CE0107960E946B187D
:104A0000BE01695F7F4FCE0101960E946218BE0110
:104A10006F5F7F4F81E795E00E940A23CE010196E8
:104A20000E944B1910937B058AE691E090937205E2
:104A3000809371058FE08093800510927D05109220
:104A40007C0510927F0510927E05CE0107960E948C
:104A50004B196CEC71E0CE0107960E946B18BE01F9
:104A6000695F7F4FCE0101960E946218BE016F5FA1
:104A70007F4F80E595E00E940A23CE0101960E94B7
:104A80004B1910935C0588E591E090935105809354
:104A9000500580E591E09093650580936405109240
:104AA000690510926A0510926B0510926C0580E002
:104AB00090E0A0E8BFE380936D0590936E05A0930E
:104AC0006F05B093700586E08093610585E0809363
:104AD000620580E88093630510925E0510925D0583
:104AE0001092600510925F05CE0107960E944B1947
:104AF0002C960FB6F894DEBF0FBECDBFDF91CF91DD
:104B00001F910895822F9ECECF93DF9300D000D0C7
:104B100000D0CDB7DEB7789484B5826084BD84B50B
:104B2000816084BD85B5826085BD85B5816085BDA8
:104B300080916E00816080936E0010928100809160
:104B400081008260809381008091810081608093E8
:104B50008100809180008160809380008091B1000D
:104B600084608093B1008091B00081608093B00038
:104B700080917A00846080937A0080917A008260CC
:104B800080937A0080917A00816080937A0080918E
:104B90007A00806880937A001092C100E091B50499
:104BA000F091B60482E08083E091B104F091B20408
:104BB0001082E091B304F091B40480E180831092FC
:104BC000BD04E091B904F091BA0486E08083E091DD
:104BD000B704F091B804808180618083E091B704CC
:104BE000F091B804808188608083E091B704F091EF
:104BF000B804808180688083E091B704F091B804A4
:104C000080818F7D80838091D105843068F4E82F86
:104C1000F0E0EE0FFF1FE153FA4F2BEA35E034834B
:104C200023838F5F8093D1058091D105843068F410
:104C3000E82FF0E0EE0FFF1FE153FA4F21E835E0D7
:104C4000348323838F5F8093D1058091D105843095
:104C500068F4E82FF0E0EE0FFF1FE153FA4F21E771
:104C600035E0348323838F5F8093D1058091D10514
:104C7000843068F4E82FF0E0EE0FFF1FE153FA4FA5
:104C800020E535E0348323838F5F8093D1058091C5
:104C9000CF059091D005DC01ED91FC910190F08160
:104CA000E02D099587EDE82E85E0F82E0FEC15E054
:104CB000F801638174816115710509F43FC0E091C9
:104CC000CF05F091D005C284D3846E5F7F4FCE01B3
:104CD00001960E946218B601665D7F4F49E05CE173
:104CE00089819A810E94361CD82ECE0101960E949D
:104CF0004B19DD20E9F0E091CF05F091D005C28499
:104D0000D384D80113966D917C916E5F7F4FCE0155
:104D100001960E946218B601665D7F4F49EE5CE124
:104D200089819A810E94361CCE0101960E944B19FE
:104D30000E5F1F4FE016F10609F0BACF02ED15E045
:104D4000F801819191918F01009759F0DC01ED916B
:104D5000FC910280F381E02D0995B5E00A3D1B0727
:104D600079F780E1809381001092800084E0809345
:104D7000510284E294EF9093500280934F029093FB
:104D800087008093860084E18093810087ED92E024
:104D90000E94BD138FE292E09093530280935202DF
:104DA00081E080936F008091510280618093810047
:104DB00080915402882309F462C00FEC15E0F801D9
:104DC000838194810097C1F0DC01ED91FC91068014
:104DD000F781E02D0995882351F0F80183819481B2
:104DE000DC01ED91FC910480F581E02D09950E5FC9
:104DF0001F4FE016F10619F76BEF72E085EA94E0B9
:104E00000E94DE010E943204AB01BC012AE085EA67
:104E100094E00E94A5166AEA71E085EA94E00E9497
:104E2000AE130FEC15E0F80183819481009709F12E
:104E3000DC01ED91FC910680F781E02D0995882336
:104E400091F0F80183819481DC01ED91FC91019056
:104E5000F081E02D65EA74E009956AEA71E085EA7F
:104E600094E00E94AE130E5F1F4FB5E0073D1B0795
:104E7000D1F680EF92E00E94BD13109254020E947E
:104E80007002882309F494CF0E94571E91CFCF93CC
:104E9000DF93CEE3D1E0D0935105C093500582E576
:104EA00095E00E944B19D0937205C093710583E77A
:104EB00095E00E944B19D0938205C093810583E849
:104EC00095E00E944B19D093AC05C093AB058DEAD9
:104ED00095E0DF91CF910C944B19EF920F931F93B4
:104EE000CF93DF93E80134E047FD34E1042E000C5A
:104EF000550B57FF03C0519541955109E32E022FE1
:104F0000242FAE010E94C027CE01DF91CF911F91C7
:104F10000F91EF900895FB01DC0105900D920020A8
:104F2000E1F70895FC0105900020E9F78095909540
:104F30008E0F9F1F0895BB274A3031F4992322F426
:104F4000BDE2909581959F4F0C94A727BB27FB014D
:104F50005527AA27880F991FAA1FA41710F0A41B72
:104F600083955051B9F7A05DAA3308F0A95DA193CC
:104F7000009779F7B111B1931192CB010C94F729F5
:104F8000A9E0B0E0E6ECF7E20C943C2B6A01F22ECB
:104F9000B02E102FFBE3AF2EA01608F41BE31F5F0B
:104FA000012F27E0AE014F5F5F4F0E941F29BC0118
:104FB0008981982F9970913009F43FC09BE2E1FC00
:104FC00004C09E2D9170E0FC3AC05E2D5071E82F18
:104FD000E87083FF46C084E0911101C083E0EF2DAB
:104FE000E81B8F1508F0E0E0D6018E2F20E2552354
:104FF00051F1992329F0D6019C93C60101966C01C9
:1050000096012D5F3F4FE2FE24C08EE4D6018C93C3
:1050100091E411969C93119712968C93D9018E2F3F
:1050200090E281111BC0E20FF32FF11D10828EEF71
:105030009FEF2996ECE00C94582B9DE2C6CF90E2AE
:10504000C4CF2D9381508111FCCFCE0ED11CE0E056
:10505000D0CF8EE6D6018C9391E6DBCF9D93815025
:10506000E0CF482F447082FF3DC084E0911101C021
:1050700083E08F1510F4EF2DE81BD6018E2F20E270
:10508000552309F1992329F0D6019C93C601019675
:105090006C0196012D5F3F4FE2FE1BC089E4D601F3
:1050A0008C938EE411968C93119786E412968C93D0
:1050B000D9018E2F90E2882309F4B5CF9D938150BA
:1050C000FACF2D9381508111FCCFCE0ED11CE0E0A0
:1050D000D9CF89E6D6018C938EE611968C931197E1
:1050E00086E6E4CF9B0177FF02C030E020E0A1E03C
:1050F000B0E0911102C0B0E0A0E0F9013196AE0F2E
:10510000BF1F8B2C912CBB2009F461C05401EFEF21
:10511000AE1ABE0AAA0DBB1DFA161B0619F014F032
:105120004F2D4A1B511188C0E3FC59C07601A42FB2
:10513000B0E2A1114FC0C40ED11C992309F45BC089
:1051400040E0D6011196F60190836D01552309F4D4
:1051500048C0012F060F9A81582F507184FF03C059
:10516000913309F4015010160CF047C0093008F0D3
:1051700008E0EEE2FE2E5B01A01AB10885019194D1
:10518000819491082F3F320729F4D601FC92F60151
:1051900031966F016217730794F1021713077CF5BC
:1051A000DB01A21BB30BAA24A394B12CAC0EBD1E31
:1051B000AA0DBB1D11968C9121503109D601119673
:1051C00028153905F4F0F60180836D01DBCFB12C91
:1051D000A12CA0CFF701B1937F01A150AACF9111CB
:1051E000B0CFD601942F50E302C05D93915091113E
:1051F000FCCFC40ED11C40E0ACCF01E0BACF80E3BD
:10520000DBCF6217730731F4963388F4953311F4CA
:10521000552369F0F6018083FD01842F90E281110E
:1052200008C0A40FB11D1C9290E080E002CF81E382
:10523000F1CF91938150F3CF911183CF8ACF283052
:1052400008F027E03327DA01990F311D87FD9160BF
:1052500000966105710539F432602E5F3D9330E3AD
:105260002A95E1F708959F3F30F080387105610578
:1052700009F03C5F3C5F3D93913008F08068911DE0
:10528000DF93CF931F930F93FF92EF92192F987F85
:105290009695E92F96959695E90FFF27E45EFE4FC8
:1052A00099273327EE24FF24A701E70105900894EE
:1052B000079428F4360FE71EF81E491F511D660F8C
:1052C000771F881F991F0694A1F70590079428F46B
:1052D000E70EF81E491F561FC11D770F881F991F23
:1052E000661F0694A1F70590079428F4F80E491F4D
:1052F000561FC71FD11D880F991F661F771F069461
:10530000A1F70590079420F4490F561FC71FD81F17
:10531000990F661F771F881F0694A9F7849110952F
:10532000177041F0D695C79557954795F794E79430
:105330001A95C1F7E2ECF0E068941590159135915B
:105340006591959105907FE27395E118F10A430B01
:10535000560BC90BD009C0F7E10CF11E431F561FB5
:10536000C91FD01D7EF4703311F48A95E6CFE894FE
:10537000015030F0080F0AF40027021708F4202F1C
:105380002395022F7A3328F079E37D932A95E9F764
:1053900010C07D932A9589F6069497956795379561
:1053A00017951794E118F10A430B560BC90BD00956
:1053B00098F023957E9173957A3308F070E37C938F
:1053C0002013B8F77E9170617D9330F0839571E37F
:1053D0007D9370E32A95E1F71124EF90FF900F91F0
:1053E0001F91CF91DF91992787FD90950895DC015A
:1053F000FC01672F71917723E1F7329704C07C910C
:105400006D9370836291AE17BF07C8F308950E9431
:10541000492A08F481E00895E89409C097FB3EF416
:1054200090958095709561957F4F8F4F9F4F9923F1
:10543000A9F0F92F96E9BB279395F695879577956F
:105440006795B795F111F8CFFAF4BB0F11F460FF2F
:105450001BC06F5F7F4F8F4F9F4F16C0882311F087
:1054600096E911C0772321F09EE8872F762F05C09B
:10547000662371F096E8862F70E060E02AF09A9536
:10548000660F771F881FDAF7880F9695879597F92B
:105490000895990F0008550FAA0BE0E8FEEF1616C5
:1054A0001706E807F907C0F012161306E407F50718
:1054B00098F0621B730B840B950B39F40A2661F08C
:1054C000232B242B252B21F408950A2609F4A1402F
:1054D000A6958FEF811D811D08950E94802A0C944E
:1054E000F12A0E94E32A38F00E94EA2A20F095234C
:1054F00011F00C94DA2A0C94E02A11240C94252B38
:105500000E94022B70F3959FC1F3950F50E0551F39
:10551000629FF001729FBB27F00DB11D639FAA2708
:10552000F00DB11DAA1F649F6627B00DA11D661F57
:10553000829F2227B00DA11D621F739FB00DA11D78
:10554000621F839FA00D611D221F749F3327A00D32
:10555000611D231F849F600D211D822F762F6A2FCE
:1055600011249F5750409AF0F1F088234AF0EE0F33
:10557000FF1FBB1F661F771F881F91505040A9F760
:105580009E3F510580F00C94DA2A0C94252B5F3F46
:10559000E4F3983ED4F3869577956795B795F7959C
:1055A000E7959F5FC1F7FE2B880F911D9695879514
:1055B00097F9089597F99F6780E870E060E0089593
:1055C0009FEF80EC089500240A941616170618061B
:1055D0000906089500240A941216130614060506F7
:1055E0000895092E0394000C11F4882352F0BB0F88
:1055F00040F4BF2B11F460FF04C06F5F7F4F8F4FEB
:105600009F4F089557FD9058440F551F59F05F3F25
:1056100071F04795880F97FB991F61F09F3F79F0D4
:1056200087950895121613061406551FF2CF469556
:10563000F1DF08C0161617061806991FF1CF8695D8
:105640007105610508940895E894BB2766277727BC
:10565000CB0197F908950E946D2BA59F900DB49FE3
:10566000900DA49F800D911D112408952F923F92BB
:105670004F925F926F927F928F929F92AF92BF9262
:10568000CF92DF92EF92FF920F931F93CF93DF930E
:10569000CDB7DEB7CA1BDB0B0FB6F894DEBF0FBE6B
:1056A000CDBF09942A88398848885F846E847D84B8
:1056B0008C849B84AA84B984C884DF80EE80FD80BA
:1056C0000C811B81AA81B981CE0FD11D0FB6F89430
:1056D000DEBF0FBECDBFED010895A29FB001B39F05
:1056E000C001A39F700D811D1124911DB29F700DEB
:1056F000811D1124911D08955058BB27AA270E948F
:10570000942B0C94F12A0E94E32A38F00E94EA2A92
:1057100020F039F49F3F19F426F40C94E02A0EF49B
:10572000E095E7FB0C94DA2AE92F0E94022B58F34C
:10573000BA17620773078407950720F079F4A6F576
:105740000C94242B0EF4E0950B2EBA2FA02D0B01F8
:10575000B90190010C01CA01A0011124FF27591BB6
:1057600099F0593F50F4503E68F11A16F040A22FBC
:10577000232F342F4427585FF3CF4695379527952D
:10578000A795F0405395C9F77EF41F16BA0B620B2C
:10579000730B840BBAF09150A1F0FF0FBB1F661F73
:1057A000771F881FC2F70EC0BA0F621F731F841FB6
:1057B00048F4879577956795B795F7959E3F08F0DC
:1057C000B0CF9395880F08F09927EE0F979587959E
:1057D00008950E94FD2B0C94F12A0E94EA2A58F0A9
:1057E0000E94E32A40F029F45F3F29F00C94DA2A62
:1057F00051110C94252B0C94E02A0E94022B68F383
:105800009923B1F3552391F3951B550BBB27AA2779
:1058100062177307840738F09F5F5F4F220F331FB3
:10582000441FAA1FA9F335D00E2E3AF0E0E832D07B
:1058300091505040E695001CCAF72BD0FE2F29D07E
:10584000660F771F881FBB1F261737074807AB0750
:10585000B0E809F0BB0B802DBF01FF2793585F4FC5
:105860003AF09E3F510578F00C94DA2A0C94252BDF
:105870005F3FE4F3983ED4F3869577956795B795A7
:10588000F7959F5FC9F7880F911D9695879597F9B2
:105890000895E1E0660F771F881FBB1F621773072B
:1058A0008407BA0720F0621B730B840BBA0BEE1F40
:1058B00088F7E09508950E94622C6894B1110C94C9
:1058C000252B08950E940A2B88F09F5798F0B92F36
:1058D0009927B751B0F0E1F0660F771F881F991F25
:1058E0001AF0BA95C9F714C0B13091F00E94242B78
:1058F000B1E008950C94242B672F782F8827B85F88
:1059000039F0B93FCCF3869577956795B395D9F77C
:105910003EF490958095709561957F4F8F4F9F4F86
:1059200008950E94492A08F48FEF089516F00C9408
:10593000EB2C0C94E02A68940C94DA2A0E940A2B2F
:10594000A8F39923C1F3AEF3DF93CF931F930F9383
:10595000FF92C92FDD2788232AF02197660F771F32
:10596000881FDAF720E030E040E85FEB9FE38839FA
:1059700020F0803E38F021968F770E947D2BE8E65C
:10598000F0E004C00E947D2BE5E9F0E00E94F92CD4
:105990008B01BE01EC01FB2E6F5771097595771FC6
:1059A000880B990B0E940E2A28E132E741E35FE35E
:1059B0000E94802AAF2D9801AE01FF900F911F9198
:1059C000CF91DF910E94942B0C94F12A0E94492AD6
:1059D000880B990B08959F3F31F0915020F48795E3
:1059E00077956795B795880F911D9695879597F947
:1059F0000895DF93CF931F930F93FF92EF92DF925F
:105A00007B018C01689406C0DA2EEF010E94802A87
:105A1000FE01E894A5912591359145915591A6F304
:105A2000EF010E94942BFE019701A801DA9469F717
:105A3000DF90EF90FF900F911F91CF91DF9108952C
:105A4000A1E21A2EAA1BBB1BFD010DC0AA1FBB1F82
:105A5000EE1FFF1FA217B307E407F50720F0A21BF4
:105A6000B30BE40BF50B661F771F881F991F1A9461
:105A700069F760957095809590959B01AC01BD018B
:105A8000CF010895052E97FB1EF400940E94592D16
:105A900057FD07D00E94202D07FC03D04EF40C9434
:105AA000592D50954095309521953F4F4F4F5F4F61
:105AB000089590958095709561957F4F8F4F9F4F7A
:105AC0000895EE0FFF1F0590F491E02D09940F93B8
:105AD0001F93CF93DF938230910510F482E090E022
