:100000000C94DC000C9404010C9404010C94040185
:100010000C9404010C9404010C9404010C9404014C
:100020000C9404010C9404010C9404010C9404013C
:100030000C9404010C94721C0C9404010C940401A3
:100040000C94091B0C9404010C94D71A0C94B11A4B
:100050000C9404010C9404010C9404010C9404010C
:100060000C94531B0C94040108000000BE92244918
:10007000123EABAAAA2ABECDCCCC4C3E00000080DA
:10008000BEABAAAAAA3E00000000BF000000803F4D
:100090000000000000084178D3BB4387D1133D190D
:1000A0000E3CC3BD4282AD2B3E68EC8276BED98F3A
:1000B000E1A93E4C80EFFFBE01C4FF7F3F0000007E
:1000C00000004361726420496E697469616C697AE9
:1000D0006174696F6E204661696C65642E005254CC
:1000E00043206E6F742072756E6E696E672E2E2EB1
:1000F0000053656E736F727320537461727465641C
:100100002E0073746172740053656E736F72732086
:1001100053746F707065642E0073746F70002420C8
:100120000046696C6520494F204572726F722E003F
:100130007C3C3E5E2B3D3F2F5B5D3B2C2A225C00CE
:1001400000000000240027002A0000000000250015
:1001500028002B0004040404040404040202020224
:10016000020203030303030301020408102040807A
:1001700001020408102001020408102000000008F9
:10018000000201000003040700000000000000005E
:100190002E6C6F6700496E697469616C697A61746D
:1001A000696F6E2046696E69736865642E005468D5
:1001B00065726D002000991C11241FBECFEFD8E09E
:1001C000DEBFCDBF25E0A4E9B1E001C01D92A53698
:1001D000B207E1F711E0A0E0B1E0EEE6FEE402C014
:1001E00005900D92A439B107D9F710E0CCEDD0E01D
:1001F00004C02197FE010E946722CB3DD107C9F7B9
:100200000E94031D0C9435270C940000982F209118
:10021000600281E0213208F043C080913C028111EC
:10022000FCCF80915F0232E030933C0290933B021E
:100230009FEF90933A021092390220933802AFE375
:10024000B2E0E8E1F2E090E0291331C01092170229
:1002500090911702880F892B8093170280911602C4
:10026000813049F510921602809117028093BB00ED
:100270008091BC0083FDF8CF85EC8093BC00809119
:100280003C028230E1F380913A028F3FB1F08091DD
:100290003A028032A1F080913A02803391F084E0FA
:1002A00010923E021092600210923D0208953D911C
:1002B00031939F5FC9CF85EEE0CF80E0F1CF82E040
:1002C000EFCF83E0EDCF0895EF92FF920F931F934E
:1002D000CF93DF938C017B01D0E0C0E0F701EC0FFE
:1002E000FD1F6491662361F0D801ED91FC910190AE
:1002F000F081E02DC8010995892B11F02196EECFF0
:10030000CE01DF91CF911F910F91FF90EF90089553
:10031000AF92BF92CF92DF92EF92FF920F931F9313
:10032000CF93DF936C017B018B01040F151FEB0151
:100330005E01AE18BF08C017D10759F06991D60108
:10034000ED91FC910190F081E02DC6010995892B7A
:1003500079F7C501DF91CF911F910F91FF90EF9039
:10036000DF90CF90BF90AF900895FC01538D448DE6
:10037000252F30E0842F90E0821B930B541710F050
:10038000CF96089501970895FC01918D828D98175D
:1003900061F0A28DAE0FBF2FB11D5D968C91928D35
:1003A0009F5F9F73928F90E008958FEF9FEF089566
:1003B000FC01918D828D981731F0828DE80FF11D2F
:1003C000858D90E008958FEF9FEF0895FC01918D4A
:1003D000228D892F90E0805C9F4F821B91098F7343
:1003E0009927089581E694E00E94E60121E0892B97
:1003F00009F420E0822F0895FC01A48DA80FB92FE5
:10040000B11DA35ABF4F2C91848D90E001968F733C
:100410009927848FA689B7892C93A089B1898C915B
:10042000837080648C93938D848D981306C00288AA
:10043000F389E02D80818F7D80830895EF92FF9274
:100440000F931F93CF93DF93EC0181E0888F9B8DF7
:100450008C8D98131AC0E889F989808185FF15C0B1
:100460009FB7F894EE89FF896083E889F9898081D4
:100470008370806480839FBF81E090E0DF91CF91A3
:100480001F910F91FF90EF900895F62E0B8D10E0C5
:100490000F5F1F4F0F731127E02E8C8D8E110CC034
:1004A0000FB607FCFACFE889F989808185FFF5CF7F
:1004B000CE010E94FC01F1CFEB8DEC0FFD2FF11D61
:1004C000E35AFF4FF0829FB7F8940B8FEA89FB89BC
:1004D00080818062CFCFCF93DF93EC01888D88231A
:1004E000B9F0AA89BB89E889F9898C9185FD03C097
:1004F000808186FD0DC00FB607FCF7CF8C9185FF7C
:10050000F2CF808185FFEDCFCE010E94FC01E9CFC3
:10051000DF91CF91089590E0FC01E458FE4F2491C3
:10052000FC01E859FE4F3491FC01EC5AFE4FE49176
:10053000EE23C9F0222339F0233001F1A8F4213051
:1005400019F1223029F1F0E0EE0FFF1FE65BFE4FBC
:10055000A591B4918FB7F894EC91611126C03095B4
:100560003E233C938FBF08952730A9F02830C9F06F
:10057000243049F7809180008F7D03C080918000F6
:100580008F7780938000DFCF84B58F7784BDDBCFFA
:1005900084B58F7DFBCF8091B0008F778093B000C2
:1005A000D2CF8091B0008F7DF9CF3E2BDACFCF93A1
:1005B000DF9390E0FC01E859FE4F24918C5A9E4F46
:1005C000FC0184918823D1F090E0880F991FFC01F1
:1005D000E05CFE4FA591B491FC01E65BFE4FC59136
:1005E000D49161110EC09FB7F8948C91E22FE095E1
:1005F0008E238C932881E223E8839FBFDF91CF91E4
:1006000008958FB7F894EC91E22BEC938FBFF6CF5F
:100610002FB7F8946091EC017091ED018091EE019B
:100620009091EF012FBF08950F931F930E9408032D
:100630006093690470936A0480936B0490936C04D4
:1006400081E694E00E94C40197FF1DC00E94080348
:100650000091690410916A0420916B0430916C043C
:10066000601B710B820B930B009165041091660463
:10067000209167043091680460177107820793071F
:10068000F8F28FEF9FEF1F910F91089585ED809302
:10069000BC008091BC0084FDFCCF10923C02089508
:1006A0002091C201260F3327331F21323105ECF48C
:1006B00020913C02FC0190E080E0243069F082E06F
:1006C0000895A091C2012191AC0140565E4FA40F44
:1006D000B52FB11D2C930196861798F38091C20116
:1006E000680F6093C20180E0089581E00895089545
:1006F00008950895E091F5018091F401E81730F430
:10070000F0E0EA50FE4F808190E008958FEF9FEF78
:1007100008959091F5018091F4012FEF3FEF981724
:1007200048F4E92FF0E0EA50FE4F208130E09F5F6F
:100730009093F501C90108958091F4019091F5011C
:10074000891B990B0895CF92DF92EF92FF920F933E
:100750001F93CF93DF937C01CB018A0120913D024F
:10076000222389F0EB016B01C40ED51ECC15DD05EB
:1007700069F06991D701ED91FC910190F081E02D34
:10078000C7010995F3CF642F0E945003C801DF9180
:10079000CF911F910F91FF90EF90DF90CF90089530
:1007A000CF93DF931F92CDB7DEB7698320913D02CF
:1007B0002223F9F020916002203258F021E030E04D
:1007C000FC013383228390E080E00F90DF91CF9192
:1007D000089580913E02E82FF0E0E15CFD4F9981A1
:1007E00090838F5F80933E028093600281E090E06F
:1007F000ECCF61E0CE0101960E945003F7CF90E06C
:1008000080E008958FB7F894809196018FBF089586
:1008100061E0FC0184810E948B028091950181112D
:100820001092950108958EBD00000DB407FEFDCF16
:100830008EB508958FEF0C9413040F931F93CF93ED
:10084000DF93EC010E9408038B010E941A048F3F82
:1008500069F00E940803601B710B6C177D07A8F3F9
:1008600080E0DF91CF911F910F91089581E0F9CF42
:100870008CBD9DBD0895CF93DF93EC0180919501D0
:10088000811109C081E08093950180910A059091C2
:100890000B050E94380460E08C81DF91CF910C94AD
:1008A0008B028F929F92AF92BF92FF920F931F93F2
:1008B000CF93DF93EC01F62E49015A018E818823F4
:1008C00089F08F8198859C012F5F3F4F38872F8358
:1008D0008230924018F40E941A04F3CFCE010E9495
:1008E00008041E82CE010E943B048CE291E00E942B
:1008F0001D048F2D80640E94130408E110E0D501CF
:10090000C401002E04C0B695A795979587950A94C3
:10091000D2F70E94130408501109083F8FEF1807FF
:1009200071F785E9FF2021F028E087E8F2128FEFC8
:100930000E94130410E00E941A048A8787FF04C0F3
:100940001F3F11F01F5FF7CFDF91CF911F910F91E4
:10095000FF90BF90AF909F908F900895AF92BF92FD
:10096000CF92DF92EF92FF920F931F93CF93DF937B
:10097000EC016901C801820F931F8130924050F54C
:100980008E81882379F088819981AA81BB8184171F
:100990009507A607B70731F48F819885C816D90641
:1009A00008F042C0488359836A837B838B858330F8
:1009B00039F089E0440F551F661F771F8A95D1F7DC
:1009C0009A01AB0161E1CE010E945104882389F0B4
:1009D00083E08D83CE010E94080480E0DF91CF91F7
:1009E0001F910F91FF90EF90DF90CF90BF90AF904D
:1009F00008950E9408035B010E941A048A878F3FB2
:100A000069F40E9408036A197B096D327140A0F3F2
:100A10008FE08D83CE010E940804DCCF8E3F89F4E5
:100A200018861F8281E08E838F8198858C159D05A5
:100A300050F40E941A048F819885019698878F83BD
:100A4000F3CF8DE0E6CF6701E00EF11E0E941A049D
:100A5000F60181936F01EE15FF05C1F78F8198852F
:100A6000080F191F18870F838985882319F001152E
:100A70001240A0F08E81882389F08F8198859C0197
:100A80002F5F3F4F38872F838230924018F40E94A7
:100A90001A04F3CFCE010E9408041E8281E09ECF8B
:100AA000CF92DF92EF92FF920F93CF93DF93EC01FF
:100AB000690182E1411551056105710599F08B8548
:100AC000833039F089E0440F551F661F771F8A95E0
:100AD000D1F79A01AB0168E1CE010E94510488234D
:100AE00019F084E08D832DC08EEF0E9413047601EF
:100AF0008EEFD81AF70181917F010E941304EC1444
:100B0000FD04C1F78FEF0E9413048FEF0E941304BE
:100B10000E941A048A878F71853071F4011116C002
:100B2000CE010E94080481E0DF91CF910F91FF90E8
:100B3000EF90DF90CF90089581E18D83CE010E94E8
:100B40000804CE010E94080480E0EECF88E592E020
:100B50000E941D04811102C085E1C4CF20E030E075
:100B6000A9016DE0CE010E945104882311F084E1B7
:100B7000B9CF0E941A048111FACFD2CF0F934091BE
:100B800098015091990160919A0170919B014115D2
:100B900051056105710599F0082F21E632E0809139
:100BA0009C0190919D010E945005882349F010926C
:100BB00098011092990110929A0110929B0181E084
:100BC0000F9108950F93CF93C82F809197018111B2
:100BD00005C0C1E08C2FCF910F9108954091000185
:100BE0005091010160910201709103010C2F21E6E7
:100BF00032E080919C0190919D010E9450058111ED
:100C000002C0C0E0E7CFCC2321F381E00E94BE0503
:100C10008823B9F310929701DDCF8F929F92AF9204
:100C2000BF92EF92FF920F931F93CF934B015C0102
:100C3000C42F8091000190910101A0910201B09117
:100C4000030188159905AA05BB0551F181E00E94B1
:100C5000E20581110BC080E0CF911F910F91FF90B1
:100C6000EF90BF90AF909F908F90089581E6E82E0F
:100C700082E0F82E00E012E030E020E0B501A401AF
:100C800080919C0190919D010E94AE04882319F3EC
:100C90008092000190920101A0920201B0920301A2
:100CA000409197014C2B4093970181E0D5CFCF9392
:100CB000DF93EC016E857F858889998941E00E94E8
:100CC0000D06882351F08A8920E2829FC0011124F9
:100CD0008F599D4FDF91CF91089590E080E0FACF3A
:100CE0008F929F92AF92BF92CF92DF92EF92FF923C
:100CF0000F931F93CF93DF93EC0170939D0160934B
:100D00009C01442309F46AC040E060E070E0CB013C
:100D10000E940D0681110EC080E0DF91CF911F91DE
:100D20000F91FF90EF90DF90CF90BF90AF909F908A
:100D30008F90089580911F048F7771F780912B0415
:100D400090912C04A0912D04B0912E04843691052D
:100D5000A105B10508F3C0902704D0902804E090C5
:100D60002904F0902A04C114D104E104F104A1F291
:100D700040E0C701B6010E940D06882369F2809108
:100D80006C0290916D028115924031F69091710242
:100D9000992311F220916F0230917002232B09F4F4
:100DA000BBCF80916E02882309F4B6CF9A8B8C83D7
:100DB0001D8690E041E050E02D85E22FBA01022E21
:100DC00002C0660F771F0A94E2F78617970751F063
:100DD00031E0320F3D87283078F39ECFC12CD12CE3
:100DE0007601C6CF209177023091780250E040E042
:100DF0002115310541F42091850230918602409100
:100E00008702509188022D833E834F8358878091BB
:100E10006F029091700246015701880E991EA11C25
:100E2000B11C8B8A9C8AAD8ABE8A00917202109195
:100E30007302198F088FA0917102B0E00E945720B1
:100E4000DC01CB01880D991DAA1DBB1D8A8F9B8FCC
:100E5000AC8FBD8F25E0000F111F2A95E1F70150DF
:100E60001E4F012F11270695800F911FA11DB11D47
:100E70008E879F87A88BB98B0091740210917502A1
:100E800030E020E00115110541F40091810210913C
:100E900082022091830230918402C81AD90AEA0A98
:100EA000FB0AC00ED11EE21EF31E04C0F694E794A6
:100EB000D794C794EA95D2F7C986DA86EB86FC8682
:100EC00085EFC8168FE0D806E104F10420F48CE029
:100ED0008F8B81E022CF80E125EFC2162FEFD20663
:100EE000E104F104A8F380918D0290918E02A0910B
:100EF0008F02B09190028A8F9B8FAC8FBD8F80E262
:100F0000E7CF4F925F926F927F928F929F92AF92B4
:100F1000BF92CF92DF92EF92FF920F931F93CF93E6
:100F2000DF93EC01423051056105710590F480E0DA
:100F3000DF91CF911F910F91FF90EF90DF90CF90B5
:100F4000BF90AF909F908F907F906F905F904F90E9
:100F5000089589859A85AB85BC850196A11DB11D33
:100F600084179507A607B70710F3CB88DC88ED88B0
:100F7000FE888F89803109F042C0BB27A72F962FAA
:100F8000852F480159012A013B01C80ED91EEA1ECE
:100F9000FB1E8091000190910101A0910201B0918E
:100FA0000301C816D906EA06FB0699F58F89803138
:100FB000C1F5B301A201552766277727440F551FB6
:100FC0004F595D4FFA019182808280919701816033
:100FD000809397018A89823080F08D819E81AF81D4
:100FE000B8858C0D9D1DAE1DBF1D809398019093FB
:100FF0009901A0939A01B0939B0181E099CFDB0105
:10100000CA01E7E0B695A79597958795EA95D1F738
:10101000B8CF40E0C701B6010E940D068111C6CFCE
:1010200086CFB301A2014F77552766277727440F54
:10103000551F440F551F4F595D4FFA018082918211
:10104000A282B382C2CF8F929F92AF92BF92CF9271
:10105000DF92EF92FF920F931F93CF93DF93FC01E8
:1010600081859285A385B4850196A11DB11D841744
:101070009507A607B70770F480E0DF91CF911F9125
:101080000F91FF90EF90DF90CF90BF90AF909F9027
:101090008F90089583889488A588B6888789803141
:1010A00089F5BB27A72F962F852FE9016A017B01C0
:1010B0008F01BC01CD01680D791D8A1D9B1D80909B
:1010C000000190900101A0900201B09003018616EA
:1010D0009706A806B90601F5F8018789803111F550
:1010E000DD24EE24FF24F601EE0FFF1FEF59FD4F24
:1010F00080819181B0E0A0E088839983AA83BB833B
:1011000081E0BBCFDB01CA01C7E0B695A7959795F3
:101110008795CA95D1F7C9CF40E00E940D0681118D
:10112000DBCFAACFE894C7F8DD24EE24FF24F60134
:10113000EE0FFF1FEE0FFF1FEF59FD4F80819181D2
:10114000A281B381BF70D8CF4F925F926F927F928E
:10115000AF92BF92CF92DF92EF92FF920F931F93C5
:10116000CF93DF9300D000D0CDB7DEB78C01498399
:101170005A836B837C835901C12CD12C7601412C7D
:1011800082E0582E612C712C49815A816B817C81BF
:101190009E012F5F3F4FC8010E942308882339F129
:1011A000F8018585A301920104C0220F331F441F5B
:1011B000551F8A95D2F7DA01C901C80ED91EEA1E59
:1011C000FB1E49815A816B817C818789803111F1B5
:1011D00088EF9FEFAFEFBFE0481759076A077B071B
:1011E00098F2F501C082D182E282F38281E00F9011
:1011F0000F900F900F90DF91CF911F910F91FF9063
:10120000EF90DF90CF90BF90AF907F906F905F9006
:101210004F90089588EF9FEFA0E0B0E0DDCF0F93EF
:101220001F93CF93DF93FC012581222331F080E0CF
:10123000DF91CF911F910F9108958B01EC01FB017C
:101240008789803139F582E08D831F8A188E198E47
:101250001A8E808D918DB0E0A0E025E0880F991F57
:10126000AA1FBB1F2A95D1F78B8B9C8BAD8BBE8B96
:101270001C8F0B8F81E08C831E821F82188619863B
:101280001A861B861C861D861E861F86188A198A4A
:101290001A8ACECF803259F683E08D83428D538DEA
:1012A000648D758D4F8B588F698F7A8F9E012D5E5F
:1012B0003F4FC8010E94A4088111DACFB8CF8F92A6
:1012C0009F92AF92BF92CF92DF92EF92FF920F93D5
:1012D0001F93CF93DF93EC018D8181110EC080E0CD
:1012E000DF91CF911F910F91FF90EF90DF90CF9002
:1012F000BF90AF909F908F9008950B891C892D8986
:101300003E89041715072607370748F34A015B0192
:10131000823031F48A869B86AC86BD8681E0E0CF40
:1013200081149104A104B10449F41E821F8218861D
:1013300019861A861B861C861D86F0CF0A851B859A
:101340002C853D85EB8DFC8D858590E00996B90156
:10135000A8014150510961097109082E04C0769510
:101360006795579547950A94D2F775016401E1E0B6
:10137000CE1AD108E108F10804C0F694E794D79496
:10138000C7948A95D2F7C416D506E606F70620F06C
:10139000012B022B032B11F58F89988DA98DBA8D06
:1013A0008E839F83A887B9878E010A5F1F4FC11460
:1013B000D104E104F10409F4ADCF4E815F81688569
:1013C000798598018B8D9C8D0E94230891E0C91A24
:1013D000D108E108F1088111EACF81CFC41AD50AFA
:1013E000E60AF70AE1CF3F924F925F926F927F92A7
:1013F0008F929F92AF92BF92CF92DF92EF92FF9225
:101400000F931F93CF93DF93CDB7DEB72C970FB613
:10141000F894DEBF0FBECDBF5C01DC015B968D9002
:101420009C905C9716964D905D906D907C9019976E
:10143000411451046104710409F468C0BFEF4B1AF0
:101440005B0A6B0A7B0A312CF40181859285A385A6
:10145000B4859C01AD012F5F3F4F4F4F5F4F2987F0
:101460003A874B875C87730162011D821E821F824F
:101470001886F40181859285A385B4852D813E81EE
:101480004F815885281739074A075B0708F056C06F
:1014900089859A85AB85BC858C159D05AE05BF05F4
:1014A00050F482E0C82ED12CE12CF12C92E0492E90
:1014B000512C612C712C9E012F5F3F4FB701A6016B
:1014C000C4010E9423088823C9F189819A81AB81D4
:1014D000BC81892B8A2B8B2B09F1260137019FEFC9
:1014E000491A590A690A790A2D813E814F81588526
:1014F0002F5F3F4F4F4F5F4F2D833E834F83588762
:101500003FEFC31AD30AE30AF30AB3CFF4014080D2
:101510005180628073803324339496CFC414D504F1
:10152000E604F70409F70FEF1FEF2FEF3FE0B701D5
:10153000A601C4010E948107811119C080E02C9688
:101540000FB6F894DEBF0FBECDBFDF91CF911F91D4
:101550000F91FF90EF90DF90CF90BF90AF909F9052
:101560008F907F906F905F904F903F900895D5013E
:1015700016964D915D916D917C911997411551058C
:101580006105710539F097018601C4010E94810748
:101590008823A1F2D5011696CD92DD92ED92FC92B0
:1015A0001997332051F0D701C6010196A11DB11D35
:1015B000F40180839183A283B383F5018789908DA1
:1015C000A18DB28D892B8A2B8B2B39F48481C78A0C
:1015D000D08EE18EF28E80688483F50184818062F2
:1015E000848381E0ACCF1F93CF93DF93FC012581EF
:1015F000222371F1162FEC01848187FF1EC0CF01D9
:101600000E945706FC01892B19F18D81823040F42C
:101610008B899C89AD89BE89848F958FA68FB78F62
:101620008F89988D938F828F8F89988DA98DBA8D90
:10163000B58BA48B8C818F778C83111103C08C8127
:101640008F7E8C83812FDF91CF911F910C94E205C7
:1016500080E0DF91CF911F910895FF920F931F9328
:10166000CF93DF93EC018D81813041F090E080E0F9
:10167000DF91CF911F910F91FF9008958C8181FF91
:10168000F5CF82FD1BC000919C0110919D01C80106
:101690000E943B040E941A04F82EC8010E9408040C
:1016A0008FEFF812E3CF8C8185FF1BC060E0CE0185
:1016B0000E94F30A8C818F7D8C83D8CF4B895C8903
:1016C0006D897E898A859B85AC85BD858417950744
:1016D000A607B707C1F2CE010E945F098111D3CFDF
:1016E000C5CF409198015091990160919A017091F4
:1016F0009B01452B462B472B21F080E00E94BE0525
:10170000B5CF80618C832A853B85317080E092E083
:10171000821B930BADCFCF93DF93EC0161E00E946E
:10172000F30A882311F01D8281E0DF91CF910895A3
:101730002F923F924F925F926F927F928F929F92E1
:10174000AF92BF92CF92DF92EF92FF920F931F93CF
:10175000CF93DF9300D000D01F92CDB7DEB77C01CE
:101760005B01342E5D83DC0115968C9115978130D9
:1017700009F0CEC014962C9021FECAC022FCB4C041
:10178000C32CDD8022947FE027222094B22DB170FB
:101790002B2ED7011A964D915D916D917C911D97DD
:1017A000C114D10409F428C15B968D919C915C977A
:1017B000FC0174807A948A019B0169E03695279533
:1017C000179507956A95D1F770228A0111707110EB
:1017D00020C001151105E9F416964D915D916D91AA
:1017E0007C911997411551056105710509F099C062
:1017F00057968D919D910D90BC91A02D0097A105BC
:10180000B10509F0B0C0C7010E94F309882309F4AB
:101810007FC080E092E0801B910B46018C159D05F6
:1018200008F44C01D7015B964D915C915C9716963C
:101830008D919D910D90BC91A02D0297A109B109A8
:10184000FA01258504C0880F991FAA1FBB1F2A957E
:10185000D2F74685578560897189840F951FA61F29
:10186000B71F9C01AD01270D311D411D511D2901DF
:101870003A01811432E0930609F07BC080910001A7
:1018800090910101A0910201B09103018415950589
:10189000A605B70559F48FEF9FEFDC018093000197
:1018A00090930101A0930201B0930301022D9501D1
:1018B000B301A20180919C0190919D010E9450056D
:1018C000882331F19EEFB91AC818D908F70182852B
:1018D0009385A485B585880D991DA11DB11D8287AD
:1018E0009387A487B58755CFF701438954896589C4
:1018F000768982859385A485B585481759076A0737
:101900007B0709F43DCFC7010E945F09811138CFE1
:1019100081E090E0D70113969C938E93129780E01C
:1019200007C09E012F5F3F4F0E942308811102C014
:1019300090E079C089819A81AB81BC81F701238DC8
:10194000348DF901278948EF5FEF60E070E02031C6
:1019500021F048EF5FEF6FEF7FE084179507A60750
:10196000B70708F050CFF70186839783A087B18728
:1019700050CF0115110599F5D7011A964D915D913A
:101980006D917C911D9753968D919D910D90BC9179
:10199000A02D481759076A077B0708F181E00E94CC
:1019A000E205882309F4B4CF40920001509201016E
:1019B000609202017092030180919701816080938F
:1019C0009701C8018F599D4FD5019C01280D391DE4
:1019D000FC012E173F0759F04D914193FACF41E09A
:1019E000C301B2010E940D068111EBCF91CF281BDC
:1019F000390BA20EB31E68CFF70183899489A5899C
:101A0000B68984179507A607B70738F48481438BF6
:101A1000548B658B768B80688483F701848183FD8A
:101A20001AC0832D9D810F900F900F900F900F90F3
:101A3000DF91CF911F910F91FF90EF90DF90CF90AA
:101A4000BF90AF909F908F907F906F905F904F90DE
:101A50003F902F90089561E0C7010E94F30A882308
:101A600009F456CFDECFCF93DF931F92CDB7DEB709
:101A7000698341E050E0BE016F5F7F4F0E94980B89
:101A80000F90DF91CF910895FC01DB0112968D91AB
:101A90009C9113979383828388E591E0918380835F
:101AA00014968C911497848315968C911597858341
:101AB00016964D915D916D917C9119974683578350
:101AC000608771871A964D915D916D917C911D97FC
:101AD00042875387648775871E964D915D916D91FE
:101AE0007C91519746875787608B718B52968C916A
:101AF0005297828B53964D915D916D917C91569743
:101B0000438B548B658B768B57964D915D916D9180
:101B10007C915A97478B508F618F728F5B968D9116
:101B20009C91948F838F0895FC01818D928D0097F5
:101B300019F061E00C94F30A0895DC015996ED91D7
:101B4000FC913097B9F083899489A589B68942853B
:101B5000538564857585841B950BA60BB70B811582
:101B600020E89207A105B10538F08FEF9FE7A0E0CC
:101B7000B0E0089590E080E00895DC0159968D91E1
:101B80009C91009739F0DC01ED91FC910480F58186
:101B9000E02D099490E080E00895CF93DF93EC016D
:101BA000E98DFA8D309749F481E090E09B838A8338
:101BB00090E080E0DF91CF91089513821282898DA9
:101BC0009A8D0E94980BE98DFA8D22813381232B07
:101BD00059F7F0CFCF93DF931F92CDB7DEB769836C
:101BE000DC01ED91FC910280F381E02D41E050E0B9
:101BF000BE016F5F7F4F09950F90DF91CF910895E0
:101C00002F923F924F925F926F927F928F929F920C
:101C1000AF92BF92CF92DF92EF92FF920F931F93FA
:101C2000CF93DF9300D01F92CDB7DEB7FC01858143
:101C3000811118C08FEF9FEF0F900F900F90DF91E1
:101C4000CF911F910F91FF90EF90DF90CF90BF90B9
:101C5000AF909F908F907F906F905F904F903F904C
:101C60002F900895848180FFE5CF43895489658949
:101C7000768982859385A485B585312C212C4817DA
:101C800059076A077B0719F022242394312C6F012E
:101C90002101CE0101963C01DF011696BB83AA8388
:101CA0004114510409F4C5C0F60142855385648589
:101CB00075854A01F1E09F22D6015B968D919C913A
:101CC0005C978A019B01E9E0369527951795079562
:101CD000EA95D1F71596EC91E230E9F5FC01628DB9
:101CE000738D848D958D600F711F821F931FA12CA2
:101CF00022E0B22EA818B9084A145B0408F4520175
:101D0000F601248126FD04C0A114F2E0BF0671F49F
:101D10000091000110910101209102013091030115
:101D2000061717072807390709F05EC040E00E9430
:101D30000D06882309F47ECFC4018F599D4FD3012E
:101D40009C012A0D3B1DFC012E173F0709F46CC0B6
:101D500041914D93F9CFDC011496BC90BA94B02216
:101D60008114910479F4B1100DC0452B462B472BFB
:101D700069F5F6018789908DA18DB28D8683978351
:101D8000A087B187D6015B96ED91FC915C97169682
:101D90006D917D918D919C91199762507109810986
:101DA0009109258504C0660F771F881F991F2A9502
:101DB000D2F70685178520893189600F711F821F30
:101DC000931F6B0D711D811D911D91CFD60116962C
:101DD0004D915D916D917C9119972A813B810E9473
:101DE00023088111CFCF26CF730185019401AB0168
:101DF000BC0180919C0190919D010E94AE048823BA
:101E000009F418CF6A0C7B1CF60182859385A485A2
:101E1000B5858A0D9B1DA11DB11D82879387A4875F
:101E2000B5874A185B083CCF281B390B620E731E1E
:101E3000EBCF2A94232809F0FDCE898190E0FCCED7
:101E4000FC01818D928D009711F00C94000E8FEFA4
:101E50009FEF08950F931F93CF93DF93EC01898D2C
:101E60009A8D10E000E0009799F00E94000E8C011E
:101E70000F3F100769F0898D9A8DFC0142855385CB
:101E80006485758541505109610971090E945F0996
:101E9000C801DF91CF911F910F910895CF93DF93E8
:101EA000EC01EE85FF8509956A877B878C879D8786
:101EB000DF91CF91089581E08093F301089560E070
:101EC0008EE00C94D70290913C029111FCCF282F08
:101ED00091E090933C0290933B023FEF30933A02A3
:101EE00010923902380F3093380290931702909174
:101EF0001702906D9093170290911602913019F588
:101F000010921602909117029093BB009091BC0022
:101F100093FDF8CF95EC9093BC0090913C029130EA
:101F2000E1F390913902981710F420913902A8E159
:101F3000B2E0E6EFF1E080E0821307C01092F50115
:101F40008093F401089595EEE6CF9D9191938F5F74
:101F5000F3CFCF92DF92FF920F931F93CF93DF9334
:101F60006C0181E080933D0288E680935F021092CD
:101F70003E021092600260E08EEF94E00E94D00377
:101F800081E00E94060187E090E00E94630F8EEFDF
:101F900094E00E9489038F77282F30E094E03595F4
:101FA00027959A95E1F7922F990F990FC22FC91B88
:101FB000CC0FC80F8EEF94E00E9489039C0144E08F
:101FC000359527954A95E1F72F703327922F990F72
:101FD000990FD22FD91BDD0FD80F8EEF94E00E94FE
:101FE00089039C0154E0359527955A95E1F72F70A8
:101FF0003327922F990F990F122F191B110F180FBA
:102000008EEF94E00E9489038EEF94E00E94890392
:102010009C0164E0359527956A95E1F72F70332789
:10202000922F990F990F022F091B000F080F8EEFA7
:1020300094E00E9489039C0174E0359527957A9578
:10204000E1F72F703327922F990F990FF22EF91A7B
:10205000FF0CF80E8EEF94E00E9489039C01E4E0EF
:1020600035952795EA95E1F72F703327922F990F31
:10207000990F291B220F820FF6018083F1820283C0
:102080001383D483C583C601DF91CF911F910F9134
:10209000FF90DF90CF9008958F929F92AF92BF9262
:1020A000CF92DF92EF92FF920F931F93CF93DF9324
:1020B00000D000D0CDB7DEB7FC018581813091F032
:1020C00080E00F900F900F900F90DF91CF911F91B4
:1020D0000F91FF90EF90DF90CF90BF90AF909F90C7
:1020E0008F900895848181FFEBCF83899489A5899E
:1020F000B689892B8A2B8B2B09F45FC07F0140E0C6
:1021000050E0BA01CF010E945F098823C9F2F701AC
:10211000C38CD48C8788908CA18CB28C82E090E0A8
:10212000A0E0B0E0F60180839183A283B3839E0197
:102130002F5F3F4FB501A401C6010E9423088823E9
:1021400009F4BECF00E010E09801B501A401C6017A
:102150000E948107882309F4B3CF89809A80AB80DD
:10216000BC80F6018789803119F188EF9FEFAFEFCE
:10217000BFE088169906AA06BB06C8F2F701178ABF
:10218000108E118E128E138A148A158A168A8481F3
:102190008068848361E0C7010E94F30A882309F400
:1021A0008FCF40E050E0BA01C7010E945F0989CF9C
:1021B00088EF9FEFA0E0B0E0DCCF81E082CFCF924C
:1021C000DF92EF92FF921F93CF93DF93EC0180E2B7
:1021D000689FF0011124EF59FD4F9385917161F0D3
:1021E000842F827449F080E0DF91CF911F91FF909E
:1021F000EF90DF90CF900895142F6A8B80910001AB
:1022000090910101A0910201B09103018E879F87F7
:10221000A88BB98BC488D588F12CE12C7601DD24FC
:10222000CC24CF8AD88EE98EFA8E828D938DB0E041
:10223000A0E0AC01BD014C295D296E297F294F8B9F
:10224000588F698F7A8F83858871B1F4848D958DCD
:10225000A68DB78D8B8B9C8BAD8BBE8B81E08D83D8
:102260001F701C831E821F82188619861A861B8681
:102270001C861D8681E0B8CF803109F0B4CF9E0165
:102280002D5E3F4F8B8D9C8D0E94A408882309F4FE
:10229000AACF84E0E4CFFB0101900020E9F7319759
:1022A000AF01461B570BDC01ED91FC910280F381DD
:1022B000E02D0994CF93DF93BC0181E694E00E9466
:1022C0006401EC0166E671E081E694E00E944B1146
:1022D0008C0F9D1FDF91CF9108958F929F92AF92A7
:1022E000BF92DF92EF92FF920F931F93CF93DF93F2
:1022F00000D000D000D0CDB7DEB77C011092F50140
:102300001092F40110923E021092600210923C0270
:1023100011E010933B021092160261E082E10E94EC
:102320008B0261E083E10E948B028091B9008E7F75
:102330008093B9008091B9008D7F8093B90088E4C3
:102340008093B80085E48093BC0087E793E0909386
:10235000C1018093C00188E793E09093C501809309
:10236000C40110933D0288E680935F0210923E0202
:102370001092600260E08EEF94E00E94D00381E052
:102380000E94060181E090E00E94630F8EEF94E0CE
:102390000E94890387FF04C08EED90E00E945A11CD
:1023A000CE0101960E94A90FF70104811581F80161
:1023B00087A5882321F0C8018A960E948B0BF8011B
:1023C00013861186168215828AE084830E94080390
:1023D0007B0161E0F80184810E94D70261E0F8018D
:1023E00084810E948B02DFB6F89480919401811160
:1023F00027C0EEE5F1E08491E2E7F1E09491E82F67
:10240000F0E0EE0FFF1FE05CFE4FA591B491EC9160
:10241000E92321F461E08AE00E948B0261E08AE016
:102420000E94D7028CB580618CBD8CB580648CBD58
:1024300061E08DE00E94D70261E08BE00E94D7024C
:10244000809194018F5F80939401DFBE82E5809339
:102450000A0510920B0580910A0590910B050E94C8
:1024600038042AE0D22E8FEF0E941304DA94D110A0
:10247000FACFC8010E943B0420E030E0A90160E0EF
:10248000C8010E945104D82EF8018287F1E08F170D
:1024900051F00E9408036E197F09613D774060F397
:1024A00081E0F8013EC02AEA31E040E050E068E017
:1024B000C8010E94510482FF28C0F801D386F801A8
:1024C0008385812C912C5401823029F4812C912C0C
:1024D000A12C80E4B82E20E030E0A90167E3C80118
:1024E0000E945104A501940169E2C8010E945104AF
:1024F000F8018287882309F10E9408036E197F0979
:10250000613D774040F388E0CCCF94E0D92E0E9423
:102510001A04F8018287DA94D110F9CF8A3A51F07F
:1025200082E08583C8010E94080482EC90E00E944A
:102530005A11FFCF82E08387C2CF83858230C9F4EE
:1025400020E030E0A9016AE3C8010E945104882319
:1025500011F086E0A6CF0E941A04807C803C19F41A
:1025600083E0F80183870E941A040E941A040E94E3
:102570001A04C8010E94080480E580930A0510929D
:102580000B057801FCE0EF0EF11C41E0B801C7013A
:102590000E9470068823C9F0B701C8018A960E947C
:1025A0000F09882311F226960FB6F894DEBF0FBEEE
:1025B000CDBFDF91CF911F910F91FF90EF90DF90F2
:1025C000BF90AF909F908F90089540E0B801C701F1
:1025D0000E947006882309F4A8CFDECF8F929F92C5
:1025E000AF92BF92EF92FF920F931F93CF93DF931F
:1025F000CDB7DEB7A1970FB6F894DEBF0FBECDBF43
:102600007C01FA01CB0119A2223008F42AE08E01E4
:102610000F5D1F4F822E912CB12CA12CBF01A50163
:1026200094010E944522F901CA016A300CF5605DEF
:10263000D8016E938D01232B242B252B79F790E065
:1026400080E0109721F0BD01C7010E944B11A196B7
:102650000FB6F894DEBF0FBECDBFDF91CF911F91B3
:102660000F91FF90EF90BF90AF909F908F90089543
:10267000695CDECF2F923F924F925F926F927F9272
:102680008F929F92AF92BF92CF92DF92EF92FF9282
:102690001F93CF93DF93EC016A017B01722EAB0194
:1026A0009601CB01B6010E940B2269E671E081110F
:1026B00026C046015701E894B7F82FEF3FEF4FE7E8
:1026C0005FE7C501B4010E940B2281110CC02FEFFE
:1026D0003FEF4FE75FE7C501B4010E94331F6DE68E
:1026E00071E0181664F02FEF3FEF4FE75FE4C7018A
:1026F000B6010E94B6211816B4F461E771E0CE016C
:10270000DF91CF911F91FF90EF90DF90CF90BF901E
:10271000AF909F908F907F906F905F904F903F9081
:102720002F900C944B112FEF3FEF4FE75FECC70159
:10273000B6010E94331F87FDE0CF20E030E0A90101
:10274000C701B6010E94331F312C212C87FF0DC019
:10275000E881F9810190F081E02D6DE2CE010995CB
:102760001C01F7FAF094F7F8F09410E060E070E0E4
:1027700080E09FE3711641F020E030E040E251E458
:102780000E9415211F5FF6CFA70196010E94A92084
:102790002B013C010E9487214B015C012AE0BC0116
:1027A000A401CE010E94EE127C01E20CF31C112365
:1027B000E1F1C501B4010E94381F9B01AC01C301C6
:1027C000B2010E94A8204B015C01E881F9810190CF
:1027D000F081E02D6EE2CE010995E80EF91E115050
:1027E00020F120E030E040E251E4C501B4010E9454
:1027F000991F2B013C010E9487214B01B12CA12C78
:102800002AE0B501A401CE010E94EE12E80EF91EE5
:10281000C501B4010E94381F9B01AC01C301B20184
:102820000E94A8204B015C01DACFC701DF91CF9154
:102830001F91FF90EF90DF90CF90BF90AF909F904F
:102840008F907F906F905F904F903F902F90089562
:10285000FB01DC011A964D915D916D917C911D9764
:1028600022E0CF010C943A13CF93DF93EC01A881BF
:10287000B981EB01E881F9811097F1F03097B1F45B
:10288000EC018C819D81892BC9F08C9190E00BC06B
:10289000DB0114968D919C91892B81F0808190E0D1
:1028A000919581959109DF91CF910895BF01CD0157
:1028B000DF91CF910C947524309751F790E080E030
:1028C000F2CF0F931F93CF93DF93EC01888199810F
:1028D000009759F02A813B812617370730F081E0B5
:1028E000DF91CF911F910F9108958B016F5F7F4F03
:1028F0000E949223009759F0998388831B830A834F
:102900002C813D81232B59F7FC011082E8CF80E018
:10291000E7CFCF93DF93EC0188819981009711F085
:102920000E940923198218821D821C821B821A822E
:10293000DF91CF910895EF92FF920F931F93CF9362
:10294000DF93EC018B01CB010E942A1F7C01BC01AB
:10295000CE010E94611481110BC0CE010E94891426
:10296000CE01DF91CF911F910F91FF90EF900895CD
:10297000FD82EC82B801888199810E94231FF0CFEB
:10298000EF92FF920F931F93CF93DF93EC017B01A4
:102990008A01BA010E94611481110BC0CE010E940C
:1029A0008914CE01DF91CF911F910F91FF90EF908D
:1029B00008951D830C83B701888199810E947E242C
:1029C000F0CFFB0101900020E9F73197AF01461BE2
:1029D000570B0C94C014CF93DF93EC01FB018617C7
:1029E000970749F0608171816115710541F044815B
:1029F00055810E94C014CE01DF91CF9108950E94AD
:102A00008914F9CFFC01118210821382128215827F
:102A100014820C94EB14FC0180819181009711F0D9
:102A20000C94092308950F931F93CF93DF93CDB791
:102A3000DEB72C970FB6F894DEBF0FBECDBF188659
:102A40001F821A8619861C861B8668E671E0CE01F5
:102A500007960E94E1140E94140397FD1BC089830E
:102A60001A820B851C850F5F1F4FB801CE01079698
:102A70000E946114882379F32F8138858B859C858A
:102A8000BE016F5F7F4F820F931F0E947E241C87C1
:102A90000B87E1CF1A8219821C821B821E821D8243
:102AA00069E171E0CE0101960E949B142B853C8563
:102AB0008D819E812817390751F4BE016F5F7F4FCA
:102AC000CE0107960E94341411E0892B09F010E022
:102AD000CE0101960E940B151123C1F080E1809375
:102AE00081001092F30188E091E00E945A11CE011A
:102AF00007960E940B152C960FB6F894DEBF0FBEFA
:102B0000CDBFDF91CF911F910F9108951A82198245
:102B10001C821B821E821D8262E071E0CE01019642
:102B20000E949B142B853C858D819E812817390737
:102B300059F4BE016F5F7F4FCE0107960E94341497
:102B400011E0892B09F010E0CE0101960E940B15CF
:102B5000112369F28BE59FE090939F0180939E0182
:102B600081E080936F008091F20180618093810009
:102B700081EF90E0BACF0E94F20181110C941315FD
:102B800008950E944F243F924F925F926F927F92DE
:102B90008F929F92AF92BF92CF92DF92EF92FF926D
:102BA0000F931F93CF93DF93CDB7DEB72B970FB65D
:102BB000F894DEBF0FBECDBF7C01DC0115968C9171
:102BC000811115C0FE013196CE010C966F0130E2E5
:102BD0003193E817F907E1F7DA0130E087E09D91DA
:102BE000B92E992329F19E3239F48A3011F480E00C
:102BF000DAC038E08AE0F3CFE0E3F1E04491442327
:102C000021F031969413FACFF2CF831780F34FED72
:102C1000490F4E3560F74FE9490F4A3118F440EE3D
:102C2000B42EB90EF601E30FF11DB0823F5FD7CF8E
:102C300089818032E1F2322E8B01FB01838D948DEC
:102C4000D7015C969C938E935B97168217821086B1
:102C500011861286138614861586F801828593855F
:102C6000A485B58543895489658976898417950734
:102C7000A607B70708F04DC025E0B695A79597952C
:102C800087952A95D1F7F82FFF70AF2ED8011596AA
:102C90008C91823008F4ABCFC8010E94000E97FDE2
:102CA000A6CFF80182859385A485B5854F96A11D91
:102CB000B11D82879387A487B587F0E2AF9EB001EC
:102CC00011246F597D4F6115710509F490CFDB0117
:102CD0008C91882341F0853E09F058C0BB2029F033
:102CE000BB24B394BACFB1100EC0F701A28A809171
:102CF000000190910101A0910201B091030186872A
:102D00009787A08BB18BDB018C918111E9CFBB241C
:102D1000B394832D8271823109F069CFBB2009F40D
:102D20005AC0C7010E945706009709F460CF20E2FD
:102D3000FC0111922A95E9F72BE0F601DC010190E4
:102D40000D922A95E1F721E238E2DC0151963C939D
:102D50002E93509740E058E01F965C934E931E9739
:102D600053963C932E93529759963C932E93589793
:102D700057965C934E93569781E00E94E205882314
:102D800009F435CF432DF70162890AC04BE050E0CA
:102D9000C6010E945424892B09F05FCF432D6A2D70
:102DA000C7010E94DF102B960FB6F894DEBF0FBE4E
:102DB000CDBFDF91CF911F910F91FF90EF90DF90EA
:102DC000CF90BF90AF909F908F907F906F905F90CB
:102DD0004F903F900895F8018581823009F407CF24
:102DE000C8010E94F309882309F401CFD8015B963A
:102DF000ED91FC915C9716968D909D90AD90BC9056
:102E00001997B2E08B1A9108A108B108858504C012
:102E1000880C991CAA1CBB1C8A95D2F786859785BD
:102E2000A089B189880E991EAA1EBB1E8481240127
:102E30003501480E511C611C711C84149504A604B4
:102E4000B70409F1E1E04E1A51086108710881E008
:102E50000E94E205882309F4CACEE1E6F2E011926D
:102E600081E694E08E179F07D1F7409200015092BF
:102E700001016092020170920301809197018160CB
:102E800080939701DACFD8015B96ED91FC9125856F
:102E900080E092E0A0E0B0E004C0880F991FAA1F74
:102EA000BB1F2A95D2F7F801438954896589768931
:102EB000840F951FA61FB71F838B948BA58BB68B92
:102EC000D70152961C9281E692E031CF3F924F9209
:102ED0005F926F927F928F929F92AF92BF92CF92AA
:102EE000DF92EF92FF920F931F93CF93DF93CDB7B3
:102EF000DEB7C754D1090FB6F894DEBF0FBECDBF01
:102F00006C015B012A0119A218A288E591E09F8F4C
:102F10008E8F1BA21C821B829A8389831E827B0157
:102F200010E000E03E018EE1680E711CF601E00F3A
:102F3000F11F80818F3211F40F5F1F4FD601A00F58
:102F4000B11FFE01FB9690E080E04F012D912F32E2
:102F500049F0222339F00F5F1F4F019621938C30E7
:102F60009105A1F7880D991DFC011082F601E00F73
:102F7000F11F80818F3211F40F5F1F4FF601E00FB8
:102F8000F11F308041E0311040E030E020E0B4013A
:102F9000C701F2010995811121C0EA14FB04D1F4A3
:102FA00080E0C95BDF4F0FB6F894DEBF0FBECDBF28
:102FB000DF91CF911F910F91FF90EF90DF90CF9015
:102FC000BF90AF909F908F907F906F905F904F9049
:102FD0003F900895C7010E948B0BE2CF332081F010
:102FE00021E0A401B701C3010E94C315982EEA1481
:102FF000FB0471F0C7010E948B0B91100EC0D0CF63
:10300000EA14FB0419F0C7010E948B0B81E0C9CFC1
:10301000882331F2FE0131967F019E2D8F2D7301A1
:10302000692E782E83CF1F93CF93DF93CDB7DEB772
:103030006D970FB6F894DEBF0FBECDBFAB011C82FB
:103040001B8228E531E03A8329831E8221E0BC01FE
:10305000CE0101960E94C31511E081110CC010E051
:10306000812F6D960FB6F894DEBF0FBECDBFDF91F6
:10307000CF911F910895CE0101960E948B0BF0CF46
:10308000CF93DF93CDB7DEB76D970FB6F894DEBF61
:103090000FBECDBF442399F1AB01BC011C821B8242
:1030A00088E591E09A8389831E8222E0CE01019611
:1030B0000E94C31581110EC090E081E0911101C002
:1030C00080E06D960FB6F894DEBF0FBECDBFDF91E6
:1030D000CF910895CE0101960E944C10882361F390
:1030E000CE0101960E945706009731F325EEFC01B0
:1030F00020831E8281E00E94E205982FDECF81E0CE
:10310000E0CFEF92FF920F931F93CF93DF93EC01E9
:103110007B018A011B821A8288EE93E0A0E0B0E076
:103120008C839D83AE83BF838EE091E099838883F7
:103130008DE190E00E946D229A8F898F009779F03F
:103140002DE1F701DC0101900D922A95E1F74CE0A9
:1031500050E0B801CE010C960E948524188EDF91B4
:10316000CF911F910F91FF90EF9008952F923F9272
:103170004F925F926F927F928F929F92AF92BF9287
:10318000CF92DF92EF92FF920F931F93CF93DF9333
:10319000CDB7DEB7C058D1090FB6F894DEBF0FBE69
:1031A000CDBF2C018B01BC016E5F7F4FCE018758D4
:1031B0009F4F0E940215CE018D589F4F0E94A90F6C
:1031C000F80164817581EB966EAC7FACEB9719A228
:1031D00018A288E591E09F8F8E8F1BA21C821B8214
:1031E0009A8389831E82645F7F4F5E01FEE1AF0E8A
:1031F000B11CC5010E940F0963018E010F5F1F4FB3
:10320000150148016FE270E0C6010E946A24009730
:1032100009F45DC0F60120812F3271F4FFEFCF1A5F
:10322000DF0A902F812F8101292E382E922D832D98
:103230001801092F182FE6CF8C198D3008F08CE07B
:10324000E82EF12CA701B601CE01885A9F4F0E94AB
:103250008524E8E5F0E0EC0FFD1FEE0DFF1D108268
:10326000C8010E948B0B21E0AE01485A5F4FB101AB
:10327000C8010E94C315811124C01EAE1DAE88E591
:1032800091E09CAF8BAF21961FAE2197C158DF4FC5
:1032900088819981CF57D040680E791EF3018081D3
:1032A000811124C0BE01655C7F4FC4010E94440DA2
:1032B00045E751E0B401CE01885A9F4F0E94811822
:1032C0003CC0CE0CDF1CC1010E948B0BAFCF96011E
:1032D00026193709C158DF4F39832883CF57D0408B
:1032E000B101CE01CB960E94440DD0CF19A218A2F5
:1032F00088E591E09F8F8E8F1BA221968FAD21973D
:10330000811147C06C961FAE1EAE6C9788EE93E09D
:10331000A0E0B0E0A0968CAF9DAFAEAFBFAFA097DE
:103320008EE091E06A969FAF8EAF6A97E3961FAEEC
:103330001EAEE397A5961FAEA597E396EEADFFAD43
:10334000E397309719F0858181113FC081E291E0C8
:103350000E945A11CE0187589F4F0E940B15C058EA
:10336000DF4F0FB6F894DEBF0FBECDBFDF91CF9118
:103370001F910F91FF90EF90DF90CF90BF90AF9093
:103380009F908F907F906F905F904F903F902F9085
:10339000089527E1A301BE01655C7F4FC5010E942E
:1033A000C315882309F4AECFCE01CB960E948B0BB8
:1033B00049A95AA96BA97CA9C5010E945F09B50159
:1033C000C4010E94440DA30175CFE9968FADE99722
:1033D0001F928F93E8968FADE8971F928F93E79691
:1033E0008FADE7971F928F93E6968FADE6971F926A
:1033F0008F93E5968FADE5971F928F93E4968FADEF
:10340000E49790E08053984F9F938F9387E791E0E4
:103410009F938F939F928F920E9494241F8E1E8E53
:1034200019A218A21BA21AA2B401C5010E94E1149C
:103430004AA15BA16E8D7F8DCE01885A9F4F0E945D
:10344000CD0DC5010E940B156EE171E0CE01885AC9
:103450009F4F0E946401F201428553856485758502
:1034600022E0CE01885A9F4F0E943A1366E671E02F
:10347000CE01885A9F4F0E944B11E3968EAD9FADAF
:10348000E3970FB6F894DEBF0FBECDBF009709F4E7
:1034900061CF0E948B0BE3968EAD9FADE3970E94A8
:1034A000092358CFCF92DF92EF92FF9280E480936E
:1034B0007C0080917A00806480937A0080917A0009
:1034C00086FDFCCF8091780060917900762F682F7F
:1034D000072E000C880B990B0E943A1F20E030E069
:1034E00040E85AE30E94991F6B017C01AC019B01EB
:1034F00060E070E080E89FE30E94A8209B01AC019F
:10350000C701B6010E94152120E030EB4FE955E4D8
:103510000E94991F20E030E44CE156E40E941521FE
:103520000E94C32120E030EA46E555E40E941521BF
:103530002FE03FEC4BE55BE30E94A9209B01AC012F
:1035400060E070E080E89FE30E94152123E333E907
:1035500048E853E40E94A820FF90EF90DF90CF90BE
:1035600008951F920F920FB60F9211242F933F933D
:103570004F935F936F937F938F939F93AF93BF937B
:10358000EF93FF9381E694E00E94FC01FF91EF919D
:10359000BF91AF919F918F917F916F915F914F916B
:1035A0003F912F910F900FBE0F901F9018951F9273
:1035B0000F920FB60F9211242F938F939F93EF9337
:1035C000FF93E0917104F09172048081E09177049F
:1035D000F091780482FD1BC0908180917A048F5F06
:1035E0008F7320917B04821741F0E0917A04F0E020
:1035F000EF59FB4F958F80937A04FF91EF919F9144
:103600008F912F910F900FBE0F901F901895808172
:10361000F4CF1F920F920FB60F9211242F933F9366
:103620008F939F93AF93BF938091EC019091ED01A5
:10363000A091EE01B091EF013091EB0123E0230F57
:103640002D3758F50196A11DB11D2093EB018093F4
:10365000EC019093ED01A093EE01B093EF01809106
:10366000E7019091E801A091E901B091EA0101968A
:10367000A11DB11D8093E7019093E801A093E9019A
:10368000B093EA01BF91AF919F918F913F912F919C
:103690000F900FBE0F901F90189526E8230F0296EB
:1036A000A11DB11DD2CF1F920F920FB60F92112400
:1036B0002F933F934F935F936F937F938F939F933A
:1036C000AF93BF93EF93FF938091B900887F8036CB
:1036D00009F44AC0F0F5883209F4A7C018F5803122
:1036E00009F49BC0B8F4882309F4F9C0883009F4C0
:1036F00094C0FF91EF91BF91AF919F918F917F9176
:103700006F915F914F913F912F910F900FBE0F904E
:103710001F901895883109F488C0803251F7809342
:103720003A0214C0803409F49DC040F48033B9F3E8
:103730008833F9F680933A0285ECB0C0803509F4FD
:1037400085C0883509F496C0883499F60E944603EE
:10375000D0CF883909F48CC038F5883729F050F477
:10376000883611F0803729F683E080933C0210926E
:10377000E60157C0883809F47BC0803919F08038D9
:1037800009F0B7CF8091E601803208F071C0E09176
:10379000E60181E08E0F8093E6018091BB00F0E0AE
:1037A000EA53FE4F80833DC0803B39F0E0F4803A1D
:1037B00009F479C0883A09F09CCF84E080933C02F8
:1037C0001092C3011092C201E091C001F091C101B9
:1037D00009958091C20181110FC081E08093C201DF
:1037E0001092A00109C0803C09F4A6CF883C09F4DE
:1037F000A3CF883B09F07DCFE091C30181E08E0F1C
:103800008093C301F0E0E056FE4F80818093BB00BF
:103810009091C3018091C20129C0809117028093C9
:10382000BB0085EC8093BC0064CF909139028091FD
:103830003802981758F5E091390281E08E0F809395
:103840003902F0E0E85EFD4F8081E9CFE091390276
:1038500081E08E0F809339028091BB00F0E0E85E3A
:10386000FD4F808390913902809138029817C8F2F9
:1038700085E8D8CFE091390281E08E0F809339023C
:103880008091BB00F0E0E85EFD4F808380913B02B9
:1038900081115CCF81E08093160284EA8093BC00A2
:1038A00010923C0226CF85EC8093BC0010923C0223
:1038B0008091E601803230F4E091E601F0E0EA53D5
:1038C000FE4F10826091E60170E0E091C401F0913A
:1038D000C50186EC91E009951092E6010ACF10929D
:1038E0003A0234CF1F920F920FB60F9211242F93EA
:1038F0003F934F935F936F937F938F939F93AF9378
:10390000BF93EF93FF93E0919E01F0919F01099582
:10391000FF91EF91BF91AF919F918F917F916F91A7
:103920005F914F913F912F910F900FBE0F901F907D
:103930001895E1E6F4E01382128288EE93E0A0E0AD
:10394000B0E084839583A683B78324E331E0318399
:10395000208325EC30E03587248724EC30E037875E
:10396000268720EC30E0318B208B21EC30E0338B4C
:10397000228B22EC30E0358B248B26EC30E0378B29
:10398000268B118E128E138E148EEEEFF4E01382BE
:10399000128284839583A683B78386E491E0918322
:1039A0008083EAE0F5E080E580831182E1E1F5E0E3
:1039B000158216821186138682E090E0A0E0B0E0C6
:1039C00084879587A687B78713A215A614A688E5CE
:1039D00091E093A782A717A6ABE5B5E084E691E056
:1039E00011969C938E938AE595E013969C938E9303
:1039F00012971596FC93EE931497ECE0F5E0B183E3
:103A0000A08312820895CF93DF93CDB7DEB762977C
:103A10000FB6F894DEBF0FBECDBF789484B5826038
:103A200084BD84B5816084BD85B5826085BD85B562
:103A3000816085BD80916E00816080936E001092E0
:103A4000810080918100826080938100809181005B
:103A500081608093810080918000816080938000EC
:103A60008091B10084608093B1008091B00081604A
:103A70008093B00080917A00846080937A00809176
:103A80007A00826080937A0080917A0081608093CE
:103A90007A0080917A00806880937A001092C10049
:103AA000E0917104F091720482E08083E0916D04F2
:103AB000F0916E041082E0916F04F091700480E147
:103AC000808310927904E0917504F091760486E089
:103AD0008083E0917304F09174048081806180831D
:103AE000E0917304F0917404808188608083E09198
:103AF0007304F0917404808180688083E091730482
:103B0000F091740480818F7D808380910C05909169
:103B10000D05DC01ED91FC910190F081E02D0995FE
:103B200060910F057091100561157105C9F1E09163
:103B30000C05F0910D05048115816E5F7F4FCE015C
:103B400001960E940215B801665D7F4F43E158E17E
:103B500089819A810E946617182FCE0101960E94D2
:103B60000B151123E9F0E0910C05F0910D0504818E
:103B7000158160910F05709110056E5F7F4FCE012A
:103B800001960E940215B801665D7F4F40E458E13E
:103B900089819A810E946617CE0101960E940B15B9
:103BA00080910E0500910F05109110058111C5C07F
:103BB0001E861D86188A1F861A8A198A6EEA71E087
:103BC000CE010D960E949B1480E190E00E946D2230
:103BD0008C01BE01635F7F4FCE0107960E940215E4
:103BE00080E291E0F801819391936F01D8011396DF
:103BF0001C921E92129715961C921E92149717965D
:103C00001C921E92169768E671E0CF010E94E114A3
:103C10008B859C85099708F455C01A8219821C82ED
:103C20001B821E821D8268E671E0CE0101960E9411
:103C3000E114EB84FC84E114F10429F1B8E0EB1603
:103C4000F10418F028E0E22EF12CEF81F885EE0D5A
:103C5000FF1DB08010826F8178856115710509F4B0
:103C6000CDC0FB0101900020E9F73197AF01461B61
:103C7000570BCE0101960E94C0148F819885E80EE3
:103C8000F91EF701B0828F81988569817A8100974A
:103C900009F4BBC06115710509F4B5C049855A85A1
:103CA0002D813E814217530708F4ADC00E947E2447
:103CB0008D819E819C878B871E821D82CE010196FD
:103CC0000E940B15BE01695F7F4FCE0101960E94D5
:103CD0000215ED80FE80F4E0EF0EF11CB701CE017D
:103CE00001960E9461148111A1C0CE0101960E942B
:103CF0008914BE016F5F7F4FC6010E94EB14CE0195
:103D000001960E940B15CE0107960E940B158AE2C0
:103D100091E0D8018D939C93CE010D960E940B15D6
:103D200080910E05E82FF0E0EE0FFF1FE45FFA4FE1
:103D3000148303838F5F80930E058FE59FE0F80166
:103D40009187808782E59AE197878687E0910F05C2
:103D5000F0911005309721F00084F185E02D099550
:103D600080E1809381001092800084E08093F201D2
:103D700082E19AE79093F1018093F001909387009C
:103D80008093860084E18093810085E991E00E9420
:103D90005A118091F301882351F180910F05909180
:103DA0001005009739F0DC01ED91FC910280F38160
:103DB000E02D099580910F0590911005009779F0FD
:103DC000DC01ED91FC910190F081E02D61E674E061
:103DD000099564EB71E081E694E00E94640166E677
:103DE00071E081E694E00E944B111092F3010E9471
:103DF000F201882371F20E941315CBCFCE010196F8
:103E00000E9489143ACF0E94092389819A81988758
:103E10008F838B819C819A8789878D819E819C87E6
:103E20008B871A8219821C821B8246CF29813A8194
:103E30008D819E8160E971E0820F931F0E94231F94
:103E4000FE82ED8256CFFB01DC0105900D92002031
:103E5000E1F70895FC0105900020E9F78095909521
:103E60008E0F9F1F08950E94751F08F481E008952A
:103E7000E89409C097FB3EF4909580957095619504
:103E80007F4F8F4F9F4F9923A9F0F92F96E9BB27BA
:103E90009395F695879577956795B795F111F8CF36
:103EA000FAF4BB0F11F460FF1BC06F5F7F4F8F4FA1
:103EB0009F4F16C0882311F096E911C0772321F097
:103EC0009EE8872F762F05C0662371F096E8862F2F
:103ED00070E060E02AF09A95660F771F881FDAF786
:103EE000880F9695879597F90895990F0008550FB3
:103EF000AA0BE0E8FEEF16161706E807F907C0F070
:103F000012161306E407F50798F0621B730B840B77
:103F1000950B39F40A2661F0232B242B252B21F451
:103F200008950A2609F4A140A6958FEF811D811DF1
:103F300008950E94AC1F0C941D200E940F2038F0A1
:103F40000E94162020F0952311F00C9406200C946A
:103F50000C2011240C9451200E942E2070F3959F68
:103F6000C1F3950F50E0551F629FF001729FBB2770
:103F7000F00DB11D639FAA27F00DB11DAA1F649F0C
:103F80006627B00DA11D661F829F2227B00DA11DBF
:103F9000621F739FB00DA11D621F839FA00D611D45
:103FA000221F749F3327A00D611D231F849F600D66
:103FB000211D822F762F6A2F11249F5750409AF08F
:103FC000F1F088234AF0EE0FFF1FBB1F661F771F1B
:103FD000881F91505040A9F79E3F510580F00C94E6
:103FE00006200C9451205F3FE4F3983ED4F386956D
:103FF00077956795B795F795E7959F5FC1F7FE2B86
:10400000880F911D9695879597F9089597F99F6761
:1040100080E870E060E008959FEF80EC0895002450
:104020000A941616170618060906089500240A941D
:1040300012161306140605060895092E0394000CA3
:1040400011F4882352F0BB0F40F4BF2B11F460FF32
:1040500004C06F5F7F4F8F4F9F4F089557FD90585B
:10406000440F551F59F05F3F71F04795880F97FB3C
:10407000991F61F09F3F79F08795089512161306F6
:104080001406551FF2CF4695F1DF08C01616170625
:104090001806991FF1CF869571056105089408955A
:1040A000E894BB2766277727CB0197F908950E94EC
:1040B0009920A59F900DB49F900DA49F800D911DF8
:1040C000112408952F923F924F925F926F927F92A8
:1040D0008F929F92AF92BF92CF92DF92EF92FF9218
:1040E0000F931F93CF93DF93CDB7DEB7CA1BDB0BC4
:1040F0000FB6F894DEBF0FBECDBF09942A88398869
:1041000048885F846E847D848C849B84AA84B9846F
:10411000C884DF80EE80FD800C811B81AA81B9817B
:10412000CE0FD11D0FB6F894DEBF0FBECDBFED018F
:104130000895A29FB001B39FC001A39F700D811D80
:104140001124911DB29F700D811D1124911D0895A0
:104150005058BB27AA270E94C0200C941D200E9403
:104160000F2038F00E94162020F039F49F3F19F4F8
:1041700026F40C940C200EF4E095E7FB0C9406203A
:10418000E92F0E942E2058F3BA176207730784079D
:10419000950720F079F4A6F50C9450200EF4E095E4
:1041A0000B2EBA2FA02D0B01B90190010C01CA01F1
:1041B000A0011124FF27591B99F0593F50F4503E9C
:1041C00068F11A16F040A22F232F342F4427585F8E
:1041D000F3CF469537952795A795F0405395C9F7A6
:1041E0007EF41F16BA0B620B730B840BBAF091505E
:1041F000A1F0FF0FBB1F661F771F881FC2F70EC0FD
:10420000BA0F621F731F841F48F4879577956795CF
:10421000B795F7959E3F08F0B0CF9395880F08F0BB
:104220009927EE0F9795879508950E9429210C9460
:104230001D200E94162058F00E940F2040F029F403
:104240005F3F29F00C94062051110C9451200C94DE
:104250000C200E942E2068F39923B1F3552391F38B
:10426000951B550BBB27AA2762177307840738F0E5
:104270009F5F5F4F220F331F441FAA1FA9F335D042
:104280000E2E3AF0E0E832D091505040E695001CF6
:10429000CAF72BD0FE2F29D0660F771F881FBB1FB0
:1042A000261737074807AB07B0E809F0BB0B802D8E
:1042B000BF01FF2793585F4F3AF09E3F510578F0BA
:1042C0000C9406200C9451205F3FE4F3983ED4F305
:1042D000869577956795B795F7959F5FC9F7880F8E
:1042E000911D9695879597F90895E1E0660F771FE0
:1042F000881FBB1F621773078407BA0720F0621B71
:10430000730B840BBA0BEE1F88F7E09508950E949B
:10431000362088F09F5798F0B92F9927B751B0F001
:10432000E1F0660F771F881F991F1AF0BA95C9F739
:1043300014C0B13091F00E945020B1E008950C9467
:104340005020672F782F8827B85F39F0B93FCCF31A
:10435000869577956795B395D9F73EF490958095B6
:10436000709561957F4F8F4F9F4F08950E94751FE5
:1043700008F48FEF089516F00C9410220C940C2082
:1043800068940C9406200E943620A8F39923C1F368
:10439000AEF3DF93CF931F930F93FF92C92FDD27C7
:1043A00088232AF02197660F771F881FDAF720E00D
:1043B00030E040E85FEB9FE3883920F0803E38F042
:1043C00021968F770E94A920E8E6F0E004C00E94C1
:1043D000A920E5E9F0E00E941E228B01BE01EC015C
:1043E000FB2E6F5771097595771F880B990B0E94EB
:1043F0003A1F28E132E741E35FE30E94AC1FAF2D93
:104400009801AE01FF900F911F91CF91DF910E9413
:10441000C0200C941D200E94751F880B990B0895D5
:104420009F3F31F0915020F4879577956795B79528
:10443000880F911D9695879597F90895DF93CF93EF
:104440001F930F93FF92EF92DF927B018C01689490
:1044500006C0DA2EEF010E94AC1FFE01E894A59180
:104460002591359145915591A6F3EF010E94C02009
:10447000FE019701A801DA9469F7DF90EF90FF90B1
:104480000F911F91CF91DF910895A1E21A2EAA1BDF
:10449000BB1BFD010DC0AA1FBB1FEE1FFF1FA217F4
:1044A000B307E407F50720F0A21BB30BE40BF50BF1
:1044B000661F771F881F991F1A9469F7609570957A
:1044C000809590959B01AC01BD01CF010895EE0F41
:1044D000FF1F0590F491E02D09940F931F93CF9344
:1044E000DF938230910510F482E090E0E091630563
:1044F000F091640530E020E0B0E0A0E0309799F45E
:104500002115310509F44AC0281B390B2430310527
:10451000D8F58A819B816115710589F1FB0193832F
:104520008283FE0111C040815181028113814817AD
:104530005907E0F04817590799F4109761F012965F
:104540000C93129713961C933296CF01DF91CF9163
:104550001F910F9108950093630510936405F4CFA4
:104560002115310551F04217530738F0A901DB013D
:104570009A01BD01DF01F801C1CFEF01F9CF90939E
:10458000640580936305CDCFFE01E20FF31F819395
:1045900091932250310939832883D7CF2091610527
:1045A00030916205232B41F42091060130910701DF
:1045B000309362052093610520910401309105013B
:1045C0002115310541F42DB73EB7409108015091B6
:1045D0000901241B350BE0916105F0916205E2179A
:1045E000F307A0F42E1B3F0B2817390778F0AC0116
:1045F0004E5F5F4F2417350748F04E0F5F1F5093F3
:10460000620540936105819391939FCFF0E0E0E0D4
:104610009CCFCF93DF930097E9F0FC013297138290
:104620001282A0916305B0916405ED0130E020E0B5
:104630001097A1F420813181820F931F2091610591
:10464000309162052817390709F061C0F0936205BF
:10465000E0936105DF91CF910895EA01CE17DF075E
:10466000E8F54A815B819E0141155105B1F7E901E9
:10467000FB83EA8349915991C40FD51FEC17FD07BD
:1046800061F4808191810296840F951FE9019983DD
:104690008883828193819B838A83F0E0E0E0129695
:1046A0008D919C9113970097B9F52D913C9111979D
:1046B000CD010296820F931F209161053091620512
:1046C0002817390739F6309751F510926405109282
:1046D0006305B0936205A0936105BCCFD383C28309
:1046E00040815181840F951FC817D90761F44E5F2F
:1046F0005F4F88819981480F591F518340838A8178
:104700009B81938382832115310509F0B0CFF0930B
:104710006405E09363059ECFFD01DC01C0CF1382E9
:104720001282D7CFB0E0A0E0E8E9F3E20C94642075
:104730008C01009751F4CB010E946D228C01C801BD
:10474000CDB7DEB7E0E10C948020FC01E60FF71F47
:104750009C0122503109E217F30708F49DC0D901EA
:10476000CD91DC911197C617D70798F0C530D105C8
:1047700030F3CE0104978617970708F3C61BD70BB3
:104780002297C193D1936D937C93CF010E9409230B
:10479000D6CF5B01AC1ABD0A4C018C0E9D1EA091B8
:1047A0006305B0916405512C412CF12CE12C10973C
:1047B00031F580916105909162058815990509F0A0
:1047C0005CC04616570608F058C0809104019091CD
:1047D0000501009741F48DB79EB7409108015091B3
:1047E0000901841B950BE817F90708F055C0F093F1
:1047F0006205E0936105F90171836083A0CF8D911B
:104800009C91119712966C90129713967C90139727
:10481000A815B90559F56C0142E0C40ED11CCA14A3
:10482000DB0420F1AC014A195B09DA0112961597F5
:1048300080F06282738251834083D9016D937C93AF
:10484000E114F10471F0D7011396FC93EE931297E3
:1048500076CF22968C0F9D1FF90191838083F301FF
:10486000EFCFF0936405E093630569CF48165906CE
:1048700008F42C017D01D3019ACFCB010E946D2257
:104880007C01009749F0AE01B8010E946124C80183
:104890000E940923870153CF10E000E050CF81E050
:1048A00090E0F8940C943527FB01DC0104C08D9155
:1048B0000190801921F441505040C8F7881B990B92
:1048C0000895FB01DC0102C001900D92415050405F
:1048D000D8F70895FC018191861721F08823D9F734
:1048E000992708953197CF010895FB01DC018D913F
:1048F000019080190110D9F3990B0895FB01DC0197
:1049000001900D920020E1F70895FB01DC01415078
:10491000504048F001900D920020C9F701C01D924F
:1049200041505040E0F70895AEE0B0E0EAE9F4E22B
:104930000C9470200D891E8986E08C831A8309836C
:104940008FEF9FE79E838D83AE01475E5F4F6F8938
:10495000788DCE0101960E94B7242F813885020FF1
:10496000131FF80110822E96E4E00C948C20ABE02B
:10497000B0E0EDEBF4E20C9462207C013B018A0193
:10498000FC0117821682838181FFC8C1CE01019686
:104990005C01F7019381F30193FD859193FF819170
:1049A0003F01882309F453C1853239F493FD859181
:1049B00093FF81913F01853229F4B70190E00E9475
:1049C000A726E7CF912C212C312CFFE1F31538F0ED
:1049D0008B3211F190F4803209F1833229F137FCE6
:1049E0003CC020ED280F2A3050F536FE20C08AE06A
:1049F000989E200D1124922E06C08D3291F08033A6
:104A000071F7689430F8F30193FD859193FF8191DC
:104A10003F018111DACF21C0689431F8689432F8EF
:104A2000F2CF689433F8EFCF689434F8ECCFEAE033
:104A30002E9E200D1124222E689435F8E4CF8E325C
:104A400029F436FC04C1689436F8DDCF8C3619F4AD
:104A5000689437F8D8CF8836B1F2982F9F7D955457
:104A60009330E0F08336A1F18337C1F1833509F04B
:104A700063C02801F2E04F0E511CF801C080D180C4
:104A8000692D70E036FC02C06FEF7FEFC6010E9417
:104A900091264C01689437F882010AC00C5F1F4FC1
:104AA000FFE3F98388248394912C6501E89437F817
:104AB00033FE2DC0522C8114910471F5552009F458
:104AC00068CFB70180E290E00E94A7265A94F6CF03
:104AD000F801808189830E5F1F4FE4CF2801F2E047
:104AE0004F0E511CF801C080D180692D70E036FC5A
:104AF00002C06FEF7FEFC6010E949C264C0182012D
:104B0000D5CFB70180E290E00E94A7262A9428140E
:104B1000190409F0B0F7CECFF60137FC859137FEC6
:104B200081916F01B70190E00E94A72651105A941D
:104B3000F1E08F1A9108BFCF843619F0893609F059
:104B400077C0F80137FE6BC06081718182819381EB
:104B50000C5F1F4FF32DFF763F2E97FF09C09095F6
:104B60008095709561957F4F8F4F9F4F689437F870
:104B70002AE030E0A5010E94D726C82ECA188C2C46
:104B8000432C36FE0CC0E89440F8C91440F434FEBF
:104B900005C032FC03C0F32DFE7E4F2E892C44FE4F
:104BA00095C0FE01EC0DF11D8081803309F087C0B6
:104BB000242D297E422E842D8870582E43FC95C0CA
:104BC00040FE8FC09C2C821418F42C0C922C981848
:104BD00044FE91C0B70180E390E00E94A72642FE08
:104BE00009C088E790E041FE02C088E590E0B70187
:104BF0000E94A726C91408F48AC0CA94D12C9FEF3A
:104C0000C91AD90ACA0CDB1CF60182916F01B701DF
:104C100090E00E94A726AC14BD04B1F74FCF60818D
:104C20007181072E000C880B990B0E5F1F4F92CFDE
:104C3000D32CE894D4F82AE030E0853739F1232DDD
:104C4000297FD22E8F3601F148F48835A9F0F7017B
:104C5000868197812B96E2E10C947E20803749F083
:104C60008837A9F7D4FE02C06894D2F820E130E07A
:104C70000DC06894D4F8F6CF34FE03C0822F86604E
:104C8000D82E20E132E002C028E030E0F801D7FE63
:104C90000FC060817181828193810C5F1F4FA501DC
:104CA0000E94D726C82ECA183D2CE89437F867CF43
:104CB0006081718190E080E00E5F1F4FF0CF42FC79
:104CC00002C0839478CF8394839475CF842D8678A3
:104CD00009F471CFF6CFB70180E290E00E94A726D9
:104CE00083948214C0F3512C73CF522C5818821421
:104CF00008F46ECFF8CF842D867809F47BCF8BE251
:104D000041FE80E247FC8DE2B70190E071CFB70130
:104D100080E390E00E94A7269A946CCF8FEF9FEFDC
:104D200099CFFC010590615070400110D8F7809533
:104D300090958E0F9F1F0895FC0161507040019067
:104D40000110D8F7809590958E0F9F1F08950F93AF
:104D50001F93CF93DF93182F092FEB018B8181FDD8
:104D600009C01FEF0FEF812F902FDF91CF911F917F
:104D70000F91089582FF14C02E813F818C819D8107
:104D8000281739073CF4E881F981CF01019699830E
:104D9000888310838E819F8101969F838E83E3CFCA
:104DA000E885F985812F0995892BA1F3DACFFA01DE
:104DB000AA27283051F1203181F1E8946F936E7F5A
:104DC0006E5F7F4F8F4F9F4FAF4FB1E03ED0B4E04B
:104DD0003CD0670F781F891F9A1FA11D680F791F8C
:104DE0008A1F911DA11D6A0F711D811D911DA11D9D
:104DF00020D009F468943F912AE0269F11243019AD
:104E0000305D3193DEF6CF010895462F4770405D47
:104E10004193B3E00FD0C9F7F6CF462F4F70405DF6
:104E20004A3318F0495D31FD4052419302D0A9F751
:104E3000EACFB4E0A6959795879577956795BA954B
:104E4000C9F700976105710508959B01AC010A2E11
:104E500006945795479537952795BA95C9F7620FE8
:0E4E6000731F841F951FA01D0895F894FFCFA7
:104E6E00FFFFFFFF00006505800000000000EA0D57
:104E7E00CD0DBD0D940D9D0D200F2A0F00000000CD
:104E8E00C115C115C1150000000028144E0FB6182B
:104E9E00000000001E028801B5016B02E601C4018C
:104EAE00D80100000000D003A303FF0379039C0385
:104EBE0089037A0300000000330D88012D0B630176
:104ECE00000000006D110D0A006E616E00696E66C5
:104EDE00006F7666002F0025642D253032642D2557
:104EEE0030326454253032643A253032643A2530FB
:044EFE00326400001A
:107E0000112484B714BE81FFF0D085E080938100F7
:107E100082E08093C00088E18093C10086E0809377
:107E2000C20080E18093C4008EE0C9D0259A86E02C
:107E300020E33CEF91E0309385002093840096BBD3
:107E4000B09BFECF1D9AA8958150A9F7CC24DD24C4
:107E500088248394B5E0AB2EA1E19A2EF3E0BF2EE7
:107E6000A2D0813461F49FD0082FAFD0023811F036
:107E7000013811F484E001C083E08DD089C08234E0
:107E800011F484E103C0853419F485E0A6D080C0E4
:107E9000853579F488D0E82EFF2485D0082F10E0AE
:107EA000102F00270E291F29000F111F8ED06801E7
:107EB0006FC0863521F484E090D080E0DECF843638
:107EC00009F040C070D06FD0082F6DD080E0C81688
:107ED00080E7D80618F4F601B7BEE895C0E0D1E017
:107EE00062D089930C17E1F7F0E0CF16F0E7DF06D8
:107EF00018F0F601B7BEE89568D007B600FCFDCFD4
:107F0000A601A0E0B1E02C9130E011968C91119780
:107F100090E0982F8827822B932B1296FA010C0160
:107F200087BEE89511244E5F5F4FF1E0A038BF0790
:107F300051F7F601A7BEE89507B600FCFDCF97BE46
:107F4000E89526C08437B1F42ED02DD0F82E2BD052
:107F50003CD0F601EF2C8F010F5F1F4F84911BD097
:107F6000EA94F801C1F70894C11CD11CFA94CF0C13
:107F7000D11C0EC0853739F428D08EE10CD085E9AC
:107F80000AD08FE07ACF813511F488E018D01DD067
:107F900080E101D065CF982F8091C00085FFFCCF94
:107FA0009093C60008958091C00087FFFCCF809118
:107FB000C00084FD01C0A8958091C6000895E0E648
:107FC000F0E098E1908380830895EDDF803219F02E
:107FD00088E0F5DFFFCF84E1DECF1F93182FE3DFCA
:107FE0001150E9F7F2DF1F91089580E0E8DFEE27F6
:047FF000FF270994CA
:027FFE00040479
:0400000300007E007B
:00000001FF