:100000000C94A5010C94CD010C94CD010C94CD0160
:100010000C94CD010C94CD010C94CD010C94CD0128
:100020000C94CD010C94CD010C94CD010C94CD0118
:100030000C94CD010C94561E0C94CD010C94CD0162
:100040000C94ED1C0C94CD010C94BB1C0C94951CD1
:100050000C94CD010C94CD010C94CD010C94CD01E8
:100060000C94371D0C94CD0108000000BE92244969
:10007000123EABAAAA2ABECDCCCC4C3E00000080DA
:10008000BEABAAAAAA3E00000000BF000000803F4D
:100090000000000000084178D3BB4387D1133D190D
:1000A0000E3CC3BD4282AD2B3E68EC8276BED98F3A
:1000B000E1A93E4C80EFFFBE01C4FF7F3F0000007E
:1000C000000000407A10F35A00A0724E1809001088
:1000D000A5D4E80000E87648170000E40B540200BD
:1000E00000CA9A3B000000E1F505000080969800E8
:1000F000000040420F000000A08601000000102711
:1001000000000000E80300000000640000000000A0
:100110000A00000000000100000000002C76D888D2
:10012000DC674F0823DFC1DFAE59E1B1B796E5E3E5
:10013000E453C63AE651997696E8E6C28426EB89FE
:100140008C9B62ED407C6FFCEFBC9C9F40F2BAA59B
:100150006FA5F490055A2AF75C936B6CF9676DC133
:100160001BFCE0E40D47FEF520E6B500D0ED902E37
:100170000300943577050080841E080000204E0A95
:10018000000000C80C333333330F986E12831141D3
:10019000EF8D2114893BE65516CFFEE6DB18D1849E
:1001A0004B381BF77C1D901DA4BBE42420328472C5
:1001B0005E228100C9F124ECA1E53D274361726410
:1001C00020496E697469616C697A6174696F6E2027
:1001D0004661696C65642E00525443206E6F742032
:1001E00072756E6E696E672E2E2E00525443206E0D
:1001F0006F7420666F756E642E0053656E736F7238
:10020000206E6F7420666F756E64210020747572A5
:100210006E6564206F66662E0053656E736F722084
:100220000053656E736F72206E6F7420666F756E0B
:10023000642100207475726E6564206F6E2E005309
:10024000656E736F72200053656E736F72732073E7
:100250007461727465642E0053656E736F727320DF
:1002600073746F707065642E00436F6D6D616E64A2
:10027000206E6F7420666F756E6421007475726EE7
:100280004F6666007475726E4F6E200073746172F3
:10029000740073746F70007C3C3E5E2B3D3F2F5B9F
:1002A0005D3B2C2A225C0000000000240027002A6D
:1002B0000000000000250028002B000404040404B2
:1002C0000404040202020202020303030303030103
:1002D00002040810204080010204081020010204DA
:1002E00008102000000008000201000003040700BD
:1002F000000000000000002E6C6F670074696D65DF
:100300002076616C756500496E697469616C697A03
:100310006174696F6E2046696E69736865642E004A
:10032000546865726D0020003A003A003A00466950
:100330006C6520494F204572726F722E001F1C1F82
:100340001E1F1E1F1F1E1F1E8E1F11241FBECFEF3C
:10035000D8E0DEBFCDBF25E0A8E8B1E001C01D9226
:10036000A736B207E1F711E0A0E0B1E0E2E1F8E57D
:1003700002C005900D92A838B107D9F711E0C5EA7F
:10038000D1E004C02197FE010E94CC29C43AD107D4
:10039000C9F70E9447200C94072C0C940000089584
:1003A000EF92FF920F931F93CF93DF938C017B010A
:1003B000D0E0C0E0F701EC0FFD1F6491662361F00F
:1003C000D801ED91FC910190F081E02DC8010995D3
:1003D000892B11F02196EECFCE01DF91CF911F91A5
:1003E0000F91FF90EF900895AF92BF92CF92DF925E
:1003F000EF92FF920F931F93CF93DF936C017B01DA
:100400008B01040F151FEB015E01AE18BF08C0176A
:10041000D10759F06991D601ED91FC910190F081DD
:10042000E02DC6010995892B79F7C501DF91CF91A0
:100430001F910F91FF90EF90DF90CF90BF90AF9002
:10044000089581E08093EA010895FC01538D448D65
:10045000252F30E0842F90E0821B930B541710F06F
:10046000CF96089501970895FC01918D828D98177C
:1004700061F0A28DAE0FBF2FB11D5D968C91928D54
:100480009F5F9F73928F90E008958FEF9FEF089585
:10049000FC01918D828D981731F0828DE80FF11D4E
:1004A000858D90E008958FEF9FEF0895FC01918D69
:1004B000228D892F90E0805C9F4F821B91098F7362
:1004C000992708958BE594E00E94560221E0892B3C
:1004D00009F420E0822F0895FC01A48DA80FB92F04
:1004E000B11DA35ABF4F2C91848D90E001968F735C
:1004F0009927848FA689B7892C93A089B1898C917B
:10050000837080648C93938D848D981306C00288C9
:10051000F389E02D80818F7D80830895EF92FF9293
:100520000F931F93CF93DF93EC0181E0888F9B8D16
:100530008C8D98131AC0E889F989808185FF15C0D0
:100540009FB7F894EE89FF896083E889F9898081F3
:100550008370806480839FBF81E090E0DF91CF91C2
:100560001F910F91FF90EF900895F62E0B8D10E0E4
:100570000F5F1F4F0F731127E02E8C8D8E110CC053
:100580000FB607FCFACFE889F989808185FFF5CF9E
:10059000CE010E946C02F1CFEB8DEC0FFD2FF11D0F
:1005A000E35AFF4FF0829FB7F8940B8FEA89FB89DB
:1005B00080818062CFCFCF93DF93EC01888D882339
:1005C000B9F0AA89BB89E889F9898C9185FD03C0B6
:1005D000808186FD0DC00FB607FCF7CF8C9185FF9B
:1005E000F2CF808185FFEDCFCE010E946C02E9CF72
:1005F000DF91CF91089590E0FC01ED51FD4F2491E2
:10060000FC01E153FD4F3491FC01E554FD4FE491B1
:10061000EE23C9F0222339F0233001F1A8F4213070
:1006200019F1223029F1F0E0EE0FFF1FEF54FD4FDA
:10063000A591B4918FB7F894EC91611126C03095D3
:100640003E233C938FBF08952730A9F02830C9F08E
:10065000243049F7809180008F7D03C08091800015
:100660008F7780938000DFCF84B58F7784BDDBCF19
:1006700084B58F7DFBCF8091B0008F778093B000E1
:10068000D2CF8091B0008F7DF9CF3E2BDACFCF93C0
:10069000DF9390E0FC01E153FD4F249185549D4F81
:1006A000FC0184918823D1F090E0880F991FFC0110
:1006B000E955FD4FA591B491FC01EF54FD4FC59153
:1006C000D49161110EC09FB7F8948C91E22FE09500
:1006D0008E238C932881E223E8839FBFDF91CF9103
:1006E00008958FB7F894EC91E22BEC938FBFF6CF7F
:1006F0003FB7F8948091E1019091E201A091E3016C
:10070000B091E40126B5A89B05C02F3F19F00196D2
:10071000A11DB11D3FBFBA2FA92F982F8827BC015B
:10072000CD01620F711D811D911D42E0660F771F83
:10073000881F991F4A95D1F708952FB7F8946091B3
:10074000DD017091DE018091DF019091E0012FBF0A
:1007500008950F931F930E949D0360936304709309
:10076000640480936504909366048BE594E00E9492
:10077000340297FF1DC00E949D03009163041091F5
:1007800064042091650430916604601B710B820B38
:10079000930B00915F0410916004209161043091EB
:1007A00062046017710782079307F8F28FEF9FEFDB
:1007B0001F910F9108952091B701260F3327331F02
:1007C00021323105ECF420915504FC0190E080E0E9
:1007D000243069F082E00895A091B7012191AC0125
:1007E0004B565E4FA40FB52FB11D2C930196861763
:1007F00098F38091B701680F6093B70180E0089586
:1008000081E008951092550481E0809334041092A1
:100810002F0461E082E10E94FB0261E083E10E941B
:10082000FB02E9EBF0E080818E7F808380818D7F09
:10083000808388E48093B80085E48093BC000895A9
:10084000CF93DF9391E0909394018823B9F0C09106
:10085000B800D091BA008091BC008A7B8093BC0024
:1008600060E082E10E94FB0260E083E10E94FB0203
:100870000E940204D093BA00C093B800DF91CF91D8
:100880000895CF92DF92EF92FF920F931F93CF9331
:10089000DF93D82FC62F613208F098C00E947803EA
:1008A0006B017C018091550481116BC081E08093C4
:1008B0005504809334049FEF9093330410923204D4
:1008C0009C0F909331048093300480913004DD0FAD
:1008D000D82BD093300480912F04813009F078C058
:1008E00010922F040E9478036B017C0180913004E8
:1008F0008093BB008091570490915804A0915904B3
:10090000B0915A04892B8A2B8B2BA1F00E9478037B
:1009100000915704109158042091590430915A04C1
:100920006C197D098E099F090617170728073907D3
:1009300008F448C08091BC0083FDD8CF85EC80933B
:10094000BC000E9478036B017C01809155048130CA
:1009500009F440C0809132048C1710F4C091320425
:10096000EFE0F4E0A5E3B4E080E08C1355C08C2FF9
:10097000DF91CF911F910F91FF90EF90DF90CF907B
:1009800008958091570490915804A0915904B09112
:100990005A04892B8A2B8B2B09F484CF0E9478036D
:1009A00000915704109158042091590430915A0431
:1009B0006C197D098E099F09061717072807390743
:1009C00008F070CF809156040E942004C0E0CFCF81
:1009D00085EEB5CF8091570490915804A0915904A9
:1009E000B0915A04892B8A2B8B2B09F4AECF0E942D
:1009F00078030091570410915804209159043091C4
:100A00005A046C197D098E099F09061717072807D4
:100A1000390708F09ACFD6CF91919D938F5FA5CFDC
:100A20008F929F92AF92BF92CF92DF92EF92FF92FE
:100A30000F931F93CF93DF93D0910E04D13208F020
:100A4000D7C0182FC0910D040E9478036B017C0160
:100A50008091550481116BC082E0809355041093FE
:100A600034048FEF8093330410923204D093310416
:100A7000ADEEB3E0EFE0F4E080E0D81391C0109267
:100A8000300480913004CC0FC82BC0933004809187
:100A90002F04813009F088C010922F040E9478033F
:100AA0006B017C01809130048093BB0080915704DE
:100AB00090915804A0915904B0915A04892B8A2B23
:100AC0008B2BA1F00E9478030091570410915804D9
:100AD0002091590430915A046C197D098E099F099F
:100AE000061717072807390708F442C08091BC0091
:100AF00083FDD8CF85EC8093BC000E9478036B0106
:100B00007C0180915504823009F450C080913304F7
:100B10008F3F09F46FC080913304803209F46CC0B8
:100B200080913304803309F469C084E026C0809149
:100B3000570490915804A0915904B0915A04892BFC
:100B40008A2B8B2B09F484CF0E9478038090570462
:100B500090905804A0905904B0905A046C197D09E3
:100B60008E099F0986169706A806B90608F070CF69
:100B7000809156040E94200485E01092EC031092AC
:100B80000E041092EB03DF91CF911F910F91FF9014
:100B9000EF90DF90CF90BF90AF909F908F9008958F
:100BA0009D9191938F5F69CF85EEA5CF809157047A
:100BB00090915804A0915904B0915A04892B8A2B22
:100BC0008B2B09F49ECF0E9478030091570410915B
:100BD00058042091590430915A046C197D098E09EA
:100BE0009F09061717072807390708F08ACFC0CFD3
:100BF00081E0C3CF80E0C1CF82E0BFCF83E0BDCF33
:100C0000089508950895E091930180919201E81765
:100C100030F4F0E0EB5CFB4F808190E008958FEFC3
:100C20009FEF089590919301809192012FEF3FEFF4
:100C3000981748F4E92FF0E0EB5CFB4F208130E09F
:100C40009F5F90939301C9010895809192019091C3
:100C50009301891B990B0895CF92DF92EF92FF9237
:100C60000F931F93CF93DF937C01CB018A012091D7
:100C7000EB03222389F0EB016B01C40ED51ECC15CA
:100C8000DD0569F06991D701ED91FC910190F0814A
:100C9000E02DC7010995F3CF642F0E94DB03C80143
:100CA000DF91CF911F910F91FF90EF90DF90CF9048
:100CB0000895CF93DF931F92CDB7DEB7698320915C
:100CC000EB032223F9F020910E04203258F021E0AA
:100CD00030E0FC013383228390E080E00F90DF91CD
:100CE000CF9108958091EC03E82FF0E0E351FC4FA1
:100CF000998190838F5F8093EC0380930E0481E051
:100D000090E0ECCF61E0CE0101960E94DB03F7CFCB
:100D100090E080E00895EF92FF920F931F93CF939E
:100D2000DF93EC0169813881432F50E02A81822FC3
:100D300090E0EDE3F3E021E0261730F47491870FA3
:100D4000911D2F5F3196F8CF633018F0337009F49E
:100D500001966DE671E0469F9001479F300D569FCA
:100D6000300D1124215031094D5F5F4F5695479545
:100D700056954795240F351F280F391FA8E1B0E07D
:100D80000E94DF272B817B018C01E20EF11C011DEB
:100D9000111DA8019701ACE3B0E00E949D272C81B2
:100DA0007B018C01E20EF11C011D111DA8019701B0
:100DB0000E949D27AB01BC019D81892F90E0B0E08E
:100DC000A0E080589C4BA249B74C8A019B01080FB8
:100DD000191F2A1F3B1FC901B801DF91CF911F9135
:100DE0000F91FF90EF9008958FB7F89480918A014A
:100DF0008FBF089561E0FC0184810E94FB02809115
:100E0000890181111092890108958EBD00000DB4F1
:100E100007FEFDCF8EB508958FEF0C9405070F9355
:100E20001F93CF93DF93EC010E949D038B010E94DF
:100E30000C078F3F69F00E949D03601B710B6C17BC
:100E40007D07A8F380E0DF91CF911F910F91089566
:100E500081E0F9CF8CBD9DBD0895CF93DF93EC0168
:100E600080918901811109C081E08093890180917D
:100E70000405909105050E942A0760E08C81DF91AE
:100E8000CF910C94FB028F929F92AF92BF92FF92F0
:100E90000F931F93CF93DF93EC01F62E49015A0174
:100EA0008E81882389F08F8198859C012F5F3F4F29
:100EB00038872F838230924018F40E940C07F3CFBA
:100EC000CE010E94FA061E82CE010E942D078CE2FE
:100ED00091E00E940F078F2D80640E94050708E1B2
:100EE00010E0D501C401002E04C0B695A7959795D2
:100EF00087950A94D2F70E94050708501109083F08
:100F00008FEF180771F785E9FF2021F028E087E8C7
:100F1000F2128FEF0E94050710E00E940C078A87EB
:100F200087FF04C01F3F11F01F5FF7CFDF91CF9104
:100F30001F910F91FF90BF90AF909F908F90089559
:100F4000AF92BF92CF92DF92EF92FF920F931F93D7
:100F5000CF93DF93EC016901C801820F931F8130A9
:100F6000924050F58E81882379F088819981AA81F9
:100F7000BB8184179507A607B70731F48F81988541
:100F8000C816D90608F042C0488359836A837B8318
:100F90008B85833039F089E0440F551F661F771F1A
:100FA0008A95D1F79A01AB0161E1CE010E94430716
:100FB000882389F083E08D83CE010E94FA0680E0C9
:100FC000DF91CF911F910F91FF90EF90DF90CF9025
:100FD000BF90AF9008950E949D035B010E940C0793
:100FE0008A878F3F69F40E949D036A197B096D32DD
:100FF0007140A0F38FE08D83CE010E94FA06DCCF12
:101000008E3F89F418861F8281E08E838F819885B8
:101010008C159D0550F40E940C078F8198850196D0
:1010200098878F83F3CF8DE0E6CF6701E00EF11E46
:101030000E940C07F60181936F01EE15FF05C1F7C1
:101040008F819885080F191F18870F83898588233A
:1010500019F001151240A0F08E81882389F08F814C
:1010600098859C012F5F3F4F38872F8382309240B5
:1010700018F40E940C07F3CFCE010E94FA061E82DC
:1010800081E09ECFCF92DF92EF92FF920F93CF93AA
:10109000DF93EC01690182E141155105610571059C
:1010A00099F08B85833039F089E0440F551F661F16
:1010B000771F8A95D1F79A01AB0168E1CE010E94B2
:1010C0004307882319F084E08D832DC08EEF0E94A2
:1010D000050776018EEFD81AF70181917F010E94F2
:1010E0000507EC14FD04C1F78FEF0E9405078FEF91
:1010F0000E9405070E940C078A878F71853071F462
:10110000011116C0CE010E94FA0681E0DF91CF9155
:101110000F91FF90EF90DF90CF90089581E18D8344
:10112000CE010E94FA06CE010E94FA0680E0EECFC0
:1011300088E592E00E940F07811102C085E1C4CFCB
:1011400020E030E0A9016DE0CE010E944307882332
:1011500011F084E1B9CF0E940C078111FACFD2CFF0
:101160000F9340918C0150918D0160918E0170918F
:101170008F01411551056105710599F0082F2BEE7E
:1011800031E080919001909191010E944208882362
:1011900049F010928C0110928D0110928E011092E4
:1011A0008F0181E00F9108950F93CF93C82F809105
:1011B0008B01811105C0C1E08C2FCF910F91089553
:1011C0004091000150910101609102017091030171
:1011D0000C2F2BEE31E080919001909191010E94B3
:1011E0004208811102C0C0E0E7CFCC2321F381E0A7
:1011F0000E94B0088823B9F310928B01DDCF8F9243
:101200009F92AF92BF92EF92FF920F931F93CF9353
:101210004B015C01C42F8091000190910101A091CC
:101220000201B091030188159905AA05BB0551F18A
:1012300081E00E94D40881110BC080E0CF911F9102
:101240000F91FF90EF90BF90AF909F908F90089577
:101250008BEEE82E81E0F82E00E012E030E020E096
:10126000B501A40180919001909191010E94A00785
:10127000882319F38092000190920101A09202014B
:10128000B092030140918B014C2B40938B0181E084
:10129000D5CFCF93DF93EC016E857F8588899989BF
:1012A00041E00E94FF08882351F08A8920E2829F52
:1012B000C001112485519E4FDF91CF91089590E098
:1012C00080E0FACF4F925F926F927F928F929F92BF
:1012D000AF92BF92CF92DF92EF92FF920F931F9344
:1012E000CF93DF93EC01423051056105710590F415
:1012F00080E0DF91CF911F910F91FF90EF90DF90F1
:10130000CF90BF90AF909F908F907F906F905F90A5
:101310004F90089589859A85AB85BC850196A11D5E
:10132000B11D84179507A607B70710F3CB88DC8893
:10133000ED88FE888F89803109F042C0BB27A72F36
:10134000962F852F480159012A013B01C80ED91E4D
:10135000EA1EFB1E8091000190910101A091020103
:10136000B0910301C816D906EA06FB0699F58F89E4
:101370008031C1F5B301A201552766277727440FB5
:10138000551F45515E4FFA019182808280918B01F9
:10139000816080938B018A89823080F08D819E816B
:1013A000AF81B8858C0D9D1DAE1DBF1D80938C0136
:1013B00090938D01A0938E01B0938F0181E099CF1E
:1013C000DB01CA01E7E0B695A79597958795EA9561
:1013D000D1F7B8CF40E0C701B6010E94FF088111E4
:1013E000C6CF86CFB301A2014F775527662777274F
:1013F000440F551F440F551F45515E4FFA0180821F
:101400009182A282B382C2CF8F929F92AF92BF92FB
:10141000CF92DF92EF92FF920F931F93CF93DF93C0
:10142000FC0181859285A385B4850196A11DB11D1E
:1014300084179507A607B70770F480E0DF91CF9176
:101440001F910F91FF90EF90DF90CF90BF90AF90E2
:101450009F908F90089583889488A588B6888789FF
:10146000803189F5BB27A72F962F852FE9016A01C7
:101470007B018F01BC01CD01680D791D8A1D9B1D6B
:101480008090000190900101A0900201B0900301B2
:1014900086169706A806B90601F5F80187898031F6
:1014A00011F5DD24EE24FF24F601EE0FFF1FE551B8
:1014B000FE4F80819181B0E0A0E088839983AA8368
:1014C000BB8381E0BBCFDB01CA01C7E0B695A7951E
:1014D00097958795CA95D1F7C9CF40E00E94FF083C
:1014E0008111DBCFAACFE894C7F8DD24EE24FF24D6
:1014F000F601EE0FFF1FEE0FFF1FE551FE4F80813B
:101500009181A281B381BF70D8CF4F925F926F92C9
:101510007F92AF92BF92CF92DF92EF92FF920F93A2
:101520001F93CF93DF9300D000D0CDB7DEB78C01EF
:1015300049835A836B837C835901C12CD12C76015A
:10154000412C82E0582E612C712C49815A816B818B
:101550007C819E012F5F3F4FC8010E94040A8823AF
:1015600039F1F8018585A301920104C0220F331FD0
:10157000441F551F8A95D2F7DA01C901C80ED91E3A
:10158000EA1EFB1E49815A816B817C8187898031EB
:1015900011F188EF9FEFAFEFBFE0481759076A07D7
:1015A0007B0798F2F501C082D182E282F38281E06A
:1015B0000F900F900F900F90DF91CF911F910F918F
:1015C000FF90EF90DF90CF90BF90AF907F906F90A3
:1015D0005F904F90089588EF9FEFA0E0B0E0DDCFDF
:1015E0000F931F93CF93DF93FC012581222331F0CA
:1015F00080E0DF91CF911F910F9108958B01EC0155
:10160000FB018789803139F582E08D831F8A188E2E
:10161000198E1A8E808D918DB0E0A0E025E0880FA4
:10162000991FAA1FBB1F2A95D1F78B8B9C8BAD8B63
:10163000BE8B1C8F0B8F81E08C831E821F821886CD
:1016400019861A861B861C861D861E861F86188A8A
:10165000198A1A8ACECF803259F683E08D83428D63
:10166000538D648D758D4F8B588F698F7A8F9E0146
:101670002D5E3F4FC8010E94850A8111DACFB8CF95
:101680008F929F92AF92BF92CF92DF92EF92FF9292
:101690000F931F93CF93DF93EC018D8181110EC0C7
:1016A00080E0DF91CF911F910F91FF90EF90DF903D
:1016B000CF90BF90AF909F908F9008950B891C8919
:1016C0002D893E89041715072607370748F34A0175
:1016D0005B01823031F48A869B86AC86BD8681E0D0
:1016E000E0CF81149104A104B10449F41E821F8249
:1016F000188619861A861B861C861D86F0CF0A85D9
:101700001B852C853D85EB8DFC8D858590E00996AC
:10171000B901A8014150510961097109082E04C09D
:1017200076956795579547950A94D2F775016401A8
:10173000E1E0CE1AD108E108F10804C0F694E7947C
:10174000D794C7948A95D2F7C416D506E606F7064D
:1017500020F0012B022B032B11F58F89988DA98D79
:10176000BA8D8E839F83A887B9878E010A5F1F4F2A
:10177000C114D104E104F10409F4ADCF4E815F81BD
:101780006885798598018B8D9C8D0E94040A91E073
:10179000C91AD108E108F1088111EACF81CFC41A32
:1017A000D50AE60AF70AE1CF3F924F925F926F9215
:1017B0007F928F929F92AF92BF92CF92DF92EF92E1
:1017C000FF920F931F93CF93DF93CDB7DEB72C9784
:1017D0000FB6F894DEBF0FBECDBF5C01DC015B9697
:1017E0008D909C905C9716964D905D906D907C903E
:1017F0001997411451046104710409F468C0BFEFE2
:101800004B1A5B0A6B0A7B0A312CF40181859285A5
:10181000A385B4859C01AD012F5F3F4F4F4F5F4FB4
:1018200029873A874B875C87730162011D821E827C
:101830001F821886F40181859285A385B4852D8148
:101840003E814F815885281739074A075B0708F002
:1018500056C089859A85AB85BC858C159D05AE05DE
:10186000BF0550F482E0C82ED12CE12CF12C92E07F
:10187000492E512C612C712C9E012F5F3F4FB701D7
:10188000A601C4010E94040A8823C9F189819A81B2
:10189000AB81BC81892B8A2B8B2B09F12601370167
:1018A0009FEF491A590A690A790A2D813E814F81B1
:1018B00058852F5F3F4F4F4F5F4F2D833E834F83A0
:1018C00058873FEFC31AD30AE30AF30AB3CFF401F0
:1018D00040805180628073803324339496CFC41447
:1018E000D504E604F70409F70FEF1FEF2FEF3FE0F1
:1018F000B701A601C4010E946209811119C080E0EC
:101900002C960FB6F894DEBF0FBECDBFDF91CF91FE
:101910001F910F91FF90EF90DF90CF90BF90AF900D
:101920009F908F907F906F905F904F903F90089521
:10193000D50116964D915D916D917C911997411548
:1019400051056105710539F097018601C4010E94B6
:1019500062098823A1F2D5011696CD92DD92ED920F
:10196000FC921997332051F0D701C6010196A11DB1
:10197000B11DF40180839183A283B383F50187892C
:10198000908DA18DB28D892B8A2B8B2B39F484817C
:10199000C78AD08EE18EF28E80688483F5018481BF
:1019A0008062848381E0ACCF1F93CF93DF93FC01EF
:1019B0002581222371F1162FEC01848187FF1EC03F
:1019C000CF010E944909FC01892B19F18D818230D8
:1019D00040F48B899C89AD89BE89848F958FA68FB1
:1019E000B78F8F89988D938F828F8F89988DA98DCE
:1019F000BA8DB58BA48B8C818F778C83111103C02A
:101A00008C818F7E8C83812FDF91CF911F910C94DD
:101A1000D40880E0DF91CF911F910895FF920F933A
:101A20001F93CF93DF93EC018D81813041F090E0E3
:101A300080E0DF91CF911F910F91FF9008958C81ED
:101A400081FFF5CF82FD1BC00091900110919101A3
:101A5000C8010E942D070E940C07F82EC8010E94A1
:101A6000FA068FEFF812E3CF8C8185FF1BC060E090
:101A7000CE010E94D40C8C818F7D8C83D8CF4B8972
:101A80005C896D897E898A859B85AC85BD85841737
:101A90009507A607B707C1F2CE010E94400B81113E
:101AA000D3CFC5CF40918C0150918D0160918E01B3
:101AB00070918F01452B462B472B21F080E00E942F
:101AC000B008B5CF80618C832A853B85317080E07A
:101AD00092E0821B930BADCFCF93DF93EC0161E0DB
:101AE0000E94D40C882311F01D8281E0DF91CF91F8
:101AF00008952F923F924F925F926F927F928F92B2
:101B00009F92AF92BF92CF92DF92EF92FF920F938C
:101B10001F93CF93DF9300D000D01F92CDB7DEB7D5
:101B20007C015B01342E5D83DC0115968C91159749
:101B3000813009F0CEC014962C9021FECAC022FC40
:101B4000B4C0C32CDD8022947FE027222094B22DE4
:101B5000B1702B2ED7011A964D915D916D917C91AC
:101B60001D97C114D10409F428C15B968D919C91F5
:101B70005C97FC0174807A948A019B0169E0369538
:101B80002795179507956A95D1F770228A011170EC
:101B9000711020C001151105E9F416964D915D9163
:101BA0006D917C911997411551056105710509F0F9
:101BB00099C057968D919D910D90BC91A02D009745
:101BC000A105B10509F0B0C0C7010E94D40B88235C
:101BD00009F47FC080E092E0801B910B46018C15D8
:101BE0009D0508F44C01D7015B964D915C915C9783
:101BF00016968D919D910D90BC91A02D0297A109F3
:101C0000B109FA01258504C0880F991FAA1FBB1FBF
:101C10002A95D2F74685578560897189840F951F6B
:101C2000A61FB71F9C01AD01270D311D411D511D80
:101C300029013A01811432E0930609F07BC08091BA
:101C4000000190910101A0910201B091030184155E
:101C50009505A605B70559F48FEF9FEFDC0180933A
:101C6000000190930101A0930201B0930301022DA2
:101C70009501B301A20180919001909191010E9480
:101C80004208882331F19EEFB91AC818D908F70124
:101C900082859385A485B585880D991DA11DB11DEB
:101CA00082879387A487B58755CFF70143895489E5
:101CB0006589768982859385A485B58548175907F6
:101CC0006A077B0709F43DCFC7010E94400B8111D1
:101CD00038CF81E090E0D70113969C938E931297B2
:101CE00080E007C09E012F5F3F4F0E94040A8111D0
:101CF00002C090E079C089819A81AB81BC81F701F3
:101D0000238D348DF901278948EF5FEF60E070E0A3
:101D1000203121F048EF5FEF6FEF7FE084179507E8
:101D2000A607B70708F050CFF70186839783A087EF
:101D3000B18750CF0115110599F5D7011A964D912C
:101D40005D916D917C911D9753968D919D910D9014
:101D5000BC91A02D481759076A077B0708F181E05D
:101D60000E94D408882309F4B4CF40920001509215
:101D70000101609202017092030180918B018160E8
:101D800080938B01C80185519E4FD5019C01280D80
:101D9000391DFC012E173F0759F04D914193FACFA1
:101DA00041E0C301B2010E94FF088111EBCF91CF46
:101DB000281B390BA20EB31E68CFF70183899489C3
:101DC000A589B68984179507A607B70738F48481D3
:101DD000438B548B658B768B80688483F701848179
:101DE00083FD1AC0832D9D810F900F900F900F904F
:101DF0000F90DF91CF911F910F91FF90EF90DF90A7
:101E0000CF90BF90AF909F908F907F906F905F909A
:101E10004F903F902F90089561E0C7010E94D40C2D
:101E2000882309F456CFDECFCF93DF931F92CDB72F
:101E3000DEB7698341E050E0BE016F5F7F4F0E94D3
:101E4000790D0F90DF91CF910895FC01DB0112967F
:101E50008D919C9113979383828388E691E091837F
:101E6000808314968C911497848315968C91159782
:101E7000858316964D915D916D917C91199746835E
:101E80005783608771871A964D915D916D917C9112
:101E90001D9742875387648775871E964D915D9184
:101EA0006D917C91519746875787608B718B5296C5
:101EB0008C915297828B53964D915D916D917C914F
:101EC0005697438B548B658B768B57964D915D91CE
:101ED0006D917C915A97478B508F618F728F5B9673
:101EE0008D919C91948F838F0895FC01818D928DAB
:101EF000009719F061E00C94D40C0895DC01599618
:101F0000ED91FC913097B9F083899489A589B689C0
:101F10004285538564857585841B950BA60BB70B8D
:101F2000811520E89207A105B10538F08FEF9FE7F2
:101F3000A0E0B0E0089590E080E00895DC015996BB
:101F40008D919C91009739F0DC01ED91FC9104801A
:101F5000F581E02D099490E080E00895CF93DF9320
:101F6000EC01E98DFA8D309749F481E090E09B8394
:101F70008A8390E080E0DF91CF91089513821282EE
:101F8000898D9A8D0E94790DE98DFA8D2281338198
:101F9000232B59F7F0CFCF93DF931F92CDB7DEB746
:101FA0006983DC01ED91FC910280F381E02D41E039
:101FB00050E0BE016F5F7F4F09950F90DF91CF9189
:101FC00008952F923F924F925F926F927F928F92DD
:101FD0009F92AF92BF92CF92DF92EF92FF920F93B8
:101FE0001F93CF93DF9300D01F92CDB7DEB7FC01D4
:101FF0008581811118C08FEF9FEF0F900F900F9088
:10200000DF91CF911F910F91FF90EF90DF90CF90D4
:10201000BF90AF909F908F907F906F905F904F9008
:102020003F902F900895848180FFE5CF43895489A4
:102030006589768982859385A485B585312C212C87
:10204000481759076A077B0719F022242394312C7B
:102050006F012101CE0101963C01DF011696BB8381
:10206000AA834114510409F4C5C0F6014285538581
:10207000648575854A01F1E09F22D6015B968D91BA
:102080009C915C978A019B01E9E03695279517950D
:102090000795EA95D1F71596EC91E230E9F5FC0148
:1020A000628D738D848D958D600F711F821F931FBC
:1020B000A12C22E0B22EA818B9084A145B0408F437
:1020C0005201F601248126FD04C0A114F2E0BF06EE
:1020D00071F40091000110910101209102013091F1
:1020E0000301061717072807390709F05EC040E00B
:1020F0000E94FF08882309F47ECFC40185519E4FBA
:10210000D3019C012A0D3B1DFC012E173F0709F44A
:102110006CC041914D93F9CFDC011496BC90BA94F8
:10212000B0228114910479F4B1100DC0452B462BD7
:10213000472B69F5F6018789908DA18DB28D868335
:102140009783A087B187D6015B96ED91FC915C9750
:1021500016966D917D918D919C91199762507109A0
:1021600081099109258504C0660F771F881F991F73
:102170002A95D2F70685178520893189600F711F4E
:10218000821F931F6B0D711D811D911D91CFD60173
:1021900016964D915D916D917C9119972A813B81A5
:1021A0000E94040A8111CFCF26CF730185019401CB
:1021B000AB01BC0180919001909191010E94A00718
:1021C000882309F418CF6A0C7B1CF601828593855D
:1021D000A485B5858A0D9B1DA11DB11D828793879E
:1021E000A487B5874A185B083CCF281B390B620EC1
:1021F000731EEBCF2A94232809F0FDCE898190E04D
:10220000FCCEFC01818D928D009711F00C94E10FB2
:102210008FEF9FEF08950F931F93CF93DF93EC0100
:10222000898D9A8D10E000E0009799F00E94E10FEF
:102230008C010F3F100769F0898D9A8DFC01428552
:1022400053856485758541505109610971090E9462
:10225000400BC801DF91CF911F910F910895FC01B0
:102260001486089521E0FC0124870895FC018485EB
:102270000895CF93DF93EC01EF85F889099568877E
:1022800079878A879B87DF91CF910895DC011D961E
:10229000ED91FC91099460E08EE00C9447038F92DD
:1022A0009F92AF92BF92CF92DF92EF92FF920F93E5
:1022B0001F93CF93DF9300D000D0CDB7DEB7FC01E2
:1022C0008581813091F080E00F900F900F900F90FA
:1022D000DF91CF911F910F91FF90EF90DF90CF9002
:1022E000BF90AF909F908F900895848181FFEBCF36
:1022F00083899489A589B689892B8A2B8B2B09F42C
:102300005FC07F0140E050E0BA01CF010E94400B66
:102310008823C9F2F701C38CD48C8788908CA18C58
:10232000B28C82E090E0A0E0B0E0F601808391837F
:10233000A283B3839E012F5F3F4FB501A401C60165
:102340000E94040A882309F4BECF00E010E098013F
:10235000B501A401C6010E946209882309F4B3CF24
:1023600089809A80AB80BC80F6018789803119F121
:1023700088EF9FEFAFEFBFE088169906AA06BB066D
:10238000C8F2F701178A108E118E128E138A148AE2
:10239000158A168A84818068848361E0C7010E945F
:1023A000D40C882309F48FCF40E050E0BA01C70174
:1023B0000E94400B89CF88EF9FEFA0E0B0E0DCCF18
:1023C00081E082CFCF92DF92EF92FF921F93CF9363
:1023D000DF93EC0180E2689FF0011124E551FE4F8C
:1023E0009385917161F0842F827449F080E0DF91D0
:1023F000CF911F91FF90EF90DF90CF900895142F11
:102400006A8B8091000190910101A0910201B0912D
:1024100003018E879F87A88BB98BC488D588F12C40
:10242000E12C7601DD24CC24CF8AD88EE98EFA8E79
:10243000828D938DB0E0A0E0AC01BD014C295D29F7
:102440006E297F294F8B588F698F7A8F838588718A
:10245000B1F4848D958DA68DB78D8B8B9C8BAD8BB8
:10246000BE8B81E08D831F701C831E821F821886A5
:1024700019861A861B861C861D8681E0B8CF80319E
:1024800009F0B4CF9E012D5E3F4F8B8D9C8D0E9435
:10249000850A882309F4AACF84E0E4CFCF92DF92A3
:1024A000FF920F931F93CF93DF936C0181E0809392
:1024B000EB0388E680930D041092EC0310920E0457
:1024C00060E088EF94E00E94590681E00E941005C8
:1024D00067E088E60E944104109293018093920184
:1024E00088EF94E00E9412068F77282F30E094E066
:1024F000359527959A95E1F7922F990F990FC22F4D
:10250000C91BCC0FC80F88EF94E00E9412069C01F3
:1025100044E0359527954A95E1F72F703327922FA0
:10252000990F990FD22FD91BDD0FD80F88EF94E0A8
:102530000E9412069C0154E0359527955A95E1F7C3
:102540002F703327922F990F990F122F191B110FEC
:10255000180F88EF94E00E94120688EF94E00E9422
:1025600012069C0164E0359527956A95E1F72F7076
:102570003327922F990F990F022F091B000F080F75
:1025800088EF94E00E9412069C0174E0359527952F
:102590007A95E1F72F703327922F990F990FF22E2A
:1025A000F91AFF0CF80E88EF94E00E9412069C01C5
:1025B000E4E035952795EA95E1F72F703327922FC0
:1025C000990F990F291B220F820FF6018083F18248
:1025D00002831383D483C583C601DF91CF911F91FA
:1025E0000F91FF90DF90CF900895FB0101900020A4
:1025F000E9F73197AF01461B570BDC01ED91FC91D8
:102600000280F381E02D0994CF93DF93BC018BE529
:1026100094E00E94D001EC0166E771E08BE594E064
:102620000E94F5128C0F9D1FDF91CF9108958F921C
:102630009F92AF92BF92CF92DF92EF92FF920F9351
:102640001F93CF93DF9300D000D000D0CDB7DEB77B
:102650006C0110929301109292011092EC0310926F
:102660000E040E94020480E096E09093B6018093ED
:10267000B50181E096E09093BA018093B90111E031
:102680001093EB0388E680930D0481E00E9410050F
:10269000811199C01093EB031092EC0310920E0479
:1026A00060E088EF94E00E94590681E00E941005E6
:1026B00061E088E60E9441048093920188EF94E0F3
:1026C0000E94120687FD84C0F60102851385F80179
:1026D00087A5882321F0C8018A960E946C0DF80115
:1026E00013861186168215828AE084830E949D03D8
:1026F0007B0161E0F80184810E94470361E0F801F9
:1027000084810E94FB02BFB6F894809188018111F8
:1027100027C0E5ECF2E08491E9EDF2E09491E82F36
:10272000F0E0EE0FFF1FE955FD4FA591B491EC913C
:10273000E92321F461E08AE00E94FB0261E08AE083
:102740000E9447038CB580618CBD8CB580648CBDC4
:1027500061E08DE00E94470361E08BE00E94470347
:10276000809188018F5F80938801BFBE82E580934E
:1027700004051092050580910405909105050E94BD
:102780002A072AE0B22E8FEF0E940507BA94B110F3
:10279000FACFC8010E942D0720E030E0A90160E0D7
:1027A000C8010E944307B82EF8018287F1E08F1715
:1027B000A1F00E949D036E197F09613D774060F38F
:1027C00081E0F80148C08BEE91E00E940413FFCF36
:1027D00088ED91E00E940413FFCF2AEA31E040E047
:1027E00050E068E0C8010E94430782FF28C0F8015A
:1027F000B386F8018385812C912C5401823029F411
:10280000812C912CA12C80E4B82E20E030E0A9018D
:1028100067E3C8010E944307A501940169E2C8016A
:102820000E944307F8018287882309F10E949D03D3
:102830006E197F09613D774040F388E0C2CF94E094
:10284000B92E0E940C07F8018287BA94B110F9CF13
:102850008A3A51F082E08583C8010E94FA068CEB27
:1028600091E00E940413FFCF82E08387C2CF83856B
:102870008230C9F420E030E0A9016AE3C8010E9477
:102880004307882311F086E09CCF0E940C07807CD0
:10289000803C19F483E0F80183870E940C070E94B2
:1028A0000C070E940C07C8010E94FA0680E580937D
:1028B0000405109205057801FCE0EF0EF11C41E0E3
:1028C000B801C7010E947D1E882341F1B701C801EC
:1028D0008A960E94F00A882311F2CE0101960E9486
:1028E0004E1286E0FE013196D601129601900D92AD
:1028F0008A95E1F780E026960FB6F894DEBF0FBE0A
:10290000CDBFDF91CF911F910F91FF90EF90DF909E
:10291000CF90BF90AF909F908F90089540E0B80106
:10292000C7010E947D1E882309F499CFCFCF8F92D3
:102930009F92AF92BF92EF92FF920F931F93CF930C
:10294000DF93CDB7DEB7A1970FB6F894DEBF0FBE09
:10295000CDBF7C01FA01CB0119A2223008F42AE094
:102960008E010F5D1F4F822E912CB12CA12CBF0127
:10297000A50194010E948B29F901CA016A300CF566
:10298000605DD8016E938D01232B242B252B79F7C5
:1029900090E080E0109721F0BD01C7010E94F51280
:1029A000A1960FB6F894DEBF0FBECDBFDF91CF91D9
:1029B0001F910F91FF90EF90BF90AF909F908F90DD
:1029C0000895695CDECFCF92DF92EF92FF920F9372
:1029D0001F93CF93DF9377FF1DC06A017B01EC014A
:1029E0006DE20E94CB0F8C0144275527BA014C1988
:1029F0005D096E097F092AE0CE010E949714800FBD
:102A0000911FDF91CF911F910F91FF90EF90DF9079
:102A1000CF9008952AE0DF91CF911F910F91FF9001
:102A2000EF90DF90CF900C9497148F929F92AF927B
:102A3000BF92CF92DF92EF92FF920F931F93CF93AB
:102A4000DF93EB01FC01C084D184E284F384A7010D
:102A50009601C701B6010E94512969E771E0811111
:102A600026C046015701E894B7F82FEF3FEF4FE734
:102A70005FE7C501B4010E94512981110CC02FEFFD
:102A80003FEF4FE75FE7C501B4010E9479266DE78C
:102A900071E0181664F02FEF3FEF4FE75FE4C701D6
:102AA000B6010E94FC2818168CF461E871E0CE0192
:102AB000DF91CF911F910F91FF90EF90DF90CF901A
:102AC000BF90AF909F908F900C94F5122FEF3FEF37
:102AD0004FE75FECC701B6010E94792687FDE5CF7D
:102AE00020E030E0A901C701B6010E94792610E07C
:102AF00000E087FF0DC0E881F9810190F081E02DB1
:102B00006DE2CE0109958C01F7FAF094F7F8F09494
:102B10002AE037ED43EA5BE3C701B6010E94EF27E5
:102B20004B015C010E94CD286B017C010E947E2636
:102B30009B01AC01C501B4010E94EE274B015C0171
:102B40002AE0B701A601CE010E949714080F191FB1
:102B5000E881F9810190F081E02D6EE2CE010995C6
:102B6000080F191F20E030E040E251E4C501B40134
:102B70000E94DF264B015C010E94CD286B01F12CE5
:102B8000E12C2AE0B701A601CE010E949714080F9C
:102B9000191FC701B6010E947E269B01AC01C50129
:102BA000B4010E94EE2720E030E040E251E40E94B0
:102BB000DF260E94CD28AB0170E060E02AE0CE0164
:102BC0000E949714800F911FDF91CF911F910F9159
:102BD000FF90EF90DF90CF90BF90AF909F908F903D
:102BE0000895FB0144815581FC012481358124171E
:102BF000350778F080819181009759F0FB01608161
:102C000071816115710529F00E94EA2B21E0892B61
:102C100009F020E0822F0895FC0124813581FB0119
:102C20004481558124173507E1F4FC0180819181AD
:102C3000FB01608171810097D1F061157105A1F4EC
:102C4000232BC1F0FC01808190E008C0232B91F080
:102C5000FB01808190E091958195910921E0892B7C
:102C600009F020E0822F08950E94DA2BF7CF61153A
:102C7000710561F721E0F6CF0F931F93CF93DF9398
:102C8000EC0188819981009759F02A813B812617B0
:102C9000370730F081E0DF91CF911F910F910895B8
:102CA0008B016F5F7F4F0E94F72A009759F099833D
:102CB00088831B830A832C813D81232B59F7FC01D8
:102CC0001082E8CF80E0E7CFCF93DF93EC018881DB
:102CD0009981009711F00E946E2A198218821D8234
:102CE0001C821B821A82DF91CF910895EF92FF928E
:102CF0000F931F93CF93DF93EC017B018A01BA01FD
:102D00000E943C1681110BC0CE010E946416CE01B8
:102D1000DF91CF911F910F91FF90EF9008951D8348
:102D20000C83B701888199810E94E32BF0CFFB01CE
:102D300001900020E9F73197AF01461B570B0C9427
:102D40007616AF92BF92CF92DF92EF92FF920F93DF
:102D50001F93CF93DF93EC016B015A017901241784
:102D6000350720F48B2D5901E42EF82E1982188294
:102D70001B821A821D821C8268E771E0CE010E94CC
:102D80009716D60114960D911C91A016B10628F540
:102D9000E016F10608F48701D601ED91FC91119738
:102DA000E00FF11FF08010826D917C916A0D7B1D08
:102DB00061157105F1F0FB0101900020E9F73197F1
:102DC000AF01461B570BCE010E947616F60180819B
:102DD0009181080F191FD801FC92CE01DF91CF918C
:102DE0001F910F91FF90EF90DF90CF90BF90AF9029
:102DF0000895CE010E946416E9CFCF93DF93EC01D2
:102E0000FB018617970749F0608171816115710593
:102E100041F0448155810E947616CE01DF91CF9119
:102E200008950E946416F9CFFC011182108213826A
:102E30001282158214820C94FD16FC01808191810E
:102E4000009711F00C946E2A0895EF92FF920F9361
:102E50001F93CF93DF9300D000D000D0CDB7DEB763
:102E6000FC01208131812115310539F17B018C0173
:102E7000B9016E5F7F4FCE0101960E941417B70112
:102E8000CE0101960E940C16F82ECE0101960E94EA
:102E90001D1790E080E0FF2019F0F80180819181FA
:102EA00026960FB6F894DEBF0FBECDBFDF91CF914F
:102EB0001F910F91FF90EF900895F2CFEF92FF9244
:102EC0000F931F93CF93DF93EC01198218821B821B
:102ED0001A821D821C826115710509F18B01CB01DB
:102EE0000E9439247C01BC01CE010E943C16811154
:102EF00009C0CE01DF91CF911F910F91FF90EF900C
:102F00000C946416FD82EC82B80188819981DF916E
:102F1000CF911F910F91FF90EF900C943224DF918D
:102F2000CF911F910F91FF90EF9008950F931F93F2
:102F3000CF93DF93CDB7DEB72C970FB6F894DEBFF3
:102F40000FBECDBF18861F821A8619861C861B8667
:102F500068E771E0CE0107960E9497160E94A903C8
:102F600097FD1BC089831A820B851C850F5F1F4F3D
:102F7000B801CE0107960E943C16882379F32F8171
:102F800038858B859C85BE016F5F7F4F820F931FB5
:102F90000E94E32B1C870B87E1CF62E972E0CE0130
:102FA00001960E945E17BE016F5F7F4FCE010796AC
:102FB0000E940C16182FCE0101960E941D17112396
:102FC00051F080E1809381001092EA0188E592E05F
:102FD0000E9404136EC06CE872E0CE0101960E945C
:102FE0005E17BE016F5F7F4FCE0107960E940C16E1
:102FF000182FCE0101960E941D17112389F081E23E
:1030000092E09093E9018093E80181E080936F0062
:103010008091E70180618093810087E492E0D8CFBE
:1030200064E872E0CE0101960E945E17BE016F5FF8
:103030007F4FCE0107960E94F115182FCE01019601
:103040000E941D17112309F446C02B853C8547E0DB
:1030500050E0BE01695F7F4FCE0101960E94A1162C
:103060008091060590910705BE016F5F7F4F039623
:103070000E942517009761F1DC01ED91FC9100841D
:10308000F185E02D09956FE372E08BE594E00E94F5
:10309000D0014D815E8169817A818BE594E00E9447
:1030A000F40183E392E00E940413CE0101960E9492
:1030B0001D17CE0107960E941D172C960FB6F89487
:1030C000DEBF0FBECDBFDF91CF911F910F9108954D
:1030D00081E292E0E8CF6CE772E0CE0101960E94B7
:1030E0005E17BE016F5F7F4FCE0107960E94F115FC
:1030F000182FCE0101960E941D1789E692E0112338
:1031000009F466CF2B853C8547E050E0BE01695F3E
:103110007F4FCE0101960E94A116809106059091E5
:103120000705BE016F5F7F4F03960E94251700972A
:10313000C1F0DC01ED91FC910284F385E02D09954D
:1031400069E172E08BE594E00E94D0014D815E81DF
:1031500069817A818BE594E00E94F4018CE092E031
:10316000A2CF8AEF91E09FCF0E94620281110C945E
:10317000961708950E94B42B85ED8093BC00809132
:10318000570490915804A0915904B0915A0407969D
:10319000A11DB11D23E0B695A795979587952A9512
:1031A000D1F72091BC0024FD03C01092550408956E
:1031B00040915704509158046091590470915A04F9
:1031C000452B462B472B69F30097A105B10541F02C
:1031D00025E32A95F1F700000197A109B109E1CF94
:1031E000809156040C9420043F924F925F926F920C
:1031F0007F928F929F92AF92BF92CF92DF92EF9287
:10320000FF920F931F93CF93DF93CDB7DEB72B972A
:103210000FB6F894DEBF0FBECDBF7C01DC01159662
:103220008C91811115C0FE013196CE010C966F0173
:1032300030E23193E817F907E1F7DA0130E087E08F
:103240009D91B92E992329F19E3239F48A3011F4D7
:1032500080E0DAC038E08AE0F3CFE7E9F2E04491B9
:10326000442321F031969413FACFF2CF831780F3E1
:103270004FED490F4E3560F74FE9490F4A3118F4C9
:1032800040EEB42EB90EF601E30FF11DB0823F5FA0
:10329000D7CF89818032E1F2322E8B01FB01838D01
:1032A000948DD7015C969C938E935B9716821782C0
:1032B000108611861286138614861586F80182857B
:1032C0009385A485B5854389548965897689841752
:1032D0009507A607B70708F04DC025E0B695A79556
:1032E000979587952A95D1F7F82FFF70AF2ED801C3
:1032F00015968C91823008F4ABCFC8010E94E10F83
:1033000097FDA6CFF80182859385A485B5854F9654
:10331000A11DB11D82879387A487B587F0E2AF9E78
:10332000B001112465517E4F6115710509F490CFEC
:10333000DB018C91882341F0853E09F058C0BB2009
:1033400029F0BB24B394BACFB1100EC0F701A28A02
:103350008091000190910101A0910201B0910301BF
:1033600086879787A08BB18BDB018C918111E9CF88
:10337000BB24B394832D8271823109F069CFBB20C5
:1033800009F45AC0C7010E944909009709F460CFA7
:1033900020E2FC0111922A95E9F72BE0F601DC010D
:1033A00001900D922A95E1F721E238E2DC01519675
:1033B0003C932E93509740E058E01F965C934E93B9
:1033C0001E9753963C932E93529759963C932E9367
:1033D000589757965C934E93569781E00E94D40875
:1033E000882309F435CF432DF70162890AC04BE0E9
:1033F00050E0C6010E94B92B892B09F05FCF432D05
:103400006A2DC7010E94E2112B960FB6F894DEBF19
:103410000FBECDBFDF91CF911F910F91FF90EF9025
:10342000DF90CF90BF90AF909F908F907F906F90E4
:103430005F904F903F900895F8018581823009F4A4
:1034400007CFC8010E94D40B882309F401CFD8010B
:103450005B96ED91FC915C9716968D909D90AD904A
:10346000BC901997B2E08B1A9108A108B108858524
:1034700004C0880C991CAA1CBB1C8A95D2F78685AF
:103480009785A089B189880E991EAA1EBB1E8481CA
:1034900024013501480E511C611C711C84149504D3
:1034A000A604B70409F1E1E04E1A51086108710859
:1034B00081E00E94D408882309F4CACEEBEEF1E043
:1034C00011928BEE93E08E179F07D1F74092000187
:1034D00050920101609202017092030180918B0170
:1034E000816080938B01DACFD8015B96ED91FC91DE
:1034F000258580E092E0A0E0B0E004C0880F991F2D
:10350000AA1FBB1F2A95D2F7F80143895489658900
:103510007689840F951FA61FB71F838B948BA58B6D
:10352000B68BD70152961C928BEE91E031CF3F9231
:103530004F925F926F927F928F929F92AF92BF92C3
:10354000CF92DF92EF92FF920F931F93CF93DF936F
:10355000CDB7DEB7C754D1090FB6F894DEBF0FBEA2
:10356000CDBF6C015B012A0119A218A288E691E087
:103570009F8F8E8F1BA21C821B829A8389831E823F
:103580007B0110E000E03E018EE1680E711CF60147
:10359000E00FF11F80818F3211F40F5F1F4FD601B2
:1035A000A00FB11FFE01FB9690E080E04F012D912E
:1035B0002F3249F0222339F00F5F1F4F01962193DC
:1035C0008C309105A1F7880D991DFC011082F60140
:1035D000E00FF11F80818F3211F40F5F1F4FF60152
:1035E000E00FF11F308041E0311040E030E020E09A
:1035F000B401C701F2010995811121C0EA14FB044D
:10360000D1F480E0C95BDF4F0FB6F894DEBF0FBE88
:10361000CDBFDF91CF911F910F91FF90EF90DF9081
:10362000CF90BF90AF909F908F907F906F905F9062
:103630004F903F900895C7010E946C0DE2CF332058
:1036400081F021E0A401B701C3010E94F418982E73
:10365000EA14FB0471F0C7010E946C0D91100EC0BA
:10366000D0CFEA14FB0419F0C7010E946C0D81E071
:10367000C9CF882331F2FE0131967F019E2D8F2D17
:103680007301692E782E83CF1F93CF93DF93CDB72D
:10369000DEB76D970FB6F894DEBF0FBECDBFAB019E
:1036A0001C821B8228E631E03A8329831E8221E0B6
:1036B000BC01CE0101960E94F41811E081110CC0EA
:1036C00010E0812F6D960FB6F894DEBF0FBECDBF10
:1036D000DF91CF911F910895CE0101960E946C0D4C
:1036E000F0CFCF93DF93CDB7DEB76D970FB6F894D9
:1036F000DEBF0FBECDBF442399F1AB01BC011C82DC
:103700001B8288E691E09A8389831E8222E0CE01A3
:1037100001960E94F41881110EC090E081E0911191
:1037200001C080E06D960FB6F894DEBF0FBECDBF2E
:10373000DF91CF910895CE0101960E944F11882309
:1037400061F3CE0101960E944909009731F325EEFD
:10375000FC0120831E8281E00E94D408982FDECFD6
:1037600081E0E0CFEF92FF920F931F93CF93DF930F
:10377000EC017B018A011B821A8288EE93E0A0E0B3
:10378000B0E08C839D83AE83BF8382E391E0998315
:1037900088838DE190E00E94D2299A8F898F0097CB
:1037A00079F02DE1F701DC0101900D922A95E1F706
:1037B0004CE050E0B801CE010C960E94F82B188E18
:1037C000DF91CF911F910F91FF90EF900895CF92CD
:1037D000DF92EF92FF920F931F93CF93DF93CDB7BA
:1037E000DEB7A1970FB6F894DEBF0FBECDBF7C0148
:1037F0008B016E5F7F4F0E941417670186E0C80E31
:10380000D11CF8016085718582859385F701178247
:10381000168211861086138612868E010F5F1F4F47
:1038200022E044E00E9414240097E1F0FC010190A2
:103830000020E9F73197AF01481B590BBC01C601C5
:103840000E947616C701A1960FB6F894DEBF0FBE90
:10385000CDBFDF91CF911F910F91FF90EF90DF903F
:10386000CF900895C6010E946416ECCFCF92DF92EC
:10387000EF92FF9280E480937C0080917A008064D4
:1038800080937A0080917A0086FDFCCF8091780049
:1038900060917900762F682F072E000C880B990B0A
:1038A0000E94802620E030E040E85AE30E94DF26B4
:1038B0006B017C01AC019B0160E070E080E89FE35C
:1038C0000E94EE279B01AC01C701B6010E945B2854
:1038D00020E030EB4FE955E40E94DF2620E030E4A1
:1038E0004CE156E40E945B280E94092920E030EA5E
:1038F00046E555E40E945B282FE03FEC4BE55BE397
:103900000E94EF279B01AC0160E070E080E89FE33C
:103910000E945B2823E333E948E853E40E94EE2742
:10392000FF90EF90DF90CF9008951F920F920FB607
:103930000F9211242F933F934F935F936F937F9335
:103940008F939F93AF93BF93EF93FF938BE594E097
:103950000E946C02FF91EF91BF91AF919F918F9167
:103960007F916F915F914F913F912F910F900FBE7B
:103970000F901F9018951F920F920FB60F9211245F
:103980002F938F939F93EF93FF93E0916B04F091AC
:103990006C048081E0917104F091720482FD1BC07F
:1039A0009081809174048F5F8F73209175048217CA
:1039B00041F0E0917404F0E0E55AFB4F958F80935D
:1039C0007404FF91EF919F918F912F910F900FBEF3
:1039D0000F901F9018958081F4CF1F920F920FB611
:1039E0000F9211242F933F938F939F93AF93BF9385
:1039F0008091DD019091DE01A091DF01B091E001A5
:103A00003091DC0123E0230F2D3758F50196A11DDD
:103A1000B11D2093DC018093DD019093DE01A09322
:103A2000DF01B093E0018091E1019091E201A0916A
:103A3000E301B091E4010196A11DB11D8093E10164
:103A40009093E201A093E301B093E401BF91AF91A1
:103A50009F918F913F912F910F900FBE0F901F90CC
:103A6000189526E8230F0296A11DB11DD2CF1F92F3
:103A70000F920FB60F9211242F933F934F935F93A2
:103A80006F937F938F939F93AF93BF93EF93FF9326
:103A90008091B900887F803609F44AC0F0F58832F9
:103AA00009F4A7C018F5803109F49BC0B8F4882345
:103AB00009F4F9C0883009F494C0FF91EF91BF91E7
:103AC000AF919F918F917F916F915F914F913F91B6
:103AD0002F910F900FBE0F901F901895883109F409
:103AE00088C0803251F78093330414C0803409F4C5
:103AF0009DC040F48033B9F38833F9F680933304E2
:103B000085ECB0C0803509F485C0883509F496C0CD
:103B1000883499F60E94BC18D0CF883909F48CC03B
:103B200038F5883729F050F4883611F0803729F6B7
:103B300083E0809355041092DB0157C0883809F464
:103B40007BC0803919F0803809F0B7CF8091DB0154
:103B5000803208F071C0E091DB0181E08E0F80932C
:103B6000DB018091BB00F0E0E554FE4F80833DC057
:103B7000803B39F0E0F4803A09F479C0883A09F0E2
:103B80009CCF84E0809355041092B8011092B70145
:103B9000E091B501F091B60109958091B7018111CD
:103BA0000FC081E08093B7011092950109C0803C5D
:103BB00009F4A6CF883C09F4A3CF883B09F07DCF58
:103BC000E091B80181E08E0F8093B801F0E0EB56F0
:103BD000FE4F80818093BB009091B8018091B70126
:103BE00029C0809130048093BB0085EC8093BC0099
:103BF00064CF9091320480913104981758F5E09188
:103C0000320481E08E0F80933204F0E0E15FFB4FDD
:103C10008081E9CFE091320481E08E0F80933204FD
:103C20008091BB00F0E0E15FFB4F80839091320414
:103C3000809131049817C8F285E8D8CFE09132041A
:103C400081E08E0F809332048091BB00F0E0E15F51
:103C5000FB4F80838091340481115CCF81E080939D
:103C60002F0484EA8093BC001092550426CF85EC83
:103C70008093BC00109255048091DB01803230F4B7
:103C8000E091DB01F0E0E554FE4F10826091DB0132
:103C900070E0E091B901F091BA018BEB91E00995E8
:103CA0001092DB010ACF1092330434CF1F920F928F
:103CB0000FB60F9211242F933F934F935F936F93FF
:103CC0007F938F939F93AF93BF93EF93FF93E09175
:103CD000E801F091E9010995FF91EF91BF91AF9152
:103CE0009F918F917F916F915F914F913F912F9114
:103CF0000F900FBE0F901F9018958F929F92AF92CA
:103D0000BF92CF92DF92EF92FF920F931F93CF93C8
:103D1000DF93EC017093910160939001442309F4C7
:103D20006AC040E060E070E0CB010E94FF088111B2
:103D30000EC080E0DF91CF911F910F91FF90EF9027
:103D4000DF90CF90BF90AF909F908F90089580911B
:103D5000A9038F7771F78091B5039091B603A09175
:103D6000B703B091B80384369105A105B10508F3F6
:103D7000C090B103D090B203E090B303F090B403CD
:103D8000C114D104E104F104A1F240E0C701B6017D
:103D90000E94FF08882369F28091F6019091F70153
:103DA0008115924031F69091FB01992311F22091F7
:103DB000F9013091FA01232B09F4BBCF8091F8016E
:103DC000882309F4B6CF9A8B8C831D8690E041E05E
:103DD00050E02D85E22FBA01022E02C0660F771F38
:103DE0000A94E2F78617970751F031E0320F3D87CA
:103DF000283078F39ECFC12CD12C7601C6CF2091EC
:103E000001023091020250E040E02115310541F4F9
:103E100020910F0230911002409111025091120234
:103E20002D833E834F8358878091F9019091FA0149
:103E300046015701880E991EA11CB11C8B8A9C8AD1
:103E4000AD8ABE8A0091FC011091FD01198F088F87
:103E5000A091FB01B0E00E949D27DC01CB01880D01
:103E6000991DAA1DBB1D8A8F9B8FAC8FBD8F25E02E
:103E7000000F111F2A95E1F701501E4F012F112746
:103E80000695800F911FA11DB11D8E879F87A88B5E
:103E9000B98B0091FE011091FF0130E020E0011587
:103EA000110541F400910B0210910C0220910D02BA
:103EB00030910E02C81AD90AEA0AFB0AC00ED11EB6
:103EC000E21EF31E04C0F694E794D794C794EA95D3
:103ED000D2F7C986DA86EB86FC8685EFC8168FE0B6
:103EE000D806E104F10420F48CE08F8B81E022CF2E
:103EF00080E125EFC2162FEFD206E104F104A8F30A
:103F00008091170290911802A0911902B0911A02A3
:103F10008A8F9B8FAC8FBD8F80E2E7CF10925E04BB
:103F200010925D0488EE93E0A0E0B0E080935F041F
:103F300090936004A0936104B093620424E431E0A0
:103F400030935C0420935B0425EC30E030936804EC
:103F50002093670424EC30E030936A0420936904D2
:103F600020EC30E030936C0420936B0421EC30E0C3
:103F700030936E0420936D0422EC30E03093700493
:103F800020936F0426EC30E0309372042093710488
:103F900010927404109275041092760410927704B3
:103FA0001092FB041092FA048093FC049093FD0499
:103FB000A093FE04B093FF0486E591E09093F9048A
:103FC0008093F80480E58093040510920505109213
:103FD000130510921405109217051092190582E02E
:103FE00090E0A0E0B0E080931A0590931B05A093A9
:103FF0001C05B0931D051092310510923B051092DF
:104000003A0588E691E0909339058093380510923F
:104010003D0584E791E090935805809357051092F1
:104020005E0510925D0510925C0510925905EDE356
:10403000F3E081E08C3049F09491823009F49F5F85
:1040400021E0280F3196992301F180935A0581E0F0
:1040500080935B058DE095E09093600580935F050C
:104060008EE095E0909362058093610587E595E089
:10407000909309058093080510920A0588E095E061
:1040800090930705809306050895822FD3CFCF9391
:10409000DF93CDB7DEB7C658D1090FB6F894DEBFAF
:1040A0000FBECDBF789484B5826084BD84B5816035
:1040B00084BD85B5826085BD85B5816085BD8091F3
:1040C0006E00816080936E0010928100809181006B
:1040D0008260809381008091810081608093810063
:1040E000809180008160809380008091B100846025
:1040F0008093B1008091B00081608093B000809186
:104100007A00846080937A0080917A008260809344
:104110007A0080917A00816080937A0080917A00A1
:10412000806880937A001092C100E0916B04F09156
:104130006C0482E08083E0916704F091680410824F
:10414000E0916904F0916A0480E180831092730425
:10415000E0916F04F091700486E08083E0916D043B
:10416000F0916E04808180618083E0916D04F09114
:104170006E04808188608083E0916D04F0916E040C
:10418000808180688083E0916D04F0916E0480816D
:104190008F7D808380910A0510E000E081119AC034
:1041A00060E273E0CE01CB960E945E1781E190E061
:1041B0000E94D2298C01BE01655C7F4FCE014E96D4
:1041C0000E9414178EE091E0D8018D939D937D019C
:1041D000F80113821282158214821782168268E710
:1041E00071E0CD010E9497168AA19BA1099750F119
:1041F00028E030E050E040E0BE01625E7F4FCE013B
:1042000001960E94A1168E8D9F8D009709F48BC197
:1042100069817A816115710509F483C148A159A1A9
:104220002D813E814217530708F47BC10E94E32B86
:104230008D819E819BA38AA31E821D82CE01019641
:104240000E941D17BE01625E7F4FCE0101960E9443
:104250001417CD80DE80F4E0CF0ED11CB601CE0164
:1042600001960E943C16882309F46EC129813A8187
:104270008D819E8167EF72E0820F931F0E9432242E
:10428000DE82CD82BE016F5F7F4FC7010E94FD16A7
:10429000CE0101960E941D17CE014E960E941D1759
:1042A00080E291E0D80111969C938E9381E01C9658
:1042B0008C93CE01CB960E941D1780910A05E82FA2
:1042C000F0E0EE0FFF1FE85FFA4F148303838F5F68
:1042D00080930A058BE491E1F8019687858786E350
:1042E0009CE1908B87878091080590910905DC01FE
:1042F000ED91FC910190F081E02D099560910B0505
:1043000070910C0561157105C9F1E0910805F091F6
:104310000905028513856E5F7F4FCE0101960E94CD
:104320001417B801665D7F4F44E45BE189819A818F
:104330000E94971A182FCE0101960E941D17112373
:10434000E9F0E0910805F091090502851385609177
:104350000B0570910C056E5F7F4FCE0101960E9498
:104360001417B801665D7F4F41E75BE189819A814F
:104370000E94971ACE0101960E941D178CEF92E0C1
:104380000E94041380910B0590910C05009739F061
:10439000DC01ED91FC910280F381E02D099580E133
:1043A000809381001092800083E08093E70184ED88
:1043B00090E39093E6018093E501909387008093CA
:1043C000860083E18093810087E093E00E940413DC
:1043D00081E292E09093E9018093E80181E080938B
:1043E0006F008091E7018061809381008E01025E01
:1043F0001F4FE3E7F0E0EC0FFD1F3696CB57DF4F82
:10440000F983E883C558D0409E012F5F3F4F690173
:104410008CE3282E312C412C512C8091EA018823E9
:1044200009F447C180910B0590910C05009709F4A0
:104430003EC1DC01ED91FC910680F781E02D0995EC
:10444000882359F080910B0590910C05DC01ED91CA
:10445000FC910480F581E02D099580910B059091E8
:104460000C05009709F423C1DC01ED91FC91068055
:10447000F781E02D0995882309F419C1E091080519
:10448000F0910905CF57DF4FF983E883C158D04039
:1044900060910B0570910C05DB01ED91FC9104849A
:1044A000F585E02DCE018D589F4F0995CF57DF4FF1
:1044B000E881F981C158D04062857385E596AEAC3C
:1044C000BFACE59719A218A288E691E09F8F8E8F66
:1044D0001BA21C821B829A8389831E82645F7F4F8A
:1044E000C8010E94F00A75017C2C6D2C48016FE216
:1044F00070E0C7010E94CF2BD701009709F488C054
:104500002C912F3231F5BFEFEB1AFB0AC301782C47
:10451000692C892E982E982D892D872C962C3C015C
:10452000E6CF0E946E2A89819A819F8F8E8F8B8120
:104530009C8199A388A38D819E819BA38AA31A82C3
:1045400019821C821B8278CECE0101960E946416CD
:1045500099CE8E198D3008F08CE0E82FF0E0C1582C
:10456000DF4FF983E883CF57D040AF01B701CE01C9
:10457000885A9F4F0E94F82BE8E5F0E0EC0FFD1FF2
:10458000C158DF4F28813981CF57D040E20FF31F48
:104590001082872D962D0E946C0D21E0AE01485AA5
:1045A0005F4FB401872D962D0E94F418811124C00D
:1045B0001EAE1DAE88E691E09CAF8BAF21961FAE7C
:1045C0002197CD57DF4FE881F981C358D040AE0E17
:1045D000BF1ED5018C91811129C0BE01655C7F4F42
:1045E000C6010E94250F45E851E0B601CE01885A68
:1045F0009F4F0E94B21B41C0C158DF4F88819981F3
:10460000CF57D040E80EF91EC4010E946C0D83CF35
:10461000AA19BB09CD57DF4FB983A883C358D0402F
:10462000B401CE01CB960E94250FCBCF19A218A2C0
:1046300088E691E09F8F8E8F1BA221968FAD2197E8
:1046400081113FC06C961FAE1EAE6C9788EE93E052
:10465000A0E0B0E0A0968CAF9DAFAEAFBFAFA0978B
:1046600082E391E06A969FAF8EAF6A97E3961FAEA2
:104670001EAEE397A5961FAEA597E396EEADFFADF0
:10468000E397309719F08581811137C08EE293E06E
:104690000E940413CB57DF4F88819981C558D040C1
:1046A0000E941D17CE018D589F4F0E941D1710921A
:1046B000EA010E946202882309F4AFCE0E94961795
:1046C000A3CE27E1A501BE01655C7F4FC8010E9412
:1046D000F418882309F4B6CFCE01CB960E946C0D56
:1046E00049A95AA96BA97CA9C8010E94400BB8012D
:1046F000C6010E94250FA50178CFC6010E944E1267
:10470000C6010E948B064B015C01CF57DF4F8881A9
:104710009981C158D04002960E948B06861A970A4A
:10472000A80AB90AC501B40120E831E541E050E02A
:104730000E94AD29BA01A901CE01885A9F4F0E945B
:10474000E3146CE273E0CE01885A9F4F0E94D001BF
:10475000C501B40120E13EE040E050E00E94AD29F7
:10476000CA01B90128E130E040E050E00E94AD29E3
:10477000AB01BC01CE01885A9F4F0E94E3146AE24C
:1047800073E0CE01885A9F4F0E94D001C501B40149
:10479000A20191010E94AD294B015C01CA01B9013E
:1047A000A20191010E94AD29AB01BC01CE01885A42
:1047B0009F4F0E94E31468E273E0CE01885A9F4F36
:1047C0000E94D001B501A401CE01885A9F4F0E94DA
:1047D000E31466E273E0CE01885A9F4F0E94D00135
:1047E000EF964EAD5FADEF97EB966EAD7FADEB976D
:1047F000CE01885A9F4F0E94AE0F66E771E0CE014E
:10480000885A9F4F0E94F512E3968EAD9FADE397B5
:10481000009709F43FCF0E946C0DE3968EAD9FADDB
:10482000E3970E946E2A36CFEF920F931F93CF9398
:10483000DF93E80134E047FD34E1042E000C550B12
:1048400057FF03C0519541955109E32E022F242FA4
:10485000AE010E944224CE01DF91CF911F910F91B2
:10486000EF900895FB01DC0105900D920020E1F727
:104870000895FC0105900020E9F7809590958E0F32
:104880009F1F0895A9E0B0E0E8E4F4E20C94AE279D
:104890006A01F22EB02E102FFBE3AF2EA01608F403
:1048A0001BE31F5F012F27E0AE014F5F5F4F0E94A8
:1048B000A125BC018981982F9970913009F43FC0DE
:1048C0009BE2E1FC04C09E2D9170E0FC3AC05E2D9D
:1048D0005071E82FE87083FF46C084E0911101C059
:1048E00083E0EF2DE81B8F1508F0E0E0D6018E2F56
:1048F00020E2552351F1992329F0D6019C93C6015A
:1049000001966C0196012D5F3F4FE2FE24C08EE4BC
:10491000D6018C9391E411969C93119712968C93E7
:10492000D9018E2F90E281111BC0E20FF32FF11DF0
:1049300010828EEF9FEF2996ECE00C94CA279DE23F
:10494000C6CF90E2C4CF2D9381508111FCCFCE0E03
:10495000D11CE0E0D0CF8EE6D6018C9391E6DBCF80
:104960009D938150E0CF482F447082FF3DC084E08A
:10497000911101C083E08F1510F4EF2DE81BD601D3
:104980008E2F20E2552309F1992329F0D6019C931B
:10499000C60101966C0196012D5F3F4FE2FE1BC0E0
:1049A00089E4D6018C938EE411968C93119786E45A
:1049B00012968C93D9018E2F90E2882309F4B5CFFB
:1049C0009D938150FACF2D9381508111FCCFCE0E53
:1049D000D11CE0E0D9CF89E6D6018C938EE6119602
:1049E0008C93119786E6E4CF9B0177FF02C030E0FD
:1049F00020E0A1E0B0E0911102C0B0E0A0E0F90138
:104A00003196AE0FBF1F8B2C912CBB2009F461C0D7
:104A10005401EFEFAE1ABE0AAA0DBB1DFA161B0613
:104A200019F014F04F2D4A1B511188C0E3FC59C0F6
:104A30007601A42FB0E2A1114FC0C40ED11C99235E
:104A400009F45BC040E0D6011196F60190836D0138
:104A5000552309F448C0012F060F9A81582F507131
:104A600084FF03C0913309F4015010160CF047C0C5
:104A7000093008F008E0EEE2FE2E5B01A01AB10852
:104A800085019194819491082F3F320729F4D60132
:104A9000FC92F60131966F016217730794F10217C9
:104AA00013077CF5DB01A21BB30BAA24A394B12C42
:104AB000AC0EBD1EAA0DBB1D11968C912150310963
:104AC000D601119628153905F4F0F60180836D01A1
:104AD000DBCFB12CA12CA0CFF701B1937F01A15066
:104AE000AACF9111B0CFD601942F50E302C05D93AD
:104AF00091509111FCCFC40ED11C40E0ACCF01E02D
:104B0000BACF80E3DBCF6217730731F4963388F4B2
:104B1000953311F4552369F0F6018083FD01842F4C
:104B200090E2811108C0A40FB11D1C9290E080E0BA
:104B300002CF81E3F1CF91938150F3CF911183CFD5
:104B40008ACF283008F027E03327DA01990F311D8A
:104B500087FD916000966105710539F432602E5F22
:104B60003D9330E32A95E1F708959F3F30F0803878
:104B70007105610509F03C5F3C5F3D93913008F0A1
:104B80008068911DDF93CF931F930F93FF92EF9255
:104B9000192F987F9695E92F96959695E90FFF27FF
:104BA000E45EFE4F99273327EE24FF24A701E70197
:104BB00005900894079428F4360FE71EF81E491F45
:104BC000511D660F771F881F991F0694A1F7059046
:104BD000079428F4E70EF81E491F561FC11D770FD2
:104BE000881F991F661F0694A1F70590079428F463
:104BF000F80E491F561FC71FD11D880F991F661F2A
:104C0000771F0694A1F70590079420F4490F561FCB
:104C1000C71FD81F990F661F771F881F0694A9F713
:104C200084911095177041F0D695C7955795479583
:104C3000F794E7941A95C1F7E2ECF0E068941590C8
:104C4000159135916591959105907FE27395E118E5
:104C5000F10A430B560BC90BD009C0F7E10CF11E4A
:104C6000431F561FC91FD01D7EF4703311F48A955F
:104C7000E6CFE894015030F0080F0AF4002702173D
:104C800008F4202F2395022F7A3328F079E37D93BF
:104C90002A95E9F710C07D932A9589F60694979591
:104CA0006795379517951794E118F10A430B560B42
:104CB000C90BD00998F023957E9173957A3308F04B
:104CC00070E37C932013B8F77E9170617D9330F090
:104CD000839571E37D9370E32A95E1F71124EF90BA
:104CE000FF900F911F91CF91DF91992787FD9095AC
:104CF00008950E94BB2608F481E00895E89409C055
:104D000097FB3EF490958095709561957F4F8F4FFE
:104D10009F4F9923A9F0F92F96E9BB279395F69514
:104D2000879577956795B795F111F8CFFAF4BB0F92
:104D300011F460FF1BC06F5F7F4F8F4F9F4F16C0F6
:104D4000882311F096E911C0772321F09EE8872F80
:104D5000762F05C0662371F096E8862F70E060E03C
:104D60002AF09A95660F771F881FDAF7880F9695B5
:104D7000879597F90895990F0008550FAA0BE0E859
:104D8000FEEF16161706E807F907C0F0121613060D
:104D9000E407F50798F0621B730B840B950B39F44D
:104DA0000A2661F0232B242B252B21F408950A26B3
:104DB00009F4A140A6958FEF811D811D08950E94E1
:104DC000F2260C9463270E94552738F00E945C2736
:104DD00020F0952311F00C944C270C9452271124A9
:104DE0000C9497270E94742770F3959FC1F3950F39
:104DF00050E0551F629FF001729FBB27F00DB11D5F
:104E0000639FAA27F00DB11DAA1F649F6627B00DEE
:104E1000A11D661F829F2227B00DA11D621F739FD7
:104E2000B00DA11D621F839FA00D611D221F749FE5
:104E30003327A00D611D231F849F600D211D822F2C
:104E4000762F6A2F11249F5750409AF0F1F0882353
:104E50004AF0EE0FFF1FBB1F661F771F881F915080
:104E60005040A9F79E3F510580F00C944C270C94BC
:104E700097275F3FE4F3983ED4F38695779567953F
:104E8000B795F795E7959F5FC1F7FE2B880F911DAA
:104E90009695879597F9089597F99F6780E870E050
:104EA00060E008959FEF80EC089500240A941616A0
:104EB000170618060906089500240A941216130608
:104EC000140605060895092E0394000C11F4882396
:104ED00052F0BB0F40F4BF2B11F460FF04C06F5FB2
:104EE0007F4F8F4F9F4F089557FD9058440F551F88
:104EF00059F05F3F71F04795880F97FB991F61F05C
:104F00009F3F79F087950895121613061406551FD2
:104F1000F2CF4695F1DF08C0161617061806991F3E
:104F2000F1CF86957105610508940895E894BB2733
:104F300066277727CB0197F908950E94DF27A59F61
:104F4000900DB49F900DA49F800D911D1124089584
:104F50002F923F924F925F926F927F928F929F9289
:104F6000AF92BF92CF92DF92EF92FF920F931F9377
:104F7000CF93DF93CDB7DEB7CA1BDB0B0FB6F89428
:104F8000DEBF0FBECDBF09942A88398848885F8468
:104F90006E847D848C849B84AA84B984C884DF80D9
:104FA000EE80FD800C811B81AA81B981CE0FD11DBD
:104FB0000FB6F894DEBF0FBECDBFED010895A29FDE
:104FC000B001B39FC001A39F700D811D1124911DDD
:104FD000B29F700D811D1124911D08955058BB275B
:104FE000AA270E9406280C9463270E94552738F0B0
:104FF0000E945C2720F039F49F3F19F426F40C94AA
:1050000052270EF4E095E7FB0C944C27E92F0E9401
:10501000742758F3BA17620773078407950720F0BF
:1050200079F4A6F50C9496270EF4E0950B2EBA2F82
:10503000A02D0B01B90190010C01CA01A00111249E
:10504000FF27591B99F0593F50F4503E68F11A164A
:10505000F040A22F232F342F4427585FF3CF4695DB
:1050600037952795A795F0405395C9F77EF41F16FD
:10507000BA0B620B730B840BBAF09150A1F0FF0FC7
:10508000BB1F661F771F881FC2F70EC0BA0F621FB3
:10509000731F841F48F4879577956795B795F795A3
:1050A0009E3F08F0B0CF9395880F08F09927EE0F38
:1050B0009795879508950E946F280C9463270E9406
:1050C0005C2758F00E94552740F029F45F3F29F0F3
:1050D0000C944C2751110C9497270C9452270E9442
:1050E000742768F39923B1F3552391F3951B550B5E
:1050F000BB27AA2762177307840738F09F5F5F4FAB
:10510000220F331F441FAA1FA9F335D00E2E3AF0E9
:10511000E0E832D091505040E695001CCAF72BD001
:10512000FE2F29D0660F771F881FBB1F2617370752
:105130004807AB07B0E809F0BB0B802DBF01FF2784
:1051400093585F4F3AF09E3F510578F00C944C27EE
:105150000C9497275F3FE4F3983ED4F386957795B8
:105160006795B795F7959F5FC9F7880F911D96953D
:10517000879597F90895E1E0660F771F881FBB1F99
:10518000621773078407BA0720F0621B730B840B46
:10519000BA0BEE1F88F7E09508950E947C2788F0EF
:1051A0009F5798F0B92F9927B751B0F0E1F0660FEB
:1051B000771F881F991F1AF0BA95C9F714C0B1302C
:1051C00091F00E949627B1E008950C949627672FDE
:1051D000782F8827B85F39F0B93FCCF3869577955B
:1051E0006795B395D9F73EF4909580957095619544
:1051F0007F4F8F4F9F4F08950E94BB2608F48FEF7B
:10520000089516F00C9456290C94522768940C9427
:105210004C270E947C27A8F39923C1F3AEF3DF93B8
:10522000CF931F930F93FF92C92FDD2788232AF076
:105230002197660F771F881FDAF720E030E040E8FB
:105240005FEB9FE3883920F0803E38F021968F771E
:105250000E94EF27E8E6F0E004C00E94EF27E5E9AE
:10526000F0E00E9464298B01BE01EC01FB2E6F5718
:1052700071097595771F880B990B0E94802628E18C
:1052800032E741E35FE30E94F226AF2D9801AE01C1
:10529000FF900F911F91CF91DF910E9406280C94EF
:1052A00063270E94BB26880B990B08959F3F31F01E
:1052B000915020F4879577956795B795880F911D44
:1052C0009695879597F90895DF93CF931F930F9342
:1052D000FF92EF92DF927B018C01689406C0DA2E78
:1052E000EF010E94F226FE01E894A59125913591E7
:1052F00045915591A6F3EF010E940628FE01970102
:10530000A801DA9469F7DF90EF90FF900F911F9159
:10531000CF91DF910895A1E21A2EAA1BBB1BFD01BC
:105320000DC0AA1FBB1FEE1FFF1FA217B307E40784
:10533000F50720F0A21BB30BE40BF50B661F771FDC
:10534000881F991F1A9469F76095709580959095BC
:105350009B01AC01BD01CF010895052E97FB1EF402
:1053600000940E94C42957FD07D00E948B2907FC96
:1053700003D04EF40C94C429509540953095219556
:105380003F4F4F4F5F4F0895909580957095619571
:105390007F4F8F4F9F4F0895EE0FFF1F0590F491A1
:1053A000E02D09940F931F93CF93DF9382309105E3
:1053B00010F482E090E0E0916505F091660530E040
:1053C00020E0B0E0A0E0309799F42115310509F410
:1053D0004AC0281B390B24303105D8F58A819B81BE
:1053E0006115710589F1FB0193838283FE0111C070
:1053F000408151810281138148175907E0F0481715
:10540000590799F4109761F012960C93129713961E
:105410001C933296CF01DF91CF911F910F91089588
:105420000093650510936605F4CF2115310551F001
:105430004217530738F0A901DB019A01BD01DF01D2
:10544000F801C1CFEF01F9CF909366058093650510
:10545000CDCFFE01E20FF31F8193919322503109CA
:1054600039832883D7CF2091630530916405232B9E
:1054700041F4209106013091070130936405209397
:10548000630520910401309105012115310541F496
:105490002DB73EB74091080150910901241B350BEF
:1054A000E0916305F0916405E217F307A0F42E1B69
:1054B0003F0B2817390778F0AC014E5F5F4F241778
:1054C000350748F04E0F5F1F509364054093630506
:1054D000819391939FCFF0E0E0E09CCFCF93DF9357
:1054E0000097E9F0FC01329713821282A0916505C2
:1054F000B0916605ED0130E020E01097A1F4208125
:105500003181820F931F2091630530916405281724
:10551000390709F061C0F0936405E0936305DF91FA
:10552000CF910895EA01CE17DF07E8F54A815B8144
:105530009E0141155105B1F7E901FB83EA834991C9
:105540005991C40FD51FEC17FD0761F4808191813B
:105550000296840F951FE901998388838281938144
:105560009B838A83F0E0E0E012968D919C911397E3
:105570000097B9F52D913C911197CD010296820FBC
:10558000931F20916305309164052817390739F678
:10559000309751F51092660510926505B093640539
:1055A000A0936305BCCFD383C28340815181840F14
:1055B000951FC817D90761F44E5F5F4F88819981A5
:1055C000480F591F518340838A819B819383828333
:1055D0002115310509F0B0CFF0936605E09365051C
:1055E0009ECFFD01DC01C0CF13821282D7CFB0E085
:1055F000A0E0EDEFFAE20C94AA278C01009751F499
:10560000CB010E94D2298C01C801CDB7DEB7E0E101
:105610000C94C627FC01E60FF71F9C0122503109AC
:10562000E217F30708F49DC0D901CD91DC911197E1
:10563000C617D70798F0C530D10530F3CE010497CF
:105640008617970708F3C61BD70B2297C193D193F0
:105650006D937C93CF010E946E2AD6CF5B01AC1A6A
:10566000BD0A4C018C0E9D1EA0916505B09166058A
:10567000512C412CF12CE12C109731F580916305D0
:10568000909164058815990509F05CC04616570687
:1056900008F058C08091040190910501009741F4F1
:1056A0008DB79EB74091080150910901841B950B5D
:1056B000E817F90708F055C0F0936405E093630517
:1056C000F90171836083A0CF8D919C9111971296FF
:1056D0006C90129713967C901397A815B90559F5FD
:1056E0006C0142E0C40ED11CCA14DB0420F1AC01F1
:1056F0004A195B09DA011296159780F0628273826B
:1057000051834083D9016D937C93E114F10471F0CE
:10571000D7011396FC93EE93129776CF22968C0FB7
:105720009D1FF90191838083F301EFCFF09366050C
:10573000E093650569CF4816590608F42C017D01F0
:10574000D3019ACFCB010E94D2297C01009749F066
:10575000AE01B8010E94C62BC8010E946E2A8701C3
:1057600053CF10E000E050CF81E090E0F8940C942B
:10577000072CFB01DC0104C08D910190801921F4FC
:1057800041505040C8F7881B990B0895FB01DC017C
:1057900002C001900D9241505040D8F70895FC018D
:1057A0008191861721F08823D9F799270895319799
:1057B000CF010895FB01DC018D910190801901104A
:1057C000D9F3990B0895FB01DC0101900D920020A3
:1057D000E1F70895FB01DC014150504030F08D911C
:1057E0000190801919F40020B9F7881B990B0895CE
:1057F000FB01DC014150504048F001900D92002027
:10580000C9F701C01D9241505040E0F70895F89447
:02581000FFCFC8
:10581200FFFFFFFF00006705800000000000BA18CC
:10582200BA18BA18BA18BA18BA18BA18000000008A
:10583200151546113911361132112F11E71B0000CF
:105842000000CB0FAE0F9E0F750F7E0F01110B11D3
:10585200000000008E02F4012502DB02560234022F
:1058620048020000000059062C068806020625069A
:105872001206030600000000140FF4010E0DCF0102
:105882000000000017130D0A006E616E00696E665B
:08589200006F7666002F000094
:107E0000112484B714BE81FFF0D085E080938100F7
:107E100082E08093C00088E18093C10086E0809377
:107E2000C20080E18093C4008EE0C9D0259A86E02C
:107E300020E33CEF91E0309385002093840096BBD3
:107E4000B09BFECF1D9AA8958150A9F7CC24DD24C4
:107E500088248394B5E0AB2EA1E19A2EF3E0BF2EE7
:107E6000A2D0813461F49FD0082FAFD0023811F036
:107E7000013811F484E001C083E08DD089C08234E0
:107E800011F484E103C0853419F485E0A6D080C0E4
:107E9000853579F488D0E82EFF2485D0082F10E0AE
:107EA000102F00270E291F29000F111F8ED06801E7
:107EB0006FC0863521F484E090D080E0DECF843638
:107EC00009F040C070D06FD0082F6DD080E0C81688
:107ED00080E7D80618F4F601B7BEE895C0E0D1E017
:107EE00062D089930C17E1F7F0E0CF16F0E7DF06D8
:107EF00018F0F601B7BEE89568D007B600FCFDCFD4
:107F0000A601A0E0B1E02C9130E011968C91119780
:107F100090E0982F8827822B932B1296FA010C0160
:107F200087BEE89511244E5F5F4FF1E0A038BF0790
:107F300051F7F601A7BEE89507B600FCFDCF97BE46
:107F4000E89526C08437B1F42ED02DD0F82E2BD052
:107F50003CD0F601EF2C8F010F5F1F4F84911BD097
:107F6000EA94F801C1F70894C11CD11CFA94CF0C13
:107F7000D11C0EC0853739F428D08EE10CD085E9AC
:107F80000AD08FE07ACF813511F488E018D01DD067
:107F900080E101D065CF982F8091C00085FFFCCF94
:107FA0009093C60008958091C00087FFFCCF809118
:107FB000C00084FD01C0A8958091C6000895E0E648
:107FC000F0E098E1908380830895EDDF803219F02E
:107FD00088E0F5DFFFCF84E1DECF1F93182FE3DFCA
:107FE0001150E9F7F2DF1F91089580E0E8DFEE27F6
:047FF000FF270994CA
:027FFE00040479
:0400000300007E007B
:00000001FF